:020000040800F2
:10000000C006002049010008613100086331000882
:10001000673100086B3100086F31000800000000F4
:100020000000000000000000000000007331000824
:1000300075310008000000007731000879310008B0
:100040006301000863010008630100086301000800
:1000500063010008630100086301000863010008F0
:1000600063010008630100086301000863010008E0
:1000700063010008630100086301000863010008D0
:1000800063010008630100086301000863010008C0
:1000900063010008630100086301000863010008B0
:1000A00063010008630100086301000863010008A0
:1000B000493E000863010008773E0008630100081C
:1000C0006301000863010008630100086301000880
:1000D00063010008C93C0008793300086301000887
:1000E0006301000863010008630100086301000860
:1000F0006301000863010008630100086301000850
:10010000630100086301000863010008630100083F
:10011000630100086301000863010008630100082F
:10012000630100086301000863010008630100081F
:10013000DFF810D006F0CAF900480047F72F000892
:10014000AFF30080C00600200648804706480047FD
:10015000FEE7FEE7FEE7FEE7FEE7FEE7FEE7FEE777
:10016000FEE7FEE74B020008310100080CB5002055
:10017000019000906C48006840F480306A49086043
:1001800000BF6948006800F4003000900198401CEE
:100190000190009818B90198B0F5A06FF1D16248AC
:1001A000006800F4003010B10120009001E0002050
:1001B00000900098012843D15C48006840F010008E
:1001C0005A4908600846006820F0030008600846A5
:1001D000006840F002000860534840685249486097
:1001E0000846406848600846406840F480604860BF
:1001F0000846406820F47C1048600846406840F497
:10020000E81048600846006840F08070086000BF51
:100210004548006800F000700028F9D04248406866
:1002200020F00300404948600846406840F0020062
:10023000486000BF3C48406800F00C000828F9D135
:100240000CBD10B5FFF792FF10BD10B53648006821
:1002500040F00100344908600846406834490840CD
:100260003149486008460068324908402E49086014
:100270000846006820F4802008600846406820F4A2
:10028000FE0048604FF41F008860FFF7DAFF4FF070
:1002900000602949086010BD10B50021002000222F
:1002A000214B5B6803F00C0121B1042906D0082919
:1002B00028D107E0214B224C236027E01F4B204C24
:1002C000236023E0184B5B6803F47010164B5B68E7
:1002D00003F48032022303EB904022B9194B4343CD
:1002E000174C23600DE0104B5B6803F4003323B11F
:1002F000144B4343124C236003E0104B4343104C18
:10030000236003E00D4B0E4C236000BF00BF064B83
:100310005B68C3F303130C4CE15C094B1B68CB40D7
:10032000074C236010BD0000001002400020024076
:100330000000FFF8FFFFF6FE08ED00E000127A0073
:100340000000002000093D00040000203549014361
:10035000354A11607047012080F3108800BF314892
:10036000001D31490860704770B5002100230F223D
:10037000C47804B32C4C246804F4E064C4F5E0644D
:10038000210AC1F10403CA40447804FA03F18478D5
:10039000144021430901254C0678A155047804F046
:1003A0001F050124AC4005786D11AD0005F1E02575
:1003B000C5F8004109E0047804F01F050124AC40B1
:1003C0001B4D0678761145F8264070BD194A0A4043
:1003D0000243154B1B1F1A60704739B1124A121D98
:1003E00012680243104B1B1D1A6006E00E4A121DD4
:1003F000126882430C4B1B1D1A607047042808D1F9
:100400004FF0E021096941F004014FF0E022116151
:1004100007E04FF0E021096921F004014FF0E022EC
:10042000116170470000FA050CED00E000E400E007
:1004300080E100E080FFFF1F10B50446CC488442F5
:1004400008D10121042000F02DFB0021042000F040
:1004500029FB46E0C748844208D10121082000F06A
:1004600021FB0021082000F01DFB3AE0C248844235
:1004700008D10121102000F015FB0021102000F010
:1004800011FB2EE0BD48844208D10121202000F05C
:1004900009FB0021202000F005FB22E0B84884423F
:1004A00008D10121402000F0FDFA0021402000F099
:1004B000F9FA16E0B348844208D10121802000F007
:1004C000F1FA0021802000F0EDFA0AE0AE48844203
:1004D00007D10121801500F0E5FA0021A01500F0F8
:1004E000E1FA10BD10B50121084600F0DBFA002149
:1004F000012000F0D7FA10BD2DE9F0410246002599
:100500000026002000230024002791F803C00CF0EF
:100510000F0591F803C00CF0100CBCF1000F03D0D4
:1005200091F802C04CEA050591F800C0BCF1000F3B
:1005300031D0146800202BE04FF0010C0CFA00F3CE
:10054000B1F800C00CEA03069E4220D183004FF0B0
:100550000F0C0CFA03F7BC4305FA03FC4CEA040445
:1005600091F803C0BCF1280F06D14FF0010C0CFA32
:1005700000FCC2F814C00AE091F803C0BCF1480FB7
:1005800005D14FF0010C0CFA00FCC2F810C0401C61
:100590000828D1D31460B1F800C0BCF1FF0F34DDDE
:1005A000546800202EE000F1080C4FF0010808FA12
:1005B0000CF3B1F800C00CEA03069E4221D183007F
:1005C0004FF00F0C0CFA03F7BC4305FA03FC4CEA9E
:1005D000040491F803C0BCF1280F05D100F1080C08
:1005E00008FA0CF8C2F8148091F803C0BCF1480F67
:1005F00007D100F1080C4FF0010808FA0CF8C2F816
:100600001080401C0828CED35460BDE8F0814FF61E
:10061000FF710180022181700421C1707047024680
:10062000002093680B400BB1012000E000207047D0
:100630000146886880B2704702460020D3680B40AC
:100640000BB1012000E0002070470146C86880B26D
:10065000704701617047416170470AB1016100E074
:1006600041617047C16070474FF480320A43826134
:100670008161826182698269704702460020434B32
:1006800018684FF68073184040EA021008433F4B49
:10069000186070473E49C8617047F0B50A460023AC
:1006A00000240021002500F00046B6F1004F02D1E1
:1006B000364EF16901E0354E7168C0F3034583B2EF
:1006C00000F44016B6F5401F08D121F070612F4E9E
:1006D000766826F070662D4F7E6012E000F480167A
:1006E000B6F5801F06D1032606FA05F4A14341F0B2
:1006F000706106E0460D360103FA06F6B14341F09B
:10070000706122B1460D360103FA06F6314300F05E
:100710000046B6F1004F02D11C4EF16101E01B4EC4
:100720007160F0BD30B500228B071C0F0F2303FA58
:1007300004F2164B08338C1053F824309343134CB7
:1007400008348D1044F8253023468C1053F824309B
:100750008C07240F00FA04F423430C4C08348D104A
:1007600044F8253030BD0A49DC310860704700008C
:1007700000080140000C014000100140001401403D
:1007800000180140001C0140002001400000014011
:1007900000002042DF48006840F00100DD490860A9
:1007A00008464068DC490840DA4948600846006865
:1007B000DA490840D74908600846006820F48020DC
:1007C00008600846406820F4FE0048604FF41F00AF
:1007D00088607047CF49096821F48031CD4A1160A3
:1007E0001146096821F480211160B0F5803F03D0E3
:1007F000B0F5802F0ED106E0C649096841F480317A
:10080000C44A116007E0C349096841F4A021C14A04
:10081000116000E000BF00BF704710B50146002224
:10082000002300204A11012A02D1BA4C236806E0B5
:10083000022A02D1B74C236A01E0B64C636A01F088
:100840001F02012494401C400CB1012000E0002054
:1008500010BD38B5002000900024002500BF3120D5
:10086000FFF7DBFF05460098401C00900098B0F5AC
:10087000A06F01D0002DF2D03120FFF7CEFF08B1DC
:10088000012400E00024204638BD01460020A14A92
:10089000106820F0F80040EAC10010607047A049DD
:1008A00008607047024600209A4B586820F47C107C
:1008B00042EA01031843974B58607047984908660D
:1008C000704701460020934A506820F00300084317
:1008D000506070478F48406800F00C007047014638
:1008E00000208C4A506820F0F000084350607047A8
:1008F00001460020874A506820F4E06008435060B9
:10090000704701460020834A506820F4605040EA56
:10091000C1005060704729B17E4A527A02437D4B34
:100920005A7204E07B4A527A82437A4B5A72704779
:100930007B49D8310860704701460020754A5068ED
:1009400020F440400843506070470021714A203233
:100950001170704A82F82010012802D004280AD1B0
:1009600004E001216B4A2032117005E00521694A3B
:100970002032117000E000BF00BF70476949086075
:1009800070476449096A0143624A116270476549C8
:1009900044390860704730B500210022002400234C
:1009A0005C4D6D6805F00C0121B1042905D00829C2
:1009B00023D105E05C4D056022E05B4D05601FE042
:1009C000544D6D6805F47012524D6D6805F4803415
:1009D000022505EB92421CB9544D554305600BE0CE
:1009E0004C4D6D6805F400351DB1504D5543056003
:1009F00002E04D4D5543056002E04B4D056000BFE0
:100A000000BF444D6D6805F0F0010909484D6B5C6D
:100A10000568DD4045603F4D6D6805F4E061090AF9
:100A2000434D6B5C4568DD4085603A4D6D6805F46B
:100A30006051C90A3E4D6B5C4568DD40C560354D6F
:100A40006D6805F44041890B3A4D6B5CC568B5FB98
:100A5000F3F5056130BD29B12E4A526902432D4B91
:100A60005A6104E02B4A526982432A4B5A6170470B
:100A700029B1284A92690243264B9A6104E0254A2B
:100A800092698243234B9A61704729B1214AD26906
:100A90000243204BDA6104E01E4AD26982431D4BB7
:100AA000DA61704729B11B4AD2680243194BDA60F8
:100AB00004E0184AD2688243164BDA60704729B1C5
:100AC000144A12690243134B1A6104E0114A126975
:100AD0008243104B1A6170471249403908607047D1
:100AE0000F49C86470470B49C87170470948406A8C
:100AF00040F0807007494862704701460020054A6F
:100B000092680A400AB1012000E0002070470149C4
:100B100088727047001002400000FFF8FFFFF6FEE9
:100B2000000042428004424200127A0000093D0067
:100B3000140000202400002010B50446BE48844262
:100B400008D101218014FFF7ADFF0021A014FFF7A9
:100B5000A9FF16E0B948844208D101210014FFF72B
:100B6000AEFF00212014FFF7AAFF0AE0B448844238
:100B700007D10121C013FFF7A2FF0021E013FFF707
:100B80009EFF10BD10B50022028802F441520B886E
:100B90004C8823438C882343CC8823430C892343EC
:100BA0004C8923438C892343CC8923431A430280F5
:100BB000838B4FF2FF74234083830B8A038210BD23
:100BC0002DE9F04F85B005460C464FF0000902278D
:100BD0004FF000084FF0010B0026B246A88B4FF2F1
:100BE00040010840A88302202884B5F81C90A06822
:100BF000022801D100BF38E0A08810B94FF0010BE6
:100C000001E04FF0020B8D48854200D100E000BFAB
:100C10006846FFF7C0FEDDF800A0E088B0F5007F71
:100C20000AD14FEA1A2000EB80004000A168B0FB17
:100C3000F1F0401D86B20BE04FEA4B10BAFBF0F02A
:100C400000EB80004000A168B0FBF1F0401D86B2CF
:100C50000A20B6FBF0F606F00108A6EB0800C0F388
:100C60004F074FF6FF7000EA0828022F01DBFF2F25
:100C700002DD02274FF00008E08840EA0800384310
:100C80002884A088A18908436188084321880843F3
:100C900040F4006040EA0909A5F81C9005B0BDE8E1
:100CA000F08F0021018041808180C18001814181DC
:100CB0008181C1810721018270470021018041802B
:100CC0008180C1800221816000218181704721B132
:100CD000028842F04002028004E002884FF6BF73AF
:100CE0001A400280704721B1828B42F48062828375
:100CF00004E0828B4FF6FF331A408283704730B591
:100D0000002400230C110125A540ABB21AB185883F
:100D10001D43858002E085889D43858030BD1AB1E2
:100D200083880B43838002E083888B4383807047F2
:100D3000818170470146888970474FF6FF62914272
:100D400004D0028842F48072028004E002884FF6E8
:100D5000FF631A400280704721B1828842F004028A
:100D6000828004E082884FF6FB731A4082807047CD
:100D700002884FF2FF731A40028002880A43028001
:100D80007047018841F480510180704721B1028889
:100D900042F40052028004E002884DF6FF731A40CC
:100DA0000280704702460020012901D0108B00E02C
:100DB000908A70470146088A7047B1F5804F04D188
:100DC000028842F48042028004E002884BF6FF73FE
:100DD0001A40028070470246002013890B400BB175
:100DE000012000E000207047CA4302817047F0B53F
:100DF0000246002000240023002501F00F070126F1
:100E0000BE40B4B20B1101269E40B3B2968806EAEA
:100E100003051689264016B10DB1012000E000201F
:100E2000F0BD10B5002201F00F040123A3409AB2D7
:100E3000D343038110BD0000003001400038004062
:100E4000003C004010B50446FE48844208D1012110
:100E5000C014FFF727FE0021E014FFF723FEC4E0D3
:100E6000B4F1804F08D101210846FFF728FE002188
:100E70000120FFF724FEB8E0F348844208D10121A5
:100E80000220FFF71CFE00210220FFF718FEACE055
:100E9000EE48844208D101210420FFF710FE002112
:100EA0000420FFF70CFEA0E0E948844208D10121AC
:100EB0000820FFF704FE00210820FFF700FE94E061
:100EC000E448844208D101211020FFF7F8FD0021F9
:100ED0001020FFF7F4FD88E0DF48844208D10121AB
:100EE0002020FFF7ECFD00212020FFF7E8FD7CE04B
:100EF000DA48844208D101214014FFF7D3FD0021D4
:100F00006014FFF7CFFD70E0D548844209D101217C
:100F1000C804FFF7C7FD00214FF40020FFF7C2FD12
:100F200063E0D048844209D101210805FFF7BAFDEA
:100F300000214FF48010FFF7B5FD56E0CA48844207
:100F400009D101214805FFF7ADFD00214FF4001044
:100F5000FFF7A8FD49E0C548844208D1012140209F
:100F6000FFF7ADFD00214020FFF7A9FD3DE0C0489F
:100F7000844208D101218020FFF7A1FD00218020BB
:100F8000FFF79DFD31E0BB48844208D10121801567
:100F9000FFF795FD0021A015FFF791FD25E0B6486C
:100FA000844209D101210804FFF77CFD00214FF4A0
:100FB0008030FFF777FD18E0B048844209D1012165
:100FC0004804FFF76FFD00214FF40030FFF76AFD82
:100FD0000BE0AB48844208D101218804FFF762FD91
:100FE00000214FF48020FFF75DFD10BD0022028834
:100FF000944B98420ED0994B98420BD0B0F1804F51
:1010000008D0914B984205D0904B984202D0904B1B
:10101000984204D14FF68F731A404B881A438D4B78
:10102000984207D08C4B984204D04FF6FF431A40A9
:10103000CB881A4302808B8883850B880385814B7C
:1010400098420BD0854B984208D08B4B984205D0E4
:101050008A4B984202D08A4B984201D10B7A038680
:1010600001238382704770B5002400220023058C81
:101070004FF6FE7635400584028C8388048B4FF64C
:101080008F752C40B51E2C400D882C43751E2A40B0
:101090000D892A434D882A436A4DA8420BD06F4DD3
:1010A000A84208D0744DA84205D0744DA84202D081
:1010B000734DA84213D14FF6F7752A404D892A4344
:1010C0004FF6FB752A408D882A434FF6FF652B406B
:1010D0004FF6FF552B408D892B43CD892B438380C1
:1010E0000483CD888586028470BD70B500240022FB
:1010F0000023058C4FF6EF7635400584028C8388FB
:10110000048B48F6FF752C404FF6FF452C400D88A8
:101110004FF6FF7606EA05252C434FF6DF752A4089
:101120000D8906EA05152A434D8806EA05152A4366
:10113000444DA84202D0494DA8421DD14FF67F75BB
:101140002A404D894FF6FF7606EA05152A434FF6E9
:10115000BF752A408D8806EA05152A434FF6FF35EC
:101160002B404FF2FF752B408D8906EA85052B43F6
:10117000CD8906EA85052B4383800483CD880587C6
:10118000028470BD70B5002400220023058C4FF648
:10119000FF6635400584028C8388848B4FF68F75FB
:1011A0002C404FF6FC752C400D882C434FF6FF5514
:1011B0002A400D894FF6FF7606EA05252A434D8819
:1011C00006EA05252A431F4DA84202D0234DA84216
:1011D0001DD14FF2FF752A404D894FF6FF7606EA82
:1011E00005252A434FF6FF352A408D8806EA052556
:1011F0002A434EF6FF752B404DF6FF752B408D8927
:1012000006EA05152B43CD8906EA05152B43838095
:101210008483CD888587028470BD70B50022002349
:101220000024058C4EF6FF7635400584038C8488B7
:10123000828B48F6FF752A404FF6FF452A400D88FD
:1012400020E00000002C01400004004000080040A5
:10125000000C004000100040001400400034014029
:10126000004C014000500140005401400018004073
:10127000001C0040002000400040014000440140AC
:10128000004801404FF6FF7606EA05252A434DF651
:10129000FF752B400D8906EA05352B434D8806EA7C
:1012A00005352B43FA4DA84202D0FA4DA84208D189
:1012B0004BF6FF752C408D894FF6FF7606EA8515B3
:1012C0002C4384808283CD88A0F84050038470BD75
:1012D000828B4FF2FF331A408283828B4FF6FF736B
:1012E00003EA01231A4382837047F0B50C46154682
:1012F000002200210026078C4EF6FF7C07EA0C072F
:101300000784828B018C4FF6FF7707EA043640F69C
:10131000FF473A404FF6FF7707EA05273A434FF673
:10132000FF7707EA03373A43D94FB8420ED0D94F77
:10133000B8420BD0B0F1804F08D0D74FB84205D09B
:10134000D64FB84202D0D64FB84206D14DF6FF77FD
:10135000394046F48057394305E047F6FF57394096
:1013600044F48057394382830184F0BD828B4FF669
:10137000F3731A408283828B0A4382837047F0B5ED
:101380000C461546002200210026078C4FF6FF6C04
:1013900007EA0C070784828B018C4FF6FF7707EA78
:1013A00004264FF60C773A404FF6FF7707EA03170B
:1013B0002F433A43B64FB8420ED0B64FB8420BD087
:1013C000B0F1804F08D0B44FB84205D0B34FB84207
:1013D00002D0B34FB84206D14FF6FF57394046F41A
:1013E0008077394305E04FF2FF57394044F4807766
:1013F000394382830184F0BD028B4FF2FF331A40E0
:101400000283028B4FF6FF7303EA01231A43028320
:101410007047F0B50C461546002200210026078CC7
:101420004FF6EF7C07EA0C070784028B018C4FF61E
:10143000FF7707EA041640F6FF473A404FF6FF777A
:1014400007EA03373A434FF6FF7707EA05273A439F
:101450008F4FB8420ED08F4FB8420BD0B0F1804FB3
:1014600008D08D4FB84205D08C4FB84202D08C4F77
:10147000B84206D14FF6DF77394046F010073943BE
:1014800005E04FF65F77394044F010073943028397
:101490000184F0BD028B4FF6F3731A400283028B76
:1014A0000A4302837047F0B50C461546002200211E
:1014B000068C4FF6FE773E400684028B018C4FF679
:1014C0000C7632407E1C06EA03162E433243704EE1
:1014D000B0420ED06F4EB0420BD0B0F1804F08D06A
:1014E0006D4EB04205D06D4EB04202D06C4EB0424F
:1014F00006D14FF6FD76314044F00106314305E058
:101500004FF6F576314044F0010631430283018401
:10151000F0BD70B505460C465D4885420ED05D486D
:1015200085420BD0B5F1804F08D05B48854205D08D
:101530005A48854202D05A48854200D100E000BF97
:10154000208850B92389A28861882846FFF7ABFF1D
:10155000E1882846FFF79EFF25E0208804280AD16D
:101560002389A28861882846FFF753FFE18828462F
:10157000FFF742FF17E0208808280AD12389A288B4
:1015800061882846FFF7FBFEE1882846FFF7EEFE5C
:1015900009E02389A28861882846FFF7A6FEE18832
:1015A0002846FFF795FE70BD2DE9F04105460C4633
:1015B00000260127608808B9022600E00026A088DE
:1015C000012801D1022700E001272088A0B9238942
:1015D000A28861882846FFF766FFE1882846FFF762
:1015E00059FF23893A4631462846FFF712FFE18822
:1015F0002846FFF701FF13E02389A2886188284667
:10160000FFF707FFE1882846FFF7F6FE23893A46F1
:1016100031462846FFF747FFE1882846FFF73AFFA3
:10162000BDE8F0810A884B881A438B881A43CB881F
:101630001A430B891A434B891A438B891A43A0F822
:10164000442070474FF6FF71818000210180C180E6
:101650004180017270470021018041808180C180FA
:10166000018141818181C1817047002101804180D8
:10167000012181800021C18001817047002101800A
:1016800041808180C180018141818181704700005A
:10169000002C0140003401400004004000080040DC
:1016A000000C004021B1028842F00102028004E0F7
:1016B00002884FF6FE731A400280704731B1B0F8CD
:1016C000442042F40042A0F8442005E0B0F8442051
:1016D000C2F30E02A0F8442070471AB183890B436D
:1016E000838102E083898B438381704781827047C5
:1016F00041EA0203A0F8483070471AB183890B43CE
:10170000838102E083898B438381704701894FF68F
:10171000F8721140018170470A46002101894FF695
:101720008F73194011430181704730B504460D464F
:1017300029462046FFF7F0FF208940F0070020816E
:1017400030BD2DE9F04104460D4616461F46602D7A
:1017500006D13B46012231462046FFF75AFE05E0FE
:101760003B46012231462046FFF79DFE2946204692
:10177000FFF7D2FF208940F007002081BDE8F0810B
:1017800030B50C4600210189C9B24FF6FF7505EA54
:101790000325154325432943018130BD2DE9F0413F
:1017A00005460E4617469846002443463A463146BB
:1017B0002846FFF7E5FF2C894FF6F870044044F007
:1017C00007044FF68F70044044F070042C81BDE88C
:1017D000F081F0B504460D4616461F463B4632469C
:1017E00029462046FFF7CCFF208940F48040208125
:1017F000F0BD0185828270470A46002101884FF6BC
:101800008F731940114301807047F0B50C4615469F
:101810001E460021002200230189028B038C4FF613
:10182000F877394021434FF6FC473A4040F2011720
:101830003A434FF6DD773B404FF6FF7707EA06174E
:101840002F433B43018102830384F0BD0A460021FC
:10185000018B4FF68F7319401143018370470A467D
:101860000021018B48F6FF7319404FF6FF7303EA1E
:1018700002231943018370470A460021818B4FF6EA
:101880008F7319401143818370470A460021818B71
:1018900048F6FF7319404FF6FF7303EA022319431A
:1018A0008183704721B1028842F08002028004E007
:1018B00002884FF67F731A400280704721B18288F8
:1018C00042F00402828004E082884FF6FB731A40E3
:1018D0008280704721B1828842F00802828004E051
:1018E00082884FF6F7731A408280704721B1828850
:1018F00042F00102828004E082884FF6FE731A40B3
:10190000828070470A460021018B4FF6F773194019
:101910001143018370470A460021018B4FF2FF7388
:1019200019404FF6FF7303EA0223194301837047FE
:101930000A460021818B4FF6F773194011438183CA
:1019400070470A460021818B4FF2FF7319404FF612
:10195000FF7303EA02231943818370470A4600217B
:10196000018B4FF6FB7319401143018370470A4600
:101970000021018B4FF6FF3319404FF6FF7303EA46
:1019800002231943018370470A460021818B4FF6D9
:10199000FB7319401143818370470A460021818BF4
:1019A0004FF6FF3319404FF6FF7303EA0223194342
:1019B000818370470A460021018B4FF67F731940DF
:1019C0001143018370470A460021018BC1F30E01C8
:1019D0004FF6FF7303EA02231943018370470A4657
:1019E0000021818B4FF67F7319401143818370472B
:1019F0000A460021818BC1F30E014FF6FF7303EA03
:101A000002231943818370470A460021018C4FF657
:101A1000FD7319401143018470470A460021018C6F
:101A20004FF6F77319401143018470470A460021AD
:101A3000018C4FF6DF7319404FF6FF7303EA021370
:101A40001943018470470A460021018C4FF67F73C9
:101A500019404FF6FF7303EA0213194301847047DC
:101A60000A460021018C4FF6FF5319404FF6FF73D1
:101A700003EA02231943018470470A460021018CBE
:101A80004FF2FF7319404FF6FF7303EA0223194325
:101A9000018470470A460021018C4DF6FF731940FE
:101AA0004FF6FF7303EA023319430184704730B5E0
:101AB000002301248C40A3B2048C9C430484048C36
:101AC00002FA01F5ADB22C43048430BD30B50023D9
:101AD00004248C40A3B2048C9C430484048C02FA3A
:101AE00001F5ADB22C43048430BD70B5034600202F
:101AF00000241846183001258D40ACB21D8CA5433A
:101B00001D8409B1082909D100EB6100056825F0A1
:101B1000700505600568154305600EE00D1FC5F3EF
:101B20004E052844056825F4E045056005684FF634
:101B3000FF7606EA02263543056070BD21B10288B2
:101B400042F00202028004E002884FF6FD731A4060
:101B50000280704721B1028842F00402028004E052
:101B600002884FF6FB731A400280704721B18288C9
:101B700042F08002828004E082884FF67F731A4030
:101B80008280704702884FF6F7731A4002800288FD
:101B90000A430280704782884FF68F731A40828012
:101BA00082880A438280704702894FF6F8731A4090
:101BB000028102890A430281704702894FF67F73CE
:101BC0001A40028102890A4302817047818470476A
:101BD000818570478186704701877047818770478C
:101BE000A0F84010704702884FF6FF431A40028069
:101BF00002880A43028070470146888E704701467A
:101C0000088F70470146888F70470146B1F8400041
:101C100070470146888C70470146088D7047024620
:101C20000020138A0B400BB1012000E00020704718
:101C3000CA430282704730B50246002000230024C8
:101C4000158A05EA0103958905EA010413B10CB16F
:101C5000012000E0002030BDCA430282704700002E
:101C600010B50446FB48844209D101218803FEF7E0
:101C700019FF00214FF48040FEF714FF32E0F648D0
:101C8000844209D101214804FEF719FF00214FF4D5
:101C90000030FEF714FF25E0F048844209D101210D
:101CA0008804FEF70CFF00214FF48020FEF707FFA9
:101CB00018E0EB48844209D10121C804FEF7FFFE79
:101CC00000214FF40020FEF7FAFE0BE0E5488442C5
:101CD00008D101210805FEF7F2FE00214FF4801023
:101CE000FEF7EDFE10BD2DE9F04786B005460E4625
:101CF0000024A24600BFA1460027B08900B100BF62
:101D00002F462C8A4CF6FF700440F08804432C8246
:101D1000AC894EF6F3100440B088318908437189CC
:101D200008430443AC81AC8A4FF6FF400440B089BD
:101D30000443AC8201A8FEF72EFEC648874202D1BA
:101D4000DDF810A001E0DDF80CA0A88900F4004047
:101D500040B10AEBCA0000EB0A1031684900B0FB41
:101D6000F1F807E00AEBCA0000EB0A1031688900BD
:101D7000B0FBF1F86420B8FBF0F004012009642105
:101D800001FB1089A88900F4004040B1322000EB2B
:101D9000C900B0FBF1F000F00700044308E0322076
:101DA00000EB09106421B0FBF1F000F00F000443D8
:101DB0002C8106B0BDE8F0874FF416510160002178
:101DC0008180C18001810C21418100218181704786
:101DD00010B502460020108A4FF2FF0318400B880E
:101DE0004C8823438C882343CC8823431843108298
:101DF00010BD0021018041808180C180704721B1E8
:101E0000828942F40052828104E082894DF6FF7398
:101E10001A4082817047F0B5034600240026002551
:101E2000002040F66A17B94200D100BF1846C1F33E
:101E3000421401F01F06012707FA06F5012C01D113
:101E40000C3004E0022C01D1103000E014301AB143
:101E500007682F43076002E00768AF430760F0BDE3
:101E60001AB1838A0B43838202E0838A8B43838285
:101E70007047028A4FF6F0731A400282028A0A43C0
:101E80000282704782894FF2FF731A4082818289F1
:101E90000A438281704721B1828942F00202828125
:101EA00004E082894FF6FD731A4082817047028AEE
:101EB0004FF6DF731A400282028A0A430282704799
:101EC00021B1028A42F48042028204E0028A4BF687
:101ED000FF731A4002827047C1F308028280704784
:101EE00001468888C0F308007047818941F00101EC
:101EF00081817047028BD2B20283028B42EA0122B7
:101F000002837047028B02F47F420283028B0A43F2
:101F10000283704721B1828A42F02002828204E06B
:101F2000828A4FF6DF731A408282704721B1828A1B
:101F300042F01002828204E0828A4FF6EF731A4068
:101F40008282704721B1828A42F00802828204E0D4
:101F5000828A4FF6F7731A408282704721B18289D4
:101F600042F40042828103E08289C2F30E02828140
:101F7000704721B1828A42F40062828204E0828A40
:101F80004FF2FF731A4082827047828A4FF6FB73CA
:101F90001A408282828A0A438282704721B1828AF1
:101FA00042F00202828204E0828A4FF6FD731A40F8
:101FB0008282704702460020B1F5007F00D100BF49
:101FC00013880B400BB1012000E00020704701F4A2
:101FD0000072B2F5007F00D100BFCA430280704793
:101FE00070B50246002400230025002040F66A1642
:101FF000B14200D100BFC1F3421501F01F03012619
:1020000006FA03F3012D02D19689334006E0022D32
:1020100002D1168A334001E0968A33400C12012621
:1020200006FA04F41688344013B10CB1012000E024
:10203000002070BD10B50022002340F66A14A142B2
:1020400000D100BF0A1201249440A3B2DC430480F3
:1020500010BD00000038014000440040004800402E
:10206000004C00400050004001684FF6FE721140E5
:1020700001600021016041608160C1608D4988423A
:1020800008D18C490839496841F00F01894A083A5A
:1020900051608AE087491431884208D1854908395E
:1020A000496841F0F001834A083A51607DE0814976
:1020B0002831884208D17F490839496841F4706164
:1020C0007C4A083A516070E07A493C31884208D134
:1020D00078490839496841F47041764A083A5160B4
:1020E00063E074495031884208D17249083949681F
:1020F00041F470216F4A083A516056E06D496431ED
:10210000884208D16B490839496841F47001694A2D
:10211000083A516049E067497831884208D16549F9
:102120000839496841F07061624A083A51603CE000
:102130006149884206D1011F096841F00F01021F61
:10214000116032E05C491431884208D15A49091FB4
:10215000096841F0F001584A121F116025E0564904
:102160002831884208D15449091F096841F4706137
:10217000514A121F116018E04F493C31884208D182
:102180004D49091F096841F470414B4A121F116003
:102190000BE049495031884207D14749091F096876
:1021A00041F47021444A121F1160704710B500229B
:1021B000026847F6F0739A430C6A8B6823430C69F4
:1021C00023434C6923438C692343CC6923434C6AE2
:1021D00023438C6A23431A430260CB6843600B6835
:1021E00083604B68C36010BD002101604160816065
:1021F000C160016141618161C161016241628162CD
:10220000704721B1026842F00102026004E00268F6
:102210004FF6FE731A40026070471AB103680B4311
:10222000036002E003688B430360704741607047BE
:102230000146486880B2704701460020002201F044
:1022400080531BB11C4B083B1A6802E0194B083B3A
:102250001A6802EA01030BB1012000E00020704778
:1022600000F0805119B11449091F086002E01149BA
:1022700008394860704701460020002201F0805371
:102280001BB10D4B083B1A6802E00A4B083B1A6869
:1022900002EA01030BB1012000E00020704700F0CA
:1022A000805119B10449091F086002E00149083949
:1022B00048607047080002400804024010B5044618
:1022C000FA48844208D101214015FEF7EBFB0021BA
:1022D0006015FEF7E7FB17E0F548844208D10121BD
:1022E0000015FEF7DFFB00212015FEF7DBFB0BE0FE
:1022F000F048844208D10121C803FEF7D3FB002136
:102300004FF40040FEF7CEFB10BD30B50246002072
:1023100000235068E84C20400D790C6844EA0524FD
:10232000204350609068E54C2040D1E902542C4392
:102330004D7944EA450420439060D06A20F470004F
:102340000C7C641EE4B2234340EA0350D06230BDEB
:1023500000210160017141718160C160012101743E
:10236000704721B1826842F00102826003E0826816
:1023700022F001028260704721B1826842F48072CB
:10238000826003E0826822F480728260704710B538
:102390000023CBB21AB144681C43446002E0446895
:1023A0009C43446010BD816841F008018160704722
:1023B000014600208A6802F008020AB1012000E00C
:1023C00000207047816841F0040181607047014638
:1023D00000208A6802F004020AB1012000E0002017
:1023E000704721B1826842F4A002826003E08268F3
:1023F00022F4A00282607047014600208A6802F43D
:1024000080020AB1012000E00020704710B50A46A2
:1024100000210023416821F46041531E41EA433109
:10242000416010BD21B1426842F40062426003E0A5
:10243000426822F4006242607047F0B504460D46DF
:1024400000200021092D11DDE068A5F10A0606EB48
:102450004607072606FA07F18843A5F10A0606EBA8
:10246000460603FA06F10843E0600CE0206905EB3C
:102470004507072606FA07F1884305EB450603FAE8
:1024800006F108432061072A0FDA606B561E06EB3F
:1024900086071F2606FA07F18843561E06EB8606B6
:1024A00005FA06F10843606322E00D2A0FDA206B7B
:1024B000D61F06EB86071F2606FA07F18843D61FAC
:1024C00006EB860605FA06F10843206310E0E06A91
:1024D000A2F10D0606EB86071F2606FA07F18843D0
:1024E000A2F10D0606EB860605FA06F10843E06246
:1024F000F0BD21B1826842F48012826003E08268FC
:1025000022F48012826070470146C86C80B2704726
:1025100066484C300068704721B1426842F48062DE
:10252000426003E0426822F480624260704721B159
:10253000426842F48052426003E0426822F48052D2
:10254000426070470A460021816821F4E04111434E
:102550008160704721B1826842F40042826003E0EA
:10256000826822F400428260704721B1826842F49E
:102570000212826003E0826822F4021282607047D5
:10258000014600208A6802F400120AB1012000E02E
:1025900000207047F0B504461546002000220026B2
:1025A000092911DDE068A1F10A0707EB470C0727AD
:1025B00007FA0CF29043A1F10A0707EB470703FA69
:1025C00007F21043E0600CE0206901EB410C0727A3
:1025D00007FA0CF2904301EB410703FA07F21043AC
:1025E0002061A06BC0F30156EF1C06F1010CA7EBB4
:1025F0000C0707EB870C1F2707FA0CF29043EF1C20
:1026000006F1010CA7EB0C0707EB870701FA07F2AD
:102610001043A063F0BD10B50A4600210023816B72
:1026200021F44011531E41EA0351816310BD08B5E6
:10263000002300930090009B0B440093009B1A60C2
:1026400008BD08B5024600200090009201F1280064
:10265000009B184400900098006880B208BD0A46AC
:1026600000214168164B1940114341607047416297
:10267000826270470A460021416821F01F01114320
:102680004160704740B109490831096841F40001CF
:10269000064A0832116007E004490831096821F44C
:1026A0000001024A08321160704700000024014016
:1026B00000280140003C0140FFFEF0FFFDF7F1FF64
:1026C000FFFD3FFF0246002013680B400BB10120C5
:1026D00000E000207047CA430260704770B50246B0
:1026E0000020002300240B125568CEB205EA060430
:1026F00015681D4015B10CB1012000E0002070BD2F
:1027000000220A12D34303607047000010B5FA4854
:102710000088F94949880844F74989880844F649F6
:10272000C988084484B2F5480078F5490870F5482E
:10273000008800124870F34800788870F2480088DA
:102740000012C870F04800780871F048006803F083
:1027500067FD000AEA494871EC48006803F060FD33
:10276000E7498871EA48006803F05AFD000AE44925
:10277000C871E748006803F053FDE1490872E54875
:10278000006803F04DFD000ADD494872E148006829
:1027900003F046FDDA498872D74800880012C872F3
:1027A000D54800880873D448408800124873D2483E
:1027B00040888873D04880880012C873CE488088CB
:1027C0000874CD48C08800124874CB48C08888740B
:1027D000D1484088000AC874CF4880780875CE4830
:1027E000C088000A4875CC4880798875CA484089F5
:1027F000000AC875C848807A0876C748C089000AA8
:102800004876C548807B8876C3480088000AC87629
:10281000C14800780877C0488088000A4877BE48D9
:1028200000798877BC480089000AC877BA48007ADE
:1028300081F82000B8488089000A81F82100B64854
:10284000007B81F82200B448008A000A81F8230046
:10285000B148007C81F82400201281F8250081F81D
:10286000264010BD10B5A8480088B0F5027F04DAF4
:10287000A5480088B0F5DC7F05DCA8480078401C3E
:10288000A649087002E00020A4490870A449A048A5
:10289000006803F04BFD11D2A2480078401CA1490A
:1028A000087008460078322812DB322008709548FC
:1028B000008840F002009349088009E0002099490F
:1028C0000870904800884FF6FD7108408D490880D7
:1028D00095499048006803F029FD14D29348007888
:1028E000401C9249087008460078322818DB3220D4
:1028F0000870052002F049FE8248008840F004007C
:10290000804908800CE0002088490870052002F00A
:1029100067FE7C4800884FF6FB71084079490880C3
:1029200075480088E62806DC73480088042808DA21
:102930007F48007828B17F480088401C7D49088086
:1029400002E000207B4908806B484088E62806DCCE
:1029500069484088042808DA7748007828B1754823
:102960004088401C7349488002E00020714948803B
:1029700061488088E62806DC5F488088042808DAF9
:102980006E48007828B16B488088401C694988806F
:1029900002E00020674988805748C088E62806DCA6
:1029A0005548C088042808DA6548007828B161488D
:1029B000C088401C5F49C88002E000205D49C88093
:1029C0005C480088B0F5617F0DDB4FF461705949B8
:1029D0000880022002F0D9FD4A48008840F0080033
:1029E0004849088006E0474800884FF6F7710840DC
:1029F000444908804F484088B0F5617F0DDB4FF4B3
:102A000061704C494880022002F0BFFD3D480088BB
:102A100040F010003B49088006E03A4800884FF635
:102A2000EF7108403749088042488088B0F5617FDF
:102A30000DDB4FF461703F498880022002F0A5FD54
:102A40003048008840F020002E49088006E02D48DC
:102A500000884FF6DF7108402A4908803548C08851
:102A6000B0F5617F0DDB4FF461703249C880022000
:102A700002F08BFD2348008840F040002149088087
:102A800006E0204800884FF6BF7108401D490880C5
:102A90001C48007800F0780010B9022002F0A0FD78
:102AA000002413E01C4830F91400B0F52F7F07DD37
:102AB000244830F81400401C224921F8140003E097
:102AC0000020204921F81400601CC4B2092CE9DB65
:102AD0001C48408840F6B831884235DB4FF47A70A4
:102AE00018494880042002F050FD0648008840F054
:102AF0008000044908802EE0400000202C000020C7
:102B0000DC0000202E00002048000020540000209F
:102B10004C00002050000020A802002030000020BF
:102B200000001645310000200080094532000020D9
:102B30002800002034000020290000202A00002066
:102B40002B00002004010020FD4800884FF67F7113
:102B50000840FB490880FB48C08840F6B8318842ED
:102B60000DDB4FF47A70F749C880042002F00DFDA8
:102B7000F348008840F48070F149088006E0F0488E
:102B800000884FF6FF610840ED490880ED48408914
:102B900040F6B83188420DDB4FF47A70E94948813C
:102BA000042002F0F2FCE648008840F40070E4499A
:102BB000088006E0E24800884FF6FF510840E049EF
:102BC0000880E048C08940F6B83188420DDB4FF4F8
:102BD0007A70DC49C881042002F0D7FCD84800880C
:102BE00040F48060D649088006E0D54800884FF65A
:102BF000FF310840D2490880D248008840F6B831F9
:102C000088420DDB4FF47A70CE490880042002F030
:102C1000BCFCCB48008840F40060C949088006E04D
:102C2000C74800884FF2FF710840C5490880C54871
:102C3000808840F6B83188420DDB4FF47A70C14984
:102C40008880042002F0A1FCBD48008840F4805038
:102C5000BB49088006E0BA4800884EF6FF7108407C
:102C6000B7490880B748008940F6B83188420DDB83
:102C70004FF47A70B3490881042002F086FCB04812
:102C8000008840F40050AE49088006E0AC48008857
:102C90004DF6FF710840AA490880AA48808940F68D
:102CA000B83188420DDB4FF47A70A6498881042040
:102CB00002F06BFCA248008840F48040A0490880E4
:102CC00006E09F4800884BF6FF7108409C49088049
:102CD0009C48008A40F6B83188420DDB4FF47A7088
:102CE00098490882042002F050FC9548008840F47E
:102CF00000409349088005E091480088C0F30E0029
:102D00008F4908808E4800884FF68071084010B9BE
:102D1000042002F065FC10BD38B500240121042018
:102D2000FDF7A6FE01211020FDF7A2FE01214020A3
:102D3000FDF79EFE4FF47740ADF8000002208DF8BD
:102D4000020048208DF8030069467F48FDF7D4FB58
:102D50004FF480717C48FDF762FC10B104F18000F3
:102D6000C4B24FF400717848FDF759FC10B104F17A
:102D70004000C4B24FF480617348FDF750FC10B1BD
:102D800004F12000C4B24FF400616F48FDF747FC26
:102D900010B104F11000C4B24FF480516A48FDF73D
:102DA0003EFC10B104F10800C4B24FF40051664873
:102DB000FDF735FC08B1201DC4B24FF480416248D4
:102DC000FDF72DFC08B1A01CC4B24FF400415E48D1
:102DD000FDF725FC08B1601CC4B20CB9601CC4B27C
:102DE000204638BD38B50024002001F01AF910B192
:102DF000222807D107E00023544802880221184600
:102E000001F03AFCF5E0002001F0F7F800F00400D2
:102E100018B10421002001F0F9F84D480088401C49
:102E20004B49088008460088B0F5487F0CDB00203D
:102E30000880FFF76BFC47480088474B272247492B
:102E40000090002001F0B0FD002001F01DF9041EEB
:102E500075DD4048404B224641490090002001F07A
:102E600029FE3F480078FF2850D03D4800780128CF
:102E700001D102F08AFB3A48007810B9012002F033
:102E8000AFFB374837490978405C00F0080020B1B3
:102E900020213548FDF7DDFB03E020213248FDF716
:102EA000DAFB2F482F490978405C00F0040028B174
:102EB0004FF480712C48FDF7CCFB04E04FF4807197
:102EC0002948FDF7C8FB264826490978405C00F0F0
:102ED000020028B14FF400712348FDF7BAFB04E06B
:102EE0004FF400712048FDF7B6FB1D481D490978D5
:102EF000405C00F0010020B101211348FDF7A9FB5F
:102F00005BE001211048FDF7A6FB56E0144840782D
:102F100014490978884250D111488078012827D176
:102F20000F4800790E49C97800EB01200F4908804D
:102F3000022208460188002002F033FA3DE03FE01B
:102F40002E00002004010020001801409E000020F7
:102F50003C000020A4000020A0000020DC00002095
:102F6000BC00002086000020000C0140AC000020C6
:102F70006B48807802280ED1694800796849C97881
:102F800000EB0120674908800222084601881046AC
:102F900002F007FA11E06248807803280DD16048FA
:102FA00000795F49C97800EB01205F49088002225F
:102FB00008460188042002F0F4F9032002F0E5FA43
:102FC00008215A48FDF738FB28B159480088401CB1
:102FD0005749088002E0002055490880544800887D
:102FE000C82805DB002052490880032002F0F8FAC7
:102FF00000BF00BF38BD482001F052FE00F0BEF80F
:1030000000F03EF900F06AF900F024FB02F071F9DB
:1030100002F083FB02F05EFE642001F05DFE02F030
:1030200037FAFFF779FE4349087001F0EAFA42499E
:10303000424801F0BFF802F03EFA062002F0A5FA7D
:103040000221002002F0C2F93D49088008460088AC
:1030500042F21071884202DD084639490880022197
:10306000084602F0B3F92F4908800846008842F26A
:103070001071884202DD08462A4908800221042096
:1030800002F0A4F9284908800846008842F210712D
:10309000884202DD0846244908803FE0294800783C
:1030A00058B1002406E0642001F03DFE00F0F5FC7C
:1030B000601CC4B2082CF6DB04E0F02001F033FE03
:1030C00000F0E8FA681C85B2FFF78CFEB5F5966F44
:1030D0000ADD002502F0D3FC02F004FE064603F0F0
:1030E00086F800B21849088201211048FDF7A4FAB9
:1030F000164908704FF400711548FDF79DFA1549FF
:1031000008704FF480711248FDF796FA1249087062
:1031100020210F48FDF790FA10490870BEE7000023
:10312000BC000020AE000020B000002000180140CC
:103130003E000020860000207E0000207600002057
:10314000AC00002060000020A80200202800002021
:10315000000C0140290000202A0000202B00002044
:10316000704700BFFEE700BFFEE700BFFEE700BFFD
:10317000FEE77047704770477047000000B585B0A4
:1031800001210420FDF774FC01218803FDF770FC88
:103190004FF40070ADF8100018208DF813000320D4
:1031A0008DF8120004A99048FDF7A6F94FF480604D
:1031B000ADF8100004208DF8130004A98A48FDF72B
:1031C0009BF901214804FDF760FC0420ADF81000D4
:1031D00018208DF8130003208DF8120004A98248EE
:1031E000FDF78AF90820ADF8100004208DF81300CF
:1031F00004A97D48FDF780F94FF416500090002097
:10320000ADF80400ADF80600ADF80800ADF80C000C
:103210000C20ADF80A0069467448FEF764FD0122EF
:1032200040F224417148FEF7F6FD01216F48FEF798
:10323000E6FD40216D48FEF7CAFE4FF4165000909F
:103240000020ADF80400ADF80600ADF80800ADF8B8
:103250000C000C20ADF80A0069466548FEF743FDF6
:10326000012240F224416248FEF7D5FD0121604869
:10327000FEF7C5FD40215E48FEF7A9FE05B000BD82
:1032800000B58BB001210846FDF7E5FB5948FEF774
:10329000EBFE5748001D0090574801900020029017
:1032A000402003900020049080200590002006908C
:1032B000079008904FF48050099000200A906946CA
:1032C0004C48FEF773FF012240214948FEF7C8FD34
:1032D00001214848FEF795FF0BB000BD08B54FF43B
:1032E000A060FDF733F825208DF8000002208DF84E
:1032F000010001208DF802008DF803006846FDF7FB
:1033000033F826208DF8000002208DF801008DF89A
:10331000020001208DF803006846FDF725F81C2007
:103320008DF8000004208DF801008DF802000120C6
:103330008DF803006846FDF717F81E208DF8000091
:1033400004208DF8010003208DF8020001208DF883
:1033500003006846FDF708F80B208DF800000220F6
:103360008DF8010003208DF8020001208DF8030084
:103370006846FCF7F9FF08BD10B540F224411C482F
:10338000FEF72EFEC8B100211A48FEF73AFF4FF4AF
:103390007000FEF765FF16480488001D0488154874
:1033A000FEF746FFC0F1400084B2402411486C385B
:1033B000046701210F48FEF724FF4FF45A710C48AF
:1033C000FEF70EFE20B14FF45A710948FEF732FEA7
:1033D00040F226610648FEF72DFE40F224410448E3
:1033E000FEF728FE10BD0000000801400038014033
:1033F000004400406C0002405601002008B5012145
:103400000846FDF728FB01214FF40770FDF730FB5C
:10341000CF20ADF8000000208DF803006946FD487C
:10342000FDF76AF80320ADF8000000208DF80300D6
:103430006946F948FDF760F83820ADF80000002033
:103440008DF803006946F548FDF756F808BD00B54C
:1034500091B0F348FEF708FEF2480690F248079054
:10346000002008900520099000200A9080200B90F1
:1034700040000C9080000D9020200E90C0010F9015
:103480000020109006A9E648FEF790FE0121E448CE
:10349000FEF7B7FE0020019001208DF808008DF89E
:1034A00009004FF4602003900020049005208DF85F
:1034B000140001A9DB484C38FEF727FF4FF44040C9
:1034C000FDF73AFA062301220D21D6484C38FEF7C3
:1034D000B4FF062302220021D2484C38FEF7ADFF8C
:1034E000062303220121CF484C38FEF7A6FF06230E
:1034F00004220221CB484C38FEF79FFF0623052209
:103500000321C8484C38FEF798FF0121C5484C38C4
:10351000FEF732FF0121C3484C38FEF722FFC148B5
:103520004C38FEF740FF00BFBE484C38FEF740FF66
:103530000028F9D1BB484C38FEF744FF00BFB9481A
:103540004C38FEF744FF0028F9D10121B5484C382A
:10355000FEF747FF11B000BD00B591B0B048FEF7CF
:1035600083FDB0480690B1480790002008900420E1
:10357000099000200A9080200B9040000C90800061
:103580000D9020200E90C0010F900020109006A9F1
:10359000A348FEF70BFE0121A148FEF732FE0020F2
:1035A000019001208DF808008DF809004FF460208B
:1035B00003900020049004208DF8140001A999487C
:1035C0004C38FEF7A2FE4FF44040FDF7B5F9012359
:1035D0001A460E2193484C38FEF72FFF0123022292
:1035E0000F2190484C38FEF728FF012303220921C0
:1035F0008C484C38FEF721FF01230422082189481A
:103600004C38FEF71AFF012186484C38FEF7B4FE0D
:10361000012184484C38FEF7A4FE82484C38FEF75E
:10362000C2FE00BF7F484C38FEF7C2FE0028F9D129
:103630007C484C38FEF7C6FE00BF7A484C38FEF78F
:10364000C6FE0028F9D1012176484C38FEF7C9FEA4
:1036500011B000BD10B5FFF7D1FEFFF77DFF10BD23
:1036600010B500216E48FEF7CCFD00216D484C38A6
:10367000FEF777FEFFF770FF10BD10B50021684818
:10368000FEF7BFFD002167484C38FEF76AFEFFF7E2
:10369000DEFE10BD2DE9FC5F65480078C8B94FF02B
:1036A000000A13E00020634921F81A005E4830F850
:1036B0001A00614921F81A005B4830F81A005F4986
:1036C00021F81A000AF1010000F0FF0ABAF1050F13
:1036D000E8DB4FF0000A29E0564830F81A0052495A
:1036E00031F81A100844534921F81A00524830F8AA
:1036F0001A004D4931F81A10884205DC4A4830F862
:103700001A004D4921F81A004C4830F81A00464971
:1037100031F81A10884205DB434830F81A0047494F
:1037200021F81A000AF1010000F0FF0ABAF1050FB2
:10373000D2DB3F480078401C3D49087008460078BD
:10374000042864D1FFF78CFF3C4800883A49098877
:10375000084438490988081A3649088009884810F9
:1037600002F01EFD83464FF08B41584602F052FB9B
:10377000804602F0A1FD0646314A324B02F02FFC92
:10378000044602F080FD304908804FF0010A33E022
:103790002A4830F81A00284931F81A1008442549F7
:1037A00031F81A10081A234921F81A0031F81A10B2
:1037B000481002F0F5FC8346584602F07DFD804635
:1037C0004FF06632214B02F00AFC06460022204BE5
:1037D00002F077FC00221F4BCDE9000102F0FFFB55
:1037E000044602F050FD81B2AAF101001A4A22F803
:1037F0001010801C00F0FF0ABAF1050FC8DB002092
:103800000B490870012015490870FFF72BF8BDE837
:10381000FC9F000000080140000C01400010014026
:10382000080002404C24014096010020580000206E
:1038300061000020B4010020A0010020AA010020A6
:10384000C3F5285C8F424C404800002066660A4061
:103850000000B04000005440400000206000002004
:103860002DE9F04F93B004460D461646FFF705FFCD
:10387000362C05DDA4F1360002F092FC814601E011
:103880004FF00009362D05DDA5F1360002F088FC69
:10389000824601E04FF0000AB42E05DDA6F1B40027
:1038A00002F07EFC834601E04FF0000BA748008841
:1038B00002F090FCCDE90C01484602F0FDFC074601
:1038C000A34AA44B02F08BFBCDE90601484602F067
:1038D000F3FCCDE90201484602F0EEFC07469E4AA1
:1038E0009E4B02F07CFBCDE90001DDE9022302F0F2
:1038F00076FBCDE90401DDE9062302F0C9FA984A16
:10390000984BCDE9080102F0C3FACDE90A01DDE9DF
:103910000C2302F064FB0022934BCDE90E0102F070
:10392000D0FBCDE9100102F0DAFC90490860504666
:1039300002F0C2FC0746864A864B02F050FBCDE9F6
:103940000801504602F0B8FCCDE90401504602F0EF
:10395000B3FC0746804A814B02F041FBCDE90201EE
:10396000DDE9042302F03BFBCDE90601DDE9082394
:1039700002F08EFA7A4A7B4BCDE90A0102F088FA0E
:103980000022794BCDE90C0102F029FB0022764B95
:10399000CDE90E0102F095FBCDE9100102F09FFC8C
:1039A000734908607349584602F0C0FC35D2584646
:1039B00002F082FC0746704A704B02F010FBCDE922
:1039C0000A01584602F078FCCDE90601584602F09B
:1039D00073FC07466A4A6B4B02F001FBCDE9040118
:1039E000DDE9062302F0FBFACDE90801DDE90A234F
:1039F00002F04EFA00225C4BCDE90C0102F0EFFA26
:103A00000022614BCDE90E0102F05BFBCDE9100114
:103A100002F065FC5D49086034E0584602F04CFC59
:103A200007465B4A5B4B02F0DAFACDE90A015846D9
:103A300002F042FCCDE90601584602F03DFC074683
:103A4000554A564B02F0CBFACDE90401DDE90623D5
:103A500002F0C5FACDE90801DDE90A2302F018FAFF
:103A600000224F4BCDE90C0102F0B9FA0022464B7F
:103A7000CDE90E0102F025FBCDE9100102F02FFC8B
:103A8000424908600021484602F046FC02D100206D
:103A90003649086013B0BDE8F08F70B500240025EA
:103AA00000264048408840490988884203DD3D4857
:103AB00040883D4908803B4800883C490988884245
:103AC00003DD384800883949088039480088401C9F
:103AD0003749088008460088B0F5FA6F34D1354878
:103AE0000088401C33490880334800682E49098803
:103AF000084431490860314800682C490988084465
:103B00002E4908602B48008808281ADB2A480068DC
:103B1000C0F3CF0408460068C0F3CF050026324644
:103B200029462046FFF79CFE00201F4908801F49B8
:103B3000088022490860204908601E490880204901
:103B4000087000201A49088070BD0000AC000020F9
:103B50006891ED7C3F35DA3F67D5E76A2BF6873F02
:103B6000643BDF4F8DF73E4000408F404C0000200B
:103B70005000002000007A4421B0726891EDBC3FF3
:103B80000FD6FF39CC97373F0088D3405400002030
:103B9000894160E5D022AB3FBC79AA436E863B3FAA
:103BA0000000F03F58000020660000206800002060
:103BB0006200002064000020700000206C000020E3
:103BC0006000002010B590B0044601214420FCF7AD
:103BD0004FFF01218803FCF74BFF01210846FCF74A
:103BE0003AFF4FF40070ADF83C0010208DF83F0014
:103BF00003208DF83E000FA96548FCF77DFC4FF4CB
:103C00000070ADF83C0018208DF83F0003208DF8BF
:103C10003E000FA95F48FCF76FFC4FF48060ADF8E1
:103C20003C0004208DF83F000FA95A48FCF764FCC3
:103C30000B940020ADF83000ADF83200ADF8340040
:103C4000ADF838000C20ADF836000BA95248FEF74D
:103C50004AF8012240F224414F48FEF7DCF80121E6
:103C60004D48FEF7CCF840214B48FEF7B0F94FF431
:103C700000714748FCF7EFFC4848FEF7F5F9464865
:103C8000001D0090464801900020029040200390C3
:103C90000020049080200590002006900790089056
:103CA0004FF40050099000200A9069463B48FEF707
:103CB0007DFA012240213848FEF7D2F80121374829
:103CC000FEF79FFA10B010BD10B540F22441324803
:103CD000FEF786F9C8B100213048FEF792FA4FF49A
:103CE0007020FEF7BDFA2C480488001D04882B487C
:103CF000FEF79EFAC0F1400084B2402427485838AD
:103D0000C46501212548FEF77CFA4FF45A71224818
:103D1000FEF766F920B14FF45A711F48FEF78AF991
:103D200040F226611C48FEF785F940F224411A480A
:103D3000FEF780F910BD10B51948007888B9184809
:103D4000407870B901201749087000BF402112481F
:103D5000FEF730F90028F9D000210F48FEF7BCF833
:103D600015E002200F4908700D4840780C49097889
:103D700000EB01200C49088000BF40210648FEF7F7
:103D800019F90028F9D001210348FEF7A5F810BD64
:103D9000001801400008014000380140580002406E
:103DA000FE010020B2000020AC0000200EB5012171
:103DB0000846FCF76AFE4FF4FA60ADF804004720AD
:103DC000ADF800000020ADF80600ADF8020069462D
:103DD0004FF08040FDF70AF901218807FDF728FF21
:103DE000012211469007FDF778FC01218807FDF7B5
:103DF00059FC00210120FCF748FE0EBD0EB5012143
:103E00000420FCF742FE6420ADF804004720ADF822
:103E100000000020ADF80600ADF802006946244815
:103E2000FDF7E4F801212248FDF702FF01221146C7
:103E30001F48FDF752FC01211D48FDF733FC00210E
:103E40000420FCF722FE0EBD10B501218807FDF706
:103E5000F2FE78B101218807FDF7FEFE15480088C3
:103E6000401C1449088008460088B0F5967F01DBA5
:103E70000020088010BD10B501210D48FDF7DBFEC4
:103E800018B101210A48FDF7E7FE10BD10B5012168
:103E90000420FCF7FAFD01210846FCF7F6FD01219C
:103EA0008807FDF7FFFB01210148FDF7FBFB10BD73
:103EB000000800407400002010B504462146002090
:103EC00000F005FB10BD10B58020FFF7F5FF10BD19
:103ED0000146D84830F8110070470146D64830F8FE
:103EE0001100704710B5044604222146900100F0ED
:103EF0002CFB10BD10B5044604222146900100F0B1
:103F000051FB10BD10B50446042221464FF4A060B9
:103F100000F01BFB10BD10B50446062221464FF4ED
:103F2000106000F012FB10BD10B5044604222146BB
:103F30004FF4706000F009FB10BD10B50446042278
:103F400021464FF4A06000F02DFB10BD10B50446D3
:103F5000062221464FF4106000F024FB10BD10B57E
:103F60000446042221464FF4706000F01BFB10BD94
:103F700010B54FF4A85000F0C9FA10BD10B50446B2
:103F8000210A4FF4C85000F0A2FAE1B24FF4D05029
:103F900000F09DFA10BD10B5044621464FF4D850EC
:103FA00000F095FA10BD70B50446FFF7E1FF60EA36
:103FB0000400C5B229464FF4A85000F088FA70BD3D
:103FC00070B504460D46290A41F2082202EB44105E
:103FD00000F07DFAE9B241F2083202EB441000F041
:103FE00076FA70BD70B504460D4641F2086101EBEA
:103FF0004410294600F06BFA70BD10B504464FF42A
:10400000027101EB441000F081FA10BD70B5044656
:104010000D464FF4027101EB4410294600F057FAA7
:1040200070BD10B504464FF4427101EB441000F02E
:104030006DFA10BD70B504460025002600BF42F29F
:10404000080101EB441000F061FA064642F2081143
:1040500001EB441000F05AFA00EB062086B27EB164
:1040600042F2080101EB441000F050FA054642F21A
:10407000081101EB441000F049FA00EB052085B26D
:10408000B542DCD1284670BD70B504460025002637
:1040900000BF42F2086101EB441000F037FA064617
:1040A00042F2087101EB441000F030FA00EB0620F8
:1040B00086B27EB142F2086101EB441000F026FAAC
:1040C000054642F2087101EB441000F01FFA00EBC4
:1040D000052085B2B542DCD1284670BD2DE9F041FE
:1040E00004460F4616460025A8460EB9BDE8F081E5
:1040F00042F2084101EB441000F008FA054642F292
:10410000085101EB441000F001FA00EB052085B2E4
:10411000280200EB441000F11008324639464046B0
:1041200000F013FAA81985B2290A42F2084202EBFC
:10413000441000F0CCF9E9B242F2085202EB44100C
:1041400000F0C5F900BFD1E72DE9F04104460F4664
:1041500016460025A8460EB9BDE8F08142F60801D2
:1041600001EB441000F0D2F9054642F6081101EBCC
:10417000441000F0CBF900EB052085B2280200EBDB
:10418000441000F1180832463946404600F00AFA59
:10419000A81985B2290A42F6080202EB441000F081
:1041A00096F9E9B242F6081202EB441000F08FF9DA
:1041B00000BFD1E72DE9F04105460E460027B8467D
:1041C000002433E0295D41F6087202EB441000F050
:1041D0007EF9315D41F6086202EB441000F077F998
:1041E0000020154921F81400124921F81400B7F5F0
:1041F000804F07DC285D4FF6FF7101EA80200E49F1
:1042000021F81400B8F5804F07DC305D4FF6FF71E0
:1042100001EA8020074921F81400074830F814000B
:104220000744044830F814008044641C082CC9DB9F
:10423000BDE8F0814E0200203E020020F7480078E1
:1042400011287BD2DFE800F07A0910171E252C33E5
:104250003A41484F565D646B73001120F049487134
:104260006520F049C8706AE01220ED494871662067
:10427000EC49C87063E01320E94948716720E949B7
:10428000C8705CE01420E64948716820E549C870B0
:1042900055E01520E24948716920E249C8704EE0B6
:1042A0001620DF4948716A20DE49C87047E01720B0
:1042B000DB4948716B20DB49C87040E01820D849C1
:1042C00048716C20D749C87039E01920D449487129
:1042D0006D20D449C87032E01A20D14948716E204F
:1042E000D049C8702BE01B20CD4948716F20CD49C3
:1042F000C87024E01C20CA4948717020C949C870A0
:104300001DE01D20C64948717120C649C87016E0DD
:104310001E20C34948717220C249C8700FE01F2097
:10432000BF4948717320BF49C87008E006E02020EB
:10433000BB4948717420BB49C87000E000BF00BF92
:10434000704710B5B848B6490A680260898881800C
:10435000B4490968C0F80610B4490968C0F80A10E1
:10436000B3490968C0F80E10B2490968C0F81210C4
:104370000A30FFF7C7FDAC480E30FFF7B3FDAA487F
:10438000801DFFF7D1FDA748FFF7E9FDA748FFF71C
:10439000D4FDA748FFF7AEFD10BD10B5A248A04957
:1043A0000A68026089888180FFF7B5FD10BD00B5FD
:1043B00087B001212820FCF75BFB01218803FCF773
:1043C00064FB4FF46040ADF8040003208DF8060054
:1043D00018208DF8070001A99748FCF78DF84FF4D5
:1043E0008050ADF8040003208DF8060010208DF8F1
:1043F000070001A99048FCF77FF84FF40070ADF872
:10440000040001208DF8060010208DF8070001A996
:104410008A48FCF771F84FF400718848FCF719F9E5
:104420000020ADF808004FF48270ADF80A000020BB
:10443000ADF80C000220ADF80E000120ADF8100020
:104440004002ADF812000020ADF81400ADF81600DF
:104450000720ADF8180002A97948FCF793FB012169
:104460007748FCF734FC07B000BD10B5044600BF28
:1044700002217348FCF7AFFC0028F9D021467048B0
:10448000FCF756FC00BF01216D48FCF7A4FC002896
:10449000F9D06B48FCF74EFCC0B210BD10B54FF41C
:1044A00000716648FCF7D7F8022000F015FC4FF4C5
:1044B00000716248FCF7CDF84FF4C86000F00CFCC6
:1044C00010BD10B504462046FFF7CFFF10BD70B5F4
:1044D00004460D464FF480515748FCF7BCF8C4F32E
:1044E0000740FFF7EEFFC4F30720FFF7EAFF04F0F1
:1044F000F801091DC8B2FFF7E4FF2846FFF7E1FF06
:104500004FF480514C48FCF7A4F870BD70B50446D8
:1045100000254FF480514848FCF79DF8C4F307404C
:10452000FFF7CFFFC4F30720FFF7CBFF04F0F8003D
:10453000FFF7C7FF0020FFF7C4FF05464FF4805187
:104540003D48FCF786F8284670BD2DE9F041044649
:104550000F46154600264FF480513748FCF77BF88C
:10456000C4F30740FFF7ADFF0646C4F30720FFF78B
:10457000A8FF064604F0F801091DC8B2FFF7A1FF25
:104580000646002604E0B85DFFF79BFF701C86B26C
:10459000AE42F8DB4FF480512748FCF75AF8284622
:1045A000BDE8F0812DE9F04104460F46154600268E
:1045B0004FF480512048FCF74EF8C4F30740FFF752
:1045C00080FFC4F30720FFF77CFF04F0F800FFF73B
:1045D00078FF00BF05E00020FFF773FFB855701C9F
:1045E00086B2AE42F7DB4FF480511348FCF731F846
:1045F0002846BDE8F08170B5002044682546A847EC
:1046000070BD10B5FFF71AFEFFF7D1FEFFF746FFAA
:10461000FFF7C3FEFFF795FE10BD000086000020E7
:10462000870000208D0000205E0200209100002005
:104630009500002099000020000C0140001401406A
:104640000038004010B504464FF4847101EB44106B
:104650001021FFF73CFF00BF4FF4847101EB4410C1
:10466000FFF754FF0028F7D14FF4027101EB44101B
:10467000FF21FFF72CFF10BD2DE9F04104460D4648
:104680001646984605F00F0001280FD005F00F00E0
:1046900002280BD005F00F00032807D005F00F000B
:1046A000042803D005F00F00052841D12046FFF76C
:1046B000C9FF45EA0801082202EB4410FFF707FF93
:1046C00076B1310A4FF4816202EB4410FFF7FFFE2E
:1046D000F1B24FF4A16202EB4410FFF7F8FE15E0CF
:1046E000FE480088401CFD4908800A461288110ACD
:1046F0004FF4816202EB4410FFF7E9FEF74A1178AC
:104700004FF4A16202EB4410FFF7E1FE4FF4847115
:1047100001EB44100121FFF7DAFE00BF4FF4847172
:1047200001EB4410FFF7F2FE0028F7D1012700E06B
:1047300000273846BDE8F08170B504464FF4427159
:1047400001EB4410FFF7E2FE132811D14FF48471FE
:1047500001EB44100221FFF7BAFE00BF4FF4847151
:1047600001EB4410FFF7D2FE0028F7D1012500E04D
:104770000025284670BD2DE9F04105460C46164639
:104780002078FF2808D16078FF2805D1A078FF287D
:1047900002D1E078FF2808D0207828B9607818B9CD
:1047A000A07808B9E07800B10EB900275CE00127D5
:1047B000217840F6084202EB4510FFF788FE617849
:1047C00040F6085202EB4510FFF781FEA17840F653
:1047D000086202EB4510FFF77AFEE17840F60872B6
:1047E00002EB4510FFF773FE310A41F2080202EBBB
:1047F0004510FFF76CFEF1B241F2081202EB4510D2
:10480000FFF765FE4FF4847101EB45100421FFF7BB
:104810005EFE00BF4FF4847101EB4510FFF776FE9A
:104820000028F7D117E04FF4427101EB4510FFF774
:104830006DFE172800D116E02846FFF7DEFB00F0DA
:10484000080040B14FF4027101EB45100821FFF759
:104850003EFE002707E04FF4427101EB4510FFF7E1
:1048600055FE1528DFD100BF3846BDE8F08110B5F0
:1048700004464FF4847101EB44100821FFF727FE32
:1048800000BF4FF4847101EB4410FFF73FFE002896
:10489000F7D110BD2DE9F04704468846164600259D
:1048A0000027A9462046FFF718FBB04204DA20464D
:1048B000FFF713FB074600E0374600BF2046FFF72F
:1048C000B9FB81464FF4427101EB4410FFF71EFE25
:1048D0000546172D03D01C2D01D0002701E0B94556
:1048E000ECDB00BF3A4641462046FFF7F7FB4FF4AA
:1048F000847101EB44102021FFF7E9FD00BF4FF464
:10490000847101EB4410FFF701FE0028F7D110E09D
:104910004FF4427101EB4410FFF7F8FD0546172DE7
:1049200007D01C2D05D02046FFF78CFE0020BDE8E7
:10493000F0874FF4027101EB4410FFF7E7FD00F040
:1049400010001028E4D14FF4027101EB4410102143
:10495000FFF7BDFD4FF4027101EB44101021FFF78A
:10496000B6FD3846E3E72DE9F04104460E4615460C
:104970000027002D15DD2A4631462046FFF7E4FBCF
:104980004FF4847101EB44104021FFF7A0FD00BFFC
:104990004FF4847101EB4410FFF7B8FD0028F7D104
:1049A0002F463846BDE8F0812DE9F0470446894698
:1049B00016461D46089F4FF000082046FFF78DFA67
:1049C000B04204DA2046FFF788FA804600E0B0469D
:1049D000287828B9687818B9A87808B9E87800B1B3
:1049E00017B94FF0000863E0297840F6084202EB5F
:1049F0004410FFF76CFD697840F6085202EB441052
:104A0000FFF765FDA97840F6086202EB4410FFF756
:104A10005EFDE97840F6087202EB4410FFF757FD9F
:104A2000390A41F2080202EB4410FFF750FDF9B2D7
:104A300041F2081202EB4410FFF749FD4246494695
:104A40002046FFF74BFB4FF4847101EB441020210B
:104A5000FFF73DFD00BF4FF4847101EB4410FFF7F9
:104A600055FD0028F7D112E04FF4027101EB44101C
:104A7000FFF74CFD00F0080048B14FF4027101EB64
:104A800044101821FFF723FD0020BDE8F0874FF404
:104A9000027101EB4410FFF739FD00F010001028FF
:104AA000E2D14FF4027101EB44101021FFF70FFD2A
:104AB0004046EAE72DE9FC5F05468A4691461E46D8
:104AC000DDF830800020009001900027002483460C
:104AD000B9F1000F7DDD42F6080101E09E000020E3
:104AE00001EB4510FFF712FD044642F6081101EBF9
:104AF0004510FFF70BFD00EB042084B2200200EB11
:104B0000451000F1180B082101EB4510FFF7FEFCE2
:104B100000F00700022804D0032844D0042879D1EB
:104B200079E0082269465846FFF73CFD04F1080089
:104B300084B29DF8000030709DF8010070709DF8FF
:104B40000200B0709DF80300F0709DF80400A8F812
:104B500000009DF8050098F8001000EB0120A8F86F
:104B600000009DF806709DF8070000EB072087B253
:104B7000200200EB451000F1180B3A46514658460A
:104B8000FFF710FDE01984B2210A42F6080202EB99
:104B90004510FFF79CFCE1B242F6081202EB45100B
:104BA000FFF795FC68E0062269465846FFF7FAFCD5
:104BB000A01D84B29DF8000030709DF80100707057
:104BC0009DF80200B0709DF80300F0709DF804702D
:104BD00000E062E09DF8050000EB072087B22002AC
:104BE00000EB451000F1180B3A4651465846FFF7C6
:104BF000D9FCE01984B2210A42F6080202EB451002
:104C0000FFF765FCE1B242F6081202EB4510FFF730
:104C10005EFC31E02FE0022269465846FFF7C2FCF5
:104C2000A01C84B29DF800709DF8010000EB0720E5
:104C3000801E87B240F2EA50874201DD00BFFEE7E6
:104C4000200200EB451000F1180B3A465146584639
:104C5000FFF7A8FCE01984B2210A42F6080202EB31
:104C60004510FFF734FCE1B242F6081202EB4510A2
:104C7000FFF72DFC00E000BF00BF4FF4847101EB93
:104C800045104021FFF723FC00BF4FF4847101EB76
:104C90004510FFF73BFC0028F7D13846BDE8FC9FE4
:104CA0004FF0E021096921F004014FF0E022116189
:104CB000C21700EB5272C2F3C702F44B1A701946C6
:104CC000097801EB4102C2EBC1114FF6FF7202EA13
:104CD000C101EF4A118070470146ED4A12884A43EC
:104CE0004FF0E0235A6100229A6101221A6100BF4D
:104CF0004FF0E022106900F001021AB100F4803296
:104D0000002AF5D000224FF0E0231A619A61704723
:104D100010B5044604E04FF47A70FFF7DDFF641E1F
:104D2000002CF8D110BD0146D84A12784A434FF002
:104D3000E0235A6100229A6101221A6100BF4FF0FC
:104D4000E022106900F001021AB100F48032002A5A
:104D5000F5D000224FF0E0231A619A6170470146B6
:104D6000302905DB392903DCA1F13000C0B27047DE
:104D7000612905DB662903DCA1F15700C0B2F6E723
:104D8000412905DB462903DCA1F13700C0B2EEE77B
:104D90000846ECE730B502460B46002405E012F861
:104DA000010BFFF7DCFF04FB030410780028F6D1A9
:104DB000A0B230BD30B502460B46002405E012F823
:104DC000010BFFF7CCFF04FB030410780028F6D199
:104DD000204630BD2DE9F04104460D461646701EB2
:104DE000C7B220223146284600F0B2FF00BF0A2099
:104DF00094FBF0F100FB11403030C2B23846791E0E
:104E0000CFB22A540A2094FBF0F080B2041EEEDCEC
:104E1000BDE8F0812DE9F04104460F469046264654
:104E20000CB1207810B90020BDE8F0810BE030789B
:104E3000FFF795FF0546002D03DBBD4201DA761C26
:104E400001E00020F0E730780028F0D1B9B2204628
:104E5000FFF7A0FFC8F800000120E5E710B50B46FA
:104E6000002104E0445C9C4200D14254491C445C53
:104E7000002CF7D110BD014600200A06100C40EAB4
:104E800011207047014600200806C1F3072240EABE
:104E90000240C1F3074240EA022040EA1160704735
:104EA0002DE9F04781460E4617461D4631464846D5
:104EB00000F060FF0446304600F07AFF04443946B3
:104EC000204600F057FF8246AAEB04001FFA80F844
:104ED00042462146284600F05FFF002005F8080002
:104EE000BDE8F0872DE9F04188B006460F4631460F
:104EF000684600F064FF6C4600251BE065A1204673
:104F000000F066FF04462078302809D160787828C0
:104F100006D11021A01CFFF73DFF00F0FF0805E0BF
:104F20000A212046FFF736FF00F0FF0807F805804A
:104F300000246D1C042DE1DB08B0BDE8F08110B544
:104F400004462021544800F00AFF534810BD10B514
:104F500004461021514800F002FF504810BDF0B542
:104F60008FB006460F4601AC314601A800F027FF7E
:104F700000252AE047A1204600F02AFF044614B984
:104F800000200FB0F0BD207830280AD16078782852
:104F900007D10EAA1021A01CFFF73CFF48B9002042
:104FA000EFE70EAA0A212046FFF734FF08B90020D8
:104FB000E7E70E9878550E98002802DB0E98FF2838
:104FC00001DD0020DDE700246D1C042DD2DB012073
:104FD000D7E700B503461846FFF74DFF00BD00B503
:104FE00003461846FFF74EFF00BD10B504462046A5
:104FF000FFF7EFFF10BD10B504462046FFF7EFFFA7
:1050000010BDF0B502460D46C5F34F060024002141
:105010000EE012F811304FF6FF7707EA032301275D
:1050200007EB4107D75D1F44BBB21C444F1CB9B20C
:10503000B142EEDB05F001071FB112F8113004EBAD
:105040000324A0B200EB1447FF43B8B2F0BDF1B5A2
:1050500000246D4600BF15E004F5A060FFF756FA86
:10506000295D00EA010704F57060FFF74FFA064674
:1050700004F5A060FFF74AFA0640B74201D00120CC
:10508000F8BD641C042CE7DB0020F9E7A600002033
:10509000A80000202E0000007802002098020020C6
:1050A00008B501210820FBF7E3FCC020ADF80000A3
:1050B00010208DF8030003208DF802006946F148A6
:1050C000FBF71AFAC021EF48FBF7C3FA08BD10B589
:1050D000EC48006820F07040EA4908600846006823
:1050E00040F0405008600120E7490860E749C1F8F6
:1050F00098010420FFF717FE0020E3490860042010
:10510000FFF711FE0020E149C1F8980110BD10B56C
:10511000DC48006820F07040DA4908600846006802
:1051200040F0405008600020D749091F0860D74967
:10513000C1F89C010420FFF7F6FD0120D249091FA8
:105140000860D249C1F89C010420FFF7ECFD10BDB6
:1051500010B50024CB48006820F07040C9490860B1
:105160000846006840F0004008600120C649086019
:10517000FFF7D9FD0120C549C1F89801FFF7D3FD1C
:1051800007E0601CC4B2FA2C03DDFFF7C0FF01206A
:1051900010BDBD48803800680028F2D1BA49091F07
:1051A000086000BFF4E710B50020B749091F086088
:1051B000B448006820F07040B249086008460068B2
:1051C00040F0405008600020B049C1F89C01022026
:1051D000FFF7A9FD0120AC49091F08600220FFF775
:1051E000A2FD0020A949C1F8980110BD10B500200A
:1051F000A549091F0860A348006820F07040A14934
:1052000008600846006840F04050086001209F494F
:10521000C1F89C010220FFF786FD01209A49091F71
:1052200008600220FFF77FFD00209849C1F898012F
:1052300010BD70B504469348006820F07040914955
:1052400008600846006840F04050086000208E4921
:10525000091F0860002517E0E0098B490860600617
:10526000040E0220FFF75FFD01208849C1F8980174
:105270000220FFF758FD00208349091F0860022023
:10528000FFF751FD681CC5B2082DE5DB70BD70B598
:10529000054600247B48006820F07040794908608A
:1052A0000846006840F000400860002617E0002033
:1052B0007549091F08600220FFF735FD0120734979
:1052C000C1F898016006040E6F488038006808B184
:1052D000601CC4B20120FFF726FD701CC6B2082E68
:1052E000E5DB15B9FFF782FF01E0FFF75CFF204621
:1052F00070BD10B5FFF7D4FE10BD70B50446002692
:10530000FFF7E5FE2546E11704EB11610912A02223
:1053100002EB4101C8B2FFF78CFFFFF719FFE1175D
:1053200004EB11610912A4EB0121C8B2FFF781FF60
:10533000FFF70EFFFFF7CBFEA120FFF77AFFFFF785
:1053400007FF0020FFF7A3FF0646FFF7E0FE304609
:1053500070BD70B504460E46FFF7B9FE2546E1174D
:1053600004EB11610912A02202EB4101C8B2FFF760
:1053700060FFFFF7EDFEE11704EB11610912A4EBEA
:105380000121C8B2FFF755FFFFF7E2FE3046FFF7F5
:1053900050FFFFF7DDFEFFF7BAFE0A20FFF79CFC87
:1053A00070BD2DE9F04105460E461746002409E080
:1053B000E20026FA02F2D1B22A1990B2FFF7C9FF31
:1053C000601CC4B2BC42F3DBBDE8F0812DE9F041C2
:1053D00007460C460026002509E036023919491B0C
:1053E000491E88B2FFF789FF0644681CC5B2A54272
:1053F000F3DB3046BDE8F08110B5FF20FFF77DFFFD
:105400000446552C01D1002010BD5521FF20FFF787
:10541000A0FFFF20FFF771FF0446552C01D10020AB
:10542000F2E70120F0E770B506460C46154608E0A5
:105430003046721C96B2FFF760FF04F8010B681E3D
:1054400085B2002DF4D170BD70B505460C461646E8
:1054500006E021782846FFF77CFF681C85B2641CB3
:10546000301EA6F101018EB2F3D170BD70B50546B4
:105470000C4621122846FFF76CFFE1B2681CFFF7CB
:1054800068FF70BD000C01409C81214200802142D8
:1054900008B501214020FBF7EBFA7E20ADF80000B3
:1054A00002208DF8020010208DF8030069466A483A
:1054B000FBF722F808BD08B501210820FBF7D8FA50
:1054C00001214020FBF7D4FA01211020FBF7D0FA8C
:1054D0004FF44870ADF8000002208DF80200102053
:1054E0008DF8030069465D48FBF706F80120ADF82A
:1054F000000002208DF8020010208DF8030069469C
:105500005548FAF7F9FF4FF48040ADF8000002204B
:105510008DF8020010208DF8030069465048FAF714
:10552000EBFF08BD10B50446BCB120214B48FBF78A
:1055300090F84FF480714948FBF78BF84FF40071F5
:105540004648FBF786F801214348FBF782F84FF401
:1055500080414348FBF77DF816E020213F48FBF7E8
:105560007AF84FF480713D48FBF775F84FF40071FD
:105570003A48FBF770F801213748FBF76CF84FF415
:1055800080413748FBF767F810BD10B50446072C7B
:1055900023D2DFE804F02204090E13181D000221B3
:1055A0002D48FBF756F819E004212B48FBF751F87A
:1055B00014E008212848FBF74CF80FE0102126489A
:1055C000FBF747F80AE020212348FBF742F805E003
:1055D00040212148FBF73DF800E000BF00BF10BDAF
:1055E00010B50446072C23D2DFE804F02204090E8C
:1055F00013181D0002211848FBF72DF819E00421AB
:105600001548FBF728F814E008211348FBF723F8A6
:105610000FE010211048FBF71EF80AE020210E4889
:10562000FBF719F805E040210B48FBF714F800E000
:1056300000BF00BF10BD10B508210748FAF7FCFFF6
:1056400020B108210448FBF706F803E008210248CE
:10565000FAF7FFFF10BD000000180140000C0140E8
:105660000010014008B5FF20ADF8000010208DF8B3
:10567000030003208DF802006946FE48FAF73CFF5C
:1056800008BD08B5FF20ADF8000048208DF80300E4
:105690006946F848FAF730FF08BD10B5F548FAF743
:1056A000C7FFC4B2204610BD10B5FFF7DBFFFF21D6
:1056B000F048FAF7D0FF40F2EE20FFF734FBFF216D
:1056C000EC48FAF7C6FF0120FFF72DFB10BD10B51F
:1056D0000024FFF7D6FF04E0601CC4B20120FFF7EE
:1056E00022FBFFF7DAFF08B1C82CF5DBC82C01DB81
:1056F000012010BD002404E0601CC4B20120FFF7AB
:1057000012FBFFF7CAFFFF2801D0F02CF4DBF02CCE
:1057100001DB0120EDE70020EBE708B501212020A7
:10572000FBF7A6F9FF20ADF8000010208DF803006C
:1057300002208DF802006946CE48FAF7DDFEFFF739
:10574000B3FFFFF7C4FFC0B208BD70B50446FFF752
:1057500089FF002522E004F00106641076B1FF21E4
:10576000C448FAF778FF0520FFF7DDFAFF21C148AA
:10577000FAF76FFF3C20FFF7D6FA0DE0FF21BD4896
:10578000FAF769FF3C20FFF7CEFAFF21B948FAF794
:1057900060FF0520FFF7C7FA681CC5B2082DDADBE9
:1057A00070BDF8B50746002603208DF80200082FCB
:1057B0002FD2DFE807F0042F5A85AFDAFEFD002470
:1057C00025E08020ADF8000010208DF80300694628
:1057D000A848FAF791FE8021A648FAF73CFF02207C
:1057E000FFF7A1FA48208DF803006946A148FAF7AF
:1057F00083FE80219F48FAF712FF054605FA04F060
:105800003043C6B22D20FFF78EFA601CC4B2082CBC
:10581000D7DB2EE1002425E04020ADF80000102069
:105820008DF8030069469348FAF766FE40219148D7
:10583000FAF711FF0220FFF776FA48208DF80300EF
:1058400069468C48FAF758FE40218A48FAF7E7FE85
:10585000054605FA04F03043C6B22D20FFF763FA7F
:10586000601CC4B2082CD7DB03E1002425E0202013
:10587000ADF8000010208DF8030069467D48FAF766
:105880003BFE20217B48FAF7E6FE0220FFF74BFAA9
:1058900048208DF8030069467648FAF72DFE20214E
:1058A0007448FAF7BCFE054605FA04F03043C6B268
:1058B0002D20FFF738FA601CC4B2082CD7DBD8E0E3
:1058C000002424E01020ADF800008DF803006946A4
:1058D0006848FAF711FE10216648FAF7BCFE02206C
:1058E000FFF721FA48208DF8030069466148FAF76E
:1058F00003FE10215F48FAF792FE054605FA04F010
:105900003043C6B22D20FFF70EFA601CC4B2082C3B
:10591000D8DBAEE0002425E00820ADF80000102020
:105920008DF8030069465348FAF7E6FD082151480F
:10593000FAF791FE0220FFF7F6F948208DF80300F0
:1059400069464C48FAF7D8FD08214A48FAF767FE3D
:10595000054605FA04F03043C6B22D20FFF7E3F9FF
:10596000601CC4B2082CD7DB83E0002428E00420AC
:10597000ADF8000010208DF8030069463D48FAF7A5
:10598000BBFD04213B48FAF766FE0220FFF7CBF986
:1059900048208DF8030069463648FAF7ADFD04212A
:1059A0003448FAF73CFE054605FA04F0304301E0BE
:1059B00034E008E0C6B22D20FFF7B5F9601CC4B290
:1059C000082CD4DB55E0002425E00220ADF80000CF
:1059D00010208DF8030069462648FAF78DFD022154
:1059E0002448FAF738FE0220FFF79DF948208DF889
:1059F000030069461F48FAF77FFD02211D48FAF7A8
:105A00000EFE054605FA04F03043C6B22D20FFF71E
:105A10008AF9601CC4B2082CD7DB2AE0002425E0F8
:105A20000120ADF8000010208DF8030069461148F0
:105A3000FAF762FD01210F48FAF70DFE0220FFF789
:105A400072F948208DF8030069460A48FAF754FDB8
:105A500001210848FAF7E3FD054605FA04F0304352
:105A6000C6B22D20FFF75FF9601CC4B2082CD7DB4B
:105A700000BF01E00014014000BF3046F8BD2DE931
:105A8000F05FFFF711FEFFF722FECC20FFF75DFE6F
:105A90004420FFF75AFEFFF707FEFFF718FECC2061
:105AA000FFF753FEBE20FFF750FE00242FE02046F4
:105AB000FFF777FE81462046FFF773FE0646300269
:105AC00005B245EA0905002D10DAE843401C00F054
:105AD00070FB074600229B4B00F081FA824600F0E3
