:020000040800F2
:10000000A015002439030008E95B0008F955000831
:10001000615B000831050008117100080000000054
:10002000000000000000000000000000196000084F
:10003000190F000800000000215C00085160000852
:100040005303000853030008530300085303000838
:100050005303000853030008530300085303000828
:10006000530300085303000853030008B9050008B0
:10007000C905000853030008530300085303000890
:1000800053030008530300085303000853030008F8
:1000900053030008530300085303000853030008E8
:1000A00053030008530300085303000853030008D8
:1000B00053030008530300085303000853030008C8
:1000C00053030008530300085303000853030008B8
:1000D000530300085303000853030008D9700008B5
:1000E00053030008530300080000000053030008F6
:1000F0005303000853030008530300085303000888
:100100005303000853030008530300085303000877
:100110005303000853030008530300085303000867
:100120005303000853030008530300085303000857
:100130005303000853030008530300085303000847
:1001400000000000000000000000000000000000AF
:100150005303000853030008530300085303000827
:100160005303000853030008530300085303000817
:100170005303000853030008530300080000000065
:1001800053030008530300085303000853030008F7
:1001900053030008530300085303000853030008E7
:1001A00053030008530300085303000853030008D7
:1001B00053030008530300085303000853030008C7
:1001C00053030008530300085303000853030008B7
:1001D00053030008530300085303000853030008A7
:1001E0005303000853030008530300085303000897
:1001F0005303000853030008530300085303000887
:100200005303000853030008530300085303000876
:100210005303000853030008530300085303000866
:1002200053030008530300085303000800000000B4
:1002300053030008530300080000000053030008A4
:100240005303000853030008530300085303000836
:100250005303000853030008530300085303000826
:100260005303000853030008530300085303000816
:100270005303000853030008530300080000000064
:100280005303000853030008530300080000000054
:10029000000000005303000800F002F800F03CF8F2
:1002A0000AA090E8000C82448344AAF10107DA45D1
:1002B00001D100F031F8AFF2090EBAE80F0013F0E7
:1002C000010F18BFFB1A43F001031847B87B000069
:1002D000D87B0000103A24BF78C878C1FAD85207FA
:1002E00024BF30C830C144BF04680C6070470000B0
:1002F0000023002400250026103A28BF78C1FBD82F
:10030000520728BF30C148BF0B6070471FB507F0C8
:100310008FFD1FBD10B510BD00F0D0F81146FFF7DE
:10032000F5FF07F005F800F0EEF803B4FFF7F2FF71
:1003300003BC00F0F5F80000094880470948004771
:10034000FEE7FEE7FEE7FEE7FEE7FEE7FEE7FEE785
:10035000FEE7FEE704480549054A064B70470000E2
:100360001961000899020008A00F0024A0150024BC
:10037000A0110024A011002453EA020C00F06980AF
:100380002DE9F04B4FF00006002B1FBFB3FA83F5A9
:1003900003FA05F424FA05F65E4012BF1643B2FADA
:1003A00082F502FA05F4C5F120051EBF22FA05FC0C
:1003B00044EA0C04203556EA044C4FEA144418BFB2
:1003C000641C4FF000084FF00009904271EB030CE1
:1003D00039D3002919BFB1FA81F701FA07F6B0FA4B
:1003E00080F700FA07F6C7F120071EBF20FA07FCC6
:1003F00046EA0C062037B6FBF4FCA7EB0507103FD6
:1004000007F01F0BCBF120062CFA06F60CFA0BFBBB
:1004100044BFB3460026202FA4BF5E464FF0000B1A
:100420005BEA060C08BF4FF0010B19EB0B0948EB18
:100430000608ABFB027C06FB02CC0BFB03CCC01B0B
:1004400071EB0C01C1E70B46024641464846BDE848
:10045000F08B13B5084318BF4FF0FF300146AFF3E0
:100460000080BDE81C4070474FF0000200B5134605
:1004700094469646203922BFA0E80C50A0E80C50C4
:10048000B1F12001BFF4F7AF090728BFA0E80C5075
:1004900048BF0CC05DF804EB890028BF40F8042B6E
:1004A00008BF704748BF20F8022B11F0804F18BFDB
:1004B00000F8012B7047704770477047754600F091
:1004C0002BF8AE4605006946534620F007008546E6
:1004D00018B020B5FFF73EFFBDE820404FF0000602
:1004E0004FF000074FF000084FF0000BAC46ACE8AF
:1004F000C009ACE8C009ACE8C009ACE8C00921F00B
:1005000007018D46704710B50446AFF300802046C2
:10051000BDE81040FFF709BF0048704758000024AD
:1005200001491820ABBEFEE726000200704700001C
:10053000FEE700000000000010B50446012840F668
:1005400000404FF00101C5F6020003D1002202F085
:10055000E7FC08E0012202F0E3FC40F64030002115
:10056000C2F200408170204605F07EF910BD000007
:1005700040F65830C2F200400178032988BF704726
:1005800001EB410140F2BC13B0F80720C2F2004376
:1005900003EB4101B0F80530B0F80F0012BA120CAD
:1005A00021F8042C1ABA00BA120C21F8022C000C03
:1005B00021F8060C7047000080B540F60C50C2F2DE
:1005C000004001F01DF980BD80B540F68450C2F2B4
:1005D000004001F015F980BD40F20F420168C4F2FD
:1005E0000202914210DC6F22C4F20202914220DC2E
:1005F0003F22C4F20202914236DC1022C4F202020F
:10060000914254D028224EE040F26F42C4F20202DE
:1006100091421ADC40F23F42C4F2020291422ADCCB
:1006200040F21042C4F20202914240D040F228420D
:1006300039E09F22C4F20202914225DC7022C4F20A
:100640000202914233D088222DE040F29F42C4F250
:10065000020291421FDC40F27042C4F20202914257
:1006600025D040F288421EE04022C4F202029142AC
:100670001DD0582217E040F24042C4F202029142DB
:1006800015D040F258420EE0A022C4F2020291427C
:100690000DD0B82207E040F2B842C4F20202914203
:1006A00005D040F2A042C4F2020291421AD1D0F821
:1006B00000C06FF00F024AF6AB2352FA8CF2CAF672
:1006C000AA23A2FB033109A35F2AC1F302115B5CD9
:1006D00040F2FF312CEA0101C36588BF0431816516
:1006E00008467047016821F0FF01F8E70006101680
:1006F000000610160000000010B545F257420168D0
:10070000C5F6020291420EDC45F22F42C5F6020206
:10071000914217DC45F20842C5F60202914226D00A
:1007200045F21C421FE045F27F42C5F602029142AB
:1007300011DC45F25842C5F60202914217D045F24B
:100740006C4210E045F23042C5F6020291420ED0F2
:1007500045F2444207E045F29442C5F60202914256
:1007600005D045F28042C5F60202914219D10178C6
:100770004CF6CD42CCF6CC4245F600030839C5F61E
:100780000203A1FB021203F18001120903EB8203B1
:1007900002F01F0203660123416603FA02F181663B
:1007A00010BD02784AF6AB23CAF6AA234FF0080E12
:1007B000103AA2FB032340F20F42C4F202024FEAB6
:1007C000131C914202F1AA04624688BF0EEB131279
:1007D00040F60003A142C4F2020303F1800128BFE6
:1007E0006246D3E70000000010B50279511E0729C8
:1007F00088BF10BD45F2574C45F6FC0E0368C5F6A0
:10080000020CC5F6020E63450EF1440C0EDC45F2F7
:100810002F44C5F60204A34217DC45F20844C5F68E
:100820000204A34226D045F21C441FE045F27F4457
:10083000C5F60204A34211DC45F25844C5F6020491
:10084000A34217D045F26C4410E045F23044C5F69F
:100850000204A3420ED045F2444407E045F280442E
:10086000C5F60204A34205D045F29444C5F602043D
:10087000A34209D10EEB8202C2660122C0F870C009
:1008800002FA01F1416710BD40F6FC0EC4F2020EFF
:100890000EF1440CEEE700008169B1F5005F07D06E
:1008A00079B9816A022912D0012916D079B112E0F2
:1008B000816A03290FD8DFE801F0020A0210012043
:1008C0007047816A03293CBF0120704703D1C06A89
:1008D000C0F30060704700207047C06AA0F1C0708C
:1008E000B0FA80F04009704770B540F26F44D0F81C
:1008F00000E0C4F20204D0F858C0A64519DC9F25D8
:10090000C4F20205AE4531DC5725C4F20205AE45FE
:1009100056DC1025C4F20205AE4500F09280282571
:10092000C4F20205AE4500F08C804025C4F20205F9
:1009300084E045F22F45C5F60205AE452BDC40F2BA
:10094000B745C4F20205AE4548DC40F27045C4F23A
:100950000205AE4575D040F28845C4F20205AE45A9
:100960006FD040F2A045C4F2020567E040F227458F
:10097000C4F20205AE4540DCA025C4F20205AE4536
:100980005FD0B825C4F20205AE455AD040F21045FA
:10099000C4F2020552E045F26B45C5F60205AE45CC
:1009A0003CDC45F23045C5F60205AE4549D045F27E
:1009B0004445C5F60205AE4543D045F258453BE0F7
:1009C0005825C4F20205AE453BD07025C4F202059D
:1009D000AE4536D08825C4F202052FE040F2B84576
:1009E000C4F20205AE452CD045F20845C5F6020515
:1009F000AE4526D045F21C451EE040F22845C4F223
:100A00000205AE451DD040F24045C4F20205AE4598
:100A100017D040F25845C4F202050FE045F26C458C
:100A2000C5F60205AE450CD045F29445C5F6020563
:100A3000AE4506D045F28045C5F60205AE4540F00C
:100A4000C980456EC66E002E866E6E601CBFD0E9F2
:100A50001C566E60A64515DC9F24C4F20204A64510
:100A60002BDC5724C4F20204A6454EDC1024C4F249
:100A70000204A64576D02824C4F20204A64571D00B
:100A800040246BE045F22F44C5F60204A64527DC5E
:100A900040F2B744C4F20204A64542DC40F270447E
:100AA000C4F20204A6455DD040F28844C4F20204B8
:100AB000A64557D040F2A04450E040F22744C4F28B
:100AC0000204A6453CDCA024C4F20204A64549D099
:100AD000B824C4F20204A64544D040F210443DE0DC
:100AE00045F26B44C5F60204A6454FDC45F230449E
:100AF000C5F60204A6455BD045F24444C5F602049F
:100B0000A64555D045F258444EE05824C4F202049C
:100B1000A64527D07024C4F20204A64522D088241A
:100B20001CE040F2B844C4F20204A6451AD045F2D3
:100B30000844C5F60204A6453AD045F21C4433E009
:100B400040F22844C4F20204A6450BD040F24044CF
:100B5000C4F20204A64505D040F25844C4F202048F
:100B6000A64537D104683F258668C06D00F01F0098
:100B7000402E05FA00F0CCF80800206820F4802010
:100B80002060636021D0A160E26070BD45F26C44DA
:100B9000C5F60204A6450BD045F28044C5F6020412
:100BA000A64505D045F29444C5F60204A64511D1E8
:100BB0000468C66D806806F01F060125402805FA06
:100BC00006F6CCF80460636002D1A260E16070BDFB
:100BD000A160E26070BD000080B5013803280AD82A
:100BE000DFE800F0020B111741F20000C5F6020029
:100BF000A0F5406005E0C0B280BD41F20000C5F63E
:100C0000020020210DE041F200004021C5F6020063
:100C100007E041F200004FF40051C5F60200A0F5D4
:100C2000006002F06DF9C0B280BD0000000000005D
:100C300080B50138032825D80A46DFE800F002090C
:100C4000111941F20000C5F60200A0F5406003E072
:100C500041F20000C5F60200202102F061F980BDDA
:100C600041F200004021C5F6020002F059F980BDB2
:100C700041F200004FF40051C5F60200A0F50060FB
:100C800002F04EF980BD000010B586B0002005903E
:100C9000CDE90300CDE9010044F2E04040F2004418
:100CA000C5F60200C5F60204016841F002010160C8
:100CB000016801F0020100910099016841F0100102
:100CC0000160016801F0100100910099016841F094
:100CD00004010160006801A900F004000090009880
:100CE000202001900120CDE902000220049020463E
:100CF00002F036F820210122204602F011F906B058
:100D000010BD000000000000B0B5044600F0C8F8B7
:100D1000204600F061F8CC21204600F0D5F84421AF
:100D2000204600F0D1F8204600F0BAF8204600F046
:100D300053F8CC21204600F0C7F8BE21204600F031
:100D4000C3F8204600F09CF80546204600F098F8CD
:100D500045EA002000B2B0F1FF3F04DD00EE100ACA
:100D6000B8EEC00B04E0404200EE100AB8EEC00B33
:100D70009FED031B20EE010BB7EEC00BB0BD00BF13
:100D8000000000000000B03F80B586B02020019038
:100D9000002001A9CDE902000220049040F20040A9
:100DA000C5F6020001F0DCFF06B080BD00000000C7
:100DB00080B586B020200190012001A9CDE9020074
:100DC0000220049040F20040C5F6020001F0C8FF86
:100DD00006B080BD00000000B0B50446FFF7D4FFA8
:100DE0002046FFF7F9FE90B1002000BF0546012024
:100DF00006F026FA2046FFF7EFFE622D03D8002802
:100E000005F10100F2D1622D01D90120B0BD2046CB
:100E1000FFF7E2FE00281CBF0020B0BD002000BF8D
:100E20000546012006F00CFA2046FFF7D5FEEE2D10
:100E300003D8002805F10100F2D00020EE2D88BF74
:100E40000120B0BD0000000010B50446FFF7B0FF60
:100E500000212046FFF7ECFE0A2006F0F1F9FFF72B
:100E600093FF022006F0ECF92046FFF7B5FE0138AB
:100E7000B0FA80F044092D2006F0E2F9204610BDBA
:100E800070B50446002500262046FFF7DDFFA84088
:100E90000135082D46EA0006F6D1F0B270BD00001B
:100EA00010B50446FFF784FF00212046FFF7C0FE7F
:100EB00040F2EE2006F0C4F901212046FFF7B8FE0B
:100EC0000F2006F0BDF910BDF0B581B00C46054607
:100ED000FFF76EFF002700BF0021284604F001063F
:100EE0006408FFF7A5FE002E4FF008004FF03A0609
:100EF00004BF4620022606F0A3F901212846FFF789
:100F000097FE304606F09CF9072F07F10107E3D35F
:100F100001B0F0BD000000007047000000000000BC
:100F2000B0B504F06DFBFFF7AFFE06F0F1FD40F247
:100F3000440440F23405C2F20044C2F200452046A7
:100F4000294606F015FD06F00BFE2046294606F060
:100F500057FDB0BD0000000080B540F64030C2F241
:100F60000040817AC27A007B1143084318BF0120F8
:100F700004F056FC80BD0000EFF3108072B600BF95
:100F8000FEE70000000000002DE9F041044601F0FA
:100F9000D7FF04B3054694F8350002281ED140F26D
:100FA0000F472068C4F2020740F26F48B842C4F20B
:100FB000020817DC6F21C4F20201884223DC3F21C2
:100FC000C4F20201884239DC1021C4F202018842D5
:100FD00058D0282151E00120BDE8F08180206065D3
:100FE0000120ABE240451ADC40F23F41C4F202016D
:100FF00088422ADC40F21041C4F20201884241D00A
:1010000040F2284139E09F21C4F20201884225DCE8
:101010007021C4F20201884234D088212DE040F2D0
:101020009F41C4F2020188421FDC40F27041C4F2C9
:101030000201884226D040F288411EE04021C4F2DD
:10104000020188421ED0582117E040F24041C4F20C
:101050000201884216D040F258410EE0A021C4F2AD
:10106000020188420ED0B82107E040F2B841C4F234
:101070000201884206D040F2A041C4F20201884237
:1010800040F0EA812668316821F01E02314641F8BD
:10109000142B6FF080020B68404502EA03020A60DD
:1010A00019DC9F21C4F20201884231DC5721C4F2CD
:1010B0000201884256DC1021C4F20201884200F08D
:1010C00091802821C4F20201884200F08B804021E7
:1010D000C4F2020184E045F22F41C5F602018842C4
:1010E0002BDC40F2B741C4F20201884248DC40F2F6
:1010F0007041C4F20201884274D040F28841C4F2C7
:10110000020188426ED040F2A041C4F2020167E0C1
:1011100040F22741C4F20201884240DCA021C4F21F
:10112000020188425ED0B821C4F20201884259D03F
:1011300040F21041C4F2020152E045F26B41C5F6A3
:10114000020188423CDC45F23041C5F6020188428A
:1011500048D045F24441C5F60201884242D045F2EA
:1011600058413BE05821C4F2020188423AD0702134
:10117000C4F20201884235D08821C4F202012FE076
:1011800040F2B841C4F2020188422BD045F2084136
:10119000C5F60201884225D045F21C411EE040F20E
:1011A0002841C4F2020188421CD040F24041C4F2FE
:1011B0000201884216D040F25841C4F202010FE009
:1011C00045F26C41C5F6020188420BD045F29441CC
:1011D000C5F60201884205D045F28041C5F60201FC
:1011E000884269D1216EB8420A6822F480720A608E
:1011F00010DC6F21C4F2020188421CDC3F21C4F2E2
:101200000201884232DC1021C4F20201884252D02D
:1012100028214AE040451ADC40F23F41C4F2020175
:1012200088422ADC40F21041C4F20201884242D0D6
:1012300040F2284139E09F21C4F20201884225DCB6
:101240007021C4F20201884235D088212DE040F29D
:101250009F41C4F2020188421FDC40F27041C4F297
:101260000201884227D040F288411EE04021C4F2AA
:10127000020188421FD0582117E040F24041C4F2D9
:101280000201884217D040F258410EE0A021C4F27A
:10129000020188420FD0B82107E040F2B841C4F201
:1012A0000201884207D040F2A041C4F20201884204
:1012B00008BF206800E02068016821F0010101609A
:1012C0003068C0070BD001F03BFE401B0628F7D367
:1012D00020206065032084F8350001202EE120687D
:1012E000B84210DC6F21C4F2020188421CDC3F21AD
:1012F000C4F20201884232DC1021C4F202018842A9
:1013000050D028214AE040451ADC40F23F41C4F267
:10131000020188422ADC40F21041C4F202018842F4
:1013200040D040F2284139E09F21C4F202018842B6
:1013300025DC7021C4F20201884233D088212DE0DF
:1013400040F29F41C4F2020188421FDC40F270412A
:10135000C4F20201884225D040F288411EE04021BB
:10136000C4F2020188421DD0582117E040F24041EA
:10137000C4F20201884215D040F258410EE0A0218B
:10138000C4F2020188420DD0B82107E040F2B84112
:10139000C4F20201884205D040F2A041C4F2020129
:1013A00088425ED1D4E9161202F01F023F2303FAED
:1013B00002F28A6040455EDC9F21C4F2020188424D
:1013C00014DC5721C4F20201884226DC1021C4F249
:1013D0000201884200F0A2802821C4F20201884262
:1013E00000F09C804021C4F2020195E040F22741C8
:1013F000C4F2020188421EDCA021C4F2020188422C
:1014000000F08C80B821C4F20201884200F086808E
:1014100040F21041C4F202017EE05821C4F2020100
:1014200088427BD07021C4F20201884276D08821A4
:10143000C4F2020170E040F22841C4F20201884285
:101440006CD040F24041C4F20201884266D040F2C2
:101450005841C4F202015FE021686FF00E020E46AF
:1014600019E6D4E9161202F01F02012303FA02F270
:101470004A604045A0DD45F22F41C5F60201884291
:1014800016DC40F2B741C4F20201884225DC40F28A
:101490007041C4F20201884240D040F28841C4F257
:1014A000020188423AD040F2A041C4F2020133E086
:1014B00045F26B41C5F6020188421DDC45F2304120
:1014C000C5F60201884229D045F24441C5F6020121
:1014D000884223D045F258411CE040F2B841C4F2A2
:1014E000020188421AD045F20841C5F6020188423D
:1014F00014D045F21C410DE045F26C41C5F60201E5
:1015000088420BD045F29441C5F60201884205D0CD
:1015100045F28041C5F6020188420BD1616EA26E90
:10152000E06E4A6030B1016821F480710160D4E955
:101530001C014160012084F835000020002184F85E
:101540003410BDE8F081000080B5D8B190F83510B6
:10155000022919D140F20F420168C4F202029142FD
:1015600016DC6F23C4F20203994226DC3F23C4F247
:10157000020399423CDC1023C4F2020399425AD080
:10158000282354E0012080BD80214165012080BDD9
:1015900040F26F43C4F2020399421ADC40F23F4327
:1015A000C4F2020399422ADC40F21043C4F202035F
:1015B000994240D040F2284339E09F23C4F202030D
:1015C000994225DC7023C4F20203994233D0882368
:1015D0002DE040F29F43C4F2020399421FDC40F227
:1015E0007043C4F20203994225D040F288431EE0C2
:1015F0004023C4F2020399421DD0582317E040F261
:101600004043C4F20203994215D040F258430EE021
:10161000A023C4F2020399420DD0B82307E040F2A0
:10162000B843C4F20203994205D040F2A043C4F289
:101630000203994270D191424FF0040280F83520A4
:1016400010DC6F22C4F20202914220DC3F22C4F27D
:101650000202914236DC1022C4F20202914254D0BE
:1016600028224EE040F26F42C4F2020291421ADC9C
:1016700040F23F42C4F2020291422ADC40F21042A0
:10168000C4F20202914240D040F2284239E09F2247
:10169000C4F20202914225DC7022C4F2020291429D
:1016A00033D088222DE040F29F42C4F202029142E0
:1016B0001FDC40F27042C4F20202914225D040F297
:1016C00088421EE04022C4F2020291421DD05822FC
:1016D00017E040F24042C4F20202914215D040F2BB
:1016E00058420EE0A022C4F2020291420DD0B8226C
:1016F00007E040F2B842C4F20202914205D040F243
:10170000A042C4F20202914224D10068016821F093
:1017100001010160002080BD0268136823F00E0300
:10172000136045F25742C5F6020291420A6822F060
:1017300001020A6014DC45F22F42C5F60202914212
:101740001DDC45F20842C5F6020291422CD045F25A
:101750001C4225E0086820F001000860002080BDE0
:1017600045F27F42C5F60202914211DC45F2584231
:10177000C5F60202914217D045F26C4210E045F2E4
:101780003042C5F6020291420ED045F2444207E0D3
:1017900045F29442C5F60202914205D045F28042DC
:1017A000C5F6020291421AD1D0E9181CD0E916E31D
:1017B0000A6822F480720A6003F01F01012202FA13
:1017C00001F1CEF80410816ECCF80410C16E31B175
:1017D0000A6822F480720A60D0E91C124A60012172
:1017E00080F83510026D002180F834100AB190475E
:1017F0000021084680BD0000406D704700000000D9
:101800002DE9F04381B00021009140F2000104462F
:10181000C2F2004140F26F49A56DC4F202090868A6
:1018200048F2B511C1F64E312668A0FB01084E45BD
:101830002F682A6815DC9F20C4F2020086422BDC48
:101840005720C4F2020086424FDC1020C4F202008E
:10185000864278D02820C4F20200864273D040200D
:101860006CE045F22F40C5F60200864227DC40F2CC
:10187000B740C4F20200864243DC40F27040C4F23A
:10188000020086425FD040F28840C4F202008642E5
:1018900059D040F2A04051E040F22740C4F202008B
:1018A00086423DDCA020C4F2020086424BD0B82024
:1018B000C4F20200864246D040F210403EE045F2BB
:1018C0006B40C5F60200864274DC45F23040C5F636
:1018D0000200864200F0818045F24440C5F60200D5
:1018E00086427AD045F2584072E05820C4F2020095
:1018F000864228D07020C4F20200864223D088207D
:101900001CE040F2B840C4F2020086421BD045F20F
:101910000840C5F6020086425FD045F21C4057E001
:1019200040F22840C4F2020086420CD040F240400F
:10193000C4F20200864206D040F25840C4F20200CF
:10194000864240F0ED84E06D00F01F01082000FAAF
:1019500001F23A4200F0148140F20F40C4F202005A
:10196000864213DC6F20C4F20200864200F38E80B0
:101970003F20C4F20200864200F3CF801020C4F260
:101980000200864200F0ED802820E5E04E4500F39D
:10199000898040F23F40C4F20200864200F3C480D6
:1019A00040F21040C4F20200864200F0DA8040F2B9
:1019B0002840D1E045F26C40C5F6020086420CD0CA
:1019C00045F28040C5F60200864206D045F29440BA
:1019D000C5F60200864240F0A3842068E16D01F064
:1019E0001F010368580727D50420884010EA020722
:1019F00022D01904686000F18780980600F18C8479
:101A000040F20F40C4F20200864200F3AB836F2025
:101A1000C4F20200864200F3E6833F20C4F20200D3
:101A2000864200F350841020C4F20200864200F087
:101A30006D84282000F066BC980742D502208840BB
:101A400010EA02073DD01904686000F10E83980681
:101A500000F1988440F20F40C4F20200864200F385
:101A6000AF836F20C4F20200864200F311843F204E
:101A7000C4F20200864200F356841020C4F2020031
:101A8000864200F07384282000F06CBC9F20C4F2D2
:101A90000200864251DC7020C4F20200864260D00F
:101AA000882059E040F29F40C4F2020086424BDC9D
:101AB00040F27040C4F20200864252D040F28840A8
:101AC0004AE0180740F12C8408208840104000F0BC
:101AD000278440F20F40C4F20200864200F32C83B8
:101AE0006F20C4F20200864200F34F833F20C4F20D
:101AF0000200864200F393831020C4F20200864263
:101B000000F0B1832820A9E3D80300F1B482A16CCE
:101B1000002940F00C8300F003BC4020C4F2020016
:101B200086421ED0582017E040F24040C4F2020026
:101B3000864216D040F258400EE0A020C4F20200C7
:101B400086420ED0B82007E040F2B840C4F202004E
:101B5000864206D040F2A040C4F20200864240F025
:101B60008E82206804230068184209D02068036828
:101B700023F004030360AA60606D40F0010060651B
:101B8000012000FA01F23A4270D040F20F40C4F254
:101B90000200864210DC6F20C4F2020086421CDC88
:101BA0003F20C4F20200864232DC1020C4F2020060
:101BB000864251D028204AE04E451ADC40F23F4090
:101BC000C4F2020086422ADC40F21040C4F2020055
:101BD000864241D040F2284039E09F20C4F2020002
:101BE000864225DC7020C4F20200864234D0882070
:101BF0002DE040F29F40C4F2020086421FDC40F21A
:101C00007040C4F20200864226D040F288401EE0B6
:101C10004020C4F2020086421ED0582017E040F255
:101C20004040C4F20200864216D040F258400EE016
:101C3000A020C4F2020086420ED0B82007E040F295
:101C4000B840C4F20200864206D040F2A040C4F27E
:101C50000200864240F016822068406900F0800051
:101C600020B1AA60606D40F002006065042000FAB7
:101C700001F23A4270D040F20F40C4F202008642B4
:101C800010DC6F20C4F2020086421CDC3F20C4F24C
:101C90000200864232DC1020C4F20200864251D09B
:101CA00028204AE04E451ADC40F23F40C4F20200D0
:101CB00086422ADC40F21040C4F20200864241D043
:101CC00040F2284039E09F20C4F20200864225DC21
:101CD0007020C4F20200864234D088202DE040F209
:101CE0009F40C4F2020086421FDC40F27040C4F202
:101CF0000200864226D040F288401EE04020C4F216
:101D0000020086421ED0582017E040F24040C4F244
:101D10000200864216D040F258400EE0A020C4F2E5
:101D2000020086420ED0B82007E040F2B840C4F26C
:101D30000200864206D040F2A040C4F20200864271
:101D400040F0A6812068006800F0020020B1AA607F
:101D5000606D40F004006065102000FA01F1394226
:101D60007ED040F20F40C4F20200864210DC6F20A9
:101D7000C4F2020086421CDC3F20C4F2020086420C
:101D800032DC1020C4F20200864251D028204AE002
:101D90004E451ADC40F23F40C4F2020086422ADC83
:101DA00040F21040C4F20200864241D040F2284086
:101DB00039E09F20C4F20200864225DC7020C4F284
:101DC0000200864234D088202DE040F29F40C4F2C9
:101DD000020086421FDC40F27040C4F202008642DC
:101DE00026D040F288401EE04020C4F20200864225
:101DF0001ED0582017E040F24040C4F20200864254
:101E000016D040F258400EE0A020C4F202008642F4
:101E10000ED0B82007E040F2B840C4F2020086427B
:101E200006D040F2A040C4F20200864240F0368163
:101E3000266808223068104212D0A9602068016824
:101E40004903016806D4C90506D4016821F00801D8
:101E5000016001E008034FD4216C09B12046884796
:101E6000E06D202100F01F008140394200F0AE807B
:101E700040F20F432268C4F202039A4210DC6F233F
:101E8000C4F202039A421CDC3F23C4F202039A42CA
:101E900036DC1023C4F202039A4255D028234EE0C8
:101EA0004A451ADC40F23F43C4F202039A422EDC58
:101EB00040F21043C4F202039A4245D040F2284354
:101EC0003DE09F23C4F202039A4229DC7023C4F24E
:101ED00002039A4238D0882331E040F29F43C4F293
:101EE00002039A4223DC40F27043C4F202039A4296
:101EF0002AD040F2884322E0A16C0029AED1AFE79E
:101F00004023C4F202039A421ED0582317E040F245
:101F10004043C4F202039A4216D040F258430EE006
:101F2000A023C4F202039A420ED0B82307E040F285
:101F3000B843C4F202039A4206D040F2A043C4F26E
:101F400002039A4240F0AC802268102312681A42C1
:101F50003CD0A96094F835202168042A0A681DD174
:101F600022F016020A604A6922F080024A61226C5D
:101F70000AB9A26C1AB10A6822F008020A603F216D
:101F800001FA00F0A860012084F83500216D0020DE
:101F9000002984F8340040F0CA80C1E15003086889
:101FA0000CD4C0050ED4086820F010000860012091
:101FB00084F83500002084F8340003E0000301D4E5
:101FC000616C00E0E16B09B120468847606D002834
:101FD00000F0A681606DC00700F0A580042084F8A1
:101FE000350040F20F412068C4F20201884210DC43
:101FF0006F21C4F2020188421CDC3F21C4F20201BD
:1020000088424FDC1021C4F2020188426FD028219F
:1020100067E048451ADC40F23F41C4F202018842C1
:1020200047DC40F21041C4F2020188425FD040F226
:10203000284156E09F21C4F20201884242DC70210F
:10204000C4F20201884252D088214AE040F29F4106
:10205000C4F2020188423CDC40F27041C4F2020149
:10206000884244D040F288413BE0D80376D4616C8A
:1020700000295CD154E1216C002958D150E108239A
:10208000304670E53068002000287FF4EAADEDE5C9
:102090003068002000287FF45AAE5DE60422C9E6CD
:1020A000022353E74021C4F2020188421FD0582185
:1020B00017E040F24041C4F20201884217D040F2DA
:1020C00058410EE0A021C4F2020188420FD0B8218D
:1020D00007E040F2B841C4F20201884207D040F262
:1020E000A041C4F20201884208BF206800E02068D5
:1020F0004FEA9821026822F0010202600098013044
:102100000090884203D820680068C007F6D1206894
:102110000068C0074FF0030008BF012084F83500B5
:10212000002084F83400E16C002900F0F98020469A
:10213000884701B0BDE8F0834E4532DC40F23F40B5
:10214000C4F20200864271DC40F21040C4F2020088
:10215000864200F0888040F228407FE0E16B002951
:10216000E5D1DDE04E454BDC40F23F40C4F20200D9
:10217000864200F3AF8040F21040C4F20200864273
:1021800000F0C48040F22840BCE09F20C4F202006E
:10219000864254DC7020C4F20200864263D088205C
:1021A0005CE040F29F40C4F2020086424EDC40F206
:1021B0007040C4F20200864255D040F288404DE0A3
:1021C0004E4571DC40F23F40C4F20200864200F30B
:1021D000B18040F21040C4F20200864200F0C68096
:1021E00040F22840BEE09F20C4F2020086427ADC22
:1021F0007020C4F20200864200F08880882081E0CE
:1022000040F29F40C4F20200864273DC40F270400C
:10221000C4F20200864279D040F2884072E0402049
:10222000C4F2020086421ED0582017E040F240401F
:10223000C4F20200864216D040F258400EE0A020C0
:10224000C4F2020086420ED0B82007E040F2B84047
:10225000C4F20200864206D040F2A040C4F202005E
:10226000864240F0948026686FF01C02306810406F
:102270003060012000FA01F16960606584F8350082
:102280000020E16C84F8340000297FF450AF47E06F
:102290009F20C4F20200864255DC7020C4F2020086
:1022A000864263D088205DE040F29F40C4F2020085
:1022B00086424FDC40F27040C4F20200864255D0A4
:1022C00040F288404EE04020C4F2020086421DD019
:1022D000582017E040F24040C4F20200864215D078
:1022E00040F258400EE0A020C4F2020086420DD019
:1022F000B82007E040F2B840C4F20200864205D0A0
:1023000040F2A040C4F20200864243D126686FF03A
:102310000801306808403060216C00297FF407AF65
:1023200001B0BDE8F0834020C4F2020086421DD017
:10233000582017E040F24040C4F20200864215D017
:1023400040F258400EE0A020C4F2020086420DD0B8
:10235000B82007E040F2B840C4F20200864205D03F
:1023600040F2A040C4F20200864216D126686FF007
:102370001401306808403060012084F835000020E6
:1023800084F83400E16B00297FF4D1AEC8E76FF028
:102390000E026BE76FF00401BBE76FF00A01E8E79C
:1023A0002DE9F04381B0044600F0CAFD002C00F096
:1023B000758140F26F4805462068C4F20208404526
:1023C00015DC9F21C4F2020188422BDC5721C4F2A4
:1023D0000201884251DC1021C4F2020188427AD005
:1023E0002821C4F20201884275D040216EE045F2F6
:1023F0002F41C5F60201884227DC40F2B741C4F202
:102400000201884245DC40F27041C4F20201884278
:1024100061D040F28841C4F2020188425BD040F2B0
:10242000A04153E040F22741C4F2020188423FDC60
:10243000A021C4F2020188424DD0B821C4F20201A9
:10244000884248D040F2104140E045F26B41C5F669
:102450000201884200F3908045F23041C5F6020146
:10246000884200F09C8045F24441C5F60201884252
:1024700000F0958045F258418CE05821C4F20201E9
:10248000884228D07021C4F20201884223D08821DA
:102490001CE040F2B841C4F2020188421BD045F270
:1024A0000841C5F60201884279D045F21C4171E02D
:1024B00040F22841C4F2020188420CD040F240416F
:1024C000C4F20201884206D040F25841C4F202012F
:1024D000884240F0138240F20F420221C4F202020D
:1024E00084F8351090424FF0000184F8341012DC6B
:1024F0006F21C4F20201884220DC3F21C4F20201B4
:10250000884200F392801021C4F20201884200F058
:10251000B1802821A8E040451EDC40F23F41C4F2D2
:102520000201884200F3888040F21041C4F20201A7
:10253000884200F09F8040F2284195E09F21C4F23C
:102540000201884200F381807021C4F202018842B6
:1025500000F09080882187E040F29F41C4F20201A0
:10256000884279DC40F27041C4F20201884200F0F6
:10257000818040F2884177E045F26C41C5F6020166
:1025800088420CD045F28041C5F60201884206D04F
:1025900045F29441C5F60201884240F0AF8104F152
:1025A000080E022084F83500002084F834002068EA
:1025B0009EE80640A1F180034029B3FA83F34FEA75
:1025C0005313D4E90579D4E9076C05684FEA8333DE
:1025D0006FF3101508BF102345EAD2014AF6F8320E
:1025E0001943CAF2FD7241EADE014CF6CD4341EADD
:1025F000D701024441EAD901CCF6CC4341EAD601E5
:10260000A2FB032341EA1C1101606FF0030000EA02
:102610009300E0652046FDF7DFFFE16D012201F048
:102620001F0102FA01F141609CE04021C4F2020165
:1026300088421FD0582117E040F24041C4F2020105
:10264000884217D040F258410EE0A021C4F20201A6
:1026500088420FD0B82107E040F2B841C4F202012D
:10266000884207D040F2A041C4F20201884208BF6C
:10267000206800E02068016821F00101016000BFCE
:1026800027683868C0070DD000F05AFC401B0628A8
:10269000F6D320206065032084F83500012001B0C6
:1026A000BDE8F08348F23F0104F108053868CFF631
:1026B000106108402ECD0843A1691043E269184318
:1026C000236A0543606A2943042841EA020141EA7A
:1026D000030103D1D4E90B231143194341F2000252
:1026E000C5F600421268B2F1005F17D36268A2F12A
:1026F0002903202B06D23F25CCF2C03525FA03F35F
:10270000DB0706D1A2F14F030022042B38BF0122C0
:1027100000E00122002A18BF41F48011396004282A
:10272000796921F0070141EA000510D1D4E90A10C6
:1027300045EA010558B12046FEF7AEF838B1402011
:102740006065012084F8350001B0BDE8F0832046C3
:102750007D61FDF741FFE16D3F2201F01F0102FAAB
:1027600001F181602068404519DC9F21C4F202011B
:10277000884231DC5721C4F20201884256DC102124
:10278000C4F20201884200F091802821C4F20201C3
:10279000884200F08B804021C4F2020184E045F2BF
:1027A0002F41C5F6020188422BDC40F2B741C4F24A
:1027B0000201884248DC40F27041C4F202018842C2
:1027C00074D040F28841C4F2020188426ED040F2D7
:1027D000A041C4F2020167E040F22741C4F20201C5
:1027E000884240DCA021C4F2020188425ED0B821B8
:1027F000C4F20201884259D040F21041C4F20201F1
:1028000052E045F26B41C5F6020188423CDC45F2DC
:102810003041C5F60201884248D045F24441C5F630
:102820000201884242D045F258413BE05821C4F2AF
:10283000020188423AD07021C4F20201884235D0A8
:102840008821C4F202012FE040F2B841C4F2020133
:1028500088422BD045F20841C5F60201884225D0B6
:1028600045F21C411EE040F22841C4F202018842B8
:102870001CD040F24041C4F20201884216D040F21E
:102880005841C4F202010FE045F26C41C5F6020165
:1028900088420BD045F29441C5F60201884205D02A
:1028A00045F28041C5F6020188421FD12046FDF75E
:1028B00023FFA068802801D10020606004F160033C
:1028C0006068C7B201380ECB07280F60536009D883
:1028D0002046FDF789FF04F16C02002307CA03605C
:1028E0004A6003E00020C4E91B00606700206065C7
:1028F000012184F8351001B0BDE8F0834020C9E61D
:10290000F0B581B0A8B3044690F83400012802D194
:10291000022001B0F0BD012084F8340094F83500A5
:10292000012820D1022084F835000020606540F2A3
:102930000F462068C4F2020640F26F47B042C4F26C
:10294000020719DC6F25C4F20205A84225DC3F25E9
:10295000C4F20205A8423BDC1025C4F20205A842DD
:102960005BD0282553E04FF400606065002084F8B8
:102970003400012001B0F0BDB8421ADC40F23F45FE
:10298000C4F20205A8422ADC40F21045C4F2020556
:10299000A84242D040F2284539E09F25C4F2020502
:1029A000A84225DC7025C4F20205A84235D088254E
:1029B0002DE040F29F45C4F20205A8421FDC40F220
:1029C0007045C4F20205A84227D040F288451EE0B7
:1029D0004025C4F20205A8421FD0582517E040F256
:1029E0004045C4F20205A84217D040F258450EE017
:1029F000A025C4F20205A8420FD0B82507E040F296
:102A0000B845C4F20205A84207D040F2A045C4F27E
:102A10000205A84208BF206800E02068056825F08C
:102A2000010505602046FDF75FFF2068B04210DC1D
:102A30006F21C4F2020188421CDC3F21C4F2020172
:102A4000884232DC1021C4F20201884251D0282190
:102A50004AE0B8421ADC40F23F41C4F20201884227
:102A60002ADC40F21041C4F20201884241D040F217
:102A7000284139E09F21C4F20201884225DC7021FF
:102A8000C4F20201884234D088212DE040F29F41F7
:102A9000C4F2020188421FDC40F27041C4F202011C
:102AA000884226D040F288411EE04021C4F2020153
:102AB00088421ED0582117E040F24041C4F2020182
:102AC000884216D040F258410EE0A021C4F2020123
:102AD00088420ED0B82107E040F2B841C4F20201AA
:102AE000884206D040F2A041C4F20201884240F080
:102AF000298121680B25226C0B6865F344030B6068
:102B00001AB10A6842F008020A60B84219DC9F2133
:102B1000C4F20201884231DC5721C4F2020188422A
:102B200056DC1021C4F20201884200F09180282175
:102B3000C4F20201884200F08B804021C4F20201FD
:102B400084E045F22F41C5F6020188422BDC40F2B9
:102B5000B741C4F20201884248DC40F27041C4F23D
:102B60000201884274D040F28841C4F202018842D6
:102B70006ED040F2A041C4F2020167E040F227416A
:102B8000C4F20201884240DCA021C4F20201884262
:102B90005ED0B821C4F20201884259D040F21041FF
:102BA000C4F2020152E045F26B41C5F602018842CF
:102BB0003CDC45F23041C5F60201884248D045F27E
:102BC0004441C5F60201884242D045F258413BE0FB
:102BD0005821C4F2020188423AD07021C4F20201A5
:102BE000884235D08821C4F202012FE040F2B8417A
:102BF000C4F2020188422BD045F20841C5F6020119
:102C0000884225D045F21C411EE040F22841C4F222
:102C1000020188421CD040F24041C4F202018842C5
:102C200016D040F25841C4F202010FE045F26C4167
:102C3000C5F6020188420BD045F29441C5F6020167
:102C4000884205D045F28041C5F60201884272D122
:102C5000216E0A68D20303D50A6842F480720A60C2
:102C6000E16E19B10A6842F480720A60B04210DC69
:102C70006F21C4F2020188421CDC3F21C4F2020130
:102C8000884232DC1021C4F20201884252D028214D
:102C90004AE0B8421ADC40F23F41C4F202018842E5
:102CA0002ADC40F21041C4F20201884242D040F2D4
:102CB000284139E09F21C4F20201884225DC7021BD
:102CC000C4F20201884235D088212DE040F29F41B4
:102CD000C4F2020188421FDC40F27041C4F20201DA
:102CE000884227D040F288411EE04021C4F2020110
:102CF00088421FD0582117E040F24041C4F202013F
:102D0000884217D040F258410EE0A021C4F20201DF
:102D100088420FD0B82107E040F2B841C4F2020166
:102D2000884207D040F2A041C4F20201884208BFA5
:102D3000206800E02068016841F001010160002086
:102D400001B0F0BD21680525226C0B68002A65F3EF
:102D500043030B603FF4D9AE0A6842F00402D3E6A5
:102D60002DE9F04F83B00C68002C00F0C68000F114
:102D7000264242F2004702F1FF72C5F602074FEA0F
:102D8000B22201920A22B84208BF09220025002778
:102D90004FF0010A009209E00C68043734FA0AF295
:102DA0000AF1010A05F1020500F0A780AAF1010964
:102DB000012202FA09FE14EA0E08EDD0D1F804B09F
:102DC0000BF00304A4F1010CBCF1010F11D8032294
:102DD0008668AA40CB6826EA0202AB401A438260AA
:102DE000CBF30013426822EA0E0203FA09F31A43F6
:102DF0004260032C1ED00323C268AB40022C22EA9F
:102E000003028B6803FA05F342EA0302C26011D1A0
:102E10006FF0030207F01C0602EA59020F23024476
:102E200003FA06F4D2F820C00B692CEA0404B3407C
:102E30002343136203230268AB404E689A4306F0B3
:102E40000303AB4016F4403F42EA03020260A3D002
:102E500044F2F44340F2084EC5F60203C5F6000EF4
:102E60001A6842F002021A601A6807F00C0302F0B6
:102E700002020292029A29F00302019C009E092C90
:102E800038BF26460F2452F80EC09C402CEA04049A
:102E900006FA03F34FF0B04C234342F80E30DCF84F
:102EA00000204B6842EA0806DC0258BF22EA080606
:102EB0009C02CCF8006040F2040CC5F6000CDCF873
:102EC000002042EA080658BF22EA08069C03CCF814
:102ED0000060DCF8802042EA080658BF22EA0806B3
:102EE000DB03CCF88060DCF87C2042EA080658BF9F
:102EF00022EA0806CCF87C604EE703B0BDE8F08F0C
:102F00000069084018BF0120704700000000000061
:102F1000426902EA0103914341EA0341816170473A
:102F2000002A08BF0904816170470000000000000A
:102F300041F20000C5F600400068000C7047000038
:102F400040F69C70C2F2004000687047000000002C
:102F500090F84120202A03D190F84020012A01D185
:102F600002207047242280F841200268136823F071
:102F700001031360136823F480531360136819432B
:102F80001160116841F001011160202180F84110A9
:102F9000002180F840100846704700000000000043
:102FA00000284CD010B5044690F8410028B9002004
:102FB00084F84000204600F047F8242084F84100BF
:102FC00094E80310E36821F070610268012B22F09D
:102FD0000102026001614FF40442816808BF4FF4AE
:102FE0000042022B21F4004181604CEA0201816021
:102FF00002D14FF400614160416804F1100C41F0CE
:10300000007141F400414160C16821F40041C16098
:103010009CE80E10114341EA0321C160216A41EA94
:103020000C010160016841F0010101600020606451
:10303000202184F84110206384F8420010BD012053
:103040007047000000000000704700000000000012
:1030500040F24C0040F69C71C2F20040C2F20041C6
:1030600000780A6810440860704700000000000003
:1030700080B5032000F084F801F012F844F2184102
:1030800047F64A63C5F60201C0F600030A680968FC
:1030900001F00F01C2F30322595C9A5C01F01F0199
:1030A00002F01F02D04040F20402C2F2004220FAB5
:1030B00001F1116040F20001C2F2004108600320FA
:1030C00000F00AF800281CBF012080BD00F030F895
:1030D000002080BD00000000B0B540F24C01C2F2FB
:1030E0000041097801B3044640F20000C2F20040FA
:1030F0004FF47A72B2FBF1F10068B0FBF1F001F02D
:1031000023FE0F2C4FF001050CD858B94FF0FF30BB
:1031100000222146002500F023F840F25000C2F2C0
:10312000004004602846B0BD0120B0BD0000000092
:1031300080B582B044F2F440C5F60200016841F067
:1031400002010160006800F0020001900198052072
:1031500000F016F802B080BD80B503F0DDFF80BD41
:1031600070B514460D46064603F0E6FF2946224692
:1031700002F03EFD0146304603F0E6FF70BD000060
:1031800080B503F0F5FF80BDB0B544F60C05C5F67B
:10319000020529684907296805D401F00701081AC2
:1031A00018BF0120B0BD21F0070108432860FFF7D8
:1031B000C7FE044655F8080C800407D4FFF7C0FE8C
:1031C000001BB0F57A7FF5D90120B0BD0020B0BD5D
:1031D00080B500F015FF44F2204147F64A62C5F67B
:1031E0000201C0F600020968C1F30211515C01F04E
:1031F0001F01C84080BD000080B544F2384EC5F6BE
:10320000020E5EF8103C5EF8101CC1F3053C5EF83F
:103210000C1CBCF1000FDEF8042014D0C1F3001127
:10322000C2F3CC02514300EE101A03F0030102294D
:10323000B8EE400A0CD071B95EF8381C89060DD47E
:103240009FED341A18E00021C0E90011816080BDB3
:103250009FED2F1A10E09FED2D1A0DE05EF8381C3F
:1032600049F20002C0F2D032C1F3C10122FA01F1E9
:1032700001EE101AB8EE411ADEF800109FED263A62
:103280006FF35F2102EE101ADEF80010C1F3462141
:10329000B8EE422A00EE032A00EE10CAB7EE003A5A
:1032A000B8EE400A81EE000A32EE031A02EE101A5E
:1032B000B8EE422A20EE010A32EE031A80EE011A1D
:1032C000BCEEC11A80ED001ADEF80010C1F3064111
:1032D00001EE101AB8EE411A31EE031A80EE011A0F
:1032E000BCEEC11A80ED011ADEF80010C1F30661D0
:1032F00001EE101AB8EE411A31EE031A80EE010AFF
:10330000BCEEC00A10EE101A816080BD0024744A21
:103310008096184C0024744C000000390000000016
:1033200080B544F2404EC5F6020E5EF8183C5EF8D9
:10333000181CC1F3055C5EF8141CBCF1000FDEF82C
:10334000042014D0C1F30021C2F3CC02514300EE9B
:10335000101A03F003010229B8EE400A0CD071B92B
:103360005EF8401C89060DD49FED341A18E0002148
:10337000C0E90011816080BD9FED2F1A10E09FED24
:103380002D1A0DE05EF8401C49F20002C0F2D03266
:10339000C1F3C10122FA01F101EE101AB8EE411A8F
:1033A000DEF800109FED263A6FF35F2102EE101A4F
:1033B000DEF80010C1F34621B8EE422A00EE032ADF
:1033C00000EE10CAB7EE003AB8EE400A81EE000AED
:1033D00032EE031A02EE101AB8EE422A20EE010A6B
:1033E00032EE031A80EE011ABCEEC11A80ED001A0B
:1033F000DEF80010C1F3064101EE101AB8EE411AD2
:1034000031EE031A80EE011ABCEEC11A80ED011AEA
:10341000DEF80010C1F3066101EE101AB8EE411A91
:1034200031EE031A80EE010ABCEEC00A10EE101A4B
:10343000816080BD0024744A8096184C0024744C2E
:1034400000000039000000002DE9F04381B004467F
:10345000C07844F22C490007C5F6020901D40026C1
:103460002DE0606E4FEA305003280DD80026DFE8CB
:1034700000F0020E1613D9F80000002640F40030C8
:10348000C9F800004EB912E0012636B90FE0201D40
:10349000022102F0E1FB06464EB1B04611E004F114
:1034A0002400022102F068FC0646002EF5D1D9F86E
:1034B0002400616E20F440100843C9F824004FF046
:1034C00000086078C0072FD0606D042807D8DFE8B7
:1034D00000F00A131B030300F6B1B04624E00126F6
:1034E000002EFAD118E0D9F8000040F40030C9F8F5
:1034F0000000002EF1D10FE0201D002102F0ACFBF6
:103500000646002EE9D107E004F12400002102F074
:1035100033FC0646002EE0D1D9F82400616D20F07E
:1035200007000843C9F824006078800731D5A06DF2
:103530004FEAB010042807D8DFE800F00A131B0395
:103540000300F6B1B04624E00126002EFAD118E0BF
:10355000D9F8000040F40030C9F80000002EF1D185
:103560000FE0201D002102F077FB0646002EE9D176
:1035700007E004F12400002102F0FEFB0646002EC5
:10358000E0D1D9F82400A16D20F4E0700843C9F817
:1035900024006078400733D5D4F8A4004FEA705077
:1035A000042807D8DFE800F00A131B030300F6B174
:1035B000B04625E00126002EFAD118E0D9F8000027
:1035C00040F40030C9F80000002EF1D10FE0201DBA
:1035D000002102F041FB0646002EE9D107E004F18C
:1035E0002400002102F0C8FB0646002EE0D1D9F8E5
:1035F0002C00D4F8A41020F460000843C9F82C0073
:103600006078000733D5D4F8A8004FEA306004286A
:1036100007D8DFE800F00A131B030300F6B1B04639
:1036200025E00126002EFAD118E0D9F8000040F478
:103630000030C9F80000002EF1D10FE0201D00215C
:1036400002F00AFB0646002EE9D107E004F124004F
:10365000002102F091FB0646002EE0D1D9F82C00A3
:10366000D4F8A81020F0E0600843C9F82C00E078F6
:10367000800727D5A06C4FEA3010032806D8DFE872
:1036800000F002091202AEB1B0461BE00126002E86
:10369000FAD10FE0D9F8000040F40030C9F800007A
:1036A000002EF1D106E0201D022102F0D5FA0646D7
:1036B000002EE9D1D9F82000A16C20F03000084399
:1036C000C9F820006078C00631D5E06D4FEA30308F
:1036D000042807D8DFE800F00A131B030300F6B143
:1036E000B04624E00126002EFAD118E0D9F80000F7
:1036F00040F40030C9F80000002EF1D10FE0201D89
:10370000002102F0A9FA0646002EE9D107E004F1F3
:103710002400002102F030FB0646002EE0D1D9F84B
:103720002400E16D20F4E0400843C9F824006078EB
:10373000800625D5206E4FEA3040052807D8DFE8FF
:1037400000F0030A0F03030396B1B04618E0012608
:10375000002EFAD10CE0201D012102F07DFA04E0D8
:1037600004F12400012102F007FB0646002EECD1F3
:10377000D9F82400216E20F4E0200843C9F8240081
:103780006078400627D5D4F8AC004FEA30700528A1
:1037900007D8DFE800F0030A0F03030396B1B04631
:1037A00019E00126002EFAD10CE0201D012102F0C3
:1037B00053FA04E004F12400012102F0DDFA064688
:1037C000002EECD1D9F82C00D4F8AC1020F0E04059
:1037D0000843C9F82C00607800061FD5E06ED0B110
:1037E000B0F1005F12D0B0F1805F24D1D9F80000B1
:1037F00040F40030C9F800007EB9D9F82400E16E29
:1038000020F040500843C9F8240007E0201D0121A2
:1038100002F022FA0646002EEFD0B046E078C0074C
:1038200029D0606C03280AD8DFE800F0020D1602E8
:10383000CEB1B0461FE00126002EEED1DDE7012615
:10384000002EF6D10FE0D9F8000040F40030C9F89E
:103850000000002EEDD106E0201D022102F0FCF94F
:103860000646002EE5D1D9F82000616C20F0030057
:103870000843C9F82000A078400643D5D9F8D403FE
:1038800040F48070C9F8D403FFF75AFB074600BF25
:10389000D9F8D403C00505D4FFF752FBC01B652837
:1038A000F6D303266EBBD9F84410D4F8B0004140DB
:1038B00011F4407F11D0D9F84410D9F8442042F4D3
:1038C0008032C9F84420D9F8442021F4407122F410
:1038D0008032C9F84420C9F84410B0F5807F0FD178
:1038E000FFF72EFB074641F2893500BFD9F84400A7
:1038F000800705D4FFF724FBC01BA842F6D303269C
:1039000086B1B0462078C00741D0A06F4FEAF000E2
:10391000052823D8DFE800F003262B03030376B342
:10392000B04634E04FF6CF73D4F8B00059F81C2CF1
:10393000C0F2FF0300F4407122F47C5203EA10133A
:10394000B1F5407F08BF1A436FF31F3049F81C2CB4
:10395000D9F844100843C9F84400D3E70126002EE3
:10396000DED10CE0201D012102F076F904E004F123
:103970002400012102F000FA0646002ED0D1D9F829
:103980002800A16F20F038000843C9F828002078EB
:10399000800723D5606F052807D8DFE800F0030A09
:1039A0000F03030396B1B04618E00126002EFAD1AA
:1039B0000CE0201D012102F04FF904E004F1240085
:1039C000012102F0D9F90646002EECD1D9F82800E1
:1039D000616F20F007000843C9F8280020784007ED
:1039E00025D5D4F89000052807D8DFE800F0030AB1
:1039F0000F03030396B1B04619E00126002EFAD159
:103A00000CE0201D012102F027F904E004F124005C
:103A1000012102F0B1F90646002EECD1D9F82C00B4
:103A2000D4F8901020F007000843C9F82C00207843
:103A3000800627D5D4F88C004FEA3070052807D8C7
:103A4000DFE800F0030A0F03030396B1B04619E064
:103A50000126002EFAD10CE0201D002102F0FCF816
:103A600004E004F12400022102F086F90646002E4B
:103A7000ECD1D9F82800D4F88C1020F0E0400843AD
:103A8000C9F828002078400627D5D4F898004FEAD6
:103A9000B020052807D8DFE800F0030A0F0303036E
:103AA00096B1B04619E00126002EFAD10CE0201D97
:103AB000002102F0D1F804E004F12400022102F018
:103AC0005BF90646002EECD1D9F82C00D4F89810FA
:103AD00020F4E0500843C9F82C002078000627D5D0
:103AE000D4F89C004FEA7030052807D8DFE800F0D2
:103AF000030A0F03030396B1B04619E00126002E16
:103B0000FAD10CE0201D002102F0A6F804E004F137
:103B10002400022102F030F90646002EECD1D9F83B
:103B20002C00D4F89C1020F460400843C9F82C0005
:103B30002078000716D5D4F88000B0F5805F08D152
:103B400004F12400022102F017F9002818BF4FF0F9
:103B50000108D9F82800D4F8801020F44050084318
:103B6000C9F828002078C00616D5D4F89400B0F51E
:103B7000807F08D104F12400022102F0FDF8002822
:103B800018BF4FF00108D9F82C00D4F8941020F495
:103B900040700843C9F82C00A078000721D5D4F85C
:103BA000A000B0F5003F19D0B0F5803F10D0C0BBE9
:103BB000201D002102F050F806468EB9D9F82C00DD
:103BC000D4F8A01020F440300843C9F82C0008E0D5
:103BD00004F12400022102F0CFF80646002EEDD0B9
:103BE000B046A078400729D5D4F88400B0F5401F2E
:103BF00021D0B0F5001F18D0B0F5801F40F0C18073
:103C0000D9F8000040F40030C9F80000AEB9D9F886
:103C10002800D4F8841020F440100843C9F8280084
:103C20000CE00126002EDBD1C8E704F124000121BD
:103C300002F0A2F80646002EE9D0B046A078C007F0
:103C40001FD0E06CB0F5803F10D0B0B9D9F80000BB
:103C500040F40030C9F8000096B9D9F82000E16CB2
:103C600020F480300843C9F820000AE0201D02211A
:103C700001F0F2FF06461EB9EFE70126002EECD058
:103C8000B046E078800608D504F12400022102F055
:103C900073F8002818BF4FF00108206881031ED474
:103CA000C10234D4C1003CD4810245D441004DD47A
:103CB000B0F1FF3F5ADD000208D5D9F82800D4F84A
:103CC000881020F440000843C9F82800B8F1000F1C
:103CD00018BF4FF00108404601B0BDE8F083E16F26
:103CE0006FF0010202EB3122022A0AD34FEA31229D
:103CF0003AB1012A4AD1D9F8002042F40032C9F879
:103D00000020002E45D04FF00108C102CAD5D9F8D5
:103D10002410226F21F000411143C9F82410C10082
:103D2000C2D559F81C1CD4F8B42021F480411143A9
:103D300049F81C1C8102B9D5D9F82410A26E21F0D3
:103D400080711143C9F824104100B1D559F81C1CE9
:103D500021F4004149F81C1CD4F8B81059F81C2C67
:103D6000114349F81C1CB0F1FF3FA4DCD9F8201026
:103D7000226D21F040511143C9F820100002A5D551
:103D80009BE70126002E7FF458AF40E70126002E66
:103D9000B9D1D9F8282022F440721143C9F828106B
:103DA000C1027FF57FAFB2E72DE9F04381B0002873
:103DB00000F0F48042F200080446C5F2002889466B
:103DC000D8F8000000F00F0088420ED2D8F80000AA
:103DD00020F00F0040EA0900C8F80000D8F8000001
:103DE00000F00F00484540F0D980206844F21847A1
:103DF0004107C5F602070AD521693A6802F0700248
:103E0000914204D93A6822F07002114339600107E7
:103E10000AD561697A6802F07002914204D97A6821
:103E200022F0700211437960C1060AD5A1697A684F
:103E300002F4E062914204D97A6822F4E06211430C
:103E4000796081060AD5E169BA6802F07002914290
:103E500004D9BA6822F070021143B96081070AD50B
:103E6000E1683A6802F00F02914204D93A6822F000
:103E70000F0211433960C0077ED1206881070AD53F
:103E8000E1683A6802F00F02914204D23A6822F0E7
:103E90000F0211433960D8F8001001F00F014945B5
:103EA0000DD9D8F8001021F00F0141EA0901C8F836
:103EB0000010D8F8001001F00F0149456ED14107FC
:103EC0000AD521693A6802F07002914204D23A6838
:103ED00022F070021143396001070AD561697A68DE
:103EE00002F07002914204D27A6822F0700211430B
:103EF0007960C1060AD5A1697A6802F4E06291424C
:103F000004D27A6822F4E0621143796080060AD50F
:103F1000E069B96801F07001884204D2B96821F003
:103F200070010843B86000F0BBF8396847F64A6290
:103F3000C0F600023B68C1F3032103F00F03515C9C
:103F4000D25C01F01F01C84002F01F0140F20402E0
:103F500020FA01F1C2F20042116040F2000140F289
:103F60005002C2F20041C2F2004208601068FFF73E
:103F7000B3F801B0BDE8F083386820F47061D4E98B
:103F80000102012841EA020139600BD003282BD03D
:103F900002282ED157F8181C890307D4012001B03C
:103FA000BDE8F08357F8181CC905F7D557F8081C69
:103FB00021F00701084347F8080CFEF7C1FF064649
:103FC00041F2883557F8080C616800F03800B0EB12
:103FD000C10F3FF452AFFEF7B3FF801BA842F1D9E7
:103FE000032001B0BDE8F08357F8181C8901D5D52E
:103FF000DCE757F8181C4907D0D5D7E700000000C8
:1040000080B500F04DF844F2184147F64A63C5F612
:104010000201C0F600030A68096801F00F01C2F34B
:104020000322595C9A5C02F01F0220FA02F201F0AE
:104030001F0040F2040122FA00F0C2F200410860C1
:1040400040F20001C2F200410A6080BD00000000A1
:1040500080B5FFF7D5FF44F21C4147F64A62C5F62A
:104060000201C0F600020968C1F30211515C01F0BF
:104070001F01C84080BD000080B5FFF7C1FF44F2BA
:104080001C4147F64A62C5F60201C0F60002096803
:10409000C1F30221515C01F01F01C84080BD000046
:1040A00044F20041C5F602010869C0F3C2000328CA
:1040B0000FD002282AD070BB0868800649F20000A1
:1040C000C0F2D03058BF70470968C1F3C101C84081
:1040D00070478A6A886AC0F3051CC86ABCF1000F81
:1040E0004B6B1DD0C3F3CC0300F00100584302F02A
:1040F0000302022A00EE100AB8EE400A12D0A2B95A
:104100000868800614D49FED261A1EE045F60020AC
:10411000C0F26220704740F60010C0F23D007047C8
:10412000002070479FED1D1A0FE09FED1B1A0CE059
:10413000086849F20002C0F2D032C0F3C10022FA8E
:1041400000F001EE100AB8EE411A086B9FED153A27
:104150006FF35F2002EE100A086BC0F34620B8EE42
:10416000422A013000EE032A00EE10CAB7EE003AF0
:10417000B8EE400A81EE000A32EE031A20EE010A80
:1041800001EE100AB8EE411A80EE010ABCEEC00A38
:1041900010EE100A704700BF0024744A8096184C35
:1041A0000024744C000000392DE9F04381B0F8B1CF
:1041B0008046007844F20049C007C5F602095AD08B
:1041C000D9F8100000F03801D9F82800102905D0DE
:1041D00018290FD100F0030002280BD1D9F80000F4
:1041E000800344D5D8F80400002840D101272FE0EF
:1041F000012735E2D8F804402CB1B4F5A02F0DD03A
:10420000B4F5803F10D0D9F8000020F48030C9F810
:104210000000D9F8000020F4802009E0D9F800005F
:1042200040F48020C9F80000D9F8000040F4803044
:10423000C9F80000FEF784FE0546A4B1D9F80000D5
:10424000800314D4FEF77CFE401B6428F6D90327B4
:104250000020002800F004820DE000BFFEF770FE91
:10426000401B6428F3D8D9F800008003F6D401205D
:10427000002800F0F58198F80000800740F1848064
:10428000D9F8100010F03801D9F828001CD01829EE
:1042900008BF5FEA807017D0D8F80C00D9F800107A
:1042A000002847D021F019010843C9F80000FEF7A3
:1042B00047FE0546D9F8000040072AD4FEF740FE25
:1042C000401B0228F6D91EE0D9F80000400704D5AB
:1042D000D8F80C00002800F09181D9F80000D8F837
:1042E0000C1020F019000843C9F80000FEF728FE62
:1042F000054600BFD9F8000040070AD4FEF720FEAB
:10430000401B0228F6D903270024002C00F0A881C6
:104310003AE0FEF70DFE41F20301884223D8D8F8B7
:104320001000D9F80410402821F47C3124D141F444
:10433000003023E021F00100C9F80000FEF700FE84
:1043400005460126D9F8000010F0040086EA900422
:1043500017D0FEF7F5FD401B0328F3D30327002CED
:1043600000F07E8110E0D9F80400D8F8101020F099
:10437000FE4040EA016001E041EA0030C9F8040073
:104380000124002C00F06C8198F80000C00674D560
:10439000D9F8100000F03801D9F82800082905D014
:1043A00018291CD100F00300012818D1D9F8000009
:1043B000C00503D5D8F81C00802859D1FEF7B8FDF8
:1043C00041F20301884222D8D8F82000D9F804101D
:1043D000202821F0F84142D141F0804041E0D8F856
:1043E0001C000028D9F8000020D040F08000C9F857
:1043F0000000FEF7A5FD0546D9F80000C005DDD494
:10440000FEF79EFD401B0228F6D9032731E0D9F8BC
:104410000C00D8F8201020F07C50012440EA016004
:10442000C9F80C00002C00F01B8126E020F0800071
:10443000C9F80000FEF784FD05460126D9F8000002
:1044400010F4807086EA10240ED0FEF779FD401B30
:104450000328F3D30327002C00F002810DE041EA8A
:104460008060C9F804000124002C00F0F98004E009
:1044700001270024002C00F0F38098F800000007CA
:104480001CD498F80000800631D498F8000040074A
:1044900045D4D8F82440002C00F0E180D9F8100071
:1044A00000F03800182840F08880012CD9F8281036
:1044B000D9F8300040F0A4800127D1E0D8F81400EA
:1044C0000028D9F874003ED040F00100C9F874000B
:1044D000FEF736FD054600BFD9F874008007D0D43A
:1044E000FEF72EFD401B0228F6D90327B8E0D8F8C6
:1044F00018000028D9F800004BD040F48050C9F8CB
:104500000000FEF71DFD0546D9F800008004BCD46C
:10451000FEF716FD401B0228F6D90327A0E0D9F8C4
:10452000000440F48070C9F80004FEF709FD054658
:10453000D9F80004C0051AD4FEF702FD401B642818
:10454000F6D903278CE020F00100C9F87400FEF7CB
:10455000F7FC0546032700BFD9F8740080077FF5F4
:1045600090AFFEF7EDFC401B0228F5D978E0D8F8B3
:1045700008401CB1052C77D0012C7BD0D9F87000F5
:1045800020F00100C9F87000D9F8700020F0040094
:1045900074E020F48050C9F80000FEF7D1FC054615
:1045A000032700BFD9F8000080047FF56EAFFEF747
:1045B000C7FC401B0228F5D952E0D9F8000020F0D2
:1045C0008070C9F80000FEF7BBFC022C05464FF0D6
:1045D000030709D1D9F80000800171D5FEF7B0FCBE
:1045E000401B0228F6D93BE0D9F80000800136D5FF
:1045F000FEF7A6FC401B0228F6D931E0012783E62E
:1046000001F00302D8F828309A4240F0D380C1F379
:104610000511D8F82C20914240F0CE800146D8F800
:1046200030206FF35F21013A914240F0C780C0F320
:104630004622D8F8341001398A4240F0C180C0F3D4
:104640000642D8F8381001398A4240F0BB80C0F3E6
:104650000660D8F83C100139884240F0B580002748
:10466000F8B201B0BDE8F083D9F8700040F0040062
:10467000C9F87000D9F8700040F00100C9F8700066
:10468000FEF75EFC002C054641F288344FF003072C
:1046900011D000BFD9F8700080073FF5FAAEFEF7E1
:1046A0004FFC401BA042F5D9DAE700BFFEF748FCFB
:1046B000401BA042D4D8D9F870008007F6D4E8E6B1
:1046C00008F12807D9F8280040F2F33188438ECF4B
:1046D0000843591E40EA02104FF47E426FF35F21F7
:1046E000C9F8280002EB47204FF4FE0280B2D8F848
:1046F0003C300844D8F8381002EB01414FF0FE423C
:1047000001F4FE0102EB0362084402F0FE4108449A
:10471000C9F83000D9F82C004FF6F87120F00100EC
:10472000C9F82C00D9F83400D8F84820884340EA6A
:10473000C200C9F83400D9F82C00D8F8401020F095
:104740000C000843C9F82C00D9F82C00D8F8441004
:1047500020F002000843C9F82C00D9F82C0040F4DE
:104760008030C9F82C00D9F82C0040F40030C9F88A
:104770002C00D9F82C0040F48020C9F82C00D9F87E
:104780002C0040F00100C9F82C00D9F8000040F0DE
:104790008070C9F80000FEF7D3FB04460327D9F860
:1047A000000080013FF55BAFFEF7CAFB001B02284B
:1047B000F5D955E7012753E7012751E701274FE7CF
:1047C00001274DE701274BE7012749E700000000DB
:1047D0002DE9F041002800F0A580044643F60006CC
:1047E000C4F2000643F20007256843F60048B542CC
:1047F000C4F20107C4F200084FF00000A06204D028
:10480000454518BFBD4240F08980204601F0E0FBDD
:10481000B54218BFBD4274D1102800F2838094F8CD
:10482000810028B9002084F88000204600F080F83C
:10483000022084F881002068A1690268B1F1806FCC
:1048400022F001020260826802F4F8120FD163685C
:104850002BB1B3F5800F0AD1A76B27B13BB9A36B7E
:10486000B3F1805F03D1036843F480530360E369CD
:10487000A76A1A43E36B3A431343D4E90365D4E9C7
:10488000012733438360636B666A41EA0301A36BCC
:1048900041EA060141EA0301636941EA0501266A2A
:1048A00041EA0301E36C41EA0601A66C41EA020118
:1048B00041EA0301A36D41EA070141EA060141EA29
:1048C0000301C1604AB98168012363F3CC2181608F
:1048D0008168022363F34A218160016D520221F055
:1048E0000101016505D5C168626D21F000411143E8
:1048F000C1600020C4F88400012184F88110BDE863
:10490000F081454518BF08280CD8B54218BFBD42F4
:104910003FF482AF45453FF47FAF80E7E0680F2862
:104920007FF673AF0120BDE8F081000000000000B9
:10493000B0B5B6B0044602A8BC210025CDE9345577
:10494000CDE932553195FBF78FFD43F200412068E8
:10495000C4F2010188422ED043F60001C4F20001E6
:1049600088425BD14FF4805002900020199002A839
:10497000FEF76AFD08B1FCF7FFFA44F2E040C5F625
:104980000200816841F480418160816801F48041C6
:1049900001910199016841F002010160006800F095
:1049A0000200019001984FF46040319040F20040C5
:1049B000C5F6020028E04FF40050029002A81A95B4
:1049C000FEF742FD08B1FCF7D7FA44F2E040C5F625
:1049D0000200016941F400510161016901F40051D3
:1049E00001910199016841F010010160006840F2F5
:1049F000004100F010000190C5F6020101984FF44B
:104A0000E040319001F54060022132910021CDE972
:104A100033110521359131A9FEF7A2F936B0B0BDA9
:104A20002DE9F04F81B0044690F88000012827D08E
:104A30009B4615460E46D4F80090012084F880006D
:104A4000FEF77EFA94F88110804601290CD126B138
:104A5000002D18BFBBF1000F16D1002084F8800094
:104A6000012001B0BDE8F08F6068B0F5800F04D17F
:104A7000042902D1A0680028E9D0002084F8800031
:104A8000022001B0BDE8F08F94F88100042802D024
:104A9000052084F881000021C4F8841065664FF673
:104AA000FF73A4F86AB0A4F868B0E665A4F862B031
:104AB0002068A4F860B02167616761684268B1F559
:104AC000800F22EA03025A444260026842F0010168
:104AD000016003D1016841F400710160E0680A9946
:104AE000102837D348F208058A464E1C5F4600BF9F
:104AF00057EA0B0000F00B812068BBF1000F416901
:104B000018BF11F002010BD0E16D51F8042B0262C5
:104B1000E165B4F862100139A4F86210B4F862B02B
:104B20004169294218BF002F0BD0006B616E41F81C
:104B3000040B6166B4F86A000138A4F86A00B4F89E
:104B40006A70FEF7FDF9002ED2D0A0EB08005045A8
:104B5000CED3C9E007284FF6FE708A4601F1010561
:104B600053D9471C5E4600BF56EA0B0000F0CF80C9
:104B70002068BBF1000F416918BF11F002011BD082
:104B8000BBF1010F08D0E16B31B1E16D4FF6FE7260
:104B900009680162042105E0E16D3A460988A9F837
:104BA00020100221E36D1944E165B4F8621011444C
:104BB000A4F86210B4F862B0416911F4604F18BFF4
:104BC000002E19D04169090406D4B9F83000616E8D
:104BD00008800220394605E0006B616E0860042001
:104BE0004FF6FE71626E10446066B4F86A000844C5
:104BF000A4F86A00B4F86A60FEF7A2F9002DB3D0F9
:104C0000A0EB08005045AFD36EE0471C5E4602386B
:104C1000009000BF56EA0B0079D02068BBF1000F6E
:104C2000416918BF11F0020128D0BBF1040F08D36D
:104C3000E16B412905D3E16D096801620420009907
:104C400012E0BBF1020F09D3E16B39B1E06D4FF611
:104C5000FE710088A9F82000022005E0E16D0978C6
:104C600080F8201001203946E26D1044E065B4F868
:104C700062000844A4F86200B4F862B02068416998
:104C800011F4604F18BF002E26D0416909040DD4DD
:104C9000416901F4C041B1F5005F0DD9B9F83000A8
:104CA000616E088002204FF6FE710BE0006B616EB2
:104CB00008600420009905E090F83000616E0870EB
:104CC00001203946626E10446066B4F86A000844F8
:104CD000A4F86A00B4F86A60FEF732F9002D99D0A2
:104CE000A0EB0800504595D3204601F015F90020AF
:104CF00084F88000D4F8840040F48070C4F8840004
:104D0000012084F88100032001B0BDE8F08F204627
:104D10004146524601F068F928B1D4F8840040F0C9
:104D20002000C4F88400204601F0F6F8002084F842
:104D30008000012084F88100D4F88400002818BF86
:104D4000012001B0BDE8F08F80B501F069F980BDA8
:104D500090F88010012901D1022070472421C0F869
:104D6000841002681368116823F0005321F00101D8
:104D700011600021416613602022C0F8842080F871
:104D800080100846704700007047000000000000D7
:104D90007047000000000000B0B5044690F88000A5
:104DA000012801D10220B0BD012084F88000242018
:104DB000C4F8840020680568026822F001020260DD
:104DC000826822F0606211438160204601F0D8FBC6
:104DD000206805602020C4F88400002084F880004A
:104DE000B0BD000000000000B0B5044690F880009F
:104DF000012801D10220B0BD012084F880002420C8
:104E0000C4F8840020680568026822F0010202608C
:104E1000826822F0604211438160204601F0B0FBBD
:104E2000206805602020C4F88400002084F88000F9
:104E3000B0BD00000000000070470000000000004E
:104E40007047000000000000B0B504460068D4F8C8
:104E50008410D4F88850212980681AD110F080007D
:104E600017D000BF206850E8020F216820F08000B2
:104E700041E80202002AF5D1A06F38B1FCF784F8AE
:104E800020B1A06FFCF7B8FC202821D0204601F00B
:104E900047FD2068222D81684FF0000021D111F0DC
:104EA000400108BFB0BD00BF206850E8020F216874
:104EB00020F0400041E80202002AF5D1E06F60B125
:104EC000FCF762F848B1E06FFCF796FC202804D1AB
:104ED0001020C4F88C000320B0BD204601F0DCFC9B
:104EE0000020B0BD0000000070470000000000007E
:104EF00010B544F600010068C4F20001884200D0F9
:104F000010BD40F60C70C2F200400068C169C906CD
:104F100058BF10BD40F60C741021C2F2004401626B
:104F20002046FFF791FFFBF723FB40F60C5040F6BD
:104F30005831C2F20040C2F200414022006840688D
:104F4000204600F0BDFA10BDB0B50368044640F637
:104F50002F00D9691D680840D3F808E020280CD13B
:104F600005F020020EF08050801806D0216F002935
:104F700000F0B18020468847B0BD40F60F000840E1
:104F800000F09080012040F22012C1F20000C0F237
:104F900000420EEA000C05EA020010EB0C0000F0E3
:104FA0008180C80718BF15F4807007D001201862EF
:104FB000D4F88C0040F00100C4F88C0088070EF093
:104FC000010208D53AB102201862D4F88C0040F0F2
:104FD0000400C4F88C00480708D53AB104201862D0
:104FE000D4F88C0040F00200C4F88C0008070CD5FF
:104FF00005F0200050EA0C0007D008201862D4F811
:105000008C0040F00800C4F88C0008050BD515F0A2
:10501000806008D04FF400601862D4F88C0040F033
:105020002000C4F88C00D4F88C00002853D011F074
:10503000200009D005F020000EF08051401803D068
:10504000216F09B1204688472068D4F88C1001F000
:105050002801806800F04000401800F0A980204638
:1050600001F01AFC20688068400640F1918000BF82
:10507000206850E8020F216820F0400041E8020259
:10508000002AF5D1E06F002800F0828046F22971F5
:10509000C0F600010165FCF757FAE0B1E06F016D61
:1050A0008847B0BD05EA010CE26E5FEACC603CD5F2
:1050B000012A3AD1102018629868400641D4B4F809
:1050C0005C00B4F85E10B4F85E20002A1CBF401AE1
:1050D0005FEA004100D1B0BD216851E8001F22689D
:1050E00021F4907142E80013002BF5D14FF6FE71C8
:1050F000CEF6FF71226852E8022F23680A4043E887
:105100000225002DF6D12021C4F888100021E16687
:10511000216700BF216851E8001F226821F01001BB
:1051200042E80013002BF5D1F4E0C80223D51EF4A9
:10513000800020D04FF4801018622046FFF780FED8
:10514000B0BDE06F40F20F42C4F20202016891422A
:1051500035DC6F22C4F20202914249DC3F22C4F2E4
:10516000020291426ADC1022C4F20202914200F073
:105170008880282281E008060ED505F080000EF414
:105180000002801808D0616F00297FF4F3AEA2E717
:105190002046FFF7A9FEB0BD5FEA4C6024D40802A8
:1051A00041D515F080403ED02046FFF745FEB0BD0A
:1051B0002046FFF799FE0020C4F88C00B0BD40F2F5
:1051C0006F42C4F2020291421EDC40F23F42C4F23E
:1051D0000202914239DC40F21042C4F202029142D2
:1051E0004FD040F2284248E0204601F085FBB0BD98
:1051F0009F22C4F20202914230DC7022C4F2020209
:1052000091423ED0882238E040F29F42C4F202022E
:1052100091422ADC40F27042C4F20202914230D044
:1052200040F2884229E0C8017FF555AFB5F1FF3F54
:10523000C8BFB0BD2046FFF7ABFDB0BD4022C4F2F1
:10524000020291421DD0582217E040F24042C4F2BF
:105250000202914215D040F258420EE0A022C4F260
:10526000020291420DD0B82207E040F2B842C4F2E7
:105270000202914205D040F2A042C4F202029142E1
:1052800001D1E16F0968043109688AB2002A3FF44C
:1052900022AFB4F85C309A42BFF41DAFA4F85E10A0
:1052A000C069B0F5807F30D0206850E8000F2168D9
:1052B00020F4807041E80002002AF5D1206850E80F
:1052C000020F216820F0010041E80202002AF5D116
:1052D000206850E8020F216820F0400041E80202F7
:1052E000002AF5D12020C4F888000020E06600BF25
:1052F000206850E8000F216820F0100041E800020B
:10530000002AF5D1E06FFBF73FFEB4F85C00B4F87B
:105310005E10401A81B22046FFF736FDB0BD000096
:1053200010B5B0B10446D0F8840028B9002084F844
:105330008000204600F028F82420C4F8840020686B
:10534000016821F001010160204601F001FB012804
:1053500001D1012010BDA06A10B1204601F03CF936
:105360002068416821F490414160816821F02A0160
:105370008160016841F001010160204601F09CF963
:1053800010BD0000000000002DE9F041B6B0044659
:1053900002A8BC210026CDE93466CDE932663196FB
:1053A000FBF762F844F600012068C4F2000188426D
:1053B00002D036B0BDE8F08102A8022502951F9602
:1053C000FEF742F808B1FBF7D7FD44F2E04040F2A7
:1053D0001008C5F602000026C4F20208816841F4F4
:1053E00080218160816801F4802101910199016827
:1053F00041F008010160006831A900F00800019047
:1054000001984FF44070CDE931050720359040F602
:1054100000403396C5F602003496FDF7A1FC40F635
:105420000C552D20C2F200454FF48067C5F800806E
:10543000C5E901062846EE60C5E90476C5E90666B9
:10544000C5E90866FCF7ACFF08B1FBF795FDE56719
:1054500008F11800AC6340F68455C2F2004505F12E
:10546000080128602E2068604020C1C12846C5E997
:105470000566C5E907666E62FCF792FF08B1FBF7A7
:105480007BFD272000210022A567AC63FDF768FEA5
:105490002720FDF761FE40F60C70C2F20040016863
:1054A0000A6842F010020A6040F658314022C2F207
:1054B000004100F005F836B0BDE8F08100000000C2
:1054C00080B5D0F88830202B0AD10123002918BFDD
:1054D000002A01D1184680BD90F88030012B01D1FF
:1054E000022080BD012380F880300023C36640F68F
:1054F0000043D0F800C0C5F600039C4510D0DCF88E
:1055000004301B020CD500BF036853E800CFD0F86D
:1055100000E04CF080634EE8003CBCF1000FF3D19A
:1055200001F0DAFC0346184680BD000000000000D0
:1055300070470000000000007047000000000000FD
:10554000B0B50446D0F88400202806D139B11346FE
:105550002AB194F88000012803D10220B0BD0120B7
:10556000B0BD012084F8800021650025A4F85430E6
:105570002120A4F85630C4F88C50C4F88400A06FE1
:1055800000B346F6410146F68902C0F60001C0F6B6
:105590000002C0E90F1246F24171C0F60001C0E9F5
:1055A00013152268216D2832FDF7AAF950B1102099
:1055B000C4F88C00002084F880002020C4F8840007
:1055C0000120B0BD20684021016284F8805000BFF6
:1055D000206850E8020F216840F0800041E8020294
:1055E000002AF5D10020B0BD00681021016270478B
:1055F0007047000000000000FEE70000000000000F
:1056000080B500F005F800F053F880BD0000000000
:1056100070B586B044F2E0460020C5F6020605905B
:10562000CDE90300CDE90100B16840F2004441F446
:105630000011B160B168C5F6020401F400110091D7
:105640000099316841F002013160316801AD01F02B
:10565000020100910099316841F002013160316826
:1056600001F0020100910099402101911221029163
:105670000221CDE903010420059020462946FDF7CB
:105680006FFB8020019020462946FDF769FB56F804
:10569000500C40F4001046F8500C56F8500C20F412
:1056A000001046F8500C06B070BD0000000000006D
:1056B00010B540F2D01445F20040C2F2004444F666
:1056C0007361C4F20000C4F26001C4E9000100206B
:1056D000A0600121C4E90310C4E90500C4E9070082
:1056E0002046FDF75DFC00212046FDF731FC10BD92
:1056F000B0B541F200040546C5F602044FF400615E
:1057000000222046FDF70CFCC5F3074000F0E4FB47
:10571000C5F3072000F0E0FB05F0F80000F0DCFB2B
:10572000002000F0D9FB05464FF40061012220461D
:10573000FDF7F6FB2846B0BDB0B540F20044054683
:10574000C5F602044FF4805100222046FDF7E8FB25
:10575000C5F3074000F0A0FBC5F3072000F09CFB59
:1057600005F0F80000F098FB002000F095FB0546DE
:105770004FF4805101222046FDF7D2FB2846B0BDF0
:1057800070B541F200040D46C5F6020406464FF41A
:10579000006100222046FDF7C3FBC6F3074000F07E
:1057A0009BFBC6F3072000F097FB46F0040000F0D7
:1057B000FC0000F091FB284600F08EFB4FF40061E6
:1057C00001222046FDF7ACFB70BD00000000000088
:1057D00070B540F200440D46C5F6020406464FF48B
:1057E000805100222046FDF79BFBC6F3074000F0E6
:1057F00053FBC6F3072000F04FFB46F0040000F017
:10580000FC0000F049FB284600F046FB4FF48051B5
:1058100001222046FDF784FB70BD0000000000005F
:1058200010B541F200040246C5F6020400284FF00C
:105830001001204618BF0122FDF772FB2021002233
:105840002046FDF76DFB10BD10B541F200040421A8
:10585000C5F6020400222046FDF762FB082120461F
:10586000FDF756FB10BD0000B0B50446002818BF78
:10587000012441F200050121C5F602052246284611
:10588000FDF74EFB022128462246FDF749FBB0BD3D
:1058900080B582B044F2D8400022C5F6020001680B
:1058A00041F0010101600068022100F00100019057
:1058B00001980B20FDF754FC0B20FDF74DFC0C204C
:1058C00002210122FDF74CFC0C20FDF745FC02B043
:1058D00080BD0000000000002DE9F04786B044F2D2
:1058E000E0400024C5F602000594CDE90344CDE96B
:1058F0000144016840F2004841F010010160016874
:10590000C5F6020801F0100100910099016841F00C
:1059100080010160016808F5406701F08001009195
:105920000099016841F0400101600168002201F026
:10593000400100910099016841F002010160016895
:1059400048F63F3601F0020100910099016841F0EC
:1059500008010160016801F00801009100990168E7
:1059600041F001010160006848F63F3100F001009C
:10597000009000983846FDF7D3FA4FF4E05100222A
:1059800040464FF4E05AFDF7CBFA08F5006540F2C7
:10599000014100222846FDF7C3FA0DF104093846FB
:1059A000494601960126CDE902640494FDF7D8F931
:1059B0004FF6FF704946CDE9010408F5A050039465
:1059C000FDF7CEF940464946CDE901A6CDE90344AD
:1059D000FDF7C6F94FF480604946CDE90106284637
:1059E000CDE90344FDF7BCF928464946CDE90166F7
:1059F000CDE90364FDF7B4F94FF480704946CDE971
:105A0000010440460394FDF7ABF906B0BDE8F0870A
:105A100010B540F6FC5443F60000C2F20044C4F254
:105A20000000072120604FF4800060600020A0602B
:105A3000E1604FF0007121614FF0807161614FF0C2
:105A40008061A1614FF08051C4E90710C4E90900E9
:105A5000E06204F134002821FAF706FD2046FEF743
:105A6000B7FE002808BF10BDFBF786FA10BD000086
:105A700010B540F6846443F20040C2F20044C4F220
:105A80000100072120604FF4800060600020A060CA
:105A9000E1604FF0007121614FF0807161614FF062
:105AA0008061A1614FF08051C4E90710C4E9090089
:105AB000E06204F134002821FAF7D6FC2046FEF714
:105AC00087FE002808BF10BDFBF756FA10BD000086
:105AD00080B540F60C7044F60001C2F20040C4F2FA
