:020000040800F2
:10000000C81A002439030008417C0008096D000863
:10001000897A0008490600082196000800000000BF
:10002000000000000000000000000000B98000088F
:10003000890F000800000000797C0008F1800008AA
:100040005303000853030008530300085303000838
:100050005303000853030008530300085303000828
:1000600053030008530300085303000889060008DF
:1000700099060008A9060008B906000853030008FD
:1000800053030008530300085303000853030008F8
:1000900053030008530300085303000853030008E8
:1000A00053030008530300085303000853030008D8
:1000B0005303000853030008998200085303000803
:1000C00053030008530300085303000853030008B8
:1000D0005303000853030008E99500085303000880
:1000E00053030008530300080000000053030008F6
:1000F0005303000853030008530300085303000888
:100100005303000853030008530300085303000877
:100110005303000853030008530300085303000867
:100120005303000853030008530300085303000857
:100130005303000853030008530300085303000847
:1001400000000000000000000000000000000000AF
:100150005303000853030008530300085303000827
:100160005303000853030008530300085303000817
:100170005303000853030008530300080000000065
:1001800053030008530300085303000853030008F7
:1001900053030008530300085303000853030008E7
:1001A00053030008530300085303000853030008D7
:1001B00053030008530300085303000853030008C7
:1001C00053030008530300085303000853030008B7
:1001D00053030008530300085303000853030008A7
:1001E0005303000853030008530300085303000897
:1001F0005303000853030008530300085303000887
:100200005303000853030008530300085303000876
:100210005303000853030008530300085303000866
:1002200053030008530300085303000800000000B4
:1002300053030008530300080000000053030008A4
:100240005303000853030008530300085303000836
:100250005303000853030008530300085303000826
:100260005303000853030008530300085303000816
:100270005303000853030008530300080000000064
:100280005303000853030008530300080000000054
:10029000000000005303000800F002F800F03CF8F2
:1002A0000AA090E8000C82448344AAF10107DA45D1
:1002B00001D100F031F8AFF2090EBAE80F0013F0E7
:1002C000010F18BFFB1A43F00103184740A10000BB
:1002D00060A10000103A24BF78C878C1FAD852074C
:1002E00024BF30C830C144BF04680C6070470000B0
:1002F0000023002400250026103A28BF78C1FBD82F
:10030000520728BF30C148BF0B6070471FB50AF0C5
:1003100053F81FBD10B510BD00F0D0F81146FFF71F
:10032000F5FF09F0A9FA00F0EEF803B4FFF7F2FFC9
:1003300003BC00F0F5F80000094880470948004771
:10034000FEE7FEE7FEE7FEE7FEE7FEE7FEE7FEE785
:10035000FEE7FEE704480549054A064B70470000E2
:10036000C981000899020008C8140024C81A002492
:10037000C8160024C816002453EA020C00F0698055
:100380002DE9F04B4FF00006002B1FBFB3FA83F5A9
:1003900003FA05F424FA05F65E4012BF1643B2FADA
:1003A00082F502FA05F4C5F120051EBF22FA05FC0C
:1003B00044EA0C04203556EA044C4FEA144418BFB2
:1003C000641C4FF000084FF00009904271EB030CE1
:1003D00039D3002919BFB1FA81F701FA07F6B0FA4B
:1003E00080F700FA07F6C7F120071EBF20FA07FCC6
:1003F00046EA0C062037B6FBF4FCA7EB0507103FD6
:1004000007F01F0BCBF120062CFA06F60CFA0BFBBB
:1004100044BFB3460026202FA4BF5E464FF0000B1A
:100420005BEA060C08BF4FF0010B19EB0B0948EB18
:100430000608ABFB027C06FB02CC0BFB03CCC01B0B
:1004400071EB0C01C1E70B46024641464846BDE848
:10045000F08B13B5084318BF4FF0FF300146AFF3E0
:100460000080BDE81C4070474FF0000200B5134605
:1004700094469646203922BFA0E80C50A0E80C50C4
:10048000B1F12001BFF4F7AF090728BFA0E80C5075
:1004900048BF0CC05DF804EB890028BF40F8042B6E
:1004A00008BF704748BF20F8022B11F0804F18BFDB
:1004B00000F8012B7047704770477047754600F091
:1004C0002BF8AE4605006946534620F007008546E6
:1004D00018B020B5FFF73EFFBDE820404FF0000602
:1004E0004FF000074FF000084FF0000BAC46ACE8AF
:1004F000C009ACE8C009ACE8C009ACE8C00921F00B
:1005000007018D46704710B50446AFF300802046C2
:10051000BDE81040FFF709BF0048704750000024B5
:1005200001491820ABBEFEE726000200704700001C
:10053000B0B50446006842F2001140F48070C4F285
:100540000201884204D142F20830C4F2020003E002
:1005500046F20830C5F60200006810F4403F10D0A3
:1005600004F0B6FD61680546B1F5803F05D0B1F5F0
:10057000403F21D0B1F5003F1FD1080CB5FBF0F58D
:100580001BE04FF4002003F047FE61680546A1F52B
:1005900080224FEAB2420A2A0FD8DFE802F00606AC
:1005A00006060606494B4D4F51006FF0010000EA68
:1005B0005140B5FBF0F500E0AD0803F0B1F941F2B0
:1005C000030188420DD8206842F60151C0F2311172
:1005D0008D4281682CBF41F4807121F4807181606B
:1005E000B0BD4BF62140C0F2BE00854205D8206860
:1005F000816821F440718160B0BD47F64100C0F2CE
:100600007D10854203D820680122816808E02068B7
:100610004FF28101C0F2FA218D42816804D8022292
:1006200062F309218160B0BD41F440718160B0BDC9
:100630002D09C2E76D09C0E7AD09BEE7ED09BCE7CA
:100640002D0ABAE700000000FEE7000000000000ED
:10065000B0B50446012841F200404FF01001C5F644
:10066000020003D1012203F053F909E00022002522
:1006700003F04EF940F62C60C2F2004045708580D0
:10068000204606F025FEB0BD80B541F25C10C2F2F6
:10069000004001F0A1FD80BD80B541F2D410C2F24E
:1006A000004001F099FD80BD80B541F26C00C2F2BE
:1006B000004001F091FD80BD80B541F2E400C2F23E
:1006C000004001F089FD80BD40F20F420168C4F294
:1006D0000202914210DC6F22C4F20202914220DC3D
:1006E0003F22C4F20202914236DC1022C4F202021E
:1006F000914254D028224EE040F26F42C4F20202EE
:1007000091421ADC40F23F42C4F2020291422ADCDA
:1007100040F21042C4F20202914240D040F228421C
:1007200039E09F22C4F20202914225DC7022C4F219
:100730000202914233D088222DE040F29F42C4F25F
:10074000020291421FDC40F27042C4F20202914266
:1007500025D040F288421EE04022C4F202029142BB
:100760001DD0582217E040F24042C4F202029142EA
:1007700015D040F258420EE0A022C4F2020291428B
:100780000DD0B82207E040F2B842C4F20202914212
:1007900005D040F2A042C4F2020291421AD1D0F830
:1007A00000C06FF00F024AF6AB2352FA8CF2CAF681
:1007B000AA23A2FB033109A35F2AC1F302115B5CE8
:1007C00040F2FF312CEA0101C36588BF0431816525
:1007D00008467047016821F0FF01F8E7000610168F
:1007E000000610160000000010B545F257420168DF
:1007F000C5F6020291420EDC45F22F42C5F6020216
:10080000914217DC45F20842C5F60202914226D019
:1008100045F21C421FE045F27F42C5F602029142BA
:1008200011DC45F25842C5F60202914217D045F25A
:100830006C4210E045F23042C5F6020291420ED001
:1008400045F2444207E045F29442C5F60202914265
:1008500005D045F28042C5F60202914219D10178D5
:100860004CF6CD42CCF6CC4245F600030839C5F62D
:100870000203A1FB021203F18001120903EB8203C0
:1008800002F01F0203660123416603FA02F181664A
:1008900010BD02784AF6AB23CAF6AA234FF0080E21
:1008A000103AA2FB032340F20F42C4F202024FEAC5
:1008B000131C914202F1AA04624688BF0EEB131288
:1008C00040F60003A142C4F2020303F1800128BFF5
:1008D0006246D3E70000000010B50279511E0729D7
:1008E00088BF10BD45F2574C45F6FC0E0368C5F6AF
:1008F000020CC5F6020E63450EF1440C0EDC45F207
:100900002F44C5F60204A34217DC45F20844C5F69D
:100910000204A34226D045F21C441FE045F27F4466
:10092000C5F60204A34211DC45F25844C5F60204A0
:10093000A34217D045F26C4410E045F23044C5F6AE
:100940000204A3420ED045F2444407E045F280443D
:10095000C5F60204A34205D045F29444C5F602044C
:10096000A34209D10EEB8202C2660122C0F870C018
:1009700002FA01F1416710BD40F6FC0EC4F2020E0E
:100980000EF1440CEEE700008169B1F5005F07D07D
:1009900079B9816A022912D0012916D079B112E001
:1009A000816A03290FD8DFE801F0020A0210012052
:1009B0007047816A03293CBF0120704703D1C06A98
:1009C000C0F30060704700207047C06AA0F1C0709B
:1009D000B0FA80F04009704770B540F26F44D0F82B
:1009E00000E0C4F20204D0F858C0A64519DC9F25E7
:1009F000C4F20205AE4531DC5725C4F20205AE450E
:100A000056DC1025C4F20205AE4500F09280282580
:100A1000C4F20205AE4500F08C804025C4F2020508
:100A200084E045F22F45C5F60205AE452BDC40F2C9
:100A3000B745C4F20205AE4548DC40F27045C4F249
:100A40000205AE4575D040F28845C4F20205AE45B8
:100A50006FD040F2A045C4F2020567E040F227459E
:100A6000C4F20205AE4540DCA025C4F20205AE4545
:100A70005FD0B825C4F20205AE455AD040F2104509
:100A8000C4F2020552E045F26B45C5F60205AE45DB
:100A90003CDC45F23045C5F60205AE4549D045F28D
:100AA0004445C5F60205AE4543D045F258453BE006
:100AB0005825C4F20205AE453BD07025C4F20205AC
:100AC000AE4536D08825C4F202052FE040F2B84585
:100AD000C4F20205AE452CD045F20845C5F6020524
:100AE000AE4526D045F21C451EE040F22845C4F232
:100AF0000205AE451DD040F24045C4F20205AE45A8
:100B000017D040F25845C4F202050FE045F26C459B
:100B1000C5F60205AE450CD045F29445C5F6020572
:100B2000AE4506D045F28045C5F60205AE4540F01B
:100B3000C980456EC66E002E866E6E601CBFD0E901
:100B40001C566E60A64515DC9F24C4F20204A6451F
:100B50002BDC5724C4F20204A6454EDC1024C4F258
:100B60000204A64576D02824C4F20204A64571D01A
:100B700040246BE045F22F44C5F60204A64527DC6D
:100B800040F2B744C4F20204A64542DC40F270448D
:100B9000C4F20204A6455DD040F28844C4F20204C7
:100BA000A64557D040F2A04450E040F22744C4F29A
:100BB0000204A6453CDCA024C4F20204A64549D0A8
:100BC000B824C4F20204A64544D040F210443DE0EB
:100BD00045F26B44C5F60204A6454FDC45F23044AD
:100BE000C5F60204A6455BD045F24444C5F60204AE
:100BF000A64555D045F258444EE05824C4F20204AC
:100C0000A64527D07024C4F20204A64522D0882429
:100C10001CE040F2B844C4F20204A6451AD045F2E2
:100C20000844C5F60204A6453AD045F21C4433E018
:100C300040F22844C4F20204A6450BD040F24044DE
:100C4000C4F20204A64505D040F25844C4F202049E
:100C5000A64537D104683F258668C06D00F01F00A7
:100C6000402E05FA00F0CCF80800206820F480201F
:100C70002060636021D0A160E26070BD45F26C44E9
:100C8000C5F60204A6450BD045F28044C5F6020421
:100C9000A64505D045F29444C5F60204A64511D1F7
:100CA0000468C66D806806F01F060125402805FA15
:100CB00006F6CCF80460636002D1A260E16070BD0A
:100CC000A160E26070BD000080B5013803280AD839
:100CD000DFE800F0020B111741F20000C5F6020038
:100CE000A0F5406005E0C0B280BD41F20000C5F64D
:100CF000020020210DE041F200004021C5F6020073
:100D000007E041F200004FF40051C5F60200A0F5E3
:100D1000006002F0F5FDC0B280BD000000000000E0
:100D200080B50138032825D80A46DFE800F002091B
:100D3000111941F20000C5F60200A0F5406003E081
:100D400041F20000C5F60200202102F0E1FD80BD65
:100D500041F200004021C5F6020002F0D9FD80BD3D
:100D600041F200004FF40051C5F60200A0F500600A
:100D700002F0CEFD80BD0000B0B5044600F0C8F81A
:100D8000204600F061F8CC21204600F0D5F844213F
:100D9000204600F0D1F8204600F0BAF8204600F0D6
:100DA00053F8CC21204600F0C7F8BE21204600F0C1
:100DB000C3F8204600F09CF80546204600F098F85D
:100DC00045EA002000B2B0F1FF3F04DD00EE100A5A
:100DD000B8EEC00B04E0404200EE100AB8EEC00BC3
:100DE0009FED031B20EE010BB7EEC00BB0BD00BFA3
:100DF000000000000000B03F80B586B020200190C8
:100E0000002001A9CDE902000220049040F2004038
:100E1000C5F6020002F0A4FC06B080BD0000000090
:100E200080B586B020200190012001A9CDE9020003
:100E30000220049040F20040C5F6020002F090FC4F
:100E400006B080BD00000000B0B50446FFF7D4FF37
:100E50002046FFF739FF90B1002000BF0546012072
:100E600008F076FC2046FFF72FFF622D03D80028FC
:100E700005F10100F2D1622D01D90120B0BD20465B
:100E8000FFF722FF00281CBF0020B0BD002000BFDC
:100E90000546012008F05CFC2046FFF715FFEE2D0B
:100EA00003D8002805F10100F2D00020EE2D88BF04
:100EB0000120B0BD0000000010B50446FFF7B0FFF0
:100EC00000212046FFF72CFF0A2008F041FCFFF725
:100ED00093FF022008F03CFC2046FFF7F5FE0138A6
:100EE000B0FA80F044092D2008F032FC204610BDF5
:100EF00070B50446002500262046FFF7DDFFA84018
:100F00000135082D46EA0006F6D1F0B270BD0000AA
:100F100010B50446FFF784FF00212046FFF700FFCD
:100F200040F2EE2008F014FC01212046FFF7F8FE05
:100F30000F2008F00DFC10BDF0B581B00C46054641
:100F4000FFF76EFF002700BF0021284604F00106CE
:100F50006408FFF7E5FE002E4FF008004FF03A0658
:100F600004BF4620022608F0F3FB01212846FFF7C4
:100F7000D7FE304608F0ECFB072F07F10107E3D35B
:100F800001B0F0BD0000000070470000000000004C
:100F9000B0B505F0F5FE09F00BF840F2400440F260
:100FA0003005C2F20044C2F200452046294608F04E
:100FB0002FFF09F025F82046294608F071FFB0BD43
:100FC000EFF3108072B600BFFEE7000000000000E3
:100FD0002DE9F04182B0044690F85000012803D179
:100FE000022002B0BDE8F081012084F8500000200A
:100FF0000190009042F20007C4F202072068B84254
:101000000BD107F580780D46404606F0A5F9064657
:10101000206806F0A1F930430AD0606D40F020004E
:1010200060650120002184F8501002B0BDE8F08115
:1010300046F200002168C5F602004145064608BF99
:101040003E46B94208BF0E462A6841F48071D6F880
:101050000833002A23F4404215D042F2001C6B688A
:10106000C4F2020C614542EA0301C6F808131BD121
:10107000384606F065F90746404606F061F9384300
:10108000B0B10020CEE742F20013C6F80823C4F244
:101090000203994216D1384606F052F905464046F9
:1010A00006F04EF928430FE006F04AF90028E8D18F
:1010B000D6F8080340F61F7188432968AA680843D8
:1010C000104309E006F03CF908B10020AAE7D6F881
:1010D000080340F61F718843C6F808030020A1E703
:1010E0002DE9F04782B000220192044690F85000AA
:1010F000012803D1022002B0BDE8F08720680D4628
:10110000012684F8506006F023F928B1606D40F0A4
:10111000200060650120DEE02A6892FAA2F0B0FAB1
:1011200080F3100308BF930E2068696803F01F0363
:1011300006FA03F3C7693B43C36106F011F920685F
:1011400006F006F90646206806F0EEF8304368D14E
:1011500020682968AA6806F01BF941F20000C5F66C
:101160000040006800F07040B0F1805F06D1206858
:101170006A690E21C06801EA50030CE02068C1686A
:101180006A69C068C9064FEA500002D400F00E0335
:1011900001E000F0080329692068042928D1016EC4
:1011A0002A6801F0F841B1EB826F4FEA826103D106
:1011B000026E22F000420266426E02F0F8428A425B
:1011C00003D1426E22F000424266826E02F0F84283
:1011D0008A4203D1826E22F000428266C26E02F021
:1011E000F8428A421DD1C16E21F00041C16618E06B
:1011F00002FA03F32A6806F013F9687E0138B0FAA0
:1012000080F120684A092969D20706F015F9287E7D
:101210000138B0FA80F120684A092969D20206F043
:10122000F3F8206806F088F808B1002053E0206841
:101230002968EA6806F0C0F80021E868C4F2FF7186
:10124000884243D14FF6FF702968C0F20F004FF07B
:10125000806711EA000C91FAA1F0B0FA80F213460F
:1012600008BF8B0E20685E1C07EB836306F01E0E22
:1012700006F01F060127BEF1090F03F0F84307FA35
:1012800006F60DD8BCF1000F08BF8A0E511C43EAC8
:10129000060201F01F0101EB410142EA015112E097
:1012A000BCF1000F08BF8A0E511C002201F01F0183
:1012B000CFF6206201EB410102EB015146EA030245
:1012C000114341F00071AA6806F062F82868B0F195
:1012D000FF3F06DD0020002184F8501002B0BDE879
:1012E000F08746F2000842F20007C5F60208C4F291
:1012F000020708F54079216807F5807607F5407206
:101300004846B14208BF1046B94208BF104606F031
:1013100007F8216842F2001241F48071C4F202021F
:101320009142824608D1384606F006F80746304614
:1013300006F002F8384302E0404605F0FDFF0028C1
:101340007FF4E4AE5FEA0A20296809D40020CCF6D5
:101350008430814204D1206840451DD00020BAE786
:101360005FEACA1009D40020CCF25270814204D145
:101370002068404531D00020ADE75FEA4A204FF0B9
:101380000000A8D40022CCF6B8729142A3D1206804
:10139000404527D000209EE74AF40001484606F069
:1013A0002BF840F2000042F66351C2F20040C0F256
:1013B0003E5100688009A0FB01018809022101EB70
:1013C00040000190019858B10198013801900198AE
:1013D00000284FF00000F7D17DE74AF0807103E06C
:1013E000002078E74AF48001484606F005F800201E
:1013F00071E7000000000000F0B581B0044600284D
:101400004FF00000009019D0606D30B9204600F018
:101410000BF90020A06584F85000206805F088FFD3
:1014200010B1206805F068FF206805F08DFF38B125
:10143000206805F089FFE0B1002523E00125E3E005
:10144000206805F061FF40F2000042F66351C2F2ED
:101450000040C0F23E5100688009A0FB010101205C
:1014600000EB9110009000980028E1D0009801381E
:10147000F8E7606D012540F010006065A06D40F058
:101480000100A065206805F063FF616D01F01001A7
:101490000843606D03D040F010000125B3E020F454
:1014A000817002306065206805F046FF58BB2068F7
:1014B00042F2001140F48070C4F2020142F20006D0
:1014C0008842C4F2020640F0A280304605F034FFA4
:1014D000074606F5807005F02FFF384398B906F5EA
:1014E000807006F54072216846F20003C5F60203DB
:1014F0008142104618BF03F54070B142616808BFD1
:10150000104605F071FF02F00BFA41F20401884227
:101510000CD3A068102809D1607D216B227F41EA9D
:10152000403040EA024040F01C0108E0607D216B41
:10153000227F41EA4030A168084340EA0241207F0F
:10154000012806D1206A0022CFF6FE7202EB40404D
:101550000143606A28B100F47870A26A084340EA47
:10156000020120684CF20303CFF6F073C2681A4000
:101570001143C16005F0ECFE0646206805F0D4FE7C
:10158000304331D1217D2068E26A44F20307C36809
:1015900042EA813123EA07021143C16094F838100E
:1015A0000129016914D14FF61E020027CFF600422F
:1015B000CFF6FF771140D4E90F231943636C07EB93
:1015C00002421143A26C1943114341F0010101E0B1
:1015D00021F0010101610169626B21F07041114349
:1015E00001612046FEF7A4FF2068E1680129026B33
:1015F00022F00F0102D1A269013A114301630121D6
:10160000606D61F301006065284601B0F0BD46F2EF
:101610000000C5F6020005F08FFE00287FF473AFCE
:101620005DE7000000000000F0B587B0002646F23C
:101630000001CDE9056604460068C5F6020104967E
:101640008842039602964FD042F20001C4F2020192
:10165000884240F0908044F2E0400026C5F6020047
:1016600050F8081C41F0200140F8081C50F8081CF4
:1016700001F0200101910199016841F0010101602F
:10168000006802A900F001000190019883200290F7
:10169000032003900020C5F60200049602F060F8D3
:1016A00041F26C054020C2F20045C4F202002860FD
:1016B0000920C5E90106EE604FF4806028614FF40F
:1016C000006068614FF40050C5E906062846C5E988
:1016D000086601F051FB00284BD0FFF771FC41F286
:1016E0006C05C2F2004544E044F2E0404FF48067EC
:1016F000C5F60200016841F080710160016801F0E7
:10170000807101910199016841F020010160006838
:1017100002A900F02000019001980320039000200E
:10172000C5F60200029700F5A050049602F018F8E2
:1017300041F2E4054020C2F20045C4F20200183034
:1017400028607320C5E90106C5E903674FF400600E
:1017500068614FF40050C5E906062846C5E90866E9
:1017600001F00AFB28B1FFF72BFC41F2E405C2F2BD
:101770000045E564AC6307B0F0BD00000000000068
:101780002DE9F0410446407901284FF0020008BFDE
:10179000BDE8F0810D4601216171904620712868F5
:1017A00004284AD102F0C4F8B8F1000F07460AD065
:1017B0002068406BB0F1FF3F1BDC02F0B9F8C01BA2
:1017C0000228F5D30DE048F20006C2F2000600BF81
:1017D0002068406B304213D002F0AAF8C01B0228E8
:1017E000F6D3206940F00800206103202071BDE895
:1017F000F081012001F0A0FF2068A969416405E0A3
:10180000012001F099FF2068A9690164206808F0AF
:10181000100240F2FF33816C9340EF69994307FA5D
:1018200002F32F6A19438164FF21C36C914023EABC
:10183000010107FA02F21143C164286901280BD1A2
:10184000206808F010021F23816B93406F69994351
:1018500007FA02F211438163216808F0100207239E
:10186000C86BEF689340012F20EA030C4FF0000093
:1018700003D0022F03D1012705E0002703E0AF6862
:10188000B7FA87F77F092E68AB6837433B436F6829
:10189000934043EA0C03CB634FF480430E689340BC
:1018A00026EA03030B6040F6FE730E68934026EAB7
:1018B000030397403B430B60C02303FA02F20B681B
:1018C00023EA02020A60012121716071BDE8F08102
:1018D00078B110B50446007920B900206071204627
:1018E00000F00AF8022020710020206101212171FE
:1018F00010BD01207047000080B586B00021059121
:10190000CDE9031147F200420068C4F200020291DF
:101910009042019101D006B080BD44F2E040C5F68E
:101920000200826842F000528260826802F0005237
:101930000092009A026842F001020260006800F022
:10194000010000900098102001900320CDE90201D1
:10195000002001A9C5F6020001F002FF06B080BD1B
:101960002DE9F041044601F0E3FF04B3054694F885
:10197000350002281ED140F20F472068C4F202074A
:1019800040F26F48B842C4F2020817DC6F21C4F27B
:101990000201884223DC3F21C4F20201884239DC83
:1019A0001021C4F20201884258D0282151E00120C0
:1019B000BDE8F081802060650120ABE240451ADC83
:1019C00040F23F41C4F2020188422ADC40F2104159
:1019D000C4F20201884241D040F2284139E09F21FF
:1019E000C4F20201884225DC7021C4F2020188425F
:1019F00034D088212DE040F29F41C4F20201884298
:101A00001FDC40F27041C4F20201884226D040F24D
:101A100088411EE04021C4F2020188421ED05821B4
:101A200017E040F24041C4F20201884216D040F271
:101A300058410EE0A021C4F2020188420ED0B82124
:101A400007E040F2B841C4F20201884206D040F2F9
:101A5000A041C4F20201884240F0EA812668316860
:101A600021F01E02314641F8142B6FF080020B6802
:101A7000404502EA03020A6019DC9F21C4F2020118
:101A8000884231DC5721C4F20201884256DC102121
:101A9000C4F20201884200F091802821C4F20201C0
:101AA000884200F08B804021C4F2020184E045F2BC
:101AB0002F41C5F6020188422BDC40F2B741C4F247
:101AC0000201884248DC40F27041C4F202018842BF
:101AD00074D040F28841C4F2020188426ED040F2D4
:101AE000A041C4F2020167E040F22741C4F20201C2
:101AF000884240DCA021C4F2020188425ED0B821B5
:101B0000C4F20201884259D040F21041C4F20201ED
:101B100052E045F26B41C5F6020188423CDC45F2D9
:101B20003041C5F60201884248D045F24441C5F62D
:101B30000201884242D045F258413BE05821C4F2AC
:101B4000020188423AD07021C4F20201884235D0A5
:101B50008821C4F202012FE040F2B841C4F2020130
:101B600088422BD045F20841C5F60201884225D0B3
:101B700045F21C411EE040F22841C4F202018842B5
:101B80001CD040F24041C4F20201884216D040F21B
:101B90005841C4F202010FE045F26C41C5F6020162
:101BA00088420BD045F29441C5F60201884205D027
:101BB00045F28041C5F60201884269D1216EB842E2
:101BC0000A6822F480720A6010DC6F21C4F20201FC
:101BD00088421CDC3F21C4F20201884232DC102121
:101BE000C4F20201884252D028214AE040451ADC62
:101BF00040F23F41C4F2020188422ADC40F2104127
:101C0000C4F20201884242D040F2284139E09F21CB
:101C1000C4F20201884225DC7021C4F2020188422C
:101C200035D088212DE040F29F41C4F20201884264
:101C30001FDC40F27041C4F20201884227D040F21A
:101C400088411EE04021C4F2020188421FD0582181
:101C500017E040F24041C4F20201884217D040F23E
:101C600058410EE0A021C4F2020188420FD0B821F1
:101C700007E040F2B841C4F20201884207D040F2C6
:101C8000A041C4F20201884208BF206800E0206839
:101C9000016821F0010101603068C0070BD001F03C
:101CA00047FE401B0628F7D320206065032084F8F8
:101CB000350001202EE12068B84210DC6F21C4F20B
:101CC000020188421CDC3F21C4F20201884232DC5E
:101CD0001021C4F20201884250D028214AE0404538
:101CE0001ADC40F23F41C4F2020188422ADC40F291
:101CF0001041C4F20201884240D040F2284139E04C
:101D00009F21C4F20201884225DC7021C4F2020145
:101D1000884233D088212DE040F29F41C4F2020175
:101D200088421FDC40F27041C4F20201884225D093
:101D300040F288411EE04021C4F2020188421DD0D9
:101D4000582117E040F24041C4F20201884215D008
:101D500040F258410EE0A021C4F2020188420DD0A9
:101D6000B82107E040F2B841C4F20201884205D030
:101D700040F2A041C4F2020188425ED1D4E91612B9
:101D800002F01F023F2303FA02F28A6040455EDC44
:101D90009F21C4F20201884214DC5721C4F20201DF
:101DA000884226DC1021C4F20201884200F0A280A1
:101DB0002821C4F20201884200F09C804021C4F234
:101DC000020195E040F22741C4F2020188421EDC84
:101DD000A021C4F20201884200F08C80B821C4F234
:101DE0000201884200F0868040F21041C4F20201F4
:101DF0007EE05821C4F2020188427BD07021C4F2F7
:101E00000201884276D08821C4F2020170E040F2DB
:101E10002841C4F2020188426CD040F24041C4F231
:101E20000201884266D040F25841C4F202015FE0EC
:101E300021686FF00E020E4619E6D4E9161202F080
:101E40001F02012303FA02F24A604045A0DD45F279
:101E50002F41C5F60201884216DC40F2B741C4F2B8
:101E60000201884225DC40F27041C4F2020188423E
:101E700040D040F28841C4F2020188423AD040F298
:101E8000A041C4F2020133E045F26B41C5F6020104
:101E900088421DDC45F23041C5F60201884229D056
:101EA00045F24441C5F60201884223D045F258412B
:101EB0001CE040F2B841C4F2020188421AD045F257
:101EC0000841C5F60201884214D045F21C410DE0DC
:101ED00045F26C41C5F6020188420BD045F29441AF
:101EE000C5F60201884205D045F28041C5F60201DF
:101EF00088420BD1616EA26EE06E4A6030B101681B
:101F000021F480710160D4E91C014160012084F852
:101F100035000020002184F83410BDE8F081000075
:101F200080B5D8B190F83510022919D140F20F428E
:101F30000168C4F20202914216DC6F23C4F202036C
:101F4000994226DC3F23C4F2020399423CDC102371
:101F5000C4F2020399425AD0282354E0012080BDE4
:101F600080214165012080BD40F26F43C4F202032D
:101F700099421ADC40F23F43C4F2020399422ADC40
:101F800040F21043C4F20203994240D040F2284389
:101F900039E09F23C4F20203994225DC7023C4F286
:101FA0000203994233D088232DE040F29F43C4F2CC
:101FB000020399421FDC40F27043C4F202039942CB
:101FC00025D040F288431EE04023C4F20203994228
:101FD0001DD0582317E040F24043C4F20203994257
:101FE00015D040F258430EE0A023C4F202039942F8
:101FF0000DD0B82307E040F2B843C4F2020399427F
:1020000005D040F2A043C4F20203994270D191423C
:102010004FF0040280F8352010DC6F22C4F2020277
:10202000914220DC3F22C4F20202914236DC1022AF
:10203000C4F20202914254D028224EE040F26F4294
:10204000C4F2020291421ADC40F23F42C4F20202A0
:1020500091422ADC40F21042C4F20202914240D086
:1020600040F2284239E09F22C4F20202914225DC6C
:102070007022C4F20202914233D088222DE040F255
:102080009F42C4F2020291421FDC40F27042C4F24D
:102090000202914225D040F288421EE04022C4F262
:1020A000020291421DD0582217E040F24042C4F291
:1020B0000202914215D040F258420EE0A022C4F232
:1020C000020291420DD0B82207E040F2B842C4F2B9
:1020D0000202914205D040F2A042C4F202029142B3
:1020E00024D10068016821F001010160002080BD59
:1020F0000268136823F00E03136045F25742C5F6D9
:10210000020291420A6822F001020A6014DC45F2E0
:102110002F42C5F6020291421DDC45F20842C5F687
:10212000020291422CD045F21C4225E0086820F0C2
:1021300001000860002080BD45F27F42C5F6020222
:10214000914211DC45F25842C5F60202914217D085
:1021500045F26C4210E045F23042C5F6020291426F
:102160000ED045F2444207E045F29442C5F6020221
:10217000914205D045F28042C5F6020291421AD141
:10218000D0E9181CD0E916E30A6822F480720A60CC
:1021900003F01F01012202FA01F1CEF80410816E52
:1021A000CCF80410C16E31B10A6822F480720A6062
:1021B000D0E91C124A60012180F83510026D00211F
:1021C00080F834100AB190470021084680BD000015
:1021D000406D7047000000002DE9F04381B0002100
:1021E000009140F200010446C2F2004140F26F4902
:1021F000A56DC4F20209086848F2B511C1F64E3166
:102200002668A0FB01084E452F682A6815DC9F2030
:10221000C4F2020086422BDC5720C4F20200864240
:102220004FDC1020C4F20200864278D02820C4F28D
:102230000200864273D040206CE045F22F40C5F684
:102240000200864227DC40F2B740C4F20200864218
:1022500043DC40F27040C4F2020086425FD040F29C
:102260008840C4F20200864259D040F2A04051E0BA
:1022700040F22740C4F2020086423DDCA020C4F2B6
:10228000020086424BD0B820C4F20200864246D0FB
:1022900040F210403EE045F26B40C5F60200864237
:1022A00074DC45F23040C5F60200864200F08180C1
:1022B00045F24440C5F6020086427AD045F25840C5
:1022C00072E05820C4F20200864228D07020C4F286
:1022D0000200864223D088201CE040F2B840C4F2BD
:1022E000020086421BD045F20840C5F60200864235
:1022F0005FD045F21C4057E040F22840C4F2020093
:1023000086420CD040F24040C4F20200864206D021
:1023100040F25840C4F20200864240F0ED84E06D85
:1023200000F01F01082000FA01F23A4200F0148187
:1023300040F20F40C4F20200864213DC6F20C4F268
:102340000200864200F38E803F20C4F202008642E3
:1023500000F3CF801020C4F20200864200F0ED802E
:102360002820E5E04E4500F3898040F23F40C4F26A
:102370000200864200F3C48040F21040C4F2020022
:10238000864200F0DA8040F22840D1E045F26C400D
:10239000C5F6020086420CD045F28040C5F6020028
:1023A000864206D045F29440C5F60200864240F0CF
:1023B000A3842068E16D01F01F010368580727D549
:1023C0000420884010EA020722D01904686000F156
:1023D0008780980600F18C8440F20F40C4F202001E
:1023E000864200F3AB836F20C4F20200864200F302
:1023F000E6833F20C4F20200864200F3508410209E
:10240000C4F20200864200F06D84282000F066BC11
:10241000980742D50220884010EA02073DD01904EF
:10242000686000F10E83980600F1988440F20F4036
:10243000C4F20200864200F3AF836F20C4F20200B0
:10244000864200F311843F20C4F20200864200F36A
:1024500056841020C4F20200864200F073842820C3
:1024600000F06CBC9F20C4F20200864251DC702058
:10247000C4F20200864260D0882059E040F29F40BA
:10248000C4F2020086424BDC40F27040C4F202000B
:10249000864252D040F288404AE0180740F12C842E
:1024A00008208840104000F0278440F20F40C4F21A
:1024B0000200864200F32C836F20C4F202008642A1
:1024C00000F34F833F20C4F20200864200F393835F
:1024D0001020C4F20200864200F0B1832820A9E354
:1024E000D80300F1B482A16C002940F00C8300F005
:1024F00003BC4020C4F2020086421ED0582017E0E0
:1025000040F24040C4F20200864216D040F25840E9
:102510000EE0A020C4F2020086420ED0B82007E0F0
:1025200040F2B840C4F20200864206D040F2A04019
:10253000C4F20200864240F08E82206804230068C4
:10254000184209D02068036823F004030360AA60DE
:10255000606D40F001006065012000FA01F23A422E
:1025600070D040F20F40C4F20200864210DC6F20AF
:10257000C4F2020086421CDC3F20C4F20200864204
:1025800032DC1020C4F20200864251D028204AE0FA
:102590004E451ADC40F23F40C4F2020086422ADC7B
:1025A00040F21040C4F20200864241D040F228407E
:1025B00039E09F20C4F20200864225DC7020C4F27C
:1025C0000200864234D088202DE040F29F40C4F2C1
:1025D000020086421FDC40F27040C4F202008642D4
:1025E00026D040F288401EE04020C4F2020086421D
:1025F0001ED0582017E040F24040C4F2020086424C
:1026000016D040F258400EE0A020C4F202008642EC
:102610000ED0B82007E040F2B840C4F20200864273
:1026200006D040F2A040C4F20200864240F016827A
:102630002068406900F0800020B1AA60606D40F021
:1026400002006065042000FA01F23A4270D040F2C4
:102650000F40C4F20200864210DC6F20C4F2020078
:1026600086421CDC3F20C4F20200864232DC10208D
:10267000C4F20200864251D028204AE04E451ADCBE
:1026800040F23F40C4F2020086422ADC40F2104091
:10269000C4F20200864241D040F2284039E09F2037
:1026A000C4F20200864225DC7020C4F20200864299
:1026B00034D088202DE040F29F40C4F202008642D0
:1026C0001FDC40F27040C4F20200864226D040F285
:1026D00088401EE04020C4F2020086421ED05820EE
:1026E00017E040F24040C4F20200864216D040F2A9
:1026F00058400EE0A020C4F2020086420ED0B8205E
:1027000007E040F2B840C4F20200864206D040F230
:10271000A040C4F20200864240F0A6812068006812
:1027200000F0020020B1AA60606D40F00400606516
:10273000102000FA01F139427ED040F20F40C4F27D
:102740000200864210DC6F20C4F2020086421CDCCC
:102750003F20C4F20200864232DC1020C4F20200A4
:10276000864251D028204AE04E451ADC40F23F40D4
:10277000C4F2020086422ADC40F21040C4F2020099
:10278000864241D040F2284039E09F20C4F2020046
:10279000864225DC7020C4F20200864234D08820B4
:1027A0002DE040F29F40C4F2020086421FDC40F25E
:1027B0007040C4F20200864226D040F288401EE0FB
:1027C0004020C4F2020086421ED0582017E040F29A
:1027D0004040C4F20200864216D040F258400EE05B
:1027E000A020C4F2020086420ED0B82007E040F2DA
:1027F000B840C4F20200864206D040F2A040C4F2C3
:102800000200864240F03681266808223068104275
:1028100012D0A960206801684903016806D4C9057F
:1028200006D4016821F00801016001E008034FD4DB
:10283000216C09B120468847E06D202100F01F007F
:102840008140394200F0AE8040F20F432268C4F26A
:1028500002039A4210DC6F23C4F202039A421CDC8A
:102860003F23C4F202039A4236DC1023C4F202036F
:102870009A4255D028234EE04A451ADC40F23F43A5
:10288000C4F202039A422EDC40F21043C4F2020367
:102890009A4245D040F228433DE09F23C4F2020310
:1028A0009A4229DC7023C4F202039A4238D088236A
:1028B00031E040F29F43C4F202039A4223DC40F22B
:1028C0007043C4F202039A422AD040F2884322E0C5
:1028D000A16C0029AED1AFE74023C4F202039A42B3
:1028E0001ED0582317E040F24043C4F202039A423C
:1028F00016D040F258430EE0A023C4F202039A42DD
:102900000ED0B82307E040F2B843C4F202039A4263
:1029100006D040F2A043C4F202039A4240F0AC80D9
:102920002268102312681A423CD0A96094F835201E
:102930002168042A0A681DD122F016020A604A6939
:1029400022F080024A61226C0AB9A26C1AB10A68AC
:1029500022F008020A603F2101FA00F0A86001207D
:1029600084F83500216D0020002984F8340040F0FF
:10297000CA80C1E1500308680CD4C0050ED40868B1
:1029800020F010000860012084F83500002084F851
:10299000340003E0000301D4616C00E0E16B09B195
:1029A00020468847606D002800F0A681606DC00752
:1029B00000F0A580042084F8350040F20F41206823
:1029C000C4F20201884210DC6F21C4F20201884285
:1029D0001CDC3F21C4F2020188424FDC1021C4F20A
:1029E000020188426FD0282167E048451ADC40F296
:1029F0003F41C4F20201884247DC40F21041C4F278
:102A0000020188425FD040F2284156E09F21C4F283
:102A10000201884242DC7021C4F20201884252D095
:102A200088214AE040F29F41C4F2020188423CDC26
:102A300040F27041C4F20201884244D040F2884121
:102A40003BE0D80376D4616C00295CD154E1216C61
:102A5000002958D150E10823304670E53068002045
:102A600000287FF4EAADEDE53068002000287FF40F
:102A70005AAE5DE60422C9E6022353E74021C4F2C0
:102A8000020188421FD0582117E040F24041C4F2B1
:102A90000201884217D040F258410EE0A021C4F252
:102AA000020188420FD0B82107E040F2B841C4F2D9
:102AB0000201884207D040F2A041C4F202018842DC
:102AC00008BF206800E020684FEA9821026822F0E1
:102AD00001020260009801300090884203D820680B
:102AE0000068C007F6D120680068C0074FF00300F7
:102AF00008BF012084F83500002084F83400E16C20
:102B0000002900F0F9802046884701B0BDE8F08335
:102B10004E4532DC40F23F40C4F20200864271DC96
:102B200040F21040C4F20200864200F0888040F279
:102B300028407FE0E16B0029E5D1DDE04E454BDC2C
:102B400040F23F40C4F20200864200F3AF8040F200
:102B50001040C4F20200864200F0C48040F22840D7
:102B6000BCE09F20C4F20200864254DC7020C4F214
:102B70000200864263D088205CE040F29F40C4F2AD
:102B8000020086424EDC40F27040C4F202008642EF
:102B900055D040F288404DE04E4571DC40F23F4058
:102BA000C4F20200864200F3B18040F21040C4F249
:102BB0000200864200F0C68040F22840BEE09F201E
:102BC000C4F2020086427ADC7020C4F2020086421F
:102BD00000F08880882081E040F29F40C4F202002B
:102BE000864273DC40F27040C4F20200864279D023
:102BF00040F2884072E04020C4F2020086421ED0BB
:102C0000582017E040F24040C4F20200864216D03D
:102C100040F258400EE0A020C4F2020086420ED0DE
:102C2000B82007E040F2B840C4F20200864206D065
:102C300040F2A040C4F20200864240F09480266830
:102C40006FF01C02306810403060012000FA01F182
:102C50006960606584F835000020E16C84F8340018
:102C600000297FF450AF47E09F20C4F20200864263
:102C700055DC7020C4F20200864263D088205DE0FB
:102C800040F29F40C4F2020086424FDC40F27040A6
:102C9000C4F20200864255D040F288404EE0402007
:102CA000C4F2020086421DD0582017E040F2404096
:102CB000C4F20200864215D040F258400EE0A02037
:102CC000C4F2020086420DD0B82007E040F2B840BE
:102CD000C4F20200864205D040F2A040C4F20200D5
:102CE000864243D126686FF00801306808403060A2
:102CF000216C00297FF407AF01B0BDE8F0834020CC
:102D0000C4F2020086421DD0582017E040F2404035
:102D1000C4F20200864215D040F258400EE0A020D6
:102D2000C4F2020086420DD0B82007E040F2B8405D
:102D3000C4F20200864205D040F2A040C4F2020074
:102D4000864216D126686FF0140130680840306062
:102D5000012084F83500002084F83400E16B00295C
:102D60007FF4D1AEC8E76FF00E026BE76FF004019D
:102D7000BBE76FF00A01E8E72DE9F04381B00446B4
:102D800000F0D6FD002C00F0758140F26F4805463A
:102D90002068C4F20208404515DC9F21C4F20201FC
:102DA00088422BDC5721C4F20201884251DC1021F9
:102DB000C4F2020188427AD02821C4F2020188427A
:102DC00075D040216EE045F22F41C5F602018842E0
:102DD00027DC40F2B741C4F20201884245DC40F2F0
:102DE0007041C4F20201884261D040F28841C4F2CD
:102DF000020188425BD040F2A04153E040F22741FB
:102E0000C4F2020188423FDCA021C4F202018842E0
:102E10004DD0B821C4F20201884248D040F210419E
:102E200040E045F26B41C5F60201884200F3908014
:102E300045F23041C5F60201884200F09C8045F21F
:102E40004441C5F60201884200F0958045F25841A0
:102E50008CE05821C4F20201884228D07021C4F2CB
:102E60000201884223D088211CE040F2B841C4F21C
:102E7000020188421BD045F20841C5F60201884292
:102E800079D045F21C4171E040F22841C4F20201C0
:102E900088420CD040F24041C4F20201884206D080
:102EA00040F25841C4F20201884240F0138240F2DD
:102EB0000F420221C4F2020284F8351090424FF012
:102EC000000184F8341012DC6F21C4F20201884240
:102ED00020DC3F21C4F20201884200F392801021DD
:102EE000C4F20201884200F0B1802821A8E04045E8
:102EF0001EDC40F23F41C4F20201884200F38880A8
:102F000040F21041C4F20201884200F09F8040F27A
:102F1000284195E09F21C4F20201884200F381809C
:102F20007021C4F20201884200F09080882187E07D
:102F300040F29F41C4F20201884279DC40F27041C4
:102F4000C4F20201884200F0818040F2884177E0BB
:102F500045F26C41C5F6020188420CD045F2804131
:102F6000C5F60201884206D045F29441C5F6020139
:102F7000884240F0AF8104F1080E022084F8350049
:102F8000002084F8340020689EE80640A1F1800308
:102F90004029B3FA83F34FEA5313D4E90579D4E90E
:102FA000076C05684FEA83336FF3101508BF1023D1
:102FB00045EAD2014AF6F8321943CAF2FD7241EAF3
:102FC000DE014CF6CD4341EAD701024441EAD90182
:102FD000CCF6CC4341EAD601A2FB032341EA1C1103
:102FE00001606FF0030000EA9300E0652046FDF702
:102FF0006BFBE16D012201F01F0102FA01F141605A
:103000009CE04021C4F2020188421FD0582117E001
:1030100040F24041C4F20201884217D040F25841C8
:103020000EE0A021C4F2020188420FD0B82107E0CF
:1030300040F2B841C4F20201884207D040F2A041F8
:10304000C4F20201884208BF206800E020680168DD
:1030500021F00101016000BF27683868C0070DD06A
:1030600000F066FC401B0628F6D320206065032094
:1030700084F83500012001B0BDE8F08348F23F013B
:1030800004F108053868CFF6106108402ECD0843DA
:10309000A1691043E2691843236A0543606A294322
:1030A000042841EA020141EA030103D1D4E90B23D8
:1030B0001143194341F20002C5F600421268B2F111
:1030C000005F17D36268A2F12903202B06D23F25A7
:1030D000CCF2C03525FA03F3DB0706D1A2F14F038A
:1030E0000022042B38BF012200E00122002A18BF71
:1030F00041F4801139600428796921F0070141EA1F
:10310000000510D1D4E90A1045EA010558B120465E
:10311000FDF73AFC38B140206065012084F83500A5
:1031200001B0BDE8F08320467D61FDF7CDFAE16D89
:103130003F2201F01F0102FA01F181602068404541
:1031400019DC9F21C4F20201884231DC5721C4F20C
:103150000201884256DC1021C4F20201884200F0CC
:1031600091802821C4F20201884200F08B80402126
:10317000C4F2020184E045F22F41C5F60201884203
:103180002BDC40F2B741C4F20201884248DC40F235
:103190007041C4F20201884274D040F28841C4F206
:1031A000020188426ED040F2A041C4F2020167E001
:1031B00040F22741C4F20201884240DCA021C4F25F
:1031C000020188425ED0B821C4F20201884259D07F
:1031D00040F21041C4F2020152E045F26B41C5F6E3
:1031E000020188423CDC45F23041C5F602018842CA
:1031F00048D045F24441C5F60201884242D045F22A
:1032000058413BE05821C4F2020188423AD0702173
:10321000C4F20201884235D08821C4F202012FE0B5
:1032200040F2B841C4F2020188422BD045F2084175
:10323000C5F60201884225D045F21C411EE040F24D
:103240002841C4F2020188421CD040F24041C4F23D
:103250000201884216D040F25841C4F202010FE048
:1032600045F26C41C5F6020188420BD045F294410B
:10327000C5F60201884205D045F28041C5F602013B
:1032800088421FD12046FDF7AFFAA068802801D1FF
:103290000020606004F160036068C7B201380ECBA3
:1032A00007280F60536009D82046FDF715FB04F18D
:1032B0006C02002307CA03604A6003E00020C4E9EF
:1032C0001B00606700206065012184F8351001B0A3
:1032D000BDE8F0834020C9E6F0B581B0A8B304464C
:1032E00090F83400012802D1022001B0F0BD012085
:1032F00084F8340094F83500012820D1022084F8A5
:1033000035000020606540F20F462068C4F20206D6
:1033100040F26F47B042C4F2020719DC6F25C4F2D5
:103320000205A84225DC3F25C4F20205A8423BDC89
:103330001025C4F20205A8425BD0282553E04FF4C3
:1033400000606065002084F83400012001B0F0BD09
:10335000B8421ADC40F23F45C4F20205A8422ADC1A
:1033600040F21045C4F20205A84242D040F228457E
:1033700039E09F25C4F20205A84225DC7025C4F27D
:103380000205A84235D088252DE040F29F45C4F2C1
:103390000205A8421FDC40F27045C4F20205A842B3
:1033A00027D040F288451EE04025C4F20205A8421D
:1033B0001FD0582517E040F24045C4F20205A8424C
:1033C00017D040F258450EE0A025C4F20205A842ED
:1033D0000FD0B82507E040F2B845C4F20205A84274
:1033E00007D040F2A045C4F20205A84208BF2068F9
:1033F00000E02068056825F0010505602046FDF71E
:10340000EBFA2068B04210DC6F21C4F2020188425E
:103410001CDC3F21C4F20201884232DC1021C4F2DC
:103420000201884251D028214AE0B8421ADC40F219
:103430003F41C4F2020188422ADC40F21041C4F24A
:103440000201884241D040F2284139E09F21C4F274
:103450000201884225DC7021C4F20201884234D086
:1034600088212DE040F29F41C4F2020188421FDC16
:1034700040F27041C4F20201884226D040F28841F5
:103480001EE04021C4F2020188421ED0582117E0FC
:1034900040F24041C4F20201884216D040F2584145
:1034A0000EE0A021C4F2020188420ED0B82107E04C
:1034B00040F2B841C4F20201884206D040F2A04175
:1034C000C4F20201884240F0298121680B25226C58
:1034D0000B6865F344030B601AB10A6842F00802F6
:1034E0000A60B84219DC9F21C4F20201884231DC33
:1034F0005721C4F20201884256DC1021C4F20201B5
:10350000884200F091802821C4F20201884200F034
:103510008B804021C4F2020184E045F22F41C5F6C0
:10352000020188422BDC40F2B741C4F2020188421A
:1035300048DC40F27041C4F20201884274D040F28B
:103540008841C4F2020188426ED040F2A041C4F228
:10355000020167E040F22741C4F20201884240DCE8
:10356000A021C4F2020188425ED0B821C4F2020157
:10357000884259D040F21041C4F2020152E045F2B3
:103580006B41C5F6020188423CDC45F23041C5F68C
:103590000201884248D045F24441C5F60201884202
:1035A00042D045F258413BE05821C4F20201884222
:1035B0003AD07021C4F20201884235D08821C4F289
:1035C00002012FE040F2B841C4F2020188422BD040
:1035D00045F20841C5F60201884225D045F21C415A
:1035E0001EE040F22841C4F2020188421CD040F2A1
:1035F0004041C4F20201884216D040F25841C4F260
:1036000002010FE045F26C41C5F6020188420BD081
:1036100045F29441C5F60201884205D045F2804149
:10362000C5F60201884272D1216E0A68D20303D521
:103630000A6842F480720A60E16E19B10A6842F4C5
:1036400080720A60B04210DC6F21C4F2020188422D
:103650001CDC3F21C4F20201884232DC1021C4F29A
:103660000201884252D028214AE0B8421ADC40F2D6
:103670003F41C4F2020188422ADC40F21041C4F208
:103680000201884242D040F2284139E09F21C4F231
:103690000201884225DC7021C4F20201884235D043
:1036A00088212DE040F29F41C4F2020188421FDCD4
:1036B00040F27041C4F20201884227D040F28841B2
:1036C0001EE04021C4F2020188421FD0582117E0B9
:1036D00040F24041C4F20201884217D040F2584102
:1036E0000EE0A021C4F2020188420FD0B82107E009
:1036F00040F2B841C4F20201884207D040F2A04132
:10370000C4F20201884208BF206800E02068016816
:1037100041F001010160002001B0F0BD21680525E4
:10372000226C0B68002A65F343030B603FF4D9AEAB
:103730000A6842F00402D3E6B0B5044600F0F8F897
:1037400040F248010546C2F20041621C097818BFE8
:103750000C4400BF00F0ECF8401BA042FAD3B0BD0F
:103760002DE9F04F83B00C68002C00F0C68000F10A
:10377000264242F2004702F1FF72C5F602074FEA05
:10378000B22201920A22B84208BF0922002500276E
:103790004FF0010A009209E00C68043734FA0AF28B
:1037A0000AF1010A05F1020500F0A780AAF101095A
:1037B000012202FA09FE14EA0E08EDD0D1F804B095
:1037C0000BF00304A4F1010CBCF1010F11D803228A
:1037D0008668AA40CB6826EA0202AB401A438260A0
:1037E000CBF30013426822EA0E0203FA09F31A43EC
:1037F0004260032C1ED00323C268AB40022C22EA95
:1038000003028B6803FA05F342EA0302C26011D196
:103810006FF0030207F01C0602EA59020F2302446C
:1038200003FA06F4D2F820C00B692CEA0404B34072
:103830002343136203230268AB404E689A4306F0A9
:103840000303AB4016F4403F42EA03020260A3D0F8
:1038500044F2F44340F2084EC5F60203C5F6000EEA
:103860001A6842F002021A601A6807F00C0302F0AC
:1038700002020292029A29F00302019C009E092C86
:1038800038BF26460F2452F80EC09C402CEA040490
:1038900006FA03F34FF0B04C234342F80E30DCF845
:1038A00000204B6842EA0806DC0258BF22EA0806FC
:1038B0009C02CCF8006040F2040CC5F6000CDCF869
:1038C000002042EA080658BF22EA08069C03CCF80A
:1038D0000060DCF8802042EA080658BF22EA0806A9
:1038E000DB03CCF88060DCF87C2042EA080658BF95
:1038F00022EA0806CCF87C604EE703B0BDE8F08F02
:103900000069084018BF0120704700000000000057
:10391000002A08BF09048161704700000000000010
:1039200041F20000C5F600400068000C704700003E
:1039300041F2C040C2F20040006870470000000041
:1039400090F84120202A03D190F84020012A01D18B
:1039500002207047242280F841200268136823F077
:1039600001031360136823F4805313601368194331
:103970001160116841F001011160202180F84110AF
:10398000002180F840100846704700000000000049
:1039900090F841007047000000284CD010B5044654
:1039A00090F8410028B9002084F84000204600F03B
:1039B0009FF9242084F8410094E80310E36821F083
:1039C00070610268012B22F00102026001614FF474
:1039D0000442816808BF4FF40042022B21F40041E9
:1039E00081604CEA0201816002D14FF400614160C4
:1039F000416804F1100C41F0007141F40041416054
:103A0000C16821F40041C1609CE80E10114341EAF5
:103A10000321C160216A41EA0C010160016841F0A3
:103A20000101016000206064202184F841102063BE
:103A300084F8420010BD0120704700000000000023
:103A40002DE9F04F83B000270297044690F841001B
:103A5000202807D120688069000403D494F840002E
:103A6000012803D1022003B0BDE8F08F012084F8C3
:103A70004000242084F84100002060640A20894628
:103A800060F39F298A4648F208001D4660F39F2A8A
:103A900090465F1C06E000BF029801300290029839
:103AA00040454BD2E06821680128484608BF50468F
:103AB0004860FFF73DFF2168064651F8182F0B6854
:103AC0001B0943EA5212D20708D012E0206881692C
:103AD0008269120942EA5111C90708D1002FF5D0B5
:103AE000FFF726FF55B3801BA842EFD926E000F16F
:103AF0001801D1F800B02021002220462B46009664
:103B000003F0B6FA5FEACB6126D508BB2068102126
:103B1000C1612021C16102994145BDD141680022A6
:103B200041F480414160202120462B46009603F05D
:103B30009FFA68B920682021C161ADE7202084F890
:103B40004100606C40F020006064002084F8400078
:103B5000012003B0BDE8F08F0028F9D120682021B2
:103B6000C161002084F8411084F8400003B0BDE832
:103B7000F08F0000000000002DE9F04F83B00446F4
:103B800090F8410020280FD1DDF83080B8F1000F07
:103B90000CD0DDF834B0BBF1000F07D094F8400032
:103BA000012808D1022533E0022531E04FF40070EE
:103BB000606401252CE01F4616468A46012584F8DC
:103BC0004050FFF7B5FE81464FF400410122192312
:103BD0000090204603F04CFAD0B9212084F841002F
:103BE000402084F842002046514632463B4600259C
:103BF0006564C4F82480DDF83880A4F82AB06563D1
:103C0000CDE9008903F0E0F930B184F84050012596
:103C1000284603B0BDE8F08F608DB0F5807F05D3F6
:103C2000FF202085FF224FF0807304E0608D4FF06D
:103C300000732085C2B2002000902046514603F058
:103C4000FFF90025FF260BE0608D4FF00073208503
:103C5000C2B220465146009503F0F2F9608D50B390
:103C6000204641464A4603F06BFA10BB606A216861
:103C700010F8012B8A626062608D01386085208DAA
:103C8000411E2185608D0904E8D10028E6D08021FD
:103C9000002220464346CDF8009003F0E9F990B9A0
:103CA000608DB0F5807FCFD32685FF224FF08073E3
:103CB000CFE70125ACE7204641464A4603F018FA13
:103CC00018B10125A4E70125A2E7206820214EF6BE
:103CD00000030025C161CFF6006342681A404260CC
:103CE00084F8411084F8425084F8405090E7000076
:103CF000704700000000000040F2480041F2C0415F
:103D0000C2F20040C2F2004100780A681044086024
:103D1000704700000000000080B5032000F084F828
:103D200001F026FA44F218414AF2D233C5F60201F4
:103D3000C0F600030A68096801F00F01C2F303220C
:103D4000595C9A5C01F01F0102F01F02D04040F262
:103D50000402C2F2004220FA01F1116040F20001B7
:103D6000C2F200410860032000F00AF800281CBFDE
:103D7000012080BD00F030F8002080BD0000000070
:103D8000B0B540F24801C2F20041097801B30446DF
:103D900040F20000C2F200404FF47A72B2FBF1F13F
:103DA0000068B0FBF1F002F06BF80F2C4FF001054A
:103DB0000CD858B94FF0FF3000222146002500F002
:103DC00023F840F24C00C2F2004004602846B0BD27
:103DD0000120B0BD0000000080B582B044F2F44084
:103DE000C5F60200016841F002010160006800F0C0
:103DF000020001900198052000F016F802B080BD85
:103E000080B505F011FC80BD70B514460D46064620
:103E100005F01AFC2946224603F016FF01463046FB
:103E200005F01AFC70BD000080B505F029FC80BDCE
:103E3000B0B544F60C05C5F602052968490729689E
:103E400005D401F00701081A18BF0120B0BD21F008
:103E5000070108432860FFF76BFD044655F8080C7E
:103E6000800407D4FFF764FD001BB0F57A7FF5D915
:103E70000120B0BD0020B0BD80B501F029F944F2A9
:103E800020414AF2D232C5F60201C0F600020968AA
:103E9000C1F30211515C01F01F01C84080BD000058
:103EA00080B544F2304EC5F6020E5EF8083C5EF86E
:103EB000081CC1F3051C5EF8041CBCF1000FDEF801
:103EC000042016D0C2F3CC0201F00101514303F0EB
:103ED0000303022B00EE101AB8EE400A0ED0012B9D
:103EE0000FD01BB95EF8301C89060DD49FED341A33
:103EF00018E00021C0E90011816080BD9FED2F1AFC
:103F000010E09FED2D1A0DE05EF8301C49F2000222
:103F1000C0F2D032C1F3C10122FA01F101EE101A50
:103F2000B8EE411ADEF800109FED263A6FF35F21DC
:103F300002EE101ADEF80010C1F34621B8EE422A54
:103F400000EE032A00EE10CAB7EE003AB8EE400ABF
:103F500081EE000A32EE031A02EE101AB8EE422A7F
:103F600020EE010A32EE031A80EE011ABCEEC11AED
:103F700080ED001ADEF80010C1F3064101EE101AC0
:103F8000B8EE411A31EE031A80EE011ABCEEC11AE6
:103F900080ED011ADEF80010C1F3066101EE101A7F
:103FA000B8EE411A31EE031A80EE010ABCEEC00AE7
:103FB00010EE101A816080BD0024744A8096184C5F
:103FC0000024744C0000003980B544F2384EC5F628
:103FD000020E5EF8103C5EF8101CC1F3053C5EF862
:103FE0000C1CBCF1000FDEF8042014D0C1F300114A
:103FF000C2F3CC02514300EE101A03F00301022970
:10400000B8EE400A0CD071B95EF8381C89060DD4A0
:104010009FED341A18E00021C0E90011816080BDD5
:104020009FED2F1A10E09FED2D1A0DE05EF8381C61
:1040300049F20002C0F2D032C1F3C10122FA01F10B
:1040400001EE101AB8EE411ADEF800109FED263A84
:104050006FF35F2102EE101ADEF80010C1F3462163
:10406000B8EE422A00EE032A00EE10CAB7EE003A7C
:10407000B8EE400A81EE000A32EE031A02EE101A80
:10408000B8EE422A20EE010A32EE031A80EE011A3F
:10409000BCEEC11A80ED001ADEF80010C1F3064133
:1040A00001EE101AB8EE411A31EE031A80EE011A31
:1040B000BCEEC11A80ED011ADEF80010C1F30661F2
:1040C00001EE101AB8EE411A31EE031A80EE010A21
:1040D000BCEEC00A10EE101A816080BD0024744A44
:1040E0008096184C0024744C000000390000000039
:1040F00080B544F2404EC5F6020E5EF8183C5EF8FC
:10410000181CC1F3055C5EF8141CBCF1000FDEF84E
:10411000042014D0C1F30021C2F3CC02514300EEBD
:10412000101A03F003010229B8EE400A0CD071B94D
:104130005EF8401C89060DD49FED341A18E000216A
:10414000C0E90011816080BD9FED2F1A10E09FED46
:104150002D1A0DE05EF8401C49F20002C0F2D03288
:10416000C1F3C10122FA01F101EE101AB8EE411AB1
:10417000DEF800109FED263A6FF35F2102EE101A71
:10418000DEF80010C1F34621B8EE422A00EE032A01
:1041900000EE10CAB7EE003AB8EE400A81EE000A0F
:1041A00032EE031A02EE101AB8EE422A20EE010A8D
:1041B00032EE031A80EE011ABCEEC11A80ED001A2D
:1041C000DEF80010C1F3064101EE101AB8EE411AF4
:1041D00031EE031A80EE011ABCEEC11A80ED011A0D
:1041E000DEF80010C1F3066101EE101AB8EE411AB4
:1041F00031EE031A80EE010ABCEEC00A10EE101A6E
:10420000816080BD0024744A8096184C0024744C50
:10421000000000390000000080B584B00146B0F510
:10422000805F4FF0000023DBB1F5004F5BDB00F057
:104230007880B1F5803F00F0B380B1F5002F40F0F9
:104240001E8144F20040C5F60200816D01F4403148
:10425000B1F5003F00F01981B1F5803F00F0FF801B
:10426000002940F02F810068000140F12B81C5E05A
:10427000B1F5806F1CDAB1F5807F00F06B80B1F58D
:10428000007F40F0FC8044F20041C5F60201086D59
:10429000C0F38212042A00F2158148F20000C0F235
:1042A000BB00DFE812F09F00A800AF00EC00B800F0
:1042B00000F06380B1F5006F40F0E18044F200410E
:1042C000C5F60201886DC0F30262042A00F2FA808A
:1042D00048F20000C0F2BB00DFE812F084008D005D
:1042E0009400D1009D00B1F5805F00F06880B1F5C9
:1042F000804F40F0C48044F20040C5F60200816D5A
:10430000C1F30271052900F2DD80DFE811F006003B
:10431000CA00D100D800DE001C00FFF7ADFD04B0DC
:1043200080BD44F20040C5F60200016D01F040512D
:10433000B1F1005F00F09C80B1F1805F00F0A180DE
:10434000002940F0BF80006845F600218003C0F2DC
:104350006221C0E044F20041C5F60201086D00F0A0
:104360000702042A00F2AE8048F20000C0F2BB004F
:10437000DFE802F038414885510044F20041C5F6BB
:104380000201886DC0F34252042A00F29B8048F279
:104390000000C0F2BB00DFE802F0252E35723E00BF
:1043A00044F20040C5F60200C16C0068C9031AD58A
:1043B000000140F1878001A8FFF706FE55E044F2B6
:1043C0000041C5F60201086DC0F30232042A00F272
:1043D000798048F20000C0F2BB00DFE802F0030C75
:1043E00013501C00086880016CD501A8FFF758FD28
:1043F000029804B080BD0868000163D501A8FFF7EA
:10440000E3FD05E0086880005CD501A8FFF770FEB9
:10441000019804B080BDC86C0B6810F04052086869
:104420000CD113F0040309D0C0F3C10049F200011C
:10443000C0F2D03121FA00F004B080BDB2F1805F4B
:1044400002D110F4807050D1086810F400301CBF05
:1044500045F60020C0F26220B2F1005F57E000682C
:1044600080002FD501A8FFF743FE039804B080BD5C
:104470000068000126D501A8FFF7A6FD029804B048
:1044800080BD006880011DD5AFE7C16C036811F0E5
:104490004051026823D113F0040320D0C2F3C100BD
:1044A000C4E7006800010DD501A8FFF78DFD9FE767
:1044B0000068800006D501A8FFF71AFE98E701689A
:1044C000490718D4002004B080BD006840F60011F0
:1044D000C005C0F23D0101EAE07004B080BDB1F159
:1044E000805F0AD112F4807207D040F60010C0F24B
:1044F0003D0004B080BD006896E7006810F400300D
:104500001CBF45F60020C0F26220B1F1005F18BF69
:10451000002004B080BD00002DE9F04381B00446C6
:10452000C07844F22C490007C5F6020901D40026E0
:104530002DE0606E4FEA305003280DD80026DFE8EA
:1045400000F0020E1613D9F80000002640F40030E7
:10455000C9F800004EB912E0012636B90FE0201D5F
:10456000022103F0C9FB06464EB1B04611E004F14A
:104570002400022103F050FC0646002EF5D1D9F8A4
:104580002400616E20F440100843C9F824004FF065
:1045900000086078C0072FD0606D042807D8DFE8D6
:1045A00000F00A131B030300F6B1B04624E0012615
:1045B000002EFAD118E0D9F8000040F40030C9F814
:1045C0000000002EF1D10FE0201D002103F094FB2C
:1045D0000646002EE9D107E004F12400002103F093
:1045E0001BFC0646002EE0D1D9F82400616D20F0B6
:1045F00007000843C9F824006078800731D5A06D12
:104600004FEAB010042807D8DFE800F00A131B03B4
:104610000300F6B1B04624E00126002EFAD118E0DE
:10462000D9F8000040F40030C9F80000002EF1D1A4
:104630000FE0201D002103F05FFB0646002EE9D1AC
:1046400007E004F12400002103F0E6FB0646002EFB
:10465000E0D1D9F82400A16D20F4E0700843C9F836
:1046600024006078400733D5D4F8A4004FEA705096
:10467000042807D8DFE800F00A131B030300F6B193
:10468000B04625E00126002EFAD118E0D9F8000046
:1046900040F40030C9F80000002EF1D10FE0201DD9
:1046A000002103F029FB0646002EE9D107E004F1C2
:1046B0002400002103F0B0FB0646002EE0D1D9F81B
:1046C0002C00D4F8A41020F460000843C9F82C0092
:1046D0006078000733D5D4F8A8004FEA306004288A
:1046E00007D8DFE800F00A131B030300F6B1B04659
:1046F00025E00126002EFAD118E0D9F8000040F498
:104700000030C9F80000002EF1D10FE0201D00217B
:1047100003F0F2FA0646002EE9D107E004F1240086
:10472000002103F079FB0646002EE0D1D9F82C00D9
:10473000D4F8A81020F0E0600843C9F82C00E07815
:10474000800727D5A06C4FEA3010032806D8DFE891
:1047500000F002091202AEB1B0461BE00126002EA5
:10476000FAD10FE0D9F8000040F40030C9F8000099
:10477000002EF1D106E0201D022103F0BDFA06460D
:10478000002EE9D1D9F82000A16C20F030000843B8
:10479000C9F820006078C00631D5E06D4FEA3030AE
:1047A000042807D8DFE800F00A131B030300F6B162
:1047B000B04624E00126002EFAD118E0D9F8000016
:1047C00040F40030C9F80000002EF1D10FE0201DA8
:1047D000002103F091FA0646002EE9D107E004F12A
:1047E0002400002103F018FB0646002EE0D1D9F882
:1047F0002400E16D20F4E0400843C9F8240060780B
:10480000800625D5206E4FEA3040052807D8DFE81E
:1048100000F0030A0F03030396B1B04618E0012627
:10482000002EFAD10CE0201D012103F065FA04E00E
:1048300004F12400012103F0EFFA0646002EECD12A
:10484000D9F82400216E20F4E0200843C9F82400A0
:104850006078400627D5D4F8AC004FEA30700528C0
:1048600007D8DFE800F0030A0F03030396B1B04650
:1048700019E00126002EFAD10CE0201D012103F0E1
:104880003BFA04E004F12400012103F0C5FA0646D6
:10489000002EECD1D9F82C00D4F8AC1020F0E04078
:1048A0000843C9F82C00607800061FD5E06ED0B12F
:1048B000B0F1005F12D0B0F1805F24D1D9F80000D0
:1048C00040F40030C9F800007EB9D9F82400E16E48
:1048D00020F040500843C9F8240007E0201D0121C2
:1048E00003F00AFA0646002EEFD0B046E078C00783
:1048F00029D0606C03280AD8DFE800F0020D160208
:10490000CEB1B0461FE00126002EEED1DDE7012634
:10491000002EF6D10FE0D9F8000040F40030C9F8BD
:104920000000002EEDD106E0201D022103F0E4F985
:104930000646002EE5D1D9F82000616C20F0030076
:104940000843C9F82000A078400643D5D9F8D4031D
:1049500040F48070C9F8D403FEF7EAFF074600BFB1
:10496000D9F8D403C00505D4FEF7E2FFC01B6528C3
:10497000F6D303266EBBD9F84410D4F8B0004140FA
:1049800011F4407F11D0D9F84410D9F8442042F4F2
:104990008032C9F84420D9F8442021F4407122F42F
:1049A0008032C9F84420C9F84410B0F5807F0FD197
:1049B000FEF7BEFF074641F2893500BFD9F8440033
:1049C000800705D4FEF7B4FFC01BA842F6D3032628
:1049D00086B1B0462078C00741D0A06F4FEAF00002
:1049E000052823D8DFE800F003262B03030376B362
:1049F000B04634E04FF6CF73D4F8B00059F81C2C11
:104A0000C0F2FF0300F4407122F47C5203EA101359
:104A1000B1F5407F08BF1A436FF31F3049F81C2CD3
:104A2000D9F844100843C9F84400D3E70126002E02
:104A3000DED10CE0201D012103F05EF904E004F159
:104A40002400012103F0E8F90646002ED0D1D9F860
:104A50002800A16F20F038000843C9F8280020780A
:104A6000800723D5606F052807D8DFE800F0030A28
:104A70000F03030396B1B04618E00126002EFAD1C9
:104A80000CE0201D012103F037F904E004F12400BB
:104A9000012103F0C1F90646002EECD1D9F8280017
:104AA000616F20F007000843C9F82800207840070C
:104AB00025D5D4F89000052807D8DFE800F0030AD0
:104AC0000F03030396B1B04619E00126002EFAD178
:104AD0000CE0201D012103F00FF904E004F1240093
:104AE000012103F099F90646002EECD1D9F82C00EB
:104AF000D4F8901020F007000843C9F82C00207863
:104B0000800627D5D4F88C004FEA3070052807D8E6
:104B1000DFE800F0030A0F03030396B1B04619E083
:104B20000126002EFAD10CE0201D002103F0E4F84C
:104B300004E004F12400022103F06EF90646002E81
:104B4000ECD1D9F82800D4F88C1020F0E0400843CC
:104B5000C9F828002078400627D5D4F898004FEAF5
:104B6000B020052807D8DFE800F0030A0F0303038D
:104B700096B1B04619E00126002EFAD10CE0201DB6
:104B8000002103F0B9F804E004F12400022103F04D
:104B900043F90646002EECD1D9F82C00D4F8981031
:104BA00020F4E0500843C9F82C002078000627D5EF
:104BB000D4F89C004FEA7030052807D8DFE800F0F1
:104BC000030A0F03030396B1B04619E00126002E35
:104BD000FAD10CE0201D002103F08EF804E004F16E
:104BE0002400022103F018F90646002EECD1D9F872
:104BF0002C00D4F89C1020F460400843C9F82C0025
:104C00002078000716D5D4F88000B0F5805F08D171
:104C100004F12400022103F0FFF8002818BF4FF030
:104C20000108D9F82800D4F8801020F44050084337
:104C3000C9F828002078C00616D5D4F89400B0F53D
:104C4000807F08D104F12400022103F0E5F8002858
:104C500018BF4FF00108D9F82C00D4F8941020F4B4
:104C600040700843C9F82C00A078000721D5D4F87B
:104C7000A000B0F5003F19D0B0F5803F10D0C0BB08
:104C8000201D002103F038F806468EB9D9F82C0013
:104C9000D4F8A01020F440300843C9F82C0008E0F4
:104CA00004F12400022103F0B7F80646002EEDD0EF
:104CB000B046A078400729D5D4F88400B0F5401F4D
:104CC00021D0B0F5001F18D0B0F5801F40F0C18092
:104CD000D9F8000040F40030C9F80000AEB9D9F8A6
:104CE0002800D4F8841020F440100843C9F82800A4
:104CF0000CE00126002EDBD1C8E704F124000121DD
:104D000003F08AF80646002EE9D0B046A078C00726
:104D10001FD0E06CB0F5803F10D0B0B9D9F80000DA
:104D200040F40030C9F8000096B9D9F82000E16CD1
:104D300020F480300843C9F820000AE0201D022139
:104D400002F0DAFF06461EB9EFE70126002EECD08E
:104D5000B046E078800608D504F12400022103F073
:104D60005BF8002818BF4FF00108206881031ED4AB
:104D7000C10234D4C1003CD4810245D441004DD499
:104D8000B0F1FF3F5ADD000208D5D9F82800D4F869
:104D9000881020F440000843C9F82800B8F1000F3B
:104DA00018BF4FF00108404601B0BDE8F083E16F45
:104DB0006FF0010202EB3122022A0AD34FEA3122BC
:104DC0003AB1012A4AD1D9F8002042F40032C9F898
:104DD0000020002E45D04FF00108C102CAD5D9F8F5
:104DE0002410226F21F000411143C9F82410C100A2
:104DF000C2D559F81C1CD4F8B42021F480411143C9
:104E000049F81C1C8102B9D5D9F82410A26E21F0F2
:104E100080711143C9F824104100B1D559F81C1C08
:104E200021F4004149F81C1CD4F8B81059F81C2C86
:104E3000114349F81C1CB0F1FF3FA4DCD9F8201045
:104E4000226D21F040511143C9F820100002A5D570
:104E50009BE70126002E7FF458AF40E70126002E85
:104E6000B9D1D9F8282022F440721143C9F828108A
:104E7000C1027FF57FAFB2E72DE9F04381B0002892
:104E800000F0F48042F200080446C5F2002889468A
:104E9000D8F8000000F00F0088420ED2D8F80000C9
:104EA00020F00F0040EA0900C8F80000D8F8000020
:104EB00000F00F00484540F0D980206844F21847C0
:104EC0004107C5F602070AD521693A6802F0700267
:104ED000914204D93A6822F0700211433960010707
:104EE0000AD561697A6802F07002914204D97A6841
:104EF00022F0700211437960C1060AD5A1697A686F
:104F000002F4E062914204D97A6822F4E06211432B
:104F1000796081060AD5E169BA6802F070029142AF
:104F200004D9BA6822F070021143B96081070AD52A
:104F3000E1683A6802F00F02914204D93A6822F01F
:104F40000F0211433960C0077ED1206881070AD55E
:104F5000E1683A6802F00F02914204D23A6822F006
:104F60000F0211433960D8F8001001F00F014945D4
:104F70000DD9D8F8001021F00F0141EA0901C8F855
:104F80000010D8F8001001F00F0149456ED141071B
:104F90000AD521693A6802F07002914204D23A6857
:104FA00022F070021143396001070AD561697A68FD
:104FB00002F07002914204D27A6822F0700211432A
:104FC0007960C1060AD5A1697A6802F4E06291426B
:104FD00004D27A6822F4E0621143796080060AD52F
:104FE000E069B96801F07001884204D2B96821F023
:104FF00070010843B86000F0BBF839684AF2D23259
:10500000C0F600023B68C1F3032103F00F03515CBB
:10501000D25C01F01F01C84002F01F0140F20402FF
:1050200020FA01F1C2F20042116040F2000140F2A8
:105030004C02C2F20041C2F2004208601068FEF762
:105040009FFE01B0BDE8F083386820F47061D4E9B8
:105050000102012841EA020139600BD003282BD05C
:1050600002282ED157F8181C890307D4012001B05B
:10507000BDE8F08357F8181CC905F7D557F8081C88
:1050800021F00701084347F8080CFEF751FC0646DB
:1050900041F2883557F8080C616800F03800B0EB31
:1050A000C10F3FF452AFFEF743FC801BA842F1D979
:1050B000032001B0BDE8F08357F8181C8901D5D54D
:1050C000DCE757F8181C4907D0D5D7E700000000E7
:1050D00080B500F04DF844F218414AF2D233C5F6DB
:1050E0000201C0F600030A68096801F00F01C2F36B
:1050F0000322595C9A5C02F01F0220FA02F201F0CE
:105100001F0040F2040122FA00F0C2F200410860E0
:1051100040F20001C2F200410A6080BD00000000C0
:1051200080B5FFF7D5FF44F21C414AF2D232C5F6F2
:105130000201C0F600020968C1F30211515C01F0DE
:105140001F01C84080BD000080B5FFF7C1FF44F2D9
:105150001C414AF2D232C5F60201C0F600020968CB
:10516000C1F30221515C01F01F01C84080BD000065
:1051700044F20041C5F602010869C0F3C2000328E9
:105180000FD002282AD070BB0868800649F20000C0
:10519000C0F2D03058BF70470968C1F3C101C840A0
:1051A00070478A6A886AC0F3051CC86ABCF1000FA0
:1051B0004B6B1DD0C3F3CC0300F00100584302F049
:1051C0000302022A00EE100AB8EE400A12D0A2B979
:1051D0000868800614D49FED261A1EE045F60020CC
:1051E000C0F26220704740F60010C0F23D007047E8
:1051F000002070479FED1D1A0FE09FED1B1A0CE079
:10520000086849F20002C0F2D032C0F3C10022FAAD
:1052100000F001EE100AB8EE411A086B9FED153A46
:105220006FF35F2002EE100A086BC0F34620B8EE61
:10523000422A013000EE032A00EE10CAB7EE003A0F
:10524000B8EE400A81EE000A32EE031A20EE010A9F
:1052500001EE100AB8EE411A80EE010ABCEEC00A57
:1052600010EE100A704700BF0024744A8096184C54
:105270000024744C000000392DE9F04381B0F8B1EE
:105280008046007844F20049C007C5F602095AD0AA
:10529000D9F8100000F03801D9F82800102905D0FD
:1052A00018290FD100F0030002280BD1D9F8000013
:1052B000800344D5D8F80400002840D101272FE00E
:1052C000012735E2D8F804402CB1B4F5A02F0DD059
:1052D000B4F5803F10D0D9F8000020F48030C9F830
:1052E0000000D9F8000020F4802009E0D9F800007F
:1052F00040F48020C9F80000D9F8000040F4803064
:10530000C9F80000FEF714FB0546A4B1D9F8000067
:10531000800314D4FEF70CFB401B6428F6D9032746
:105320000020002800F004820DE000BFFEF700FB23
:10533000401B6428F3D8D9F800008003F6D401207C
:10534000002800F0F58198F80000800740F1848083
:10535000D9F8100010F03801D9F828001CD018290D
:1053600008BF5FEA807017D0D8F80C00D9F8001099
:10537000002847D021F019010843C9F80000FEF7C2
:10538000D7FA0546D9F8000040072AD4FEF7D0FA2C
:10539000401B0228F6D91EE0D9F80000400704D5CA
:1053A000D8F80C00002800F09181D9F80000D8F856
:1053B0000C1020F019000843C9F80000FEF7B8FAF5
:1053C000054600BFD9F8000040070AD4FEF7B0FA3E
:1053D000401B0228F6D903270024002C00F0A881E6
:1053E0003AE0FEF79DFA41F20301884223D8D8F84B
:1053F0001000D9F80410402821F47C3124D141F464
:10540000003023E021F00100C9F80000FEF790FA17
:1054100005460126D9F8000010F0040086EA900441
:1054200017D0FEF785FA401B0328F3D30327002C7F
:1054300000F07E8110E0D9F80400D8F8101020F0B8
:10544000FE4040EA016001E041EA0030C9F8040092
:105450000124002C00F06C8198F80000C00674D57F
:10546000D9F8100000F03801D9F82800082905D033
:1054700018291CD100F00300012818D1D9F8000028
:10548000C00503D5D8F81C00802859D1FEF748FA8A
:1054900041F20301884222D8D8F82000D9F804103C
:1054A000202821F0F84142D141F0804041E0D8F875
:1054B0001C000028D9F8000020D040F08000C9F876
:1054C0000000FEF735FA0546D9F80000C005DDD426
:1054D000FEF72EFA401B0228F6D9032731E0D9F84F
:1054E0000C00D8F8201020F07C50012440EA016024
:1054F000C9F80C00002C00F01B8126E020F0800091
:10550000C9F80000FEF714FA05460126D9F8000094
:1055100010F4807086EA10240ED0FEF709FA401BC2
:105520000328F3D30327002C00F002810DE041EAA9
:105530008060C9F804000124002C00F0F98004E028
:1055400001270024002C00F0F38098F800000007E9
:105550001CD498F80000800631D498F80000400769
:1055600045D4D8F82440002C00F0E180D9F8100090
:1055700000F03800182840F08880012CD9F8281055
:10558000D9F8300040F0A4800127D1E0D8F8140009
:105590000028D9F874003ED040F00100C9F874002A
:1055A000FEF7C6F9054600BFD9F874008007D0D4CD
:1055B000FEF7BEF9401B0228F6D90327B8E0D8F859
:1055C00018000028D9F800004BD040F48050C9F8EA
:1055D0000000FEF7ADF90546D9F800008004BCD400
:1055E000FEF7A6F9401B0228F6D90327A0E0D9F858
:1055F000000440F48070C9F80004FEF799F90546EC
:10560000D9F80004C0051AD4FEF792F9401B6428AB
:10561000F6D903278CE020F00100C9F87400FEF7EA
:1056200087F90546032700BFD9F8740080077FF586
:1056300090AFFEF77DF9401B0228F5D978E0D8F845
:1056400008401CB1052C77D0012C7BD0D9F8700014
:1056500020F00100C9F87000D9F8700020F00400B3
:1056600074E020F48050C9F80000FEF761F90546A7
:10567000032700BFD9F8000080047FF56EAFFEF766
:1056800057F9401B0228F5D952E0D9F8000020F064
:105690008070C9F80000FEF74BF9022C05464FF068
:1056A000030709D1D9F80000800171D5FEF740F950
:1056B000401B0228F6D93BE0D9F80000800136D51E
:1056C000FEF736F9401B0228F6D931E0012783E6C0
:1056D00001F00302D8F828309A4240F0D380C1F399
:1056E0000511D8F82C20914240F0CE800146D8F820
:1056F00030206FF35F21013A914240F0C780C0F340
:105700004622D8F8341001398A4240F0C180C0F3F3
:105710000642D8F8381001398A4240F0BB80C0F305
:105720000660D8F83C100139884240F0B580002767
:10573000F8B201B0BDE8F083D9F8700040F0040081
:10574000C9F87000D9F8700040F00100C9F8700085
:10575000FEF7EEF8002C054641F288344FF00307BF
:1057600011D000BFD9F8700080073FF5FAAEFEF700
:10577000DFF8401BA042F5D9DAE700BFFEF7D8F802
:10578000401BA042D4D8D9F870008007F6D4E8E6D0
:1057900008F12807D9F8280040F2F33188438ECF6A
:1057A0000843591E40EA02104FF47E426FF35F2116
:1057B000C9F8280002EB47204FF4FE0280B2D8F867
:1057C0003C300844D8F8381002EB01414FF0FE425B
:1057D00001F4FE0102EB0362084402F0FE410844BA
:1057E000C9F83000D9F82C004FF6F87120F001000C
:1057F000C9F82C00D9F83400D8F84820884340EA8A
:10580000C200C9F83400D9F82C00D8F8401020F0B4
:105810000C000843C9F82C00D9F82C00D8F8441023
:1058200020F002000843C9F82C00D9F82C0040F4FD
:105830008030C9F82C00D9F82C0040F40030C9F8A9
:105840002C00D9F82C0040F48020C9F82C00D9F89D
:105850002C0040F00100C9F82C00D9F8000040F0FD
:105860008070C9F80000FEF763F804460327D9F8F2
:10587000000080013FF55BAFFEF75AF8001B0228DD
:10588000F5D955E7012753E7012751E701274FE7EE
:1058900001274DE701274BE7012749E700000000FA
:1058A0002DE9F041002800F0A580044643F60006EB
:1058B000C4F2000643F20007256843F60048B542EB
:1058C000C4F20107C4F200084FF00000A06204D047
:1058D000454518BFBD4240F08980204602F0C8FB14
:1058E000B54218BFBD4274D1102800F2838094F8ED
:1058F000810028B9002084F88000204600F080F85C
:10590000022084F881002068A1690268B1F1806FEB
:1059100022F001020260826802F4F8120FD163687B
:105920002BB1B3F5800F0AD1A76B27B13BB9A36B9D
:10593000B3F1805F03D1036843F480530360E369EC
:10594000A76A1A43E36B3A431343D4E90365D4E9E6
:10595000012733438360636B666A41EA0301A36BEB
:1059600041EA060141EA0301636941EA0501266A49
:1059700041EA0301E36C41EA0601A66C41EA020137
:1059800041EA0301A36D41EA070141EA060141EA48
:105990000301C1604AB98168012363F3CC218160AE
:1059A0008168022363F34A218160016D520221F074
:1059B0000101016505D5C168626D21F00041114307
:1059C000C1600020C4F88400012184F88110BDE882
:1059D000F081454518BF08280CD8B54218BFBD4214
:1059E0003FF482AF45453FF47FAF80E7E0680F2882
:1059F0007FF673AF0120BDE8F081000000000000D9
:105A0000B0B5B6B0044602A8BC210025CDE9345596
:105A1000CDE932553195FAF727FD45F200012068AE
:105A2000C4F20101884235D043F20041C4F20101C1
:105A3000884259D043F60001C4F20001884240F088
:105A400087804FF4805002900020199002A8FEF742
:105A500063FD08B1FBF7B4FA44F2E040C5F602007A
:105A6000816841F480418160816801F48041019145
:105A70000199016841F002010160006800F0020034
:105A8000019001984FF46040319040F20040C5F61B
:105A9000020053E04FF40050029002A81A95FEF75E
:105AA0003BFD08B1FBF78CFA44F2E040C5F602007A
:105AB000016941F480110161016901F480110191D2
:105AC0000199016841F020010160006840F2004145
:105AD00000F020000190C5F6020101984FF46070BB
