:020000040800F2
:1000000018880020C5010008D1260008511B0008EF
:10001000CD260008ED0C0008CF3C000800000000D1
:10002000000000000000000000000000B32D0008E8
:10003000B91700080000000089270008FD2F0008FC
:10004000DF010008DF010008DF010008DF01000810
:10005000DF010008DF010008DF010008DF01000800
:10006000DF010008DF010008DF010008DF010008F0
:10007000E90F0008DF0100081D100008DF0100087B
:100080006D110008C1110008DF010008DF01000840
:10009000DF010008DF010008DF010008DF010008C0
:1000A000DF010008DF010008DF010008DF010008B0
:1000B0006D310008DF010008DF010008DF010008E2
:1000C000DF010008DF010008DF010008DF01000890
:1000D000DF010008DD360008813900083D3A0008DC
:1000E000DF010008DF010008DF010008DF01000870
:1000F000DF010008DF010008DF010008DF01000860
:10010000DF010008DF010008DF010008DF0100084F
:10011000DF010008DF010008DF010008DF0100083F
:10012000DF010008DF010008DF010008DF0100082F
:10013000DF010008DF010008DF010008DF0100081F
:10014000DF010008DF010008DF010008DF0100080F
:1001500039120008DF0100086D120008DF010008F5
:10016000DF010008DF010008DF010008DF010008EF
:10017000DF010008DF010008DF010008DF010008DF
:10018000DF010008DF010008DF010008DF010008CF
:10019000DF010008DF010008DF010008DF010008BF
:1001A000DF010008DF010008DF010008DFF810D0E0
:1001B00000F056FB00480047B3570008AFF300803B
:1001C000188800200648804706480047FEE7FEE7FB
:1001D000FEE7FEE7FEE7FEE7FEE7FEE7FEE7FEE7F7
:1001E00001300008AD01000840EA01039B0703D07D
:1001F00009E008C9121F08C0042AFAD203E011F866
:10020000013B00F8013B521EF9D27047D2B201E027
:1002100000F8012B491EFBD270470022F6E710B50B
:1002200013460A4604461946FFF7F0FF204610BD64
:1002300030B504460020034600E05B1C934203D225
:10024000E05CCD5C401BF8D030BD2DE9FE4F804610
:1002500081EA0300C00F0C46009021F0004123F01A
:100260000045B8EB0200A94105D240462146904620
:100270001C460B46024623F00040104347D0270D92
:10028000C7F30A00C3F30A510290401A01904028B4
:100290006BDAC3F3130040F4801B0098924620B140
:1002A0000023D2EB030A63EB0B0B01985946C0F114
:1002B0004002504600F0BDF906460D4650465946EC
:1002C000019A00F0D5F910EB08006141002487EA9B
:1002D000115284EAE7731A4340D0009A62B3019A3C
:1002E000012A4FEA075215DC001B61EB02014FF0B7
:1002F000004202EA0752CDE90042001C41F580119C
:1003000032462B4600F00CFA03B0BDE8F08F4046B1
:100310002146F9E7001B61EB0201001C41F5801347
:1003200000185B412018A2F5001747EB030140EAD3
:10033000D570B6196D4111E06D084FEA360645EAF1
:10034000C0754FEA0752001B61EB0201001C41F52A
:10035000801149084FEA30000019514132462B46BE
:1003600003B0BDE8F04F00F0CCB900980122400086
:100370000023D0EB020263EBE073009821464FEAC2
:10038000E074B8EB000061EB0401E9E783F000439F
:100390005BE781F0004158E72DE9FE4F81EA030455
:1003A00004F0004421F0004100944FF0000B23F0D2
:1003B000004350EA01045ED052EA03045BD0C3F369
:1003C0000A54C1F30A552C44A4F2F3340194A0FB5F
:1003D0000254C1F3130141F48011C3F3130343F436
:1003E000801301FB024400FB034E840A970A44EA8F
:1003F000815447EA8357A4FB076802958D0A05FBE1
:1004000007854FEA932C04FB0C542705029D4FEA05
:10041000065847EA1637B5EB08056EEB070C870E52
:10042000920E47EA811742EA8312A7FB0201B6EB5C
:100430000B0164EB00042B0D43EA0C335E1844EB14
:100440001C50DA465146E7FB0201C5F313044FEA9C
:100450000B3343EA14534FEA0432019C43EA060388
:10046000A4F10C040294009CCDE900B400F058F90A
:1004700003B0BDE8F08F00200146F9E72DE9F04D0B
:1004800081EA030404F0004B21F0004514464FF0CC
:10049000000A23F0004150EA050220D054EA01028C
:1004A0001DD0C5F30A570246C5F31303C1F3130069
:1004B000C1F30A5640F4801543F48013A7EB0608F5
:1004C000101BD64608F2FD3873EB050002D308F185
:1004D000010801E092185B41B8F1000F03DA002037
:1004E0000146BDE8F08D00204FF480110646844699
:1004F0000EE0171B73EB050705D3121B63EB050317
:1005000006434CEA010C49084FEA300092185B415F
:1005100050EA0107EDD152EA030012D082EA04004A
:1005200083EA0501084305D0101BAB4106D2012226
:10053000002306E000224FF0004302E06FF00102CA
:1005400053101AEB06004CEB085110EB0A0041EB7C
:100550000B01BDE8F04D00F0D4B80EB5C10F80EA34
:10056000E0700844CA07002140F233438DE80E00D2
:100570000A460B4600F0D4F803B000BD0EB540F2B9
:10058000334102910021CDE900110A460B4600F0EB
:10059000C7F803B000BD70B5C1F30A5201F00045C1
:1005A0000024C1F3130140F2FF3341F480119A4259
:1005B00001DA002070BD40F233439A42A2F2334286
:1005C00003DC524200F044F800E090402C43F1D0AC
:1005D000404270BD00F0004230F000400AD0C10D32
:1005E00001F56071C0F3160042EA0151C2084007EC
:1005F0001143704700200146704701F0004330B4BA
:1006000021F0004150EA010206D00A0DA2F5607205
:10061000C1F31301002A02DC30BC00207047440FF4
:1006200044EAC104C100E01830BC00EBC25000F045
:1006300031B8202A04DB203A00FA02F1002070478A
:100640009140C2F1200320FA03F319439040704710
:10065000202A04DB203A21FA02F00021704721FA17
:1006600002F3D040C2F1200291400843194670477E
:10067000202A06DBCB17203A41FA02F043EAE07366
:1006800006E041FA02F3D040C2F120029140084353
:10069000194670470029A8BF7047401C490008BF91
:1006A00020F00100704710B4B0FA80FC00FA0CF0A2
:1006B00050EA010404BF10BC704749B1CCF12004DA
:1006C00021FA04F411FA0CF118BF01212143084367
:1006D000A3EB0C01CB1D4FEA00614FEA102042BF93
:1006E000002010BC704700EBC35010440029A4BF89
:1006F00010BC7047401C490008BF20F0010010BC2E
:10070000704710B5141E73F1000408DA401C41F163
:10071000000192185B411A4301D120F0010010BD85
:100720002DE9F04D92469B4611B1B1FA81F202E0FB
:10073000B0FA80F220329046FFF77BFF04460F4666
:1007400040EA0A0041EA0B0153465A46084313D0D7
:10075000114653EA010019D0C8F140025046FFF794
:1007600077FF05460E46504659464246FFF761FF61
:10077000084305D0012004E020463946BDE8F08D4D
:100780000020054346EAE0762C4337430A98630588
:10079000E40AA0EB08000022FD0A44EA47540A30AC
:1007A00002D500200146E9E7010510196941DDE99C
:1007B000084500196941BDE8F04DA2E72DE9F04D6B
:1007C00000231A461B1A8A4103DB00200146BDE8BC
:1007D000F08DC1F30A52C1F3130141F480154FF0BB
:1007E000000BD10702D100186D41521E00270446AC
:1007F00040F2FF11384601EB620A3E46804602464F
:1008000000204FF48011FFF723FFC2197141BB187C
:1008100046EB0100B4EB030C75EB000C04D3E41AB7
:1008200065EB000517460E46241908F101006D41DD
:1008300080463428E3DDF91946EB0600091BA84180
:1008400003D24FF0FF32134601E0002213461BEBA8
:10085000070046EB0A51BDE8F04DFFF752BF00001C
:10086000064C074D06E0E06840F0010394E80700FD
:1008700098471034AC42F6D3FFF79CFC6483000821
:100880008483000870B58D1810F8014B14F0030232
:1008900001D110F8012B231106D110F8013B03E020
:1008A00010F8016B01F8016B521EF9D1ABB110F8D1
:1008B000012B04F00C048A1A0C2C03D0A2EB841236
:1008C0009B1C08E010F8014BA2EB0422F8E712F899
:1008D000014B01F8014B5B1EF9D5A942D4D300208E
:1008E00070BD21B1826842F00102826003E082683B
:1008F00022F00102826070470021084A1168084A0C
:100900001140D0E900231A4383681A43C3681A438D
:100910001143044AC2F80413704700000423014045
:10092000E030FCFF0020014010B500F019F800F0A5
:1009300061F810BD21B1826842F48072826003E0E8
:10094000826822F480728260704721B1826842F42A
:100950000072826003E0826822F400728260704755
:100960001CB50121042001F0F9FF0121022001F052
:10097000F5FF03208DF8040000208DF807003620D5
:1009800000906946044800F0ABFF012000906946E2
:10099000024800F0A5FF1CBD000802400004024010
:1009A00030B50246002000235068104C20400D79DD
:1009B0000C6844EA05242043506090680C4C2040A9
:1009C000D1E903542C438D682C434D7944EA450406
:1009D00020439060D06A20F470000C7D641EE4B265
:1009E000234340EA0350D06230BD0000FFFEFFFC0D
:1009F000FDF7FFC000B599B00121880501F0AEFFF9
:100A00000121080201F0CAFF3B480B903B480C90C3
:100A100000200D9005200E9000200F904FF4806074
:100A200010904000119080001290401113904002ED
:100A30001490002015900120169000201790189017
:100A40000A900AA92E4800F061FD01212C4800F00F
:100A500055FC002000900190029003906846FFF73B
:100A60004BFF0020049001208DF814008DF8150034
:100A7000002006900790089005208DF8240004A916
:100A80001D484C38FFF78CFF032301220E211A4822
:100A90004C3800F037F803230222082116484C385E
:100AA00000F030F803231A460F2113484C3800F0A9
:100AB00029F8032304220B210F484C3800F022F8B8
:100AC000032305220C210C484C3800F01BF80121AF
:100AD00009484C38FFF739FF012107484C38FFF728
:100AE00029FF012104484C38FFF7FBFE02484C382F
:100AF00000F064F819B000BD4C2001406A3D0020B0
:100B000010640240F0B504460D4600200021092D76
:100B100011DDE068A5F10A0606EB4607072606FA8E
:100B200007F18843A5F10A0606EB460603FA06F12B
:100B30000843E0600CE0206905EB4507072606FA4C
:100B400007F1884305EB450603FA06F108432061E7
:100B5000072A0FDA606B561E06EB86071F2606FA79
:100B600007F18843561E06EB860605FA06F1084390
:100B7000606322E00D2A0FDA206BD61F06EB860792
:100B80001F2606FA07F18843D61F06EB860605FAEC
:100B900006F10843206310E0E06AA2F10D0606EBBF
:100BA00086071F2606FA07F18843A2F10D0606EB19
:100BB000860605FA06F10843E062F0BD816841F05F
:100BC00080418160704700001CB50121042001F0C4
:100BD000C5FE0121082001F0C1FE4FF4E050009055
:100BE00001208DF8040000208DF8060001208DF80A
:100BF00007008DF805006946134800F071FE0120DA
:100C000000908DF8040000208DF8060001208DF87A
:100C100007008DF8050069460C4800F061FE0C489D
:100C200001880A4800F0DBFE0A480188064800F007
:100C3000D4FE09480188044800F0CFFE0748018827
:100C4000014800F0CAFE1CBD00080240000C024032
:100C50004A2000204E2000204C2000204820002068
:100C60000246002000BF03E00B5C1354431CD8B2C3
:100C70000528F9DB7047000010B501F0F5FC00F025
:100C80000BF900F0C9FC02F08DFD01F085F904F0CC
:100C9000B7FDFFF749FE00F031F901F079FF07F0E9
:100CA0001BF81049104806F0CDFD07F03BF80D4940
:100CB0000D4806F00BFE03F087FD4FF4FA7100209B
:100CC00000F082F94FF4FA71002000F06DF9FFF79F
:100CD0007BFF00F086FE02F007FB00F093FE01F0C0
:100CE000E1FE10BDCC200020C420002000BFFEE7A4
:100CF00024480079401D23490871084600793C28A2
:100D00003FDB084600793C2190FBF1F201FB120029
:100D10001C4908710846C078401CC8700846C07855
:100D200018282EDB0846C078182190FBF1F201FB51
:100D300012001449C87008468078401C8870084624
:100D400080781E281DDB084680781E2190FBF1F27A
:100D500001FB12000B49887008464078401C48701F
:100D6000084640780C280CDB084640780C2190FBA4
:100D7000F1F201FB12000349487008460078401C5C
:100D8000087070475C20002040F2DC51C1800021D7
:100D90000180418001717047014608884A8890426D
:100DA00003D1087908B9012070470020FCE701460B
:100DB00008884A88904203D10879012800D17047F9
:100DC0000020FCE710B503460C461846FFF7E4FF89
:100DD00010B14FF0FF3010BD198803F1080030F852
:100DE000110020801888401CD98890FBF1F201FB8B
:100DF0001200188058881988884201D10020187183
:100E0000198803F1080030F8110060801888401C30
:100E1000D98890FBF1F201FB1200188058881988DC
:100E2000884201D100201871187940B2D3E710B57B
:100E300003460C461846FFF7BAFF10B14FF0FF30DB
:100E400010BD21885A8803F1080020F81210588834
:100E5000401CD98890FBF1F201FB120058805888A1
:100E60001988884201D10120187161885A8803F1DC
:100E7000080020F812105888401CD98890FBF1F225
:100E800001FB1200588058881988884201D101203E
:100E90001871187940B2D3E71CB50121084601F05A
:100EA0005DFD01208DF8040000208DF80600012072
:100EB0008DF8070000208DF805000220009069469B
:100EC000034800F00DFD0221014800F086FD1CBD25
:100ED0000000024039B1084A1268012383401A43D6
:100EE000054B1A6006E0044A1268012383409A43C6
:100EF000014B1A60704700000074004000B587B0D5
:100F00000121084601F02AFD0121480701F036FDC4
:100F10001020059003208DF8180000208DF81B008C
:100F200005A9134800F0DCFC2020059005A9104815
:100F300000F0D6FC002001900290049001A900F07E
:100F400019F801210020FFF7C5FF01A9102000F0CA
:100F500011F801211020FFF7BDFF0021084600F025
:100F600033F80021084600F01FF807B000BD00006C
:100F70000000024030B5002200230A4C226840F6EF
:100F8000FE748440A243D1E900452C438D682C4374
:100F9000CD6844EA050303FA00F42243014C2260C1
:100FA00030BD00000074004008B500220092054AE0
:100FB000009200F10802009B1A440092009A11600E
:100FC00008BD00000074004008B500220092054AE8
:100FD000009200F11402009B1A440092009A1160E2
:100FE00008BD00000074004010B50949094800F030
:100FF0003DFA18B10649074800F066F90649054868
:1010000000F034FA18B10449024800F05DF910BD4F
:1010100000880010286002400022001010B54B49E3
:101020004B4800F023FAC0B14FF4FA6003F04EFED3
:1010300001221021464800F04BFA4449444800F090
:1010400043F90020434908700021414800F056F957
:101050004FF48041404800F0C0FC40493C4800F05B
:1010600005FAC0B14FF4FA6003F030FE01221021FE
:10107000374800F02DFA3949354800F025F90020AD
:10108000344908700021324800F038F94FF48041AB
:10109000314800F0A2FC32492D4800F0E7F9C0B118
:1010A0004FF4FA6003F012FE01221021284800F0EC
:1010B0000FFA2B49264800F007F90020254908704F
:1010C0000021234800F01AF94FF48041224800F033
:1010D00084FC24491E4800F0C9F9C0B14FF4FA60FD
:1010E00003F0F4FD01221021194800F0F1F91D4927
:1010F000174800F0E9F8002016490870002114484C
:1011000000F0FCF84FF48041134800F066FC1649EB
:101110000F4800F0ABF9C0B14FF4FA6003F0D6FD10
:10112000012210210A4800F0D3F90F49084800F0C5
:10113000CBF80020074908700021054800F0DEF8D0
:101140004FF48041044800F048FC10BD00800018B6
:101150005860024066200020001402400040001445
:1011600000200012001000110000409010B511493D
:10117000114800F07BF958B10E490F4800F0A4F86F
:1011800040200D49091D086001210B4800F0B6F808
:101190000A49094800F06AF958B10849064800F0C0
:1011A00093F840200449091D08600121024800F01D
:1011B000A5F810BD008800208860024000220020B1
:1011C00010B51949194800F051F998B11849174854
:1011D00000F07AF81449154800F076F80021134819
:1011E00000F08CF801221021104800F071F9002065
:1011F000104908700E490D4800F038F998B10C49B3
:101200000A4800F061F80849084800F05DF800213C
:10121000064800F073F801221021044800F058F944
:1012200000200449087010BD00802020A06002400A
:10123000004010206420002010B50949094800F042
:1012400015F918B10649074800F03EF80649054867
:1012500000F00CF918B10449024800F035F810BD4F
:1012600000880020886402400022002010B5114947
:10127000114800F0FBF890B14FF4FA6003F026FD3E
:101280000C490D4800F020F800210B4800F036F81A
:1012900000200A4908700121094800F09EFB094915
:1012A000054800F0E3F818B10649034800F00CF8CF
:1012B00010BD000000800028B864024065200020B6
:1012C00000180240004000240246094B9A4201D215
:1012D000084801E00648103801F000531BB1064BE6
:1012E0000B40C36002E0044B0B408360704700007A
:1012F00010640240006002407D0F7D0F21B1026842
:1013000042F00102026003E0026822F00102026082
:1013100070470000016821F00101016000210160B7
:1013200041608160C1600161212141614A49884277
:1013300004D13D21484A103A91608CE04649183169
:10134000884205D14FF47461434A103A916082E0BB
:1013500041493031884205D14FF474113E4A103A68
:10136000916078E03C494831884205D14FF0746182
:10137000394A103A91606EE037496031884204D1B1
:101380003649354A103AD16065E0334978318842B0
:1013900004D13349304A103AD1605CE02E49903193
:1013A000884204D12F492C4A103AD16053E02A498F
:1013B000A831884205D14FF03D51274A103AD160FB
:1013C00049E02949884204D13D21274A083A116061
:1013D00041E025491831884205D14FF47461224A11
:1013E000083A116037E020493031884205D14FF486
:1013F00074111D4A083A11602DE01B49483188429A
:1014000005D14FF07461184A083A116023E016497B
:101410006031884204D11149134A121F11601AE049
:1014200011497831884204D10D490F4A121F1160C9
:1014300011E00D499031884204D10A490A4A121F2D
:10144000116008E00849A831884204D14FF03D51AD
:10145000054A121F11607047106002403D000020D5
:10146000400F002000003D201064024070B502468D
:10147000002000240025124EB24201D2114B01E09F
:101480000F4B103B104E0E4036B11E2606EAD124FB
:10149000166806EA040502E0566906F0800501F0C8
:1014A00000560EB15C6800E01C68084E344004EA47
:1014B000010616B10DB1012000E0002070BD000052
:1014C00010640240006002403C0F3C0F7D0F7D0F16
:1014D00010B501F080034BB122B1436943F08003A2
:1014E000436103E0436923F08003436180290BD00B
:1014F0002AB1036801F01E042343036004E003687B
:1015000001F01E04A343036010BD000010B50022CB
:101510000268134B1A40CC680B6823434C69234381
:101520008C692343CC6923430C6A23434C6A2343CD
:101530008C6A23434C6B23438C6B23431A43026016
:10154000426922F00702D1E90B3423431A43426176
:101550000B6943604B6883608B68C36010BD0000FB
:101560003F801CF0416070471CB50121082001F04C
:1015700015FA0820009001208DF8040000208DF855
:10158000060001208DF8070000208DF8050069464F
:10159000034800F0A5F90821014800F020FA1CBD1D
:1015A000000C02402DE9F0412DED048B00F0C0F855
:1015B00000F060F8CC2000F0D1F8442000F0CEF824
:1015C00000F0B6F800F056F8CC2000F0C7F8BE20C6
:1015D00000F0C4F800F09AF8064600F097F80546C7
:1015E000280204B234432046FEF7B7FF41EC190B42
:1015F0009FED070B53EC102BFEF7CEFE41EC180BC2
:10160000FEF7C9FF07B23846BDEC048BBDE8F08198
:10161000FA7E6ABC7493E43F10B5FFF7A5FF00F0B3
:1016200087F800F027F810BD1CB5082000900020B6
:101630008DF8040001208DF807006946014800F08C
:101640004FF91CBD000C02401CB508200090012081
:101650008DF8040000208DF8060001208DF80700A9
:1016600000208DF805006946014800F039F91CBDDD
:10167000000C024010B50024FFF7D6FF04E0601C08
:10168000C4B2012003F022FB08210F4800F093F9B7
:1016900008B1642CF3DB642C01DB012010BD0024B5
:1016A00004E0601CC4B2012003F010FB08210648CE
:1016B00000F081F908B9F02CF3DBF02C01DB0120FC
:1016C000ECE70020EAE70000000C024010B5FFF74D
:1016D000BBFF08210C4800F080F90A2003F0F6FA5D
:1016E000FFF7A2FF022003F0F1FA0821064800F0FC
:1016F00062F9012801D1012400E000242D2003F02B
:10170000E5FA204610BD0000000C024070B500262E
:10171000002408E0FFF7DAFF054605FA04F030433D
:10172000C6B2601CC4B2082CF4DB304670BD0000A9
:1017300010B5FFF789FF0821074800F04EF940F285
:10174000EE2003F0C3FA0821034800F048F90F2007
:1017500003F0BCFA10BD0000000C024070B5044656
:10176000FFF772FF002522E004F00106641076B155
:101770000821104800F031F9082003F0A7FA0821E9
:101780000C4800F02CF93A2003F0A0FA0DE00821F3
:10179000084800F022F9462003F098FA082105488D
:1017A00000F01DF9022003F091FA681CC5B2082D63
:1017B000DADB70BD000C02407047000070B50446D3
:1017C0000A460026092502B909E0012A01D11602BC
:1017D00005E0022A01D1160201E04FF4407600F044
:1017E0006EF80546092D28D11548006820F4407090
:1017F00013490860084600683043086008460068DE
:1018000020F0F80008600846006844F00201084330
:101810000B4908600846006840F48030086000F01A
:101820004EF805460648006820F0020004490860AA
:101830000846006820F0F8000860284670BD0000E7
:10184000103C024009201349096801F48031B1F5C8
:10185000803F01D101201CE00E49096801F0100110
:1018600009B1062015E00B49096801F4807109B13E
:1018700002200EE00749096801F0E00109B10720E4
:1018800007E00449096801F0020109B1082000E0FD
:10189000092070470C3C024070B505460E460024F6
:1018A0002C4608E002212046FFF788FF092801D0D6
:1018B000012070BD0834B442F4D90020F9E708B51E
:1018C00009200090FFF7BEFF009002E0FFF7BAFF8B
:1018D00000909DF800000128F8D09DF8000008BD98
:1018E000F0B50A4600210023002400BF3DE0012599
:1018F00005FA01F3156805EA03049C4234D1056832
:101900004F000326BE40B543056015794E00B54033
:101910000668354305601579012D02D01579022D31
:1019200016D185684F000326BE40B54385605579C2
:101930004E00B540866835438560456801268E4077
:10194000B5434560456896798E40B6B235434560EB
:10195000C5684F000326BE40B543C560D5794E002B
:10196000B540C6683543C560491C1029BFD3F0BDDA
:10197000F0B5002300244D07ED0E02FA05F3CE105A
:1019800000F1200555F826504E07F70E0F26BE40F1
:10199000B543CF1000F1200646F82750CE1000F1D5
:1019A000200555F8265045EA0304CE1000F1200525
:1019B00045F82640F0BD0246002013690B400BB1EC
:1019C000012000E0002070470246002053690B40D0
:1019D0000BB1012000E00020704741837047018374
:1019E000704710B502F08AFF0A2003F06FF902F089
:1019F00085FF0A2003F06AF902F080FF0A2003F055
:101A000065F910BD30B587B0002400250020049092
:101A10000590069001900290039036490870487036
:101A20008870C870087100BF5DE004A9284601F005
:101A300041F89DF81000FF280FD09DF81100FF28F5
:101A40000BD09DF81200FF2807D09DF81300FF2847
:101A500003D09DF81400FF2800D147E000243DE0AA
:101A600004A8005D01A9095D884200DA38E004A8F5
:101A7000005D01A9095D88422EDD1F480088401CD9
:101A80001D49088004A901A8FFF7EAF89DF8100095
:101A9000184908709DF8110048709DF81200887070
:101AA0009DF81300C8709DF814000871084640782E
:101AB000097800EB01201149A1F820010D48C078F8
:101AC0000C49897800EB01200C49A1F82201094852
:101AD0000079A1F8240103E0601CC4B2052CBFDB2F
:101AE00000BF681C85B2B5F5FA6F9EDB00BF07B07A
:101AF00030BD00005C20002062200020AA210020D0
:101B000010B52DED028B9FED0F0AB0EE408A0E4806
:101B10000078401C0C490870FFF744FD00EE100AE5
:101B2000B8EEC00AB0EE408A074800780A2805DB04
:101B30000A2005490870054880ED008ABDEC028B3B
:101B400010BD00000000000050200020C800002050
:101B500000BFFEE721B1028842F48062028004E007
:101B600002884FF6FF331A400280704770B5024674
:101B70000024002500230020958A138B1B0445EACE
:101B8000030626F07F4404EA01068E4201D10120BB
:101B900000E0002070BD002221F07F42D343838209
:101BA000704721B1028842F00102028004E00288FD
:101BB0004FF6FE731A4002807047000070B505466C
:101BC0000E4614464FF420406549086009E0644918
:101BD0000868411E624A116018B9092000F0C3FB71
:101BE00070BD4FF400315F4800F0ECFA0028EED1F0
:101BF00001215C4800F0CEFA4FF48050584908604B
:101C000009E057490868411E554A116018B90A2071
:101C100000F0A9FBE4E754495248FFF7A7FF00286A
:101C2000EFD05248017800224E4800F092FB4FF46A
:101C300080504B49086009E049490868411E484AFC
:101C4000116018B90B2000F08EFBC9E748494548E0
:101C5000FFF78CFF0028EFD001214248FFF7A1FFDA
:101C60003146404800F07DFB4FF480503C4908600D
:101C700009E03B490868411E394A116018B90C2037
:101C800000F071FBACE73A49891C3648FFF76EFF5C
:101C90000028EED00121334800F07CFA4FF4805048
:101CA0002F49086009E02E490868411E2C4A11603E
:101CB00018B90D2000F057FB92E72B492948FFF790
:101CC00055FF0028EFD0294801780122254800F06F
:101CD00040FB4FF480502249086009E02049086821
:101CE000411E1F4A116018B90E2000F03CFB77E737
:101CF0001D49491C1B48FFF739FF0028EED026E09C
:101D0000012C07D100211748FFF724FF01211548B6
:101D100000F04CFA4FF420401149086009E01049E6
:101D20000868411E0E4A116018B9032000F01BFB21
:101D300056E70D493F310B48FFF718FF0028EED05A
:101D4000084800F002FB28706D1C601E84B2002C55
:101D5000D6D101210348FFF7FDFE012040E7000036
:101D600058200020005400400100030054200020AF
:101D7000820007002DE9F04707460D4614464FF054
:101D80000008C146C24600262846E91705EB5171F6
:101D9000C910A5EBC10101F0FF0ACAF10800C6B2E3
:101DA0002046E11704EB5171C1F3C708E11704EBBA
:101DB0005171C910A4EBC10101F0FF09BAF1000F84
:101DC00028D1B8F1000F07D14A462946384600F01D
:101DD000EFF800F087F960E00AE00822294638466B
:101DE00000F0E6F800F07EF905F10800C5B208370A
:101DF000B8F10000A8F1010101F0FF08EDD1B9F13F
:101E0000000F4AD04A462946384600F0D1F800F083
:101E100069F942E0B8F1000F07D14A462946384631
:101E200000F0C6F800F05EF937E0A01B84B220464F
:101E3000E11704EB5171C1F3C708E11704EB5171CD
:101E4000C910A4EBC10101F0FF094EB13246294689
:101E5000384600F0ADF800F045F9A819C5B237448E
:101E60000AE008222946384600F0A2F800F03AF9C4
:101E700005F10800C5B20837B8F10000A8F101016A
:101E800001F0FF08EDD1B9F1000F06D04A4629460E
:101E9000384600F08DF800F025F9BDE8F087000025
:101EA00070B504460D460121364800F073F94FF431
:101EB00080503549086009E033490868411E324ABC
:101EC000116018B9002000F04EFA70BD2F492D485E
:101ED000FFF74CFE0028EFD02D480178002229485A
:101EE00000F037FA4FF480502749086009E026498E
:101EF0000868411E244A116018B9012000F033FA25
:101F0000E3E724491F48FFF731FE0028EFD02946B8
:101F10001C4800F026FA4FF480501B49086009E085
:101F200019490868411E184A116018B9022000F0CA
:101F30001AFACAE71749891C1248FFF717FE00284A
:101F4000EED021780F4800F00CFA4FF480500E4983
:101F5000086009E00C490868411E0B4A116018B975
:101F6000032000F000FAB0E70A49891C0548FFF792
:101F7000FDFD0028EED00121024800F017F90120F4
:101F8000A3E7000000540040582000200100030097
:101F9000542000208200070010B500F0CDF800F0BA
:101FA000A3F9A0200149088010BD000054200020A2
:101FB00070B504460E4615464FF42040444908606B
:101FC00009E043490868411E414A116018B90420DC
:101FD00000F0C9F970BD4FF400313E4800F0F2F84E
:101FE0000028EED101213B4800F0D4F84FF4805096
:101FF0003749086009E036490868411E344A1160D3
:1020000018B9052000F0AFF9E4E733493148FFF78C
:10201000ADFD0028EFD03148017800222D4800F0B6
:1020200098F94FF480502A49086009E02849086867
:10203000411E274A116018B9062000F094F9C9E73B
:1020400027492448FFF792FD0028EFD03146214868
:1020500000F087F94FF480501D49086009E01C49E1
:102060000868411E1A4A116018B9072000F07BF970
:10207000B0E71B49891C1748FFF778FD0028EED010
:102080001AE02178134800F06CF9641C4FF480507A
:102090000F49086009E00E490868411E0C4A1160AA
:1020A00018B9082000F05FF994E70D49891C094828
:1020B000FFF75CFD0028EED0281EA5F10101CDB28E
:1020C000DFD10121034800F071F8012082E7000010
:1020D000582000200054004001000300542000203C
:1020E0008200070008B50020009000BF01210F48C2
:1020F00000F050F814210D4800F01CF900900C4835
:1021000001780022094800F024F91421074800F062
:1021100011F900F002000028E8D006490348FFF753
:102120003AFD0121014800F041F808BD005400408B
:1021300054200020000400101CB50121480500F0C7
:102140001DFC0121022000F009FC04220621104898
:10215000FFF70EFC042207210D48FFF709FC402081
:10216000009002208DF804008DF8050001208DF804
:10217000060000208DF8070069460548FFF7B0FB10
:102180008020009069460248FFF7AAFB1CBD0000B2
:102190000004024021B1028842F48072028004E00F
:1021A00002884FF6FF631A400280704721B102880F
:1021B00042F40072028004E002884FF6FF531A4096
:1021C000028070470CB50246002000230193009363
:1021D00000920B0F019321F07F41019B1BB1009BEB
:1021E0001433009303E0090C009B18330093009B09
:1021F0001B680B400BB1012000E000200CBD00006B
:102200002DE9FF4704460D460026B1460427DFF8B6
:10221000CC80A6884FF6C0700640684600F0CEFB22
:10222000DDF808802E48B8FBF0F01FFA80F946EA86
:102230000906A68020884FF6FE71084020800026FF
:102240002849286888420CD828684000B8FBF0F07C
:1022500087B2042F00DA04273E4309F101002084ED
:1022600027E0E8884BF6FF71884206D1286800EB2A
:102270004000B8FBF0F087B209E0286800EBC0012D
:1022800001EB0010B8FBF0F087B247F48047C7F3CA
:102290000B0008B947F0010747F4004006434FF42C
:1022A000967009FB00F04FF47A7190FBF1F0401C3E
:1022B0002084A683208840F00100208026884FF6E5
:1022C000F5300640A8886989084306432680A88916
:1022D000298908432081BDE8FF87000000127A00A9
:1022E00040420F00A08601001FB50020ADF8040099
:1022F0004BF6FF70ADF806000A20ADF808004FF469
:102300008060ADF80A000001ADF80C0007480090AD
:1023100069460748FFF774FF01210548FFF741FCB4
:1023200001210348FFF716FC1FBD0000801A0600BC
:102330000054004008B5024600200090009200982A
:10234000084400900098008808BD0146088AC0B281
:10235000704712B141F0010101E001F0FE0101827C
:1023600070470182704701460020704770B50446EF
:1023700000254FF400600C494883C4F3074000F087
:10238000DFFBC4F3072000F0DBFB04F0F80000F0F3
:10239000D7FB002000F0D4FB05464FF40060024953
:1023A0000883284670BD00000010024070B5044646
:1023B00000254FF480500C490880C4F3074000F01A
:1023C000A3FBC4F3072000F09FFB04F0F80000F02B
:1023D0009BFB002000F098FB05464FF4805002491B
:1023E000891E0880284670BD1A04024070B5044654
:1023F0000D464FF400600C494883C4F3074000F0D9
:102400009FFBC4F3072000F09BFB04F0F801091DBB
:10241000C8B200F095FB284600F092FB4FF4006034
:102420000149088370BD00000010024070B50446E9
:102430000D464FF480500C490880C4F3074000F06B
:1024400063FBC4F3072000F05FFB04F0F801091DF3
:10245000C8B200F059FB284600F056FB4FF48050FC
:102460000149891E088070BD1A04024070B50546F6
:102470000C4601E001F074FC314800780028F9D1E5
:10248000A520304908705A20487017208870822093
:10249000C870652D06D0662D0AD0672D0ED0682D28
:1024A00018D111E00120274908710020487112E07D
:1024B000012024490871102048710CE001202149B5
:1024C00008712020487106E001201E490871302063
:1024D000487100E000BF00BFE0782179084400EBBC
:1024E000800040F3D71017498871E07821790844BB
:1024F00000EB80004006000E1249C871E07D0872B2
:10250000207E4872E07A8872207BC872607B0873F4
:10251000A07B4873E07B8873207CC873607C087460
:10252000A07C487400208874C87408754875E079E8
:102530008875207AC875182001F068FA70BD00000F
:1025400064200020B43D002010B520210648FFF78C
:102550003BFA20B120210448FFF73FFA03E0202195
:102560000148FFF73CFA10BD0018024010B50446C0
:102570000C2C74D2DFE804F0060F18212A333C45F6
:102580004E57606904213748FFF727FA082135487C
:10259000FFF723FA64E004213248FFF720FA08210C
:1025A0003048FFF71AFA5BE004212E48FFF715FACE
:1025B00008212C48FFF713FA52E004212948FFF7BD
:1025C0000EFA08212748FFF70AFA49E010212548AA
:1025D000FFF703FA20212348FFF7FFF940E010211D
:1025E0002048FFF7FCF920211E48FFF7F6F937E0F5
:1025F00010211C48FFF7F1F920211A48FFF7EFF9E5
:102600002EE010211748FFF7EAF920211548FFF7BF
:10261000E6F925E040211348FFF7DFF98021114852
:10262000FFF7DBF91CE040210E48FFF7D8F98021C5
:102630000C48FFF7D2F913E040210A48FFF7CDF923
:1026400080210848FFF7CBF90AE040210548FFF751
:10265000C6F980210348FFF7C2F901E0FFE700BF98
:1026600000BF10BD001802401CB50121402000F041
:1026700075F901208DF8040000208DF80600012076
:102680008DF8070000208DF80500FC2000906946B9
:102690000D48FFF725F904210B48FFF79EF90821A3
:1026A0000948FFF79AF910210748FFF796F920210A
:1026B0000548FFF792F940210348FFF78EF9802182
:1026C0000148FFF78AF91CBD0018024000BFFEE771
:1026D0007047000070B5002100230F22C4781CB39E
:1026E000174C246804F4E064C4F5E064C4F30721E3
:1026F000C1F10404E3B20A4144789C40E1B2847819
:10270000144021430C07210E0E4C057861550478C6
:1027100004F01F050124AC4005786D11AD0005F1F2
:10272000E025C5F8004109E0047804F01F05012404
:10273000AC40054D0678761145F8264070BD000086
:102740000CED00E000E400E080E100E0024901431C
:10275000024A1160704700000000FA050CED00E02D
:10276000BFF34F8F0648006800F4E0600549084356
:10277000001D03490860BFF34F8F00BFFEE7000054
:102780000CED00E00000FA057047000010B5554858
:102790000078554909780840002878D053480078D7
:1027A000002874D052480088002870D05048008813
:1027B00000EE100AB8EE400A4E48D0ED000A30EEA6
:1027C000600A4D4880ED000A90ED000A4B48D0EDBC
:1027D000000A30EE600ADFED4A0A20EE200A464881
:1027E000D0ED000A9FED471A01EE200AD0ED000A55
:1027F000424890ED001AF0EE001A41EEC10A42483C
:1028000090ED001A70EE810A9FED401A01EE200A49
:102810003F48D0ED000A30EE200A80ED000A37482C
:1028200090ED000A384880ED000A334890ED000A28
:10283000324880ED000A364890ED000ADFED350A97
:10284000B4EEE00AF1EE10FA03DD9FED320A80EDFE
:10285000000A2F4890ED000AB5EEC00AF1EE10FA1A
:1028600003D29FED2D0A80ED000A294890ED000A61
:10287000BCEEC00A10EE100A81B20020FEF7A4FBE5
:1028800040F2DC510020FEF78FFB2AE0FFE79FEDCE
:10289000230A1F4880ED000A9FED1F0A164880EDAD
:1028A000000A9FED1D0A154880ED000A9FED1A0AE7
:1028B000154880ED000A164890ED000ABCEEC00AEB
:1028C00010EE100A81B20020FEF77EFB104890ED5A
:1028D000000ABCEEC00A10EE100A81B20020FEF71A
:1028E00063FB10BD7B0000207A000020A6000020C2
:1028F0007E000020B00000201400002018000020FE
:102900006F12033B4260E53C1C0000206F12833BCA
:102910001000002000007A4500000000000016446E
:1029200010B50B480078012807D102210948FFF7AC
:1029300056F80220FFF71AFE09E000200649088039
:1029400002210448FFF749F80020FFF70FFE10BDF1
:102950007B000020000002407E00002029B1064AD2
:1029600012680243044B1A6004E0034A126882436F
:10297000014B1A60704700003038024029B1064A06
:1029800012680243044B1A6004E0034A126882434F
:10299000014B1A60704700004038024029B1064AD6
:1029A00012680243044B1A6004E0034A126882432F
:1029B000014B1A607047000044380240F0B5002116
:1029C00000220024022500260223324F3F6807F030
:1029D0000C0121B1042905D0082937D105E02E4F7B
:1029E000076036E02D4F076033E02A4F3F1F3F68F6
:1029F000C7F38056274F3F1F3F6807F03F036EB174
:102A0000264FB7FBF3F7DFF88CC0ACF1040CDCF811
:102A100000C0CCF3881C07FB0CF40CE01E4FB7FB86
:102A2000F3F7DFF870C0ACF1040CDCF800C0CCF3B5
:102A3000881C07FB0CF4174F3F1F3F68C7F3014783
:102A40007F1C7D00B4FBF5F7076002E0124F0760C2
:102A500000BF00BF0F4F3F6807F0F0010909104F9A
:102A60007A5C0768D74047600A4F3F6807F4E05137
:102A7000890A0B4F7A5C4768D7408760054F3F68EB
:102A800007F46041490B064F7A5C4768D740C7603E
:102A9000F0BD0000083802400024F400005A620231
:102AA0000000002010B50248FEF76EF910BD0000CE
:102AB000AA31002070B504460D464FF4FA6094FB2D
:102AC000F0F100FB114006030A223146284604F0CB
:102AD00035FD70BD18B504460020009054B1ADF826
:102AE0000040064830F81400ADF80200694604487A
:102AF000FEF79DF900200349088018BDAA21002097
:102B0000AA3100203400002010B5044600BF022185
:102B10000A4800F01FF90028F9D02146074800F0C4
:102B200025F900BF0121054800F014F90028F9D06B
:102B3000024800F018F9C0B210BD00000038004093
:102B400010B5044600BF02210A4800F003F900282E
:102B5000F9D02146074800F009F900BF01210548D6
:102B600000F0F8F80028F9D0024800F0FCF8C0B2F4
:102B700010BD00000034014021B1028842F0400243
:102B8000028004E002884FF6BF731A40028070474B
:102B900000B587B001212020FFF7E0FE01210805E4
:102BA000FFF7FCFE052207212E48FEF7E1FE052275
:102BB00008212C48FEF7DCFE052209212948FEF7F2
:102BC000D7FE8020009002208DF805008DF80400CB
:102BD00000208DF806008DF8070069462148FEF7B1
:102BE0007FFE4FF48070009069461E48FEF778FE25
:102BF0004FF40070009069461A48FEF771FE4020BD
:102C0000009001208DF8040069461648FEF768FE22
:102C100040201449183108800020ADF808004FF416
:102C20008270ADF80A000020ADF80C000220ADF86B
:102C30000E000120ADF810004002ADF81200002097
:102C4000ADF81400ADF816000720ADF8180002A981
:102C5000054800F08DF801210348FFF78DFF07B00C
:102C600000BD0000001402400050014010B50446B1
:102C70004FF48050194908600AE018490868411E5D
:102C8000164A116020B9002000F090F8C0B210BDC3
:102C90000221134800F05EF80028EED021461048CB
:102CA00000F064F84FF480500C4908600AE00B49CA
:102CB0000868411E094A116020B9012000F076F829
:102CC000C0B2E4E70121064800F044F80028EED045
:102CD000034800F048F8C0B2D9E700008420002083
:102CE0000050014010B50024402011490880052003
:102CF000FFF7BCFF4FF480500E49086000BFFF2073
:102D0000FFF7B4FF04460B490868411E094A1160E9
:102D100018B9042000F04AF810BD04F001000028A2
:102D2000EDD140200249891E088000BFF4E7000071
:102D30001A1402408420002010B540200449088065
:102D40000620FFF793FF40200149891E088010BD2F
:102D50001A1402400246002013890B400BB10120D7
:102D600000E00020704701468889704781817047E4
:102D700010B50022028802F441520B884C8823438C
:102D80008C882343CC8823430C8923434C892343D9
:102D90008C892343CC8923431A430280838B4FF2CF
:102DA000FF74234083830B8A038210BD01460020F9
:102DB000704770471CB50020009001900024154812
:102DC00000788DF80000134840788DF80100114814
:102DD00080788DF802000F48C0788DF803000D4808
:102DE00000798DF804000C4800884FF4FA6190FBDC
:102DF000F1F201FB1200084908800846008804032C
:102E000008460088401C08800A222146684604F0D3
:102E1000EBFB1CBD5C2000206220002010B596B0AA
:102E20000024502102A8FDF7F8F9174800788DF822
:102E30000800154840788DF80900134880788DF80F
:102E40000A001148C0788DF80B00104800788DF802
:102E50000E0003208DF80F0000BF07E00C48015D55
:102E600002AA04F108001154601CC4B2322CF5DB34
:102E700008480088084B3C2202A90090002004F07A
:102E800068F916B010BD0000382100208D00002028
:102E900030830008C2200020BE20002038B5044640
:102EA000FF200A49087008464470012088700848CD
:102EB000C079C8700648007A087106480088064B39
:102EC00005220090002004F0BEF838BD0821002043
:102ED000743D0020AE200020AA2000200CB5002068
:102EE000019000904148006840F480303F490860FC
:102EF00000BF3E48006800F4003000900198401C7C
:102F00000190009818B90198B0F5A04FF1D1374859
:102F1000006800F4003010B10120009001E00020B2
:102F200000900098012860D130484030006840F09F
:102F300080502E49403108602D48006840F44040E0
:102F40002B49086029480830006828490831086082
:102F50000846006840F4004008600846006840F4F5
:102F6000A05008602348091F0860081F006840F04F
:102F70008070091F086000BF1C48006800F00070E6
:102F80000028F9D01A48006840F4803018490860D9
:102F900000BF1748406800F480300028F9D014487A
:102FA000006840F400301249086000BF10484068D3
:102FB00000F400300028F9D040F205700E49086096
:102FC0000A480830006820F003000849083108600A
:102FD0000846006840F00200086000BF034808305F
:102FE000006800F00C000828F8D10CBD0038024041
:102FF00000700040285A4007003C02407047000023
:1030000010B51548006840F4700013490860134873
:10301000006840F001001149086000200F490831A4
:1030200008600E4800680E4908400C4908600D48C9
:10303000091D0860081F006820F48020091F08602F
:10304000002006490C310860FFF748FF4FF0006090
:1030500001498039086010BD88ED00E00038024069
:10306000FFFFF6FE1030002438B500250024364856
:103070000078022821D100203349087001F0E2FDD8
:10308000012001F0DFFD3148C07831494871062246
:103090004FF4106004F0EEFE04222E494FF4A060BD
:1030A00004F0E8FE04222C49900104F0E3FE04221F
:1030B00026494FF4706004F0DDFE4FF44270FFF7D4
:1030C00075F9054635B1132D0CD0172D0ED01C2DDA
:1030D00037D132E02023214802880121002004F06A
:1030E00039FC2EE0002002F045FB2AE04FF402708C
:1030F000FFF75CF900F0010020B101214FF40270EC
:10310000FFF794F9002001F01DFE0446002C13DDAA
:10311000402C00DD402422461149002002F096FD9B
:103120001048114B22460E490090002002F06BFE21
:1031300002F0F0FEFFF708FA03E0002001F082FD44
:1031400000BF00BF38BD00008B000020B020002071
:1031500096200020B4200020B8200020BC200020B1
:1031600038210020C2200020BE20002010B50121FF
:10317000880700F037F8E8B1FDF7BAFDFFF71AFE4F
:103180000D4840780C49097800EB01200B49A1F863
:1031900020010948C0780849897800EB01200749D7
:1031A000A1F8220104480079A1F82401012188072F
:1031B00000F009F810BD00005C200020AA210020CA
:1031C000CA4302827047CA430282704721B1028813
:1031D00042F00102028004E002884FF6FE731A40BA
:1031E0000280704730B50246002000230024158A73
:1031F00005EA0103958905EA010413B10CB1012028
:1032000000E0002030BD1AB183890B43838102E0C6
:1032100083898B43838170470EB501210846FFF7F0
:10322000ADFB0F48019042F22730ADF800000020BE
:10323000ADF80800ADF8020069464FF0804000F09C
:1032400011F801218807FFF7BBFF01221146900703
:10325000FFF7D9FF01218807FFF7B8FF0EBD000077
:10326000BFC62D0000220288184B98420ED0184B82
:1032700098420BD0B0F1804F08D0164B984205D041
:10328000154B984202D0154B984204D14FF68F73DC
:103290001A404B881A43124B984207D0114B984260
:1032A00004D04FF6FF431A400B891A4302804B6843
:1032B000C3620B880385054B984202D0044B9842A9
:1032C00001D18B7A0386012383827047000001407D
:1032D000000401400004004000080040000C0040D1
:1032E000001000400014004010B500F003F8FFF794
:1032F00093FF10BD08B54FF4E060FFF727FA1C20DC
:103300008DF8000003208DF801008DF802000120E7
:103310008DF803006846FFF7DDF908BD1CB50121F3
:103320004020FFF71BFB01208DF8040000208DF8E2
:10333000060001208DF8070000208DF8050001200F
:10334000009069460948FEF7CBFA022000906946D2
:103350000648FEF7C5FA4FF480410548FEF73DFBED
:1033600001210248FEF739FB1CBD00000018024095
:103370000014024000B587B000200390049005902F
:10338000069002904D4800788DF80C004C4800786B
:103390008DF80D0000208DF80E008DF80F008DF8CF
:1033A00010008DF811008DF812008DF813004548BB
:1033B000008800128DF81400424800788DF815003E
:1033C000414800788DF81600404800788DF81700C5
:1033D0003F48008800128DF818003D4800788DF8AD
:1033E00019003C48FDF7D8FC002852D102A9394801
:1033F000FDF7E8FCBDF8080040F21512811A904272
:103400002AD007DC80280AD081280ED0A0F2111023
:1034100098BB27E002290ED006292FD116E0BDF86F
:103420000A00C0B28DF80C0029E0BDF80A00C0B255
:103430008DF80D0023E0BDF80A0000128DF814008D
:10344000BDF80A00C0B28DF8150018E0BDF80A00FA
:10345000C0B28DF8160012E0BDF80A00C0B28DF8B7
:1034600017000CE0BDF80A0000128DF81800BDF836
:103470000A00C0B28DF8190001E0FFE700BF00BFED
:1034800015480088154B0E2203A90090002003F078
:10349000DAFD1348007878B10E48FDF77DFC58B18D
:1034A00000200F4908700C4800880C4B04220D497D
:1034B0000090002003F0C7FD07B000BD7A00002097
:1034C0007B0000205A0000205600002057000020FA
:1034D00058000020AA310020AE200020AA200020A1
:1034E000A7000020A800002070B59EB00026002490
:1034F000002500201D90302111A8FCF78EFE4021F0
:1035000001A8FCF78AFE4FF44270FEF72FFF064633
:1035100016B1222E07D107E000234F48028802216E
:10352000184604F019F993E04FF40270FEF71EFFFD
:1035300000F0040020B104214FF40270FEF756FFA2
:103540004648008E401C454908860846008E40F2D9
:10355000262188423ADB002040490886404800780E
:103560008DF844003F4800788DF8450000208DF824
:1035700046008DF847008DF848008DF849008DF819
:103580004A008DF84B003848008800128DF84C0036
:10359000354800788DF84D00344800788DF84E009D
:1035A000334800788DF84F003248008800128DF8BB
:1035B0005000304800788DF851002F4800882F4B7C
:1035C0000E2211A90090002003F03DFDFFF7D2FE6E
:1035D000002001F08DFB0546002D1EDD012028494D
:1035E000087025481DAB2A4601A90090002002F072
:1035F00084FB9DF8770001A9FEF738FF9DF877104E
:103600006539C8B201A904F01BFE00219DF87700BE
:103610006538124A22F8101019E0002415E00F480E
:1036200030F81400401C0D4921F81400084630F809
:103630001400B0F57A7F06DB204604F0E9FD002097
:10364000064921F81400601CC4B2122CE7DB00BF4D
:1036500000BF1EB070BD0000A8200020782100200F
:103660007A0000207B0000205A0000205600002035
:103670005700002058000020AE200020AA20002083
:10368000A60000201FB5044600940020ADF80400F9
:10369000ADF80600ADF80800ADF80C000C20ADF850
:1036A0000A006946014800F0A3FA1FBD001001405E
:1036B0001FB5044600940020ADF80400ADF80600E4
:1036C000ADF80800ADF80C000C20ADF80A00694612
:1036D000014800F08DFA1FBD0048004010B540F2CF
:1036E00024411C4800F034FA90B31A4800F0EAFA7A
:1036F00040F22441174800F007FA03E00021164881
:10370000FDF7FCFD1448006800F001000028F5D129
:1037100001E000F0DFFA114800780028F9D102F04A
:1037200065FF0FE00E490C48FDF7CEFD0D490A4834
:10373000FDF7CAFD40200849091D0860012106481F
:10374000FDF7DCFD0448006800F001000028E9D026
:1037500010BD000000100140886402406520002078
:10376000008800200022002010B5044600BF0A484F
:1037700000780028FBD101210848FEF730F901202C
:103780000549087021460648FDF7ECFE0121044872
:10379000FDF7B4FD10BD00006520002000180240B8
:1037A000B864024000B597B001210846FFF7D6F88B
:1037B00001214804FFF7E2F801214805FFF7CEF8A0
:1037C00000208DF8560001208DF8570002208DF85A
:1037D00055008DF854000420149014A96348FEF796
:1037E0007FF802208DF854000820149014A95F4837
:1037F000FEF776F8072202215C48FEF7B9F80722A7
:1038000003215A48FEF7B4F84FF4E130109000203D
:10381000ADF84400ADF84600ADF84800ADF84C00F6
:103820000C20ADF84A0010A9514800F0E1F95148C8
:10383000FDF770FD4FF0006001904D48001D0290B3
:103840004D480390002004904020059000200690F1
:103850004FF4806007900020089009900A904FF480
:1038600080300B9000200C9001200D9000200E90D5
:103870000F9001A93F48FDF749FE01213D48FDF7A2
:103880003DFD012210213B48FDF722FE394818304A
:10389000FDF740FD4FF0006001903548001D02909B
:1038A00036480390402004900590002006904FF485
:1038B000806007900020089009900A904FF4003033
:1038C0000B9000200C9001200D9000200F9001A97A
:1038D00028481830FDF71AFE01221021254818301B
:1038E000FDF7F6FD11208DF8580001208DF85900E4
:1038F00002208DF85A0001208DF85B0016A8FEF713
:10390000E9FE10208DF8580003208DF859000220A0
:103910008DF85A0001208DF85B0016A8FEF7DAFE3C
:1039200026208DF8580002208DF859008DF85A0095
:1039300001208DF85B0016A8FEF7CCFE0122802145
:103940000B4800F0FCF801224021094800F0F7F88C
:103950000121074800F0E7F8012240F22441044821
:1039600000F020F9FFF7DAFC17B000BD00000240BC
:103970000044004088600240743D0020B43D0020B7
:1039800010B540F224411C4800F0E2F8002832D083
:10399000194800F097F940F22441174800F0B4F8B4
:1039A00003E000211548FDF7A9FC1448006800F069
:1039B00001000028F5D101E000F0D2F910480078AC
:1039C0000028F9D101F030FA0FE00E490B48FDF75D
:1039D0007BFC0D490948FDF777FC40200749091D8C
:1039E000086001210548FDF789FC0448006800F0E3
:1039F00001000028E9D010BD00440040886002406A
:103A000064200020008800200022002010B5044619
:103A100001200849087021460748FDF7A3FD012150
:103A20000548FDF76BFC012210210348FDF750FD0E
:103A300010BD000064200020A060024010B540F2DC
:103A400024411D4800F084F8A0B31B4800F03AF967
:103A500040F22441184800F057F803E000211748CD
:103A6000FDF74CFC15482838806A00F0010000285A
:103A7000F4D101E000F0B0F9114800780028F9D144
:103A800002F0CCFF0FE00F490C48FDF71DFC0E497A
:103A90000A48FDF719FC402008492839C86201216D
:103AA0000648FDF72BFC05482838806A00F0010025
:103AB0000028E8D010BD0000004800402860024007
:103AC00066200020008800100022001010B5044677
:103AD00000BF0A4800780028FBD14FF48041084815
:103AE000FDF77DFF01200549087021460548FDF7D7
:103AF00039FD01210348FDF701FC10BD66200020BF
:103B0000001402405860024010B50022002340F625
:103B10006A14A14200D100BF0A1201249440A3B24A
:103B2000DC43048010BD21B1828942F400528281BD
:103B300004E082894DF6FF731A40828170471AB102
:103B4000838A0B43838202E0838A8B43838270479C
:103B500070B50246002400230025002040F66A16B6
:103B6000B14200D100BFC1F3421501F01F0301268D
:103B700006FA03F3012D02D19689334006E0022DA7
:103B800002D1168A334001E0968A33400C12012696
:103B900006FA04F41688344013B10CB1012000E099
:103BA000002070BDF0B5034600240026002500204B
:103BB00040F66A17B94200D100BF1846C1F342145B
:103BC00001F01F06012707FA06F5012C01D10C3080
:103BD00004E0022C01D1103000E014301AB1076863
:103BE0002F43076002E00768AF430760F0BD0000A5
:103BF0002DE9FF4705460E460024A14600BFA0461A
:103C0000B08900B100BF2C8A24F44054F0880443EA
:103C10002C82AC8941F20C608443B088318908431E
:103C2000718908430443AC81AC8A24F44074B089A0
:103C30000443AC826846FEF7C1FE2048854202D0AC
:103C40001F48854202D1DDF80C9001E0DDF80890B4
:103C5000A88900F4004040B109EBC90000EB09104D
:103C600031684900B0FBF1F707E009EBC90000EB50
:103C7000091031688900B0FBF1F76420B7FBF0F060
:103C800004012009642101FB1078A88900F4004098
:103C900040B1322000EBC800B0FBF1F000F00700AB
:103CA000044308E0322000EB08106421B0FBF1F07F
:103CB00000F00F0004432C81BDE8FF870010014095
:103CC0000014014001468888C0F30800704700BF17
:103CD000FEE7000010B51D491D48FDF7C7FBB8B150
:103CE000012210211A48FDF7F3FB1A491848FDF785
:103CF000EBFA16491648FDF7E7FA00201649087056
:103D000000211348FDF7FAFA01211448FDF765FE7A
:103D100010490F48FDF7AAFBB8B1012210210C4849
:103D2000FDF7D6FB0B490A48FDF7CEFA07490848CC
:103D3000FDF7CAFA00200849087000210448FDF781
:103D4000DDFA01210548FDF748FE10BD008000287E
:103D5000B8640240004000246520002000180240A2
:103D600010B519491948FDF781FB98B101221021BE
:103D70001648FDF7ADFB16491448FDF7A5FA1249A0
:103D80001248FDF7A1FA00201249087000210F48DF
:103D9000FDF7B4FA0E490D48FDF768FB98B1012212
:103DA00010210A48FDF794FB09490848FDF78CFAF1
:103DB00005490648FDF788FA0020064908700021E9
:103DC0000248FDF79BFA10BD00802020A060024051
:103DD000004010206420002010B563496348FDF7BF
:103DE00045FBC0B14FF4FA6000F070FF01221021D2
:103DF0005E48FDF76DFB5C495C48FDF765FA002005
:103E00005B49087000215948FDF778FA4FF480416A
:103E10005848FDF7E2FD58495448FDF727FBC0B16B
:103E20004FF4FA6000F052FF012210214F48FDF7D5
:103E30004FFB51494D48FDF747FA00204C490870A7
:103E400000214A48FDF75AFA4FF480414948FDF7EE
:103E5000C4FD4A494548FDF709FBC0B14FF4FA607B
:103E600000F034FF012210214048FDF731FB4349A7
:103E70003E48FDF729FA00203D49087000213B48E3
:103E8000FDF73CFA4FF480413A48FDF7A6FD3C4966
:103E90003648FDF7EBFAC0B14FF4FA6000F016FFB8
:103EA000012210213148FDF713FB35492F48FDF75A
:103EB0000BFA00202E49087000212C48FDF71EFA4D
:103EC0004FF480412B48FDF788FD2E492748FDF728
:103ED000CDFAC0B14FF4FA6000F0F8FE01221021D3
:103EE0002248FDF7F5FA27492048FDF7EDF90020B3
:103EF0001F49087000211D48FDF700FA4FF480416A
:103F00001C48FDF76AFD1A48007848B31E4800783F
:103F1000401C1D4908704FF4FA6000F0D7FE1A48A3
:103F20000078FA281FDD00201749087001221021AF
:103F30000E48FDF7CDFA10490C48FDF7C5F90A49BE
:103F40000A48FDF7C1F90020094908700021074817
:103F5000FDF7D4F94FF480410648FDF73EFD02E03D
:103F600000200949087010BD008000185860024008
:103F700066200020001402400040001400200012BF
:103F8000001000110000409080200020324800788E
:103F90003249488432480078888432480078C8849E
:103FA00031480078A1F8000130480078A1F80201FA
:103FB0002F480088A1F804012E480088A1F80601C6
:103FC0002D4890ED000ABCEEC00A10EE100AA1F8D0
:103FD00042012A4890ED000ABCEEC00A10EE100A19
:103FE000A1F84401264890ED000ABCEEC00A10EE8C
:103FF000100AA1F846011C480078A1F85E011B4890
:104000000078A1F860011A480088A1F862011D48F3
:1040100090ED000ABCEEC00A10EE100AA1F864018F
:10402000194890ED000ABCEEC00A10EE100AA1F883
:104030006801164890ED000ABCEEC00A10EE100AA6
:10404000A1F86A01124890ED000ABCEEC00A10EE19
:10405000100AA1F86C0170478D000020AA210020F1
:1040600067200020682000207A0000207B000020CC
:104070007E00002096000020B0000020B400002048
:10408000B8000020BC000020C4000020C0000020B8
:10409000C800002000B52DED048BB0EE409AF0EE84
:1040A000609A83B051EC190BFCF788FB41EC180BBC
:1040B00018EE100A18EE901A8DED008B002818BF2C
:1040C0000120084320F00040C0F17F6000F1E04093
:1040D000C00F14D019EE101A19EE900A8DED009B46
:1040E000002918BF0121084320F00040C0F17F6083
:1040F00000F1E040C00F04BF012000F017F8B0EE5F
:10410000480A03B0F0EE680ABDEC048B00BD02E083
:1041100008C8121F08C1002AFAD170477047002052
:1041200001E001C1121F002AFBD17047014908605C
:1041300070470000D420002070B52DED108B86B0A4
:1041400004460D4616469FEDFD0AF0EE408A9FEDAF
:10415000FB0AB0EE408AFA48007800287ED0F94881
:1041600000880028FAD0F8480078844201DC002456
:1041700004E0F5480078201A801C84B2F348848259
:10418000F3480088FCF7FAF941EC1B0B2046FCF7DA
:10419000F5F941EC1E0B9FEDEF0B53EC102BFCF7E8
:1041A000FBF8CDE904012046FCF7E8F9CDE9000170
:1041B0002046FCF7E3F941EC1F0B9FEDE80B53ECB5
:1041C000102BFCF7E9F841EC1E0B9DED000B53ECB6
:1041D000102BFCF7E1F8CDE902019DED040B53EC47
:1041E000102B9DED020B51EC100BFCF72EF841EC5F
:1041F0001D0B9FEDDC0B53EC102BFCF726F841EC6C
:104200001C0B53EC1B2BFCF7C7F841EC1A0B9FED72
:10421000D70B53EC102BFCF731F941EC190BFCF7E1
:10422000ECF9D449086024B99FEDC40A084680ED32
:10423000000AD04890ED000AB5EEC00AF1EE10FA7F
:1042400001D3002C04DC9FEDBD0ACA4880ED000AB2
:10425000C9480078854202DC002504E0F9E0C64840
:104260000078281A85B2C5480088FCF787F941EC28
:104270001B0B2846FCF782F941EC1D0B9FEDB50B9B
:1042800053EC102BFCF788F8CDE902012846FCF727
:1042900075F941EC1D0B2846FCF770F941EC1F0B3A
:1042A0009FEDAE0B53EC102BFCF776F841EC1E0B98
:1042B00053EC1D2BFCF770F8CDE900019DED020BCE
:1042C00053EC102B9DED000B51EC100BFBF7BDFFD9
:1042D00041EC1C0B9FEDA30B53EC102BFBF7B5FF30
:1042E00053EC1B2BCDE904019DED040B51EC100B9D
:1042F000FCF752F841EC1A0B9FED9C0B53EC102B82
:10430000FCF7BCF841EC190BFCF777F99C49086005
:10431000084690ED000AB5EEC00AF1EE10FA01D39E
:10432000002D04DC9FED850A954880ED000A944835
:104330000068FCF74FF941EC1C0BB0EE4C0AF0EEB4
:104340006C0AFFF7A7FEB0EE40AAF0EE60AA89481B
:104350000068FCF73FF941EC1C0BB0EE4C0AF0EEA4
:104360006C0AFFF797FEB0EE40BAF0EE60BA53EC7D
:104370001A2B51EC1B0BFBF768FF41EC190BFCF7F8
:104380003CF908EE900A7E480068FCF723F941ECFE
:104390001C0BB0EE4C0AF0EE6C0AFFF77BFEB0EEA1
:1043A00040BAF0EE60BA73480068FCF713F941ECCC
:1043B0001C0BB0EE4C0AF0EE6C0AFFF76BFEB0EE91
:1043C00040AAF0EE60AA53EC1B2B51EC1A0BFBF742
:1043D000DDFF41EC190BFCF710F908EE100AB5EE01
:1043E000C08AF1EE10FA09DD88EE880AF2EE040ABE
:1043F00020EE200A634880ED000A04E09FED620A87
:10440000604880ED000A5F4890ED000ADFED5E0A2B
:10441000B4EEE00AF1EE10FA03DD9FED5B0A80EDE9
:10442000000A584890ED000AF2EE040AB4EEE00AE1
:10443000F1EE10FA03D2B2EE040A80ED000A414810
:104440000088322814DCB2EE040A4E4880ED000ADF
:104450000EE09FED3A0A474880ED000A9FED370ACB
:10446000474880ED000AB2EE040A464880ED000A93
:1044700033480078002860D044480078864201DC48
:10448000002603E041480078301A86B24048008890
:10449000FCF774F841EC1A0B3046FCF76FF841EC6E
:1044A0001E0B9FED3C0B53EC102BFBF775FFCDE97A
:1044B00002013046FCF762F841EC1E0B3046FCF777
:1044C0005DF89FED360B53EC102BCDE900019DED0F
:1044D000000B51EC100BFBF75FFF41EC1F0B53EC93
:1044E0001E2BFBF759FF41EC1D0B9DED020B53EC0E
:1044F000102BFBF7AAFE41EC1C0B9FED2A0B53EC93
:10450000102BFBF743FF41EC1B0B53EC1A2BFBF773
:1045100043FF41EC190B9FED250B53EC102BFBF7E0
:10452000ADFFCDE904019DED040B51EC100BFCF740
:1045300064F82049086008463EE04CE000000000B6
:104540007B0000207E000020D2000020AA21002055
:10455000CC000020B30C71AC8BDBD43FFCA9F1D2B2
:104560004D62903F295C8FC2F590614000000000D1
:1045700000408F40B0000020D3000020CE0000207B
:10458000B4000020B800002000C07944D40000200E
:10459000D0000020014D840D4FAFBC3F5473B9C112
:1045A0005087453FF8FC304278D25440000000006C
:1045B0000070A740BC00002090ED000AB5EEC00AD4
:1045C000F1EE10FA01D3642E0ADC1FED240A07482D
:1045D00080ED000A04E01FED270A044880ED000A80
:1045E000FEF7D4F806B0BDEC108B70BDBC00002007
:1045F00070B52DED028B0024002500269FED610A89
:10460000F0EE408A604800886049096808445F49C4
:1046100008605D4840885E49096808445C49086054
:10462000594880885B49096808445A4908605A48D3
:104630000078401C5849087008460078402817D177
:1046400052480068C0F38F1451480068C0F38F15BA
:1046500050480068C0F38F16324629462046FFF7BF
:104660006BFD00204B4908604949086047490860D4
:104670004948007801280AD100204849086042488A
:10468000C088474908604048C088464908603E489D
:10469000C088424909680844404908603A48C088CF
:1046A0003F490968884203D33748C0883C490860BD
:1046B0003548C0883B490968884203D83248C088D9
:1046C0003849086034480078402857D100203249E2
:1046D0000870344800683249096808442F4909685D
:1046E000081A2E490860084600683E21B0FBF1F028
:1046F00000EE100AB8EE400A2B4880ED000A90ED5B
:10470000000ADFED2A0A20EE200ADFED290A80EEFA
:10471000201AF0EE418ADFED270A9FED270A18EEF6
:10472000A00AF2EE040A20EE200A244880ED000AD6
:1047300090ED000AB5EEC00AF1EE10FA03D29FED3B
:10474000110A80ED000A1048008900EE100AB8EE48
:10475000408A9FED1B0A28EE000A1A4880ED000AE5
:10476000D0ED000A9FED131A9FED130A10EE810A97
:10477000F2EE040A20EE200A80ED000ABDEC028B66
:1047800070BD0000000000006A3D0020D80000203D
:10479000DC000020E0000020D6000020E400002023
:1047A000EC000020E8000020AC0000200AD75340B5
:1047B00000008045DD242442AC1CD641C00000200E
:1047C0000AD7533AC400002010B5002028490870C9
:1047D0001CE02848008828490968084426490860E0
:1047E000244840882549096808442449086021482C
:1047F0008088234909680844214908600A2000F09C
:1048000065FA1B480078401C194908701848007860
:104810004028DEDB18480088C0F38710194908706B
:1048200008460078C82801DDC820087013480088B1
:10483000C0F387101449087008460078C82801DDC5
:10484000C82008700E480088C0F387100F49087010
:1048500008460078C82801DDC820087000200449F7
:10486000087007490860054908600349086010BDE1
:10487000F00000206A3D0020F4000020F800002035
:10488000FC000020D2000020D3000020D400002033
:1048900010B50446144951F8240000F061F80A20CC
:1048A00000F014FA114951F8240000F059F80A20D8
:1048B00000F00CFA0E4800F053F80A2000F006FA57
:1048C00040F2B34000F04CF80A2000F0FFF909482C
:1048D00000F046F80A2000F0F9F9074800F040F827
:1048E0000A2000F0F3F910BD00010020A410002000
:1048F000425E0060FC0088000500580010B51348B7
:1049000000F02EF80A2000F0E1F9114800F028F834
:104910000A2000F0DBF90F4800F022F80A2000F02E
:10492000D5F940F2B34000F01BF80A2000F0CEF9B0
:10493000094800F015F80A2000F0C8F9074800F00F
:104940000FF80A2000F0C2F910BD000008804C00EA
:1049500041800008425E0060FC00880005005800AD
:1049600070B504460025344801883448FDF735F811
:10497000042000F0ABF9324801883048FDF72DF8EB
:10498000042000F0A3F900BF35E02D4801882B4832
:10499000FDF723F8022000F099F904F00040B0F18F
:1049A000004F05D1274801882448FDF718F804E096
:1049B000244801882148FDF710F8214801881F4844
:1049C000FDF70BF8022000F081F91D4801881B4813
:1049D000FDF705F8022000F079F919480188174819
:1049E000FCF7FBFF022000F071F96400022000F0E8
:1049F0006DF9681CC5B21F2DC7DD0F4801880F482F
:104A0000FCF7EBFF042000F061F90B4801880B482C
:104A1000FCF7E5FF042000F059F907480188074832
:104A2000FCF7DBFF042000F051F90548018803483A
:104A3000FCF7D3FF70BD00004E20002000080240AC
:104A4000482000204C20002010B500BF02210B4858
:104A5000FEF780F90028F9D000210848FEF786F912
:104A600000BF01210548FEF775F90028F9D0034879
:104A7000FEF779F9C4B2204610BD00000050014095
:104A800010B5044600BF02210948FEF763F900286B
:104A9000F9D021460648FEF769F900BF0121044814
:104AA000FEF758F90028F9D00148FEF75CF910BD6F
:104AB0000050014070B50546002401E0FFF750F9B1
:104AC0005E4800780028F9D1A5205D4908705A2079
:104AD00048701B2088708220C870182D73D2DFE8C0
:104AE00005F00C12181E242A30363C42484E545A07
:104AF00060666C73797F858B9197012050490871AE
:104B0000002048718BE001204D4908711020487148
:104B100085E001204A490871202048717FE001208A
:104B2000474908713020487179E0012044490871F3
:104B30004020487173E001204149087150204871BC
:104B40006DE001203E4908716020487167E0012056
:104B50003B4908717020487161E0012038490871B3
:104B6000802048715BE00120354908719020487130
:104B700055E0012032490871A02048714FE0012022
:104B80002F490871B020487149E001202C49087173
:104B9000C020487143E0012029490871D0204871A4
:104BA0003DE0012026490871E020487137E00120EE
:104BB00023490871F020487131E002202049087132
:104BC000002048712BE029E002201D4908711020C7
:104BD000487124E002201A490871202048711EE023
:104BE0000220174908713020487118E0022014494A
:104BF00008714020487112E00220114908715020CC
:104C000048710CE002200E4908716020487106E0EE
:104C100002200B4908717020487100E000BF00BFFE
:104C2000002405E00021A01D054A1154601CC4B2F7
:104C3000182CF7DB1E20FEF7E9FE70BD6420002073
:104C4000B43D002010B504464FF4847101EB4410CC
:104C50001021FDF7EBFB00BF4FF4847101EB441012
:104C6000FDF7A4FB0028F7D14FF4027101EB4410CB
:104C7000FF21FDF7DBFB10BD30B502460B464FF6BA
:104C8000FF7011E012F8014B604000210AE000F0D3
:104C9000010424B14AF2010484EA600000E04010FB
:104CA0004C1CE1B20829F2DB1C1EA3F10105EBB29A
:104CB000E8D130BD00B5034605E040F2DE3000F03B
:104CC00005F8581E83B2002BF7D100BD00BF00EBE2
:104CD000C002D10000E0491E0029FCD1704700004D
:104CE0000146024830F8110070470000F4510020DE
:104CF00070B504460025002600BF42F2086101EBB2
:104D00004410FDF733FB064642F2087101EB4410F4
:104D1000FDF72CFB00EB062086B27EB142F2086163
:104D200001EB4410FDF722FB054642F2087101EB4E
:104D30004410FDF71BFB00EB052085B2B542DCD12A
:104D4000284670BD70B504460025002600BF42F21B
:104D5000086101EB4410FDF729FB064642F2087199
:104D600001EB4410FDF722FB00EB062086B27EB17A
:104D700042F2086101EB4410FDF718FB054642F2D0
:104D8000087101EB4410FDF711FB00EB052085B223
:104D9000B542DCD1284670BD70B50446002500261A
:104DA00000BF42F2080101EB4410FDF7FFFA06468E
:104DB00042F2081101EB4410FDF7F8FA00EB06206F
:104DC00086B27EB142F2080101EB4410FDF7EEFA23
:104DD000054642F2081101EB4410FDF7E7FA00EB3B
:104DE000052085B2B542DCD1284670BD10B5044619
:104DF00001E0FEF7B5FF0A4800780028F9D1A520A8
:104E0000084908705A204870032088708020C870B4
:104E100004200871084644710620FEF7F7FD10BD16
:104E200064200020B43D002010B5FE480078A5287D
:104E30006FD1FC4840785A28FAD1FA48C0788328C4
:104E4000F6D1F84800790028F2D1F648007AF54901
:104E5000C97900EB012084B2F24840792B287DD03B
:104E600019DCA0F10400272852D2DFE800F04553F6
:104E700060A1A4F65151515151F4F3F2F1F0EFEE6B
:104E8000EDECEBEAE95151515151E8E7E6E5E4E395
:104E9000E2E1E0DFDE009B287ED01BDC94287CD0A2
:104EA00010DC90287AD006DC2C2878D08E2877D099
:104EB0008F282DD19BE2912873D0922872D093280D
:104EC000F7D1BAE295380628CED2DFE800F0F6F541
:104ED000F4F3F2F19C380D28C6D2DFE810F0D202CC
:104EE000D602DA02DE02E202E602EA02EE02F20292
:104EF000F602FA02FE0202038020CB490880C9486C
:104F0000007ACA49C84A128821F81200C8490870B4
:104F1000EBE2EFE28120C4490880C248017AC3482D
:104F2000C14A128820F81210C2480170DDE243F233
:104F3000D400844202DCC048048022E04FF6FE70B8
:104F4000844213D1BC480088BC490988884209DBE7
:104F5000B9480088B9490988401A00E00FE2B6490B
:104F600008800EE00020B44908800AE04FF6FF7088
:104F7000844206D1B0480088B04909880844AE4947
:104F80000880AD48008843F2D401884202DD08461B
:104F9000A9490880062106E06FE252E236E200E20B
:104FA00016E242E245E2A448008800F0C3FA9CE21F
:104FB000A248048099E240F69210844202DCA048A4
:104FC000048016E04FF6FE70844207D19C480088AA
:104FD0009C490988401A9A4908800AE04FF6FF70F8
:104FE000844206D196480088964909880844944925
:104FF00008809348008840F69211884202DA0846F9
:105000008F4908808E48008840F69211884202DD60
:1050100008468B49088008218948008800F08AFAF0
:105020008748008802F01CF95FE296E17CE16CE1C0
:105030005CE154E142E130E1E4E0D2E0C0E0B1E023
:10504000A6E0A2E099E090E087E07EE075E06CE009
:1050500054E03CE032E00EE0FFE77A48048000884C
:10506000052802DD05207749088009217548008858
:1050700000F060FA39E2012C02D100F07DFA16E06E
:10508000022C02D100F0D0FA11E0B4F5E16F0ED19C
:105090000920FFF7ABFE8F226B4801886B48008820
:1050A00000F042FB8E216A48008800F043FA1CE2BF
:1050B000DFE1DAE1D5E1D0E1CBE1C6E15948007AA0
:1050C0006449087000216348FCF7EAFE0DE2554888
:1050D000007A614908706148097850F821006049F8
:1050E000086001215C48FCF7DBFE00215D48FEF70B
:1050F0001AFD5B480068FEF7C5FAF6E14948007AF8
:10510000594908705548097850F8210054490860F9
:1051100002215548FCF7C4FE00215448FEF703FD68
:105120004F480068FEF7C4FADFE13E48C0795049B5
:1051300008703C48007A4870D7E13A48C0794C4939
:1051400088703848007AC870CFE13648C07949493C
:1051500008703448007A4870C7E13248C079454940
:1051600088703048007AC870BFE12E48C079424943
:1051700008702C48007A4870B7E12A48C0793E4947
:1051800088702848007AC870AFE13C480480ACE1E0
:105190002CB102203A49087002F03CFD01E000F019
:1051A000CBFCA2E1CA20204908802048098820F8C9
:1051B000114034490C7014213248FCF771FE94E11F
:1051C000C8201949088030490C70084600781749F2
:1051D000154A128821F8120015212B48FCF760FEB1
:1051E00083E1CC201049088028490C7008460178DA
:1051F0000E480D4A128820F8121016212348FCF799
:105200004FFE72E122490C70C520074908802048F2
:1052100000780649044A128821F8120017211C4818
:1052200038E00000743D002034000020AA21002056
:105230007A0000207B0000207E0000203800002043
:10524000960000203A000020CC000020D000002072
:10525000CE0000208D000020672000206C20002060
:10526000900000200010014068200020004800400D
:10527000B0200020B4200020B8200020BC20002056
:105280008B0000203F000020410000204000002053
:1052900044000020FCF704FE27E1C0209649088066
:1052A00096490C70084600789549934A128821F86F
:1052B000120018219148FCF7F3FD16E1C2208E4937
:1052C000088090490C70084601788D488A4A1288F7
:1052D00020F8121019218B48FCF7E2FD05E18A49FC
:1052E0000C701A218848FCF7DBFDFEE0874804803B
:1052F0001B218748FCF7D4FD0A20FFF7DBFC1C21AB
:105300008348401CFCF7CCFDEFE0824804801D215F
:105310007F48FCF7C5FD0A20FFF7CCFC1E217C4826
:10532000401CFCF7BDFDE0E040F217107249088018
:1053300079480480008872496F4A128821F8120067
:105340001F217348FCF7ACFD0A20FFF7B3FC2021B6
:105350006F48401CFCF7A4FDC7E040F21B106649F3
:1053600008806E490C70084600786549624A1288C8
:1053700021F8120021216948FCF792FDB5E040F2C6
:1053800015105D49088066490C70084600785C4934
:10539000594A128821F8120022216148FCF780FD49
:1053A000A3E040F21110544908805E480480008850
:1053B0005349A1F8220223215548FCF771FD0A2028
:1053C000FFF778FC24215248401CFCF769FD8CE073
:1053D0005548048029214E48FCF762FD0A20FFF75A
:1053E00069FC2A214A48401CFCF75AFD7DE04F48E1
:1053F000048025214648FCF753FD0A20FFF75AFC9C
:1054000026214348401CFCF74BFD6EE048480480D1
:1054100027213F48FCF744FD0A20FFF74BFC2821D9
:105420003B48401CFCF73CFD5FE00120FDF736FDEA
:105430005BE00220FDF732FD57E00320FDF72EFD73
:1054400053E00420FDF72AFD4FE00520FDF726FD7F
:105450004BE00620FDF722FD47E00720FDF71EFD8B
:1054600043E00820FDF71AFD3FE00920FDF716FD97
:105470003BE00A20FDF712FD37E00B20FDF70EFDA3
:1054800033E00C20FDF70AFD2FE00D20FDF706FDAF
:105490002BE00E20FDF702FD27E00F20FDF7FEFCBC
:1054A00023E01020FDF7FAFC1FE01120FDF7F6FCC9
:1054B0001BE01220FDF7F2FC17E01320FDF7EEFCD5
:1054C00013E01420FDF7EAFC0FE01520FDF7E6FCE1
:1054D0000BE01620FDF7E2FC07E01720FDF7DEFCED
:1054E00003E01820FDF7DAFC00BF00BF0248008887
:1054F000FDF7F0FA10BD000034000020420000204B
:10550000AA210020430000204C0000204E00002073
:105510007B3D0020500000205A0000205600002053
:105520005700002058000020CE000020D0000020AE
:10553000CC00002070B504460D4601E0FEF710FCDB
:105540000B4800780028F9D1A5200A4908705A2094
:105550004870052088708220C870281208714D712B
:1055600020128871CC710820FEF750FA70BD00003F
:1055700064200020B43D002010B501E0FEF7F0FBF0
:10558000204800780028F9D1A5201F4908705A202A
:105590004870172088708220C87000200871102081
:1055A00048710020887119480078C871002008727D
:1055B0001748007848720020887216480078C87230
:1055C000002411E01448015D0F4A04F10C0011544D
:1055D0001248015D04F1100011541148015D04F1FD
:1055E00014001154601CC4B2042CEBDB0D4800887D
:1055F0000012054908760B48007848761A20FEF715
:1056000005FA10BD64200020B43D00208D0000206C
:105610006720002068200020B0200020B420002057
:10562000B8200020BC20002010B501E0FEF798FB58
:105630002E4800780028F9D1A5202D4908705A205D
:1056400048701D2088708220C870002008712020BA
:1056500048710020887127480078C87100200872BE
:105660002548007848720020887224480078C87263
:10567000002008732248007848730020887321486E
:105680000078C873002008741F4800784874002010
:1056900088741E480078C8741D4800880012087578
:1056A0001B48007848751B48008800128875194807
:1056B0000078C875184800880012087616480078E7
:1056C00048760020887615480078C876002008774C
:1056D00013480078487713480088001288771148EB
:1056E0000078C8772020FEF791F910BD64200020D3
:1056F000B43D00203F000020410000204000002079
:105700004400002042000020430000204C00002004
:105710004E000020500000205A00002056000020BB
:10572000570000205800002070B504460D4616466C
:1057300001E0FEF715FB0D4800780028F9D1A520FF
:105740000B4908705A204870072088708220C87062
:10575000301208714E7120128871CC7128120872B3
:105760004D720A20FEF752F970BD0000642000203F
:10577000B43D002070B504464FF4427101EB441073
:10578000FCF714FE132811D14FF4847101EB44107F
:105790000221FCF74BFE00BF4FF4847101EB441073
:1057A000FCF704FE0028F7D1012500E0002528467B
:1057B00070BD00250024FBF75FFA1FE0FDF7B0F88D
:1057C000002506E05020FFF781FAFEF711FF681C64
:1057D00085B2072DF6DB601C84B2142094FBF0F137
:1057E00000FB114008B1FEF7D1FB3C2C02D1002494
:1057F000FCF786F9FDF778FEFDF736FCDEE70000E2
:1058000010B58EB0372200216846FCF7D7F99DF815
:105810000000AF4908709DF80100AE4908709DF87E
:105820000200AD490870002411E0E01C1DF80000E2
:10583000AA490855E01D1DF80000A949085504F1C2
:105840000B001DF80000A7490855601CC4B2042CC9
:10585000EBDB9DF80F00A44908809DF81000097843
:1058600000EB0120A04908809C480078FF2802D165
:10587000C0209A49087099484078FF2802D1A82092
:105880009649487095488078FF2802D101209349B5
:1058900088709248C078FF2802D169208F49C8706B
:1058A0008F480078FF2802D1C0208D4908708C48AD
:1058B0004078FF2802D1A82089494870884880781C
:1058C000FF2802D10120864988708548C078FF28CA
:1058D00002D101208249C87082480078FF2801D196
:1058E000804908707F484078FF2801D17D49487081
:1058F0007C488078FF2801D17A4988707948C0783F
:10590000FF2802D100207749C870774800884FF6F9
:10591000FF71884203D141F28830734908809DF8B5
:105920001400724908709DF81500714908709DF8BF
:105930001600704908709DF817006F4908709DF8AF
:1059400018006E4908709DF819006D4908709DF89F
:105950001A006C4908709DF81C009DF81B1000EBA4
:105960000120694908809DF81E009DF81D1000EB7C
:105970000120664908809DF820009DF81F1000EB6B
:105980000120634908809DF82100624908709DF854
:105990002200614908709DF824009DF8231000EB57
:1059A00001205E4908809DF826009DF8251000EB37
:1059B000012080B25A4908805A49A1F8C4019DF8D3
:1059C00028009DF8271000EB012080B2564908807E
:1059D0005449A1F8C0019DF82A009DF8291000EB58
:1059E000012080B2514908804E49A1F8C2013B48CC
:1059F00040783A49097840EA01204A490885374801
:105A0000C0783649897840EA0120464948853548BA
:105A100040783449097840EA012042498885314874
:105A2000C0783049897840EA01203E49C8852C4831
:105A300040782B49097840EA01203A4908862848ED
:105A4000C0782749897840EA0120364948862648A7
:105A50000088888629480078A1F880012A480088B3
:105A6000A1F8820126480078A1F88401274800881F
:105A7000A1F8880120480078A1F88A01214800781F
:105A8000A1F88E011A480078A1F890011748007813
:105A9000A1F8940117480078A1F898019DF8340006
:105AA0009DF8331000EB012080B2214908801D4988
:105AB000A1F8A0019DF836009DF8351000EB0120FB
:105AC00080B21C4908801749A1F8A2010EB010BD90
:105AD0008D0000206720002068200020B0200020DA
