:020000040800F2
:1000000038070020CD0100088F1700081B150008D5
:100010008D170008370300081D1B000800000000B2
:10002000000000000000000000000000931700081E
:100030003903000800000000911700089517000818
:10004000E7010008E7010008E7010008E7010008F0
:10005000E7010008E7010008E7010008E7010008E0
:10006000E7010008E7010008E7010008E7010008D0
:10007000E7010008E7010008E7010008E7010008C0
:10008000E7010008E7010008E7010008E7010008B0
:10009000E7010008E7010008E7010008E7010008A0
:1000A00015180008391800082D1800082118000834
:1000B000E701000845180008E7010008E70100080B
:1000C000E7010008E7010008E7010008E701000870
:1000D000E7010008E7010008E7010008E701000860
:1000E000E7010008E7010008E7010008E701000850
:1000F000E7010008E7010008E7010008D502000851
:10010000E7010008E7010008E7010008E70100082F
:10011000E7010008E7010008E7010008E70100081F
:10012000E7010008E7010008E7010008E70100080F
:1001300000F002F800F03AF80AA090E8000C8244BF
:100140008344AAF10107DA4501D100F02FF8AFF29C
:10015000090EBAE80F0013F0010F18BFFB1A43F0A5
:1001600001031847F41B0000141C0000103A24BFC0
:1001700078C878C1FAD8520724BF30C830C144BF0C
:1001800004680C607047000000230024002500264E
:10019000103A28BF78C1FBD8520728BF30C148BFEA
:1001A0000B6070471FB51FBD10B510BD00F058F8AB
:1001B0001146FFF7F7FF01F0B2FD00F076F803B447
:1001C000FFF7F2FF03BC00F07DF80000094880470C
:1001D00009480047FEE7FEE7FEE7FEE7FEE7FEE729
:1001E000FEE7FEE7FEE7FEE704480549054A064B41
:1001F0007047000013180008310100083801002082
:100200003807002038030020380300204FF0000298
:1002100000B5134694469646203922BFA0E80C50FC
:10022000A0E80C50B1F12001BFF4F7AF090728BFD7
:10023000A0E80C5048BF0CC05DF804EB890028BF53
:1002400040F8042B08BF704748BF20F8022B11F07C
:10025000804F18BF00F8012B7047704770477047F8
:10026000754600F02BF8AE4605006946534620F06F
:100270000700854618B020B5FFF7B6FFBDE820405F
:100280004FF000064FF000074FF000084FF0000B52
:1002900021F00701AC46ACE8C009ACE8C009ACE805
:1002A000C009ACE8C0098D46704710B50446AFF3ED
:1002B00000802046BDE81040FFF781BF004870472E
:1002C000D400002001491820ABBEFEE72600020042
:1002D00070470000014800F0B2B800001400002090
:1002E00070B5044600688168C943C90717D18168A1
:1002F00021F00101816000F0E9FA05460AE000BF43
:1003000000F0E4FA401B022804D920688068C0434A
:10031000C00706D020688068C043C007F0D0002026
:1003200070BDA06A40F01000A062E06A40F00100D9
:10033000E062012070BDFEE7704772B6FEE77047CD
:10034000F8B50024009490F824202546012A12D004
:10035000012280F824204A681F23072A0DD206684C
:10036000776B521E02EB820293409F430B689340CF
:100370001F43776319E00220F8BD06680D2A0AD2F0
:10038000376BD21F02EB820293409F430B6893406E
:100390001F43376309E0F76A0D3A02EB820293408C
:1003A0009F430B6893401F43F7620A680723066860
:1003B0000A2A0AD3F7680A3A02EB420293409F43A3
:1003C0008B6893401F43F76008E0376902EB4202F5
:1003D00093409F438B6893401F4337610A68102AFC
:1003E00001D0112A20D1124B02689A4217D193688A
:1003F0001B0219D4936843F4000393600968102921
:1004000012D10C490C4A0968B1FBF2F101EB8101F0
:10041000490000E0491E00910029FBD104E0816AF7
:1004200041F020018162012480F824502046F8BD6B
:10043000002401400C00002040420F00704710B51E
:10044000044600684168890626D50168890723D5D6
:10045000A16AC90603D4A16A41F40071A16281684E
:10046000C1F34241072910D1217B71B9416821F0C4
:1004700020014160A06A20F48070A062A06AC004DC
:1004800003D4A06A40F00100A0622046FFF7D6FF27
:1004900021686FF0120008602068416809062ED5B7
:1004A000016849072BD5A16AC90603D4A16A41F4A2
:1004B0000051A1628168C1F30231072909D0416866
:1004C000490515D48168C1F34241072910D1217B28
:1004D00071B9416821F080014160A06A20F4805028
:1004E000A062A06AC00503D4A06A40F00100A06227
:1004F0002046FFF724FF21686FF00C000860206899
:10050000416849060DD50068C0070AD0A06A40F4CA
:100510008030A062204600F095F821686FF001005D
:10052000086010BD2DE9F04104004FF000057FD0B8
:10053000A06A002628B9E66284F82460204600F00C
:1005400083F82046FFF7CCFEA16AC90600D420B18B
:10055000A06A40F01000A0626AE0A16A21F488510C
:1005600041F00201A162334923688B42E16904D161
:10057000B1F5402F01D14FF40021277B4FF4807C4F
:1005800041EA470261680A43A168614508D0012930
:1005900006D0002194F814E0BEF1010F02D00AE069
:1005A0006146F7E7C7B1A76A47F02007A762E76A85
:1005B00047F00107E7625F6827F469470F435F6010
:1005C000236899681C4F394011439960A1686145BF
:1005D0000BD0012909D00CE0DFF860E0A7690EEB31
:1005E00047370F4347F40061E5E7218A0D05A5F57C
:1005F00080152168CB6A23F470032B43CB622168FA
:1006000089680F4B1940914208D1E662A16A21F036
:10061000020141F00101A162BDE8F081A06A20F071
:10062000020040F01000A062E06A40F00100E062C9
:100630000120F1E7003C0140FDF7E1FF00E0FFFF92
:10064000FE0E1FFF7047000000B585B0002100912D
:1006500001910291039100681249884220D1124809
:10066000816941F400418161816901F40041049193
:10067000816941F0040181618069694600F00400EC
:1006800004900220009003200190084800F010F828
:10069000002201212F2000F089F92F2000F078F9A5
:1006A00005B000BD003C01400010024000080140C0
:1006B0002DE9F84FDFF8C891002409F1040A0AF186
:1006C000040B23460F270BF1040ED1E00125A540B2
:1006D00006EA0502AA4276D1DFF8A8C14E68A6EB69
:1006E0000C0866452BD00DDC032E34D005DC36B368
:1006F000012E19D0022E2FD11BE0112E16D0122E52
:100700002AD119E0B8F5881F19D006DCB8F5803F6A
:1007100015D0B8F5801F1FD111E0B8F5001F0ED01D
:10072000B8F5041F18D10AE0CB6815E0CB681B1D93
:1007300012E0CB6808330FE0CB680C330CE08B6819
:100740002BB1012B4FF0080303D0456104E00423D3
:1007500002E0056100E00023FF2A01D8064601E01F
:1007600000F104064FEA840501D9A5F12005D6F869
:10077000008007FA05FC28EA0C0803FA05F548EAA8
:100780000508C6F800804D68ED0070D53E4DAE6995
:1007900046F00106AE61AD6924F0030605F00105DF
:1007A00000953A4D06EB050CDCF80850A607360F0D
:1007B00007FA06F825EA0805DFF8D480404503D19A
:1007C0004FF0000825E052E0DFF8C880404502D134
:1007D0004FF001081DE0DFF8C080404502D14FF026
:1007E000020816E0DFF8B480404502D14FF003085C
:1007F0000FE0DFF8AC80404502D14FF0040808E07C
:10080000DFF8A080404502D14FF0050801E04FF02D
:10081000060808FA06F848EA0508CCF808804D688A
:10082000D9F80060ED034D4601D5164300E096432C
:100830002E604D68DAF80060AD03554601D51643C9
:1008400000E096432E604D68DBF80060ED025D46E7
:1008500001D5164300E096432E604D68DEF8006037
:10086000AD02754601D5164300E096432E60641C28
:100870000A681646E2407FF429AFBDE8F88F000011
:10088000000401400000111000100240000001406F
:1008900000080140000C014000100140001401401C
:1008A00000180140001C01408068084000D0012071
:1008B0007047C26821EA02030A4043EA024101612B
:1008C00070470AB1016170470904FBE7014880687D
:1008D000704700000000002002488168027811443F
:1008E0008160704700000020074810B5016841F0A2
:1008F00010010160032000F079F8032000F006F8F1
:1009000000F024F8002010BD0020024070B50D4D0D
:1009100004464FF47A712878B1FBF0F00A4909686F
:10092000B1FBF0F000F046FB48B9102C07D20022D2
:100930002146501E00F03AF800206C6070BD012086
:1009400070BD0000000000200C0000200E4808B51B
:10095000816941F001018161816901F0010100912A
:10096000C16941F08051C161C06900F080500090C0
:10097000052000F03BF80548416821F0E06141F0B6
:100980000071416008BD00000010024000000140FD
:10099000002809DB00F01F0201219140400980007E
:1009A00000F1E020C0F8001170470000F0B40E4BD9
:1009B0001B680C46C3F30223C3F10705042D00D9BD
:1009C0000425191D072901D2002300E0DB1E0126A2
:1009D00006FA05F1491E214099409E40761E1640B8
:1009E0003143F0BC01F09BB80CED00E0064900F08B
:1009F000070208684FF6FF03184040EA0220034A46
:100A000010430860704700000CED00E00000FA059C
:100A10002DE9F84305460078354CC00754D0E0690D
:100A20000026C00008D4E06940F08050E061E06931
:100A3000012600F0805000902E480168C90512D4AC
:100A40000168804641F480710160FFF73FFF07466F
:100A500005E000BFFFF73AFFC01B642823D8D8F891
:100A60000000C005F6D5206A10F4407021D0A98896
:100A700001F4407181421CD0206A1F49012220F4F8
:100A800040700A6000220A602062C00711D0FFF7A0
:100A90001DFF074641F2883808E000BFFFF716FF48
:100AA000C11B414502D90320BDE8F883206A8007B5
:100AB000F4D5206A696820F44070084320621EB1B2
:100AC000E06920F08050E0612878800705D56068F3
:100AD000A96820F44040084360602878C00605D526
:100AE0006068696920F48000084360600020DBE7EB
:100AF0000010024000700040400442422DE9F047DF
:100B00000F46050061D0434E306800F00700B84240
:100B100009D2306820F0070038433060306800F0B8
:100B20000700B84251D128683B4C810712D54007D5
:100B300003D5606840F4E06060602878000703D562
:100B4000606840F4605060606068A96820F0F00060
:100B5000084360602878C00728D06868012810D052
:100B60002168022810D0890700292EDA616821F057
:100B7000030101436160FFF7A9FE804641F2883915
:100B80000DE021688903EFE78901EDE7FFF79EFE9D
:100B9000A0EB0801494502D90320BDE8F087606851
:100BA000696800F00C00B0EB810FEFD1306800F005
:100BB0000700B8420BD9306820F007003843306096
:100BC000306800F00700B84201D00120E5E728783E
:100BD000400705D56068E96820F4E060084360607C
:100BE0002878000706D56068296920F4605040EA3B
:100BF000C100606000F018F86168084AC1F3031191
:100C0000515CC8400649086006480068FFF77EFE50
:100C10000020C2E70020024000100240481D0008EA
:100C20000C0000200400002012A185B00FC98DE83F
:100C30000F0014A0144A006804905168134801F092
:100C40000C03042B10D0082B0ED1C1F38343C9032E
:100C50001DF803000AD5516804AAC1F34041515C54
:100C60000A4A5043B0FBF1F005B0704708494843C9
:100C7000FAE7000002030405060708090A0B0C0D39
:100C80000E0F1010010200000010024000127A0046
:100C900000093D002DE9F84F040070D02078C04DC8
:100CA000C00749D06868C0F38100012807D0686890
:100CB000C0F38100022809D16868C00306D52868FE
:100CC000800339D560680028E7D035E06068B0F56A
:100CD000803F0BD010B1B0F5A02F11D0286820F4C0
:100CE00080302860286820F4802002E0286840F4E2
:100CF00080302860606890B1FFF7E8FD06460AE0A2
:100D0000286840F480202860F0E700BFFFF7DEFD90
:100D1000801B642873D828688003F7D50CE0FFF7A0
:100D2000D5FD064605E000BFFFF7D0FD801B642817
:100D3000F0D828688003F7D420789A4E80074FF0C7
:100D400001094FF0000839D5686810F00C0F07D082
:100D50006868C0F38100022809D16868C00306D41E
:100D60002868800714D52069012808D110E020697F
:100D7000B0B1C6F80090FFF7A9FD074605E00AE10B
:100D8000FFF7A4FDC01B0228C4D828688007F7D548
:100D90002868616920F0F80040EAC10028600DE091
:100DA000C6F80080FFF792FD074604E0FFF78EFDCE
:100DB000C01B022823D828688007F7D420780007B2
:100DC0002CD57948A169D9B1C0F80090FFF77EFD14
:100DD000074604E0FFF77AFDC01B02280FD8686AB7
:100DE0008007F7D571484FF4FA510068B0FBF1F075
:100DF000009000BF0098411E0091FAD20EE080E002
:100E0000C0F80080FFF762FD074604E0FFF75EFDD3
:100E1000C01B022875D8686A8007F7D4207840077D
:100E200060D5E8690027C00008D4E86940F0805028
:100E3000E861E869012700F0805000905C48016893
:100E4000C90513D40168834641F480710160FFF73E
:100E50003DFD824606E000BFFFF738FDA0EB0A002B
:100E600064284ED8DBF80000C005F5D5E0680128FD
:100E70000AD008B1052813D0286A20F001002862A2
:100E8000286A20F0040002E0286A40F0010028628D
:100E9000E06841F2883B98B1FFF718FD82460BE00D
:100EA000286A40F004002862EEE700BFFFF70EFD5D
:100EB000A0EB0A0159455AD8286A8007F6D50CE0FC
:100EC000FFF704FD824605E0FFF700FDA0EB0A01F5
:100ED00059454CD8286A8007F6D41FB1E86920F03C
:100EE0008050E861E06988B36968C1F38101022933
:100EF00044D00228C6F8608004D0FFF7E7FC04461F
:100F000038E034E0FFF7E2FC074604E0FFF7DEFCE0
:100F1000C01B02282BD828688001F7D4206AB0F5BE
:100F2000803F05D16868A16820F4003008436860FC
:100F3000D4E908010843696821F474110843686022
:100F4000C6F86090FFF7C2FC044606E025E000BF4B
:100F5000FFF7BCFC001B022809D828688001F7D5E0
:100F60001BE000BFFFF7B2FC001B022802D90320E0
:100F7000BDE8F88F28688001F4D40EE00128F7D08E
:100F80006868226A00F48031914204D1616A00F4F9
:100F90007010884201D00120EAE70020E8E7000055
:100FA0000010024000004242800442420C00002037
:100FB0000070004010B5401EB0F1807F01D30120C9
:100FC00010BD4FF0E02460610F21601700F0A7FD15
:100FD0000020A06107202061002010BD70477047ED
:100FE00010B590F83C20012A22D0012280F83C2044
:100FF000CA688C6822F4407222434C6822F48062F2
:1010000022430C6822F4006222430C6922F48052CD
:1010100022434C6922F400522243C969002322F47E
:1010200080420A4301684A6480F83C30002010BDC9
:10103000022010BD70B590F83C20012A2CD001246C
:1010400080F83C40022280F83D2003685A689D6881
:1010500022F070060A6832435A60104B02689A42C6
:101060000ED00F4B9A420BD0B2F1804F08D00D4BEF
:101070009A4205D00C4B9A4202D00C4B9A4204D1B2
:10108000496825F080031943916080F83D400021B4
:1010900080F83C10084670BD022070BD002C014055
:1010A000003401400004004000080040000C0040F3
:1010B00010B5040003D094F83D0010B107E0012002
:1010C00010BD002084F83C00204600F01FF80220EC
:1010D00084F83D00211D206800F0BAFB012084F84F
:1010E000460084F83E0084F83F0084F8400084F80D
:1010F000410084F8420084F8430084F8440084F8F6
:10110000450084F83D00002010BD000008B50068CF
:101110000B49884212D10B48C16941F00201C161FB
:10112000C069002200F00200009003211D20FFF79B
:101130003DFCBDE808401D20FFF72ABC08BD0000AB
:10114000000400400010024070B5044690F83C00D6
:10115000012817D0012584F83C50022084F83D0076
:101160002068826822F0770222F47F428260086859
:10117000502830D00DDC20284DD005DC98B3102845
:101180003BD148E0022070BD302844D0402834D103
:1011900039E0602828D0702806D0B0F5805F2CD0C8
:1011A000B0F5005F29D10AE0CB68D1E901212068C0
:1011B00000F094FB2068816841F0770109E0CB687A
:1011C000D1E90121206800F089FB2068816841F4A1
:1011D0008041816011E0CA684968206800F052FCD3
:1011E0005021206807E016E0CA684968206800F0CE
:1011F0005AFC6021206800F07BFB84F83D50002001
:1012000084F83C0070BDCA684968206800F03AFC68
:1012100040212068EFE7226801461046EBE770475F
:1012200070B50446006801694FF00005C94389079D
:1012300015D4C168C943890711D4E91E0161012091
:101240002077206880698007204602D0FFF7E7FFFB
:1012500004E000F098F8204600F05CF9257720685B
:101260000169C943490717D4C168C943490713D461
:101270006FF004010161022020772068806910F47A
:10128000407F204602D0FFF7CAFF04E000F07BF861
:10129000204600F03FF9257720680169C943090716
:1012A00016D4C168C943090712D46FF0080101615F
:1012B000042020772068C0698007204602D0FFF70D
:1012C000AEFF04E000F05FF8204600F023F9257738
:1012D00020680169C943C90617D4C168C943C90652
:1012E00013D46FF010010161082020772068C069D5
:1012F00010F4407F204602D0FFF791FF04E000F099
:1013000042F8204600F006F9257720680169C943B4
:10131000C90708D1C168C943C90704D1891E016141
:10132000204600F0F8F820680169C943090609D48D
:10133000C168C943090605D46FF0800101612046E8
:10134000FFF74CFE20680169C943490609D4C1680A
:10135000C943490605D46FF040010161204600F001
:10136000DBF820680169C94389060BD4C168C94309
:10137000890607D46FF0200101612046BDE8704066
:10138000FFF72DBE70BD704770B5044690F83C0065
:101390000D4601280AD0012084F83C0042B1042AFD
:1013A00018D0082A2AD00C2A4DD139E0022070BD6D
:1013B000206800F0A5FA2068816941F00801816188
:1013C0002068816921F004018161206881692A69AE
:1013D000114311E0206800F0C3FA2068816941F4EC
:1013E000006181612068816921F4806181612068E8
:1013F00081692A6941EA0221816124E0206800F0C4
:10140000E5FA2068C16941F00801C1612068C1693D
:1014100021F00401C1612068C1692A69114311E00A
:10142000206800F007FB2068C16941F40061C161D8
:101430002068C16921F48061C1612068C1692A699D
:1014400041EA0221C161002084F83C0070BD10B562
:10145000040003D094F83D0010B107E0012010BD56
:10146000002084F83C00204600F01EF8022084F89A
:101470003D00211D206800F0EBF9012084F84600B2
:1014800084F83E0084F83F0084F8400084F841006E
:1014900084F8420084F8430084F8440084F845004E
:1014A00084F83D00002010BD08B500681749884247
:1014B0002AD11748816941F4006181618069002265
:1014C00000F40060009011461820FFF76FFA182012
:1014D000FFF75EFA002211461920FFF767FA19207C
:1014E000FFF756FA002211461A20FFF75FFA1A207A
:1014F000FFF74EFA002211461B20FFF757FABDE80E
:1015000008401B20FFF744BA08BD0000002C014032
:1015100000100240704770477047FEE73EB5002458
:1015200010480094019402940D4984600160047392
:101530000475012505614FF460214460C161FEF727
:10154000F1FF08B1FEF7F9FE0095CDE901546946B7
:101550000448FEF7F5FE002801D0FEF7EEFE3EBD82
:10156000003C0140140000202DE9F04F85B000241C
:1015700041480094019402940394816941F0400130
:101580008161816901F040010491816941F010019C
:101590008161816901F010010491816941F00401C8
:1015A0008161816901F004010491816941F00801C0
:1015B0008161816901F008010491816941F0200194
:1015C00081618069DFF8B4A000F020004FF6FF755C
:1015D0000490002229465046FFF773F9DFF8A0B0C7
:1015E0004FF4BE78002241465846FFF76AF94FF49F
:1015F000F849002249462348FFF763F9CDE9005432
:10160000694621480294FFF753F802270126039701
:101610000095CDE9016469465046FFF749F8CDF8D9
:1016200000800397CDE9016469465846FFF740F80A
:101630008020CDE90004694658460294FFF738F847
:10164000CDF800900397CDE9016469460D48FFF796
:101650002FF8F003CDE9000469460A480294FFF729
:1016600027F8CDE90054694608480294FFF720F8AE
:1016700005B0BDE8F08F00000010024000100140EE
:1016800000080140000C0140001801400014014016
:1016900010B592B000240F941C2108A81094FEF7F6
:1016A000B5FD20216846FEF7B1FD1E481C49C0E982
:1016B00000144FF6FF71C0E9024104614461846186
:1016C000FFF7C5FE08B1FEF738FE0F940FA91548C5
:1016D0001094FFF7AFFC08B1FEF72FFE6020CDE9B4
:1016E00008040A940C940D940C2208A90D480E9439
:1016F000FFF74AFE08B1FEF720FE00944FF40050B9
:10170000CDE9044002940194039469460548079486
:10171000FFF766FC002801D0FEF70FFE12B010BDE7
:10172000002C01404400002010B586B0002416486B
:101730000094019402940394049412490594C0E91E
:1017400000144FF6FF71C0E9024104618461FFF7A4
:10175000AFFC08B1FEF7F1FD4FF4805000906946F0
:101760000948FFF7F1FC08B1FEF7E7FD049404A96E
:1017700005480594FFF75EFC002801D0FEF7DDFD6B
:1017800006B010BD000400408C000020FEE7FEE71C
:1017900070477047FFF7A0B830B595B0282168466C
:1017A000FEF734FD14210AA8FEF730FD18210FA81A
:1017B000FEF72CFD01210804CDE90010002502955B
:1017C00002240491CDE907404FF4E01009906846E7
:1017D000FFF760FA08B172B6FEE70AA90F2081E8A8
:1017E00031004FF48060CDE90D0502210AA8FFF712
:1017F00085F908B172B6FEE74FF4004011900F94DE
:101800000FA8FFF705F9002801D072B6FEE715B062
:1018100030BD70470148FFF703BD000044000020C1
:101820000148FFF7FDBC0000440000200148FFF71D
:10183000F7BC0000440000200148FFF7F1BC0000A5
:10184000440000200148FFF7EBBC00008C000020A2
:10185000F0B502681C4B1D4D1D4E1E4F1E4C4FF027
:10186000804C984209D0A04207D0604505D0A842DC
:1018700003D0B04201D0B84204D122F0700E4A68C1
:1018800042EA0E02984209D0A04207D0604505D036
:10189000A84203D0B04201D0B84203D122F440752F
:1018A000CA682A434D6922F080022A4302608A688E
:1018B000C2620A688262984201D0A04201D10969DD
:1018C000016301214161F0BD002C01400004004092
:1018D00000080040000C00400034014010B584684E
:1018E00042EA032224F47F440A432243826010BD6B
:1018F000826822F070020A4342F00701816070475B
:10190000F0B5026A22F001020262036A4268846949
:10191000124E24F073050C682C4323F002058B68EB
:101920002B430D4DA84201D0B04205D123F008074A
:10193000CB683B4323F00403A84201D0B04205D159
:101940004D6922F4407215438A692A4342608461DA
:10195000496841630362F0BD002C0140003401403E
:10196000F0B5026A22F010020262026A43688469DA
:101970000D6824F4E64444EA05248D6822F0200230
:1019800042EA05120F4D104EA84201D0B04206D1D6
:10199000CF6822F0800242EA071222F04002A842F9
:1019A00001D0B04207D14D6923F4406343EA850377
:1019B0008D6943EA850343608461496881630262FB
:1019C000F0BD0000002C014000340140F0B5026A77
:1019D00022F480720262026A4368C46922F40072CF
:1019E00024F073050C68124E2C438D6842EA0522E0
:1019F0000E4DA84201D0B04206D1CF6822F4006259
:101A000042EA072222F48062A84201D0B04207D104
:101A10004D6923F4405343EA05138D6943EA0513E6
:101A20004360C4614968C1630262F0BD002C01409B
:101A30000034014030B5026A22F480520262046A26
:101A40004268C3690D6823F4E64343EA05238D68C1
:101A500024F4005444EA0534084DA84202D0084D4D
:101A6000A84204D14D6922F4804242EA85124260C4
:101A7000C36149680164046230BD0000002C01406C
:101A80000034014010B5036A046A24F001040462C2
:101A9000846924F0F00444EA021423F00A020A43A1
:101AA0008461026210BD10B5036A23F01003036263
:101AB0008369046A23F4704343EA023224F0A003EA
:101AC00043EA01118261016210BD000070B50A4D48
:101AD0004FF4807421462846FEF7EBFE2146284647
:101AE000FEF7E2FE0549064A012802D04888D06088
:101AF00070BD0888FBE700000008014010000020CE
:101B00000010014010B500F0E7F8034C208000F011
:101B1000F5F8608010BD000010000020FEE7090706
:101B2000090E002804DB00F1E02080F80014704763
:101B300000F00F0000F1E02080F8141D7047000055
:101B400010B500F049F8322000F0A8F8014800680C
:101B500080B210BD0814014010B500F071F83220B9
:101B600000F09CF80148006880B210BD08180140E0
:101B700070B50C4C00224FF480612046FEF7A1FEA8
:101B80004FF48045002229462046FEF79AFE0A209F
:101B900000F088F829462046BDE870400122FEF793
:101BA00090BE0000000C014010B50A4C0022042138
:101BB0002046FEF786FE002240212046FEF781FEE9
:101BC0000A2000F06FF820460122BDE810404021B5
:101BD000FEF777BE0008014070B5184C4FF4004581
:101BE00029462046FEF760FE0028F9D100224FF476
:101BF00080612046FEF765FE00224FF4005120462A
:101C0000FEF75FFE00224FF400612046FEF759FE0A
:101C10000122160331462046FEF753FE322000F023
:101C20003DF8002231462046FEF74BFE294620466D
:101C3000FEF73AFE0028F9D170BD0000000C01400B
:101C400010B5154C80212046FEF72EFE0028F9D154
:101C5000002204212046FEF734FE002220212046E7
:101C6000FEF72FFE002208212046FEF72AFE012261
:101C700010212046FEF725FE322000F00FF800224A
:101C800010212046FEF71DFE80212046FEF70CFEA7
:101C90000028F9D110BD000000080140401E80B2AC
:101CA000FCD27047272800D927204FF4E151484340
:101CB0004FF0E021486100228A61086940F001008C
:101CC00008610869C30701D0C003FAD5086920F08C
:101CD000010008618A61704770B5002425464FF401
:101CE0007A7600BFFFF72CFF854200D20546641CC0
:101CF000A4B2B442F6D3284670BD000070B50024EB
:101D000025464FF47A7600BFFFF726FF854200D2C2
:101D10000546641CA4B2B442F6D3284670BDFEF753
:101D2000E3FDFFF739FDFFF71FFCFFF7F7FBFFF7B8
:101D3000FBFCFFF7ADFCFFF71BFFFFF735FFFFF7DD
:101D4000E1FEFFF7C3FEFAE700000000000000001C
:101D50000102030406070809781D0008000000209E
:101D6000140000006C0100088C1D00081400002005
:101D70002407000088010008010000001000000096
:0C1D8000000000000024F400000000003F
:0400000508000131BD
:00000001FF
