:020000040800F2
:1000000088060020A5010008834500086F4000080D
:100010007F450008510D0008294C00080000000031
:10002000000000000000000000000000DF4A00089F
:10003000E9130008000000001D460008E14A00081E
:10004000BF010008BF010008BF010008BF01000890
:10005000BF010008BF010008BF010008BF01000880
:10006000BF010008BF010008BF010008011100081E
:10007000BF010008BF010008BF010008BF01000860
:10008000BF010008BF010008E5070008BF01000824
:10009000BF010008BF010008BF010008BF01000840
:1000A000BF010008BF010008BF010008BF01000830
:1000B000BF0100080000000000000000BF010008B0
:1000C000BF010008BF010008BF010008BF01000810
:1000D000BF010008BF010008BF010008BF01000800
:1000E000BF010008BF010008000000000000000080
:1000F0000000000000000000000000000000000000
:1001000000000000BF01000800000000BF0100085F
:100110000000000000000000BF010008BF0100084F
:10012000BF010008BF010008BF010008BF010008AF
:10013000BF010008000000000000000000000000F7
:10014000BF010008BF010008BF010008BF0100088F
:10015000BF010008BF010008BF010008BF0100087F
:10016000BF010008BF010008BF0100080000000037
:10017000BF010008BF010008BF0100080000000027
:10018000BF010008BF010008BF010008DFF810D060
:1001900000F006FB00480047BD4F0008AFF30080A9
:1001A000880600200648804706480047FEE7FEE72D
:1001B000FEE7FEE7FEE7FEE7FEE7FEE7FEE7FEE717
:1001C000D94B00088D010008D2B201E000F8012BE4
:1001D000491EFBD270470022F6E710B513460A46C7
:1001E00004461946FFF7F0FF204610BD2DE9FE4FEB
:1001F000804681EA0300C00F0C46009021F00041C8
:1002000023F00045B8EB0200A94105D24046214643
:1002100090461C460B46024623F00040104347D050
:10022000270DC7F30A00C3F30A510290401A019048
:1002300040286BDAC3F3130040F4801B0098924609
:1002400020B10023D2EB030A63EB0B0B0198594654
:10025000C0F14002504600F09CF906460D4650465B
:100260005946019A00F0A4F910EB080061410024FE
:1002700087EA115284EAE7731A4340D0009A62B3C6
:10028000019A012A4FEA075215DC001B61EB0201BB
:100290004FF0004202EA0752CDE90042001C41F54E
:1002A000801132462B4600F0DBF903B000F045B870
:1002B00040462146F9E7001B61EB0201001C41F5B5
:1002C000801300185B412018A2F5001747EB0301CB
:1002D00040EAD570B6196D4111E06D084FEA360657
:1002E00045EAC0754FEA0752001B61EB0201001C92
:1002F00041F5801149084FEA30000019514132465A
:100300002B4603B000F01CB800F09BB90098012206
:1003100040000023D0EB020263EBE073009821461B
:100320004FEAE074B8EB000061EB0401E9E783F009
:1003300000435BE781F0004158E730BCBDE8C08F67
:1003400030BCBDE8C04FFFF7DFBF2DE9FE4F81EAAB
:10035000030404F0004421F0004100944FF0000B2E
:1003600023F0004350EA01045ED052EA03045BD05C
:10037000C3F30A54C1F30A552C44A4F2F334019494
:10038000A0FB0254C1F3130141F48011C3F3130322
:1003900043F4801301FB024400FB034E840A970AD6
:1003A00044EA815447EA8357A4FB076802958D0A03
:1003B00005FB07854FEA932C04FB0C542705029D8F
:1003C0004FEA065847EA1637B5EB08056EEB070CFF
:1003D000870E920E47EA811742EA8312A7FB0201B9
:1003E000B6EB0B0164EB00042B0D43EA0C335E18F3
:1003F00044EB1C50DA465146E7FB0201C5F31304F7
:100400004FEA0B3343EA14534FEA0432019C43EAA8
:100410000603A4F10C040294009CCDE900B400F0A2
:100420001FF903B000F003B800200146F9E730BC23
:10043000BDE8C08F2DE9F04D81EA030404F0004BC4
:1004400021F0004514464FF0000A23F0004150EA25
:10045000050220D054EA01021DD0C5F30A57024616
:10046000C5F31303C1F31300C1F30A5640F480151A
:1004700043F48013A7EB0608101BD64608F2FD389C
:1004800073EB050002D308F1010801E092185B410B
:10049000B8F1000F03DA00200146BDE8F08D00201E
:1004A0004FF48011064684460EE0171B73EB0507D8
:1004B00005D3121B63EB050306434CEA010C490804
:1004C0004FEA300092185B4150EA0107EDD152EA41
:1004D000030012D082EA040083EA0501084305D034
:1004E000101BAB4106D20122002306E000224FF090
:1004F000004302E06FF0010253101AEB06004CEBD0
:10050000085110EB0A0041EB0B01BDE8F04D00F083
:1005100098B80EB5C10F80EAE0700844CA07002100
:1005200040F233438DE80E000A460B4600F098F87F
:1005300003B000BD00F0004230F000400AD0C10D11
:1005400001F56071C0F3160042EA0151C20840078C
:100550001143704700200146704701F0004330B45A
:1005600021F0004150EA010206D00A0DA2F56072A6
:10057000C1F31301002A02DC30BC00207047440F95
:1005800044EAC104C100E01830BC00EBC25000F0E6
:1005900021B8202A04DB203A00FA02F1002070473B
:1005A0009140C2F1200320FA03F3194390407047B1
:1005B000202A06DBCB17203A41FA02F043EAE07327
:1005C00006E041FA02F3D040C2F120029140084314
:1005D000194670470029A8BF7047401C490008BF52
:1005E00020F00100704710B4B0FA80FC00FA0CF063
:1005F00050EA010404BF10BC704749B1CCF120049B
:1006000021FA04F411FA0CF118BF01212143084327
:10061000A3EB0C01CB1D4FEA00614FEA102042BF53
:10062000002010BC704700EBC35010440029A4BF49
:1006300010BC7047401C490008BF20F0010010BCEE
:10064000704710B5141E73F1000408DA401C41F124
:10065000000192185B411A4301D120F0010010BD46
:100660002DE9F04D92469B4611B1B1FA81F202E0BC
:10067000B0FA80F220329046FFF78BFF04460F4617
:1006800040EA0A0041EA0B0153465A46084313D098
:10069000114653EA010019D0C8F14002504600F05B
:1006A00091F805460E46504659464246FFF771FFFF
:1006B000084305D0012004E020463946BDE8F08D0E
:1006C0000020054346EAE0762C4337430A98630549
:1006D000E40AA0EB08000022FD0A44EA47540A306D
:1006E00002D500200146E9E7010510196941DDE95D
:1006F000084500196941BDE8F04DA2E72DE9F04D2C
:1007000000231A461B1A8A4103DB00200146BDE87C
:10071000F08DC1F30A52C1F3130141F480154FF07B
:10072000000BD10702D100186D41521E002704466C
:1007300040F2FF11384601EB620A3E46804602460F
:1007400000204FF4801100F03DF8C2197141BB1830
:1007500046EB0100B4EB030C75EB000C04D3E41A78
:1007600065EB000517460E46241908F101006D419E
:1007700080463428E3DDF91946EB0600091BA84141
:1007800003D24FF0FF32134601E0002213461BEB69
:10079000070046EB0A51BDE8F04DFFF752BF0000DD
:1007A000064C074D06E0E06840F0010394E80700BE
:1007B00098471034AC42F6D3FFF7ECFC58580008C9
:1007C00078580008202A04DB203A21FA02F00021A0
:1007D000704721FA02F3D040C2F120029140084351
:1007E0001946704710B5024801F0F2F810BD00003C
:1007F000EC00002000B587B04D484E4908604FF42A
:100800008020486000214B488160C1600121016166
:100810000421416100210176012141760721C16156
:10082000002180F820108162C162012180F830101F
:100830000021416380F8381001F016FA18B15521F3
:100840003DA004F0F3F944480190062002900520F1
:1008500003907F200490042005900020069001A9B9
:10086000344800F049FE18B1622133A004F0DEF9EB
:100870003A4801900C20029001A92E4800F03CFE5D
:1008800018B16D212CA004F0D1F935480190122047
:10089000029001A9274800F02FFE18B1782126A068
:1008A00004F0C4F92F4801901820029001A92148B2
:1008B00000F022FE18B183211FA004F0B7F92A48E6
:1008C00001904FF48070029001A91A4800F014FEC4
:1008D00018B18E2118A004F0A9F9244801904FF412
:1008E0008370029001A9134800F006FE18B1992107
:1008F00011A004F09BF91E4801904FF486700290FD
:1009000001A90C4800F0F8FD18B1A4210AA004F0D8
:100910008DF90A2001F0EAFC7F21064800F090FDE5
:1009200007221449034801F027FB07B000BD00006F
:1009300000000450EC0000202E2E5C557365725CA4
:100940006273705C6273705F6164635C6273705F3A
:100950006164632E630000000008302E8000501D8B
:10096000400020190020903600106032040060081A
:100970000800900CDC00002070B50546AC6A606D84
:1009800000F0500098BB606D40F400706065206816
:10099000006800F00800A8B1206803F0B9FD10B3AA
:1009A0002068C06800F40050E8B9606D20F48070E1
:1009B0006065606D00F48050A8B9606D40F0010082
:1009C000606510E02068C06800F0020058B9606DF2
:1009D00020F480706065606D00F4805018B9606D1F
:1009E00040F001006065204600F0EFFF0CE0FFE7FB
:1009F000606D00F0100018B1204600F0E8FF03E041
:100A0000E06C416B2846884770BD70B50546AC6AFE
:100A1000606D40F040006065A06D40F00400A0658E
:100A2000204600F0D4FF70BD70B50446A56A284684
:100A300000F0CCFF70BD000008B500BF0A48806C14
:100A400040F00100084988640846806C00F001000D
:100A5000009000BF00BF002211460B2002F038F9C1
:100A60000B2002F025F908BD0010024070B50446C5
:100A7000206803F039FD0646206803F03AFD70B3A4
:100A80006EBB2068806800F00D0001280AD1206844
:100A90008168174A1140891C816000BF03202168CA
:100AA000086009E0606D40F010006065A06D40F0E6
:100AB0000100A065012070BD01F01EFD05460FE09C
:100AC00001F01AFD401B02280AD9606D40F01000A9
:100AD0006065A06D40F00100A0650120EBE705E036
:100AE0002068806800F001000028E9D10020E2E7DA
:100AF000C0FFFF7F70B50446206803F0FAFC88BB96
:100B0000206880681849084048B1606D40F01000C6
:100B10006065A06D40F00100A065012070BD2068F7
:100B200003F0CCFC01F0E8FC054615E0206803F07A
:100B3000E0FC10B9206803F0C1FC01F0DDFC401BB3
:100B4000022809D9606D40F010006065A06D40F08A
:100B50000100A0650120E1E72068006800F00100C5
:100B60000028E3D00020D9E73F00008010B5FFF750
:100B700063FFFFF73FFE10BD10B51548154908602B
:100B8000154848600021134881600121C16000219F
:100B9000016141618161C161016201F021FD18B112
:100BA00041210EA004F042F800210A4801F0AAFCFD
:100BB00018B1482109A004F039F80021054801F0D6
:100BC000D6FC18B14F2105A004F030F810BD00008C
:100BD0000054004098010020734E60402E2E5C555A
:100BE0007365725C6273705C6273705F656570726E
:100BF0006F6D5C6273705F617432346330322E6388
:100C00000000000010B5FFF7B1FFFFF7B5FF00F0DF
:100C100011FB00F00FF803F0CFFC04F001FA04F030
:100C200033FD0249024804F0E7FC10BD6C000020CF
:100C30006400002000B587B0142102A8FFF7CBFAAA
:100C400000BF4048C06C40F004003E49C8640846FC
:100C5000C06C00F00400019000BF00BF00BF084658
:100C6000C06C40F00100C8640846C06C00F0010090
:100C7000019000BF00BF4FF4F85002900020039095
:100C80000120049002A94FF0904001F043FB4FF483
:100C900000700290002003900120049002A92A48CD
:100CA00001F038FB4FF40071274801F017FC20B920
:100CB00026480078401C254908704FF480714FF099
:100CC000904001F00BFC20B920480078801C1F499F
:100CD00008704FF400714FF0904001F0FFFB20B915
:100CE0001A480078001D194908704FF480614FF0D0
:100CF000904001F0F3FB20B9144800780830134904
:100D000008704FF400614FF0904001F0E7FB20B90C
:100D10000E48007810300D4908704FF480514FF0A4
:100D2000904001F0DBFB20B90848007820300749EB
:100D300008700648007810B901200449087007B00F
:100D400000BD0000001002400008004844000020E0
:100D500000BFFEE770B52DED108B00249FEDD00A8B
:100D6000B0EE408A9FEDCE0AF0EE408A9FEDCC0AAD
:100D7000B0EE40FACB480078A8B900BF11E00020DF
:100D8000C94921F81400C94830F81400C84921F8AD
:100D90001400C64830F81400C64921F81400601C3D
:100DA000C4B2072CEBDB002427E0BF4830F8140066
:100DB000BE4931F814100844BB4921F81400BC485E
:100DC00030F81400B94931F81410884205DCB748EE
:100DD00030F81400B64921F81400B64830F8140071
:100DE000B24931F81410884205DBB04830F81400DD
:100DF000B04921F81400601CC4B2072CD5DBA94807
:100E00000078401CA7490870084600780A287CD161
:100E100000200870002416E0A64830F81400A44909
:100E200031F814100844A04931F81410081A9E49EA
:100E300021F81400084630F81400C0109E4921F82B
:100E40001400601CC4B2092CE6DB9B48008800EE4D
:100E5000100AB8EE400ADFED990A20EE200ADFED15
:100E6000980A80EE201AB0EE418A9FED960A28EE8D
:100E7000000ADFED950A20EE200ABCEEC00A10EE53
:100E8000100A9249088001241FE08B4830F81400B2
:100E900000EE100AB8EE400ADFED8D0A20EE200ABF
:100EA000B0EE408A9FED850A28EE000ADFED840A45
:100EB00080EE201ABCEEC10A10EE100A81B2601E4C
:100EC000844A22F81010601CC4B2052CDDDB7A487D
:100ED0004089642809DD78484089643800EE100AAA
:100EE000B8EEC00AF0EE408A03E09FED6D0AF0EE26
:100EF000408A7148808996280BDD6F488089963832
:100F000000EE100AB8EEC00A00E0C6E0B0EE40FA0B
:100F100003E09FED630AB0EE40FA68EEA80A6E485F
:100F2000008800EE100AB8EE400A80EE801A6B4886
:100F300080ED001A6FEE0F0A6748008800EE100A75
:100F4000B8EE400A80EE801A654880ED001A90EDF8
:100F5000000A6248D0ED000AB4EEE00AF1EE10FAA1
:100F60005DD290ED000AB5EEC00AF1EE10FA56DD42
:100F70005B4890ED000A5948D0ED000A80EE201A37
:100F800011EE105A2846FFF7D5FA41EC1D0BB0EED2
:100F90004D0AF0EE6D0A03F067FEB0EE40CAF0EEC7
:100FA00060CA9FED500B53EC102B51EC1C0BFFF75C
:100FB000C1F941EC1A0B4A4890ED000A4748D0EDC0
:100FC000000A80EE201A11EE106A3046FFF7B2FADE
:100FD00041EC1E0BB0EE4E0AF0EE6E0A03F044FE3A
:100FE000B0EE40DAF0EE60DA9FED3E0B53EC102BE2
:100FF00051EC1D0BFFF7FAF841EC1C0BFFF7ADFAB3
:101000000546FFF797FA41EC1B0B53EC1A2BFFF741
:1010100011FA41EC190BFFF7A0FA34490860304887
:1010200090ED000A2D48D0ED000AB4EEE00AF1EE92
:1010300010FA04DD9FED2E0A2C4880ED000A2848A6
:1010400090ED000A2548D0ED000AB4EE600AF1EEFA
:1010500010FA0BD190ED000AB5EEC00AF1EE10FACD
:1010600004D1B7EE000A214880ED000A1F4890ED38
:10107000000ADFED1F0AB4EEE00AF1EE10FA03DD1C
:101080009FED1B0A80ED000A184890ED000AF2EE71
:10109000040A20EE200A80ED000A00F02BB870BD93
:1010A0000000000030000020B6000020DC0000201E
:1010B00092000020A4000020780000205C8F5240A5
:1010C00000008045CD4CBA4248E1EA3F20000020B4
:1010D0000000A442860000203A00002024000020E6
:1010E00028000020000000000000F03F2C0000203D
:1010F0000AD71F41BDEC088BBDEC08CBFFF7CFBF73
:1011000010B5024800F09EFF10BD00005001002005
:1011100030B590F8444004F01C050124AC40056C47
:101120006C60046863608468102C04D10468A26059
:101130000468E16003E00468A1600468E26030BD17
:1011400000B587B0142102A8FFF745F800BF0F488B
:10115000C06C40F004000D49C8640846C06C00F043
:101160000400019000BF00BF081502900120039009
:1011700004900220059002A9054801F0CBF8012255
:101180009102034801F0B2F907B000BD001002401F
:101190000008004870B52DED068B00F0D9F800F07E
:1011A00075F8CC2000F0ECF8442000F0E9F800F0ED
:1011B000CFF800F06BF8CC2000F0E2F8BE2000F091
:1011C000DFF800F0B3F8064600F0B0F80546280254
:1011D00004B23443002C12DAE043401CFFF799F9C3
:1011E00041EC1A0B9FED110B53EC102BFFF7ADF8F0
:1011F00041EC190BFFF7B1F908EE100A10E0204698
:10120000FFF787F941EC1A0B9FED080B53EC102BFD
:10121000FFF79BF841EC190BFFF79FF908EE100A56
:10122000B0EE480ABDEC068B70BD00000000000067
:101230000000B03F10B5FFF783FF00F089F800F021
:1012400025F810BD00B585B04FF4806000900020F7
:1012500001900290022003906946024801F05AF87A
:1012600005B000BD0008004800B585B04FF48060AF
:1012700000900120019002900220039069460248EC
:1012800001F048F805B000BD0008004810B5002482
:10129000FFF7D8FF04E0601CC4B2012003F036FD64
:1012A0004FF480610F4801F019F908B1642CF2DBAA
:1012B000642C01DB012010BD002404E0601CC4B2DA
:1012C000012003F023FD4FF48061064801F006F988
:1012D00008B9F02CF2DBF02C01DB0120EBE7002059
:1012E000E9E700000008004810B5FFF7BDFF002245
:1012F0004FF480610C4801F0F9F80A2003F006FD74
:10130000FFF7A0FF022003F001FD4FF480610648C3
:1013100001F0E4F8012801D1012400E000242D208F
:1013200003F0F4FC204610BD0008004870B500260C
:10133000002408E0FFF7D8FF054605FA04F0304323
:10134000C6B2601CC4B2082CF4DB304670BD00008D
:1013500010B5FFF789FF00224FF48061074801F0C4
:10136000C5F840F2EE2003F0D1FC012291020348BF
:1013700001F0BCF80F2003F0C9FC10BD00080048C4
:1013800070B50446FFF770FF002528E004F0010661
:1013900064108EB100224FF48061124801F0A6F86B
:1013A000082003F0B3FC012291020E4801F09EF8E0
:1013B0003A2003F0ABFC10E000224FF480610948B2
:1013C00001F094F8462003F0A1FC012291020548A7
:1013D00001F08CF8052003F099FC681CC5B2082DBB
:1013E000D4DB70BD000800487047000010B52DED3B
:1013F000028B9FED100AB0EE408A0F480078401C27
:101400000D490870FFF7C6FEB0EE408A0A48007822
:101410000A280CDB0A2008490870B2EE040A28EEFC
:10142000000ABCEEC00A10EE100A04490880BDECA8
:10143000028B10BD00000000420000204000002090
:10144000F8B504460D460020009000BF94F8500007
:10145000012801D10220F8BD012084F8500000BF0E
:101460002046FFF703FB06468EBB606D20F48850D4
:1014700040F002006065206881681B4A114005F059
:10148000804242F000421143816000BF13E00098A7
:10149000401C00900098B0F5912F0CD3606D20F0A7
:1014A000020040F01000606500BF002084F850008A
:1014B00000BF0120CFE720688168C90F0029E6D16D
:1014C000606D20F0020040F00100606504E0FFE77D
:1014D000606D40F01000606500BF002084F850008F
:1014E00000BF3046B7E70000C0FFFF3F70477047BE
:1014F00070477047704700002DE9F84F05460C46CD
:101500004FF0000A00200090FE49E068884200D0B9
:1015100000E000BF00BF95F85000012802D1022072
:1015200000F050BA012085F8500000BF286802F092
:10153000EAFF002872D1606805281AD8606802287E
:1015400006D0032807D0042808D005280DD108E0CC
:101550000C2060600CE01220606009E018206060E0
:1015600006E04FF48070606002E00620606000BF1B
:1015700000BF2968D4E9002001F1300CC0F3012B31
:101580000CEB8B03D3F800C000F01F0E4FF01F0BC5
:101590000BFA0EFB2CEA0B0C00F01F0BC2F3846E4F
:1015A0000EFA0BFE4CEA0E0CC3F800C000BF286810
:1015B00002F0A9FF8146286802F091FF8046B9F148
:1015C000000F2AD1B8F1000FFBD1A268216828686A
:1015D00002F0B0FF60692968C968C1F3C101490020
:1015E00000FA01F72069042819D0286822682169C7
:1015F00000F1600C0CEB8103D3F800C0DFF808B3F6
:101600000CEA0B0C02F0F84B4BF0004B4BEA070BCB
:101610004CEA0B0CC3F800C000BFA8E0B9E1002100
:10162000286802F053FFC0F3120030B90021286887
:1016300002F04CFFC0F3846007E00021286802F04C
:1016400045FF90FAA0F0B0FA80F02168C1F31201D2
:1016500019B92168C1F3846104E0216891FAA1F10C
:10166000B1FA81F1884204D100221146286802F0C3
:101670007BFF0121286802F029FFC0F3120030B976
:101680000121286802F022FFC0F3846007E00121F5
:10169000286802F01BFF90FAA0F0B0FA80F02168F1
:1016A000C1F3120119B92168C1F3846104E0216812
:1016B00091FAA1F1B1FA81F1884204D1002201210D
:1016C000286802F051FF0221286802F0FFFEC0F3F3
:1016D000120030B90221286802F0F8FEC0F38460DD
:1016E00007E00221286802F0F1FE90FAA0F0B0FABB
:1016F00080F02168C1F3120119B92168C1F3846136
:1017000004E0216891FAA1F1B1FA81F1884204D193
:1017100000220221286802F027FF0321286802F036
:10172000D5FEC0F3120030B90321286802F0CEFEC6
:10173000C0F3846007E00321286802F0C7FE90FA36
:10174000A0F0B0FA80F02168C1F3120119B9216844
:10175000C1F3846104E0216891FAA1F1B1FA81F149
:10176000884204D100220321286802F0FDFE286887
:1017700002F0BFFE002872D12868E2682168D0F824
:10178000B030C1F3120C23EA0C0302F0180BDFF89F
:101790007CC12CFA0BFC0CEA010C43EA0C03C0F8E8
:1017A000B03000BF5749E068884258D12368C3F37E
:1017B00012031BB92368C3F3846304E0236893FA1C
:1017C000A3F3B3FA83F35B1C03F01F03092B3ED88A
:1017D0002368C3F312031BB92368C3F3846304E0D3
:1017E000236893FAA3F3B3FA83F35B1C03F01F039C
:1017F0004FF0010C0CFA03FC2368C3F312031BB96E
:101800002368C3F3846304E0236893FAA3F3B3FA71
:1018100083F35B1C03F01F034CEA836C2368C3F360
:1018200012031BB92368C3F3846304E0236893FAAB
:10183000A3F3B3FA83F35B1C03F01F0303EB43032F
:101840004FF0000B4BEA03534CEA03033FE02368DD
:10185000C3F3120323B92368C3F3846305E03BE0B9
:10186000236893FAA3F3B3FA83F35B1C03F01F031B
:101870004FF0010C0CFA03FC2368C3F312031BB9ED
:101880002368C3F3846304E0236893FAA3F3B3FAF1
:1018900083F35B1C03F01F034CEA836C2368C3F3E0
:1018A00012031BB92368C3F3846304E0236893FA2B
:1018B000A3F3B3FA83F35B1C03F01F030A3B03EBB0
:1018C00043034FF0007B4BEA03534CEA03031946F2
:1018D000A268286802F02EFE0D492068084070B307
:1018E00000BF0C48806800F0E07600BF0A4920681D
:1018F00088422CD106F4000048BB08492868884279
:101900004DD10DE000007F4000F0FF03FFFF070016
:101910000000088000030450000052C7000004507B
:1019200046F40001214802F019FE214800682149CF
:10193000B0FBF1F000EB40008000009003E016E007
:101940000098401E009000980028F9D127E01A491D
:10195000206888420CD106F0807048B91749286881
:1019600088421CD146F08071104802F0F7FD16E065
:1019700013492068884212D106F4800078B90F49D3
:10198000286888420BD146F48001084802F0E6FD41
:1019900005E0686D40F0200068654FF0010A00BF67
:1019A000002085F8500000BF5046B9E50003045000
:1019B0000C000020400D0300000084CB0000045008
:1019C0000100008018BCBDE8E08F70477047704789
:1019D0002DE9F04704464FF0000A206805682068AA
:1019E000466805F00200022811D106F00200022824
:1019F0000DD1606D00F0100018B9606D40F400600A
:101A000060652046FFF772FD02202168086005F03E
:101A10000400042803D106F00400042807D005F0D0
:101A20000800082841D106F0080008283DD1606D63
:101A300000F0100018B9606D40F400706065206817
:101A400002F066FD10B32068C76807F40050B0F5D7
:101A5000005F24D02068006800F0080008281ED12C
:101A6000206802F050FD90B92068406820F00C001A
:101A700021684860606D20F480706065606D00F4DE
:101A8000805018B9606D40F00100606507E0606D3E
:101A900040F010006065A06D40F00100A065204698
:101AA000FFF793FF0C202168086005F02000202834
:101AB00003D106F02000202807D005F04000402880
:101AC00055D106F04000402851D1606D00F0100063
:101AD00018B9606D40F4005060652068C16C01F079
:101AE000C00109B9012100E00021894600BF20683A
:101AF00002F00EFD80462068C768B9F1000F08D1DA
:101B000007F0007020BBB8F1000F2AD007F4005096
:101B1000F0B92068006800F04000402821D107F4A7
:101B20000010A8B9206802F0DAFC90B9206840687B
:101B300020F0600021684860606D20F4805060658E
:101B4000606D00F4807018B9606D40F00100606550
:101B500007E0606D40F010006065A06D40F001008E
:101B6000A0652046FFF7C3FC60202168086005F0EF
:101B7000800080280DD106F08000802809D1606D9A
:101B800040F480306065204600F06CF980202168C8
:101B9000086005F48070B0F5807F0FD106F4807086
:101BA000B0F5807F0AD1606D40F40030606520465A
:101BB000FFF79FFC4FF480702168086005F4007007
:101BC000B0F5007F0FD106F40070B0F5007F0AD1A8
:101BD000606D40F4802060652046FFF78BFC4FF479
:101BE00000702168086005F01000102820D106F070
:101BF000100010281CD1606B10B94FF0010A06E0EC
:101C00002068C06800F0010008B14FF0010ABAF185
:101C1000010F0AD1606D40F480606065A06D40F0F6
:101C20000200A0652046FFF7D2FE10202168086060
:101C300005F48060B0F5806F13D106F48060B0F5D4
:101C4000806F0ED1606D40F480406065A06D40F003
:101C50000800A0654FF48060216808602046FFF707
:101C600047FCBDE8F08700002DE9F84304464FF03B
:101C700000090020009014B90120BDE8F883206914
:101C800020B12020005D012800D100BF606D30B977
:101C9000204600F0E9F80020A06584F85000206894
:101CA0008168C1F3407131B120688168664A114092
:101CB000816000BF00BF206802F020FCA0B920684E
:101CC0008168624A114041F08051816000BF6048E4
:101CD00000686049B0FBF1F0009002E00098401EFF
:101CE000009000980028F9D1206802F007FC48B95C
:101CF000606D40F010006065A06D40F00100A065CF
:101D00004FF00109206802F0FEFB0646606D00F00E
:101D1000100000287ED1002EFCD1606D20F4807070
:101D200040F002006065206802F0E3FB68B94A48B1
:101D300002F0DFFB48B960684849896821F47C11EA
:101D40000143464A916000BF00BF607E616B41EA7B
:101D50004030E1680843A16808432021095D40EA5A
:101D600001452020005D012803D1A08C401E45EADA
:101D70004045A06A28B1208D00F47070E16A0843E4
:101D800005432068C0683649084028432168C86078
:101D9000206802F0B8FB8046206802F0A0FB0746EE
:101DA000B8F1000F2CD127BB207E002141EA803101
:101DB00094F8300041EA40052068C06844F202010E
:101DC000884328432168C86094F83800012811D15D
:101DD000E06B40F00101206C0843616C0843A16C8A
:101DE00008432168096940F2FC7291430843216865
:101DF000086105E02068006920F0010021680861A1
:101E0000206901280BD12068006B20F00F00E169E8
:101E1000491E00E010E008432168086305E02068DF
:101E2000006B20F00F0021680863606D20F0020055
:101E300040F00100606505E0606D40F010006065F5
:101E40004FF00109484618E7C0FFFF5FC0FFFF7F62
:101E50000C000020400D030000000450000304505B
:101E600007C0F0FF7047000010B586B00446354942
:101E70002068884263D100BF3348C06C40F40050F2
:101E80003149C8640846C06C00F40050009000BF9F
:101E900000BF00BF0846C06C40F00100C86408469F
:101EA000C06C00F00100009000BF00BF00BF0846FA
:101EB000C06C40F00400C8640846C06C00F0040028
:101EC000009000BF00BF162001900B200290002060
:101ED000039001A91D4800F01DFAC62001900B20B7
:101EE00002900020039001A94FF0904000F012FAF8
:101EF0001748184908600020486000211548816093
:101F0000C160802101614900416189008161202116
:101F1000C1610902016200F015F918B1DA210EA0C1
:101F200002F084FE00BF0B48E064846200BF002220
:101F30001146122000F0CCFE122000F0B9FE06B0CF
:101F400010BD0000000004500010024000080048CE
:101F500008000240500100202E2E5C557365725C13
:101F60006273705C6273705F6164635C6273705F04
:101F70006164632E630000002DE9F04104460E46C3
:101F80001746206802F0BFFA002852D100BF94F82B
:101F90005000012802D10220BDE8F081012084F820
:101FA000500000BF2046FEF7A5FD0546002D3BD1A1
:101FB000606D40F60161884340F480706065606D3B
:101FC00000F4805020B1A06D20F00600A06501E073
:101FD0000020A0651848E16CC8621848E16C0863ED
:101FE0001748E16C48631C202168086000BF00208E
:101FF00084F8500000BF2068406840F0100021685D
:1020000048602068C06840F001002168C86022680C
:1020100002F140013B463246E06C00F019F90546FA
:10202000206802F07FFA05E000BF002084F850002D
:1020300000E002252846AFE779090008290A0008D0
:102040000B0A000870B50446206C05682068066815
:1020500094F8440000F01C01042088402840E0B1BE
:1020600006F00400C8B12068006800F0200028B91C
:102070002068006820F004002168086094F844009B
:1020800000F01C0104208840216C4860206B00286F
:1020900056D02046216B884752E094F8440000F067
:1020A0001C0102208840284018B306F0020000B34B
:1020B0002068006800F0200040B92068006820F027
:1020C0000A0021680860012084F8250094F8440083
:1020D00000F01C0102208840216C486000BF0020F5
:1020E00084F8240000BFE06A50B32046E16A8847C4
:1020F00026E094F8440000F01C01082088402840A5
:10210000F0B106F00800D8B12068006820F00E0099
:102110002168086094F8440000F01C010120884008
:10212000216C48600120E06384F8250000BF002096
:1021300084F8240000BF606B10B12046616B8847B3
:1021400070BD000010B5014609B9012010BD3E4B1D
:10215000086898420BD23D4B0868C01A1423B0FBA4
:10216000F3F0800048643948083808640AE0364BC8
:102170000868C01A1423B0FBF3F0800048643248AA
:1021800008380864022081F825000868026847F6CC
:10219000F0708243D1E9020318430B6918434B697D
:1021A00018438B691843CB6918430B6A18430243E1
:1021B000086802608868B0F5804F3AD0234B083B2E
:1021C000086C98421BD1D0F8A80091F8443003F075
:1021D0001C040F23A34098431C4BA033186091F8B4
:1021E000443003F01C0348689840184B083BD3F870
:1021F000A8301843154B083BC3F8A80019E0124853
:10220000A030006891F8443003F01C040F23A34071
:1022100098430D4BA033186091F8443003F01C0331
:1022200048689840084BA0331B681843064BA033FE
:1022300018600020C863012081F82500002081F883
:10224000240000BF82E700000804024008000240AA
:102250002DE9F04104460D4616461F464FF0000892
:1022600000BF94F82400012802D10220BDE8F081CB
:10227000012084F8240000BF94F8250001282CD107
:10228000022084F825000020E0632068006820F028
:102290000100216808603B46324629462046FEF789
:1022A00037FF206B30B12068006840F00E002168D5
:1022B00008600BE02068006820F0040021680860D6
:1022C0002068006840F00A00216808602068006803
:1022D00040F001002168086006E000BF002084F89B
:1022E000240000BF4FF002084046BFE770B5044627
:1022F00000F002F906462546681C10B10448006843
:10230000054400BF00F0F8F8801BA842FAD370BD66
:102310000800002078B503460022CBE00126964055
:102320000D6805EA0604002C72D04D68012D08D016
:102330004D68022D05D04D68112D02D04D68122D2B
:1023400013D1986856000325B540A8435600CD68C0
:10235000B54028439860586801259540A8430D79F9
:10236000C5F30015954028435860D86856000325EA
:10237000B540A84356008D68B5402843D8604D68E5
:10238000022D02D04D68122D13D1D60803F120057D
:1023900055F826005507EE0E0F25B540A843560701
:1023A000F60E0D69B5402843D60803F1200545F81F
:1023B0002600186856000325B540A8430D7905F09E
:1023C00003055600B540284318604D6805F0805558
:1023D000B5F1805F6DD100BF394D2D6E45F001051F
:1023E000374E356635462D6E05F00105009500BF68
:1023F00000BF4FEAB635960855F8260095072E0F10
:102400000F25B540A843B3F1904F02D1002515E048
:102410004FE02C4DAB4201D101250FE02A4DAB42DC
:1024200001D102250AE0294DAB4201D1032505E087
:10243000274DAB4201D1042500E007259607360F52
:10244000B5402843234D960845F82600224D2868BC
:10245000A0434D6805F48035B5F5803F00D1204399
:102460001D4D28602D1D2868A0434D6805F40035DA
:10247000B5F5003F00D12043174D2D1D28602D1DBF
:102480002868A0434D6805F48015B5F5801F00D17C
:102490002043114D083528602D1D2868A0434D6844
:1024A00005F40015B5F5001F00D120430A4D0C3589
:1024B0002860521C0D68D540002D7FF42FAF78BDE9
:1024C000001002400004004800080048000C0048CA
:1024D0000010004808000140000401400246136952
:1024E0000B400BB1012000E0002070470AB1816170
:1024F00000E08162704700000148006870470000FA
:1025000000000020024692F8410020282DD100BF93
:1025100092F84000012801D102207047012082F882
:10252000400000BF242082F841001068006820F0BD
:102530000100136818601068006820F48050136868
:102540001860106800680843136818601068006815
:1025500040F0010013681860202082F8410000BF9D
:10256000002082F8400000BFD7E70220D5E710B571
:1025700002460B4692F8410020282AD100BF92F86B
:102580004000012801D1022010BD012082F8400046
:1025900000BF242082F841001068006820F001008C
:1025A000146820601068016821F4706141EA032119
:1025B000106801601068006840F001001468206035
:1025C000202082F8410000BF002082F8400000BFB8
:1025D000DAE70220D8E7014691F841007047000091
:1025E00010B504460CB9012010BD94F8410028B97B
:1025F000002084F84000204600F0B8FA242084F837
:1026000041002068006820F00100216808606068CF
:1026100020F07060216808612068806820F4004024
:1026200021688860E068012805D1A06840F4004076
:102630002168886004E0A06840F404402168886054
:10264000E068022802D18002216848602068406862
:1026500013490843216848602068C06820F400409E
:102660002168C860D4E904010843A16940EA012057
:102670002168C860D4E90701084321680860206820
:10268000006840F00100216808600020606420209C
:1026900084F841000020206384F8420000BFA3E7D3
:1026A000008000022DE9FC4704460F4690461E4676
:1026B0000020019094F84100202872D120688069A0
:1026C000C0F3C03010B1022000F0A9B800BF94F8E8
:1026D0004000012801D10220F6E7012084F84000E3
:1026E00000BF242084F841000020606400BFE0683F
:1026F000012806D1C7F3090040F4005040F00070F3
:1027000003E0C7F3090040F4205021684860FFF758
:10271000F3FE054620688069C0F34019206880698F
:10272000C0F3001A1DE0701C98B1FFF7E5FE401BD6
:10273000B04200D86EB9202084F84100606C40F0AF
:102740002000606400BF002084F8400000BF01202A
:10275000BAE720688069C0F3401920688069C0F337
:10276000001AB9F1000F02D1BAF1000FDBD02068D6
:102770008069C0F30010A8B933460022202120460A
:10278000009501F0ADFD08B101209DE720202168F2
:10279000C86184F8410000BF002084F8400000BFF9
:1027A00092E73AE03346002220212046009501F0CE
:1027B00097FD08B1012087E710202168C86120201B
:1027C0002168C8610198404512D12068406840F4F2
:1027D0008040216848603346002220212046009531
:1027E00001F07EFD08B101206EE720202168C8615C
:1027F0000198401C019001984045FFF478AF2020DB
:1028000084F84100606C40F02000606400BF00204C
:1028100084F8400000BF012056E7022054E70CBCBA
:10282000BDE8F0872DE9FC5F0446894692469B4649
:10283000DDE90C780E9E94F8410020287ED117B176
:10284000B8F1000F05D14FF400706064012000F072
:10285000B9B800BF94F84000012801D10220F6E782
:10286000012084F8400000BFFFF746FE054619230B
:102870000122D1032046009501F032FD08B101206C
:10288000E5E7222084F84100402084F8420000203F
:1028900060646762A4F82A8060635B4652464946DA
:1028A0002046CDE9006501F085FC30B100BF002075
:1028B00084F8400000BF0120C9E7608DFF280CD9D3
:1028C000FF2020853D48009094F828204FF0807329
:1028D0004946204601F0EAFC0BE0608D2085374830
:1028E000009094F828204FF000734946204601F0EC
:1028F000DDFC00BF3346002204212046009501F094
:10290000EFFC08B10120A2E72068406A616A087004
:10291000606A401C6062208D401E2085608D401ED4
:102920006085608D48B3208D38BB334600228021FE
:102930002046009501F0D4FC18B100E03CE00120F5
:1029400085E7608DFF280CD9FF20208500200090AE
:1029500094F828204FF080734946204601F0A6FCE9
:102960000BE0608D20850020009094F828204FF027
:1029700000734946204601F099FC608D0028B9D1CA
:102980002A463146204601F0DAFC08B101205EE714
:1029900020202168C86120684068094908402168F2
:1029A0004860202084F84100002084F8420000BFE5
:1029B00084F8400000BF4AE7022048E70024008076
:1029C00000E800FE3CBCBDE8C09F00002DE9FC5FB4
:1029D0000446894692469B46DDE90C780E9E94F8A3
:1029E000410020287DD117B1B8F1000F05D14FF477
:1029F00000706064012000F0B5B800BF94F840009A
:102A0000012801D10220F6E7012084F8400000BF30
:102A1000FFF772FD054619230122D10320460095D8
:102A200001F05EFC08B10120E5E7212084F84100B7
:102A3000402084F84200002060646762A4F82A8085
:102A400060635B46524649462046CDE9006501F089
:102A5000EFFB30B100BF002084F8400000BF012030
:102A6000C9E7608DFF280CD9FF2020850020009049
:102A700094F828204FF080734946204601F016FC58
:102A80000BE0608D20850020009094F828204FF006
:102A900000734946204601F009FC00BF2A46314632
:102AA000204601F077FC08B10120A4E7606A0078B5
:102AB00021688862606A401C6062608D401E60858B
:102AC000208D401E2085608D40B3208D30BB334665
:102AD000002280212046009501F002FC10B1012067
:102AE00089E73AE0608DFF280CD9FF20208500207F
:102AF000009094F828204FF080734946204601F05A
:102B0000D5FB0BE0608D20850020009094F82820F4
:102B10004FF000734946204601F0C8FB608D002845
:102B2000BCD12A463146204601F009FC08B10120FB
:102B300061E720202168C861206840680849084092
:102B400021684860202084F84100002084F8420079
:102B500000BF84F8400000BF4DE702204BE70000B3
:102B600000E800FE3CBCBDE8C09F000010B586B088
:102B7000044618492068884229D100BF1648C06C15
:102B800040F002001449C8640846C06C00F002001E
:102B9000009000BF00BFC0200190122002900120D1
:102BA0000390032004900420059001A90B48FFF72F
:102BB000B1FB00BF0848806D40F4001006498865ED
:102BC0000846806D00F40010009000BF00BF06B002
:102BD00010BD0000005400400010024000040048F6
:102BE00003480068034909680844014908607047C0
:102BF000000000200800002010B50024032000F091
:102C0000A9F8002000F008F808B1012401E000F064
:102C10002FF8204610BD000070B50446002511486D
:102C20000068D8B10F4800684FF47A71B1FBF0F03A
:102C30000D490968B1FBF0F6304601F0FEF958B9CC
:102C4000102C07D200222146501E00F041F8074800
:102C5000046004E0012502E0012500E0012528468A
:102C600070BD0000080000200C00002004000020BF
:102C700008B500BF0D48006E40F001000B49086622
:102C80000846006E00F00100009000BF00BF00BFCA
:102C90000846806D40F0805088650846806D00F0E1
:102CA0008050009000BF00BF08BD0000001002402F
:102CB00001460846002809DB00F01F0301229A4064
:102CC00043099B0003F1E023C3F8002100BF7047D4
:102CD0002DE9F05F80460D461646002701F0A8FF5B
:102CE000074639462A46334601F00700C0F1070A75
:102CF000BAF1040F02D94FF0040A01E0C0F1070A4B
:102D0000D14600F1040ABAF1070F02D24FF0000ACF
:102D100001E0A0F1030AD4464FF0010A0AFA09FAC9
:102D2000AAF1010A0AEA020A0AFA0CFA4FF0010BA8
:102D30000BFA0CFBABF1010B0BEA030B4AEA0B0499
:102D40002146404601F07CFF00F000B830BCBDE8F1
:102D5000C09F000000BF00F00702064B19684FF645
:102D6000FF031940044B0B4343EA0221014B196056
:102D700000BF70470CED00E00000FA050246B2F516
:102D8000007F2AD11D48006800F4C060B0F5007FC4
:102D900032D01A48006820F4C06040F40070174B2D
:102DA00018601748006832235843164BB0FBF3F005
:102DB000411C00E0491E1148406900F48060B0F5F4
:102DC000806F01D10029F5D10C48406900F4806082
:102DD000B0F5806F10D1032070470848006800F4F8
:102DE000C060B0F5806F07D00448006820F4C06070
:102DF00040F48060014B18600020EDE70070004057
:102E00000C00002040420F000248006800F4C0603F
:102E100070470000007000402DE9F843044600258B
:102E2000A846208800F40060B0F5006F26D1606CE1
:102E300068B1B0F5000F03D0B0F5400F0ED10CE033
:102E4000E848C06840F48030E649C86008E00021E6
:102E5000201D01F0E5FB054602E001E0012500BF71
:102E600000BF55B9DF488830006820F44000616C2D
:102E70000843DC49C1F8880000E0A846206800F457
:102E80000030B0F5003F75D14FF00009D548806D96
:102E9000012121EA107078B100BFD248806D40F066
:102EA0008050D04988650846806D00F080500090C1
:102EB00000BF00BF4FF00109CB48006840F48070AC
:102EC000C9490860FFF718FB074606E0FFF714FB47
:102ED000C01B022801D9032505E0C348006800F49F
:102EE00080700028F2D000BF7DBBBE4890300068E3
:102EF00000F44076CEB1E06DB04216D0B9489030C3
:102F0000006820F44076B748D0F8900040F4803054
:102F1000B449C1F890000846D0F8900020F4803001
:102F2000C1F890000846C0F8906006F00100A8B112
:102F3000FFF7E2FA074609E0FFF7DEFAC01B41F2AD
:102F40008831884202D9032507E016E0A548903071
:102F5000006800F002000028EED000BF5DB9A14873
:102F60009030006820F44070E16D08439D49C1F83D
:102F7000900003E00CE0A84600E0A846B9F1010F7C
:102F800005D19848806D20F080509649886500BF33
:102F9000207800F0010048B192488830006820F0A5
:102FA0000300216A08438F49C1F88800207800F0A7
:102FB0000200022809D18B488830006820F00C00FC
:102FC000616A08438749C1F88800207800F004004E
:102FD000042809D183488830006820F03000A16AB5
:102FE00008438049C1F88800207800F0200020289C
:102FF00009D17C488830006820F44060E16A0843C9
:103000007849C1F88800208800F40070B0F5007F8E
:1030100009D174488830006820F44020E16B0843EF
:103020007049C1F88800208800F48060B0F5806F96
:1030300009D16C488830006820F44010216C0843A6
:103040006849C1F88800207800F04000402809D184
:1030500064488830006820F44050216B084361497F
:10306000C1F88800207800F08000802809D15D48F0
:103070008830006820F44040616B08435949C1F82A
:103080008800208800F48070B0F5807F09D1554811
:103090008830006820F44030A16B08435149C1F8E2
:1030A0008800208800F40050B0F5005F1FD14D4823
:1030B0008830006820F04060A16C0843494988319D
:1030C0000860A06CB0F1006F06D14648C06840F4BB
:1030D00080104449C8600AE0A06CB0F1806F06D14E
:1030E0000121201D01F09CFA054605B1A846206883
:1030F00000F40020B0F5002F1FD13A488830006856
:1031000020F04060E16C0843364988310860E06C8B
:10311000B0F1006F06D13348C06840F480103149E7
:10312000C8600AE0E06CB0F1806F06D10121201D7B
:1031300001F076FA054605B1A846206800F4802023
:10314000B0F5802F1FD127488830006820F04060FC
:10315000216D0843234988310860206DB0F1006F6C
:1031600006D12048C06840F480101E49C8600AE0BB
:10317000206DB0F1806F06D10121201D01F050FAC1
:10318000054605B1A846208800F48040B0F5804F80
:1031900014D114488830006820F04050616D084315
:1031A000104988310860606DB0F1805F06D102215E
:1031B000201D01F035FA054605B1A846208800F427
:1031C0000040B0F5004F09D106488830006820F073
:1031D0008040A16D08430349C1F888004046BDE81E
:1031E000F883000000100240007000402DE9F0411B
:1031F00004460D4614B90120BDE8F0815548006829
:1032000000F00700A8420ED25248006820F00700E4
:103210002843504908600846006800F00700A842AB
:1032200001D00120E8E7207800F00100002840D01C
:103230006068032806D14848006800F00070D8B9DB
:103240000120D9E76068022806D14348006800F4ED
:10325000003088B90120CFE7606830B93E48006887
:1032600000F0020040B90120C6E73B48006800F4C6
:10327000806008B90120BFE73748806820F003006C
:103280006168084334498860FFF736F9064608E06C
:10329000FFF732F9801B41F28831884201D90320BF
:1032A000AAE72D48806800F00C006168B0EB810F40
:1032B000EED1207800F00200022807D1264880686D
:1032C00020F0F000A1680843234988602148006885
:1032D00000F00700A8420ED91E48006820F0070041
:1032E00028431C4908600846006800F00700A8420F
:1032F00001D0012080E7207800F00400042807D1E5
:103300001548806820F4E060E1680843124988604D
:10331000207800F00800082808D10F48806820F4C1
:103320006050216940EAC1000B49886000F022F832
:1033300009498968C1F30311084A515C01F01F0172
:10334000C8400749086007480068FFF765FC074662
:10335000384651E700200240001002401058000893
:103360000C000020040000200148006870470000A5
:103370000C000020F0B500230020DFF8D4C0DCF8FA
:1033800008C00CF00C01DFF8C8C0DCF80CC00CF071
:10339000030719B10C291ED1012F1CD1DFF8B0C0D1
:1033A000DCF800C00CF0080CBCF1000F06D1DFF80F
:1033B000A0C0DCF894C0CCF3032305E0DFF890C094
:1033C000DCF800C0CCF30313DFF888C05CF82330CE
:1033D00041B9184606E0042901D11F4802E0082936
:1033E00000D11E480C2932D1DFF864C0DCF80CC0D3
:1033F0000CF00304012C09D0022C02D0032C04D1C0
:1034000001E0154A04E0154A02E000BF1A4600BF79
:1034100000BFDFF83CC0DCF80CC0CCF3021C0CF1A0
:103420000106DFF82CC0DCF80CC0CCF3062C0CFB3A
:1034300002FCBCFBF6F2DFF818C0DCF80CC0CCF3E1
:10344000416C0CF1010C4FEA4C05B2FBF5F0F0BDFC
:1034500000100240285800080024F40000127A00EE
:103460002DE9F843044614B90120BDE8F883F94872
:10347000806800F00C06F748C06800F00307207869
:1034800000F01000102877D11EB10C2E76D1012F3C
:1034900074D1F048006800F0020018B1A06908B9C2
:1034A0000120E2E7EB48216A006800F0080020B143
:1034B000E848006800F0F00005E0E6489430006855
:1034C00000F47060000981421FD9206A01F06CF994
:1034D00008B10120C9E700BFDE48006840F00800DD
:1034E000DC4908600846006820F0F000216A0843C3
:1034F000D849086000BF0846406820F47F40E16971
:1035000040EA0120D34948601FE000BFD14800686D
:1035100040F00800CF4908600846006820F0F0003D
:10352000216A0843CB49086000BF0846406820F480
:103530007F40E16940EA0120C64948602EB9206A0F
:1035400001F032F908B101208FE7FFF713FFC149FD
:103550008968C1F30311C04A515C01F01F01C840E2
:10356000BE490860BE480068FFF756FB8046B8F1C8
:10357000000F4ED0404678E74BE0FFE7A06980B3EC
:10358000B448006840F00100B2490860FEF7B4FF9B
:10359000054606E0FEF7B0FF401B022801D90320D4
:1035A00063E7AC48006800F002000028F2D000BFDA
:1035B000A848006840F00800A6490860084600686E
:1035C00020F0F000216A0843A249086000BF0846C5
:1035D000406820F47F40E16940EA01209D4948604D
:1035E00017E0FFE79B48006820F001009949086058
:1035F000FEF782FF054606E0FEF77EFF401B02282D
:1036000001D9032031E79348006800F00200002848
:10361000F2D1207800F0010000285CD0082E03D001
:103620000C2E0AD1032F08D18A48006800F400301C
:1036300088B3606878BB012017E700BF6068B0F509
:10364000803F06D18348006840F48030814908609B
:103650001AE06068B0F5A02F0BD17E48006840F4F6
:1036600080207C4908600846006840F4803008608B
:103670000AE07848006820F48030764908600846FF
:10368000006820F48020086000BF606890B1FEF7F9
:1036900033FF054607E01EE0FEF72EFF401B6428BF
:1036A00001D90320E1E66B48006800F400300028EF
:1036B000F2D010E0FEF720FF054606E0FEF71CFF03
:1036C000401B642801D90320CFE66248006800F45B
:1036D00000300028F2D1207800F00200022852D1F8
:1036E000042E03D00C2E14D1022F12D15948006899
:1036F00000F4806018B1E06808B90120B5E65548CB
:10370000406820F0F850217C40EA0160514948604F
:1037100039E0E06800B34F48006840F480704D49DC
:103720000860FEF7E9FE054606E0FEF7E5FE401BF1
:10373000022801D9032098E64648006800F480601A
:103740000028F2D04348406820F0F850217C40EA3D
:1037500001604049486016E03E48006820F48070EF
:103760003C490860FEF7C8FE054606E0FEF7C4FEC9
:10377000401B022801D9032077E63648006800F490
:1037800080600028F2D1207800F00800082836D1A7
:103790006069D0B12F489430006840F001002D4995
:1037A000C1F89400FEF7A8FE054606E0FEF7A4FE69
:1037B000401B022801D9032057E6264894300068B0
:1037C00000F002000028F1D019E02248943000688F
:1037D00020F001001F49C1F89400FEF78DFE054658
:1037E00006E0FEF789FE401B022801D903203CE6D3
:1037F00018489430006800F002000028F1D12078C9
:1038000000F00400042872D14FF000091148806DC7
:1038100000F0805078B900BF0E48806D40F08050B5
:103820000C4988650846806D00F08050009000BF0C
:1038300000BF4FF001090B48006800F4807000BB26
:103840000848006840F4807006490860FEF754FE9E
:10385000054610E000100240105800080C0000203F
:103860000400002000700040FEF746FE401B0228C6
:1038700001D90320F9E5D048006800F480700028E1
:10388000F2D000BFA068012808D1CC48006840F001
:103890000100CA499039C1F8900021E0A0680528CC
:1038A0000FD1C648006840F00400C4499039C1F8FF
:1038B00090000846D0F8900040F00100C1F8900058
:1038C0000EE0BE48006820F00100BC499039C1F804
:1038D00090000846D0F8900020F00400C1F8900055
:1038E00000BFA068A0B1FEF707FE054609E02EE084
:1038F000FEF702FE401B41F28831884201D90320C5
:10390000B3E5AE48006800F002000028F0D012E0F5
:10391000FEF7F2FD054608E0FEF7EEFD401B41F222
:103920008831884201D903209FE5A448006800F04F
:1039300002000028F0D1B9F1010F07D19F4890385B
:10394000806D20F080509D499039886500BF2078B7
:1039500000F02000202838D1606AD8B1974808309C
:10396000006840F0010095499039C1F89800FEF7D1
:10397000C3FD054606E0FEF7BFFD401B022801D946
:10398000032072E58D480830006800F0020000282E
:10399000F1D01AE089480830006820F0010087491A
:1039A0009039C1F89800FEF7A7FD054606E0FEF73E
:1039B000A3FD401B022801D9032056E57F480830AB
:1039C000006800F002000028F1D1A06A00287DD034
:1039D000A06A02287BD179489038C76807F00301B4
:1039E000E06A814225D107F07001206B401EB1EBE7
:1039F000001F1ED107F4FE41606BB1EB002F18D100
:103A000007F078413820005DB1EBC06F11D107F4A9
:103A1000C001A08F0122C2EB5000B1EB405F08D182
:103A200007F0C0614020005DC2EB5000B1EB406F79
:103A300066D00C2E62D061489038006800F080603B
:103A400008B1012011E55D489038006820F08070D1
:103A50005A4990390860FEF74FFD054606E0FEF72B
:103A60004BFD401B022801D90320FEE45348903847
:103A7000006800F000700028F1D1D4E90B10401E5E
:103A800041EA0011606B41EA0021A08F0122C2EBE4
:103A9000500041EA40514020005DC2EB500041EA35
:103AA00040613820005D41EAC06044499039C968EE
:103AB000434A1140084341499039C86008460068AC
:103AC00040F0807008600846C06801E05BE03DE0BF
:103AD00040F08070C860FEF70FFD054606E0FEF777
:103AE0000BFD401B022801D90320BEE43348903867
:103AF000006800F000700028F1D05AE00120B4E422
:103B00002E489038006800F00070E0BB2B489038D9
:103B1000006840F080702949903908600846C06804
:103B200040F08070C860FEF7E7FC054606E0FEF74F
:103B3000E3FC401B022801D9032096E41F4890387B
:103B4000006800F000700028F1D032E00C2E2ED07A
:103B50001A489038006820F0807018499039086041
:103B60000846006800F0006020B90846C06820F0F0
:103B70000300C86011489038C068124908400F49D6
:103B80009039C86000E014E0FEF7B6FC054606E098
:103B9000FEF7B2FC401B022801D9032065E4074868
:103BA0009038006800F000700028F1D101E0012099
:103BB0005BE4002059E400000070004090100240D7
:103BC0008C809D01FFFFEEFE70B504460CB901200C
:103BD00070BD606A00B900BF0021A16294F85D0069
:103BE00028B9002084F85C00204600F04DF802203F
:103BF00084F85D002068006820F0400021680860BB
:103C0000E068B0F5E06F01D9002501E04FF4805580
:103C1000E068B0F5706F05D0E068B0F5E06F01D0F6
:103C20000021A162206B40B9E068B0F5E06F02D9D5
:103C30000221216301E001212163D4E9010108434C
:103C40002169084361690843218B01F4007108432D
:103C5000E1690843216A0843A16A084321680860B2
:103C60000421A06901EA1040616A0843616B0843BE
:103C7000E16808432843216848600020206601204D
:103C800084F85D000020A3E710B586B00446142137
:103C900001A8FCF7A0FA2A49206888424DD100BF4C
:103CA0002848806D40F48040264988650846806D2C
:103CB00000F48040009000BF00BF00BF0846C06C09
:103CC00040F00200C8640846C06C00F0020000909A
:103CD00000BF00BF00BF0846C06C40F00400C864CD
:103CE0000846C06C00F00400009000BF00BF4FF415
:103CF0006040019002200290002003900320049075
:103D00000520059001A91048FEF704FB4FF48050F0
:103D100001900120029003900320049001A90A4819
:103D2000FEF7F8FA80200190012002900390032012
:103D3000049001A90548FEF7EDFA06B010BD000099
:103D4000003800400010024000040048000800480D
:103D50002DE9FF5F0446894692461D460E9E0120CE
:103D600001900020009000BF94F85C00012803D16E
:103D7000022004B000F04AB9012084F85C0000BFC2
:103D8000FEF7BAFB074694F85D0002906068039066
:103D9000A846AB46029801280BD00398B0F5827F65
:103DA00004D1A06810B90298042802D00220009023
:103DB00022E1B9F1000F03D0BAF1000F00D015B91C
:103DC0000120009018E194F85D00042802D005203D
:103DD00084F85D0000202066C4F840A0A4F8465096
:103DE000A4F84450C4F83890E587A587E0642065BE
:103DF000E068B0F5E06F02D8BBF1010F06D920688A
:103E0000406820F480502168486005E020684068E0
:103E100040F48050216848602068006800F040004D
:103E2000402805D02068006840F040002168086004
:103E3000E068B0F5E06F4ED9606810B1B8F1010FDD
:103E400009D1A06B00882168C860A06B801CA063AA
:103E5000E08F401EE08736E02068806800F00200B6
:103E6000022810D1E08F70B1019801280BD1A06B0E
:103E700000882168C860A06B801CA063E08F401E92
:103E8000E087002001902068806800F0010080B188
:103E9000B4F8460068B12068C068216C0880206CC6
:103EA000801C2064B4F84600401EA4F8460001209F
:103EB0000190FEF721FBC01BB04204D3701C10B16F
:103EC0000320009098E0E08F0028C5D1B4F84600A8
:103ED0000028C1D185E0606810B1B8F1010F17D199
:103EE000E08F01280AD9A06B00882168C860A06B08
:103EF000801CA063E08F801EE08709E0A06B007843
:103F000021680873A06B401CA063E08F401EE0870F
:103F100060E02068806800F0020002281ED1E08F77
:103F2000E0B10198012819D1E08F01280AD9A06BCE
:103F300000882168C860A06B801CA063E08F801E91
:103F4000E08709E0A06B007821680873A06B401C33
:103F5000A063E08F401EE087002001902068806809
:103F600000F0010058B3B4F8460040B3B4F846007E
:103F7000012816D92068C068216C0880206C801C3C
:103F80002064B4F84600801EA4F84600B4F8460049
:103F9000012812D82068406840F4805021684860A9
:103FA0000BE02068007B216C0870206C401C2064B2
:103FB000B4F84600401EA4F8460001200190FEF728
:103FC0009BFAC01BB04201D3701C00B916B9032084
:103FD000009011E0E08F00289BD1B4F84600002843
:103FE00097D13A463146204600F09EFC18B1012098
:103FF00000902020206600BF012084F85D0000BFF3
:10400000002084F85C0000BF0098B2E630BCBDE838
:10401000C09F042808D14FF0E021096941F0040154
:104020004FF0E022116107E04FF0E021096921F033
:1040300004014FF0E0221161704770B50446254637
:10404000681EB0F1807F01D301200FE0681E4FF0A1
:10405000E02148610F214FF0FF3000F0F1FD00201A
:104060004FF0E021886107200861002070BD00BF8B
:10407000FEE70000FEB504460D46164600274FF445
:104080007A7001232A46A021CDE900460290034818
:10409000FEF7C8FB07463846FEBD00009801002029
:1040A000FEB504460D460026642001210B462A4633
:1040B000CDE900410290A0210D48FEF787FC06469D
:1040C00000BF0B48FEF787FA2028FAD100BF4FF453
:1040D00096731A46A0210648FEF7E4FA0328F6D0A4
:1040E00000BF0348FEF777FA2028FAD13046FEBD1C
:1040F0009801002001688969C1F3400111B10021D4
:10410000026891620168896901F0010129B90168B9
:10411000896941F0010102689161704770B50446F8
:104120000D46164620688069C0F3001000283DD077
:1041300017E0681CA8B1FEF7DFF9801BA84200D881
:104140007DB9606C40F020006064202084F841005C
:10415000002084F8420000BF84F8400000BF012026
:1041600070BD20688069C0F340100028E1D01020A5
:104170002168C86120202168C8612046FFF7BAFF86
:10418000206840680A49084021684860606C40F037
:1041900004006064202084F84100002084F842007C
:1041A00000BF84F8400000BF0120D9E70020D7E716
:1041B00000E800FE2DE9F8430446894615461E46F0
:1041C000DDE908781948F2B20023494600902046FC
:1041D00000F06CF842463946204600F0DBF810B19A
:1041E0000120BDE8F883012E03D1E8B2216888627E
:1041F0000EE0C5F307202168886242463946204612
:1042000000F0C8F808B10120EBE7E8B22168886245
:104210003B46002240212046CDF8008000F060F8A7
:1042200008B10120DDE70020DBE70000002000806E
:104230002DE9F8430446894615461E46DDE908780F
:104240001948F2B2C30249460090204600F02EF809
:1042500042463946204600F09DF810B10120BDE8E5
:10426000F883012E03D1E8B2216888620EE0C5F31D
:1042700007202168886242463946204600F08AF8C5
:1042800008B10120EBE7E8B2216888623B460022D2
:1042900080212046CDF8008000F022F808B10120EE
:1042A000DDE70020DBE7000000200080F0B5059C82
:1042B00005686D684FF4806606EA545666F0FC2681
:1042C00046F4C046B543C1F309064FF47F0707EA39
:1042D00002473E431E432643354306687560F0BDE2
:1042E0002DE9F04104460E4617461D46DDF81880BC
:1042F00019E0681CB8B1FEF7FFF8A0EB0800A8426F
:1043000000D885B9606C40F020006064202084F8FB
:104310004100002084F8420000BF84F8400000BF44
:104320000120BDE8F081206880693040B04201D1B1
:10433000012000E00020B842DBD00020F1E770B59A
:1043400004460D4616461DE0324629462046FFF734
:10435000E5FE08B1012070BDFEF7CEF8801BA84233
:1043600000D87DB9606C40F020006064202084F8A3
:104370004100002084F8420000BF84F8400000BFE4
:104380000120E8E720688069C0F340100028DBD0F6
:104390000020E0E770B504460D4616461FE03246A1
:1043A00029462046FFF7BAFE08B1012070BD681CFF
:1043B000A8B1FEF7A1F8801BA84200D87DB9606CB7
:1043C00040F020006064202084F84100002084F840
:1043D000420000BF84F8400000BF0120E6E72068EB
:1043E0008069C0F340000028D9D00020DEE700003B
:1043F00070B50446002500224FF480510C48FEF7AA
:1044000075F8C4F3074000F061FAC4F3072000F028
:104410005DFA04F0F80000F059FA002000F056FAB6
:104420000546012211030248FEF760F8284670BDD8
:104430000004004870B50446002500224FF4805166
:104440000C48FEF753F8C4F3074000F03FFAC4F3FA
:10445000072000F03BFA04F0F80000F037FA0020E3
:1044600000F034FA0546012211030248FEF73EF837
:10447000284670BD0004004870B504460D46002271
:104480004FF480510C48FEF731F8C4F3074000F0B8
:104490001DFAC4F3072000F019FA04F0F801091D11
:1044A000C8B200F013FA284600F010FA01221103F6
:1044B0000148FEF71BF870BD000400488168024AFD
:1044C0001140491C81607047C0FFFF7F024602F126
:1044D000600000EB8103186800F0F8407047014667
:1044E0008868C0F3C000704701468868C0F3400088
:1044F00070470146886800F00100704701468868EF
:10450000C0F30070704701468868C0F380007047B0
:104510000146C86800F4406008B9012070470020D7
:10452000FCE700008168024A1140091D8160704764
:10453000C0FFFF7F70B500F11404C1F3406504EBC8
:1045400085031C68C1F304560725B540AC43C1F38D
:10455000045502FA05F52C431C6070BD826822F0F8
:10456000E0720A438260704710B500F1600404EB0A
:1045700081031C6824F0004414431C6010BD00BF7C
:10458000FEE7704710B5044644B10122D103084844
:10459000FDF7ACFF01200749087008E000224FF446
:1045A00000410348FDF7A2FF00200249087010BD3A
:1045B000000800484300002000B587B0142102A87D
:1045C000FBF709FE00BF1348C06C40F0040011491E
:1045D000C8640846C06C00F00400019000BF00BF32
:1045E0004FF420400290012003900020049002200C
:1045F000059002A90848FDF78DFE00224FF4004106
:104600000548FDF773FF012251030348FDF76EFFD4
:1046100007B000BD001002400008004870470000CD
:104620002DE9F04104460F4600255B48C06800F0C4
:10463000030090B15848C06800F003002168884228
:1046400009D1206838B15448C068C0F30210401C3A
:104650006168884233D0012531E02068012804D008
:10466000022809D003281AD10DE04B48006800F059
:10467000020000B9012514E04748006800F480609A
:1046800000B901250DE04448006800F4003028B965
:104690004148006800F4802000B9012501E00125AF
:1046A00000BF00BF5DB9D4E90010401E41EA001010
:1046B0003949C96821F0730108433749C860002DA2
:1046C00067D13548006820F0806033490860FDF705
:1046D00013FF064606E0FDF70FFF801B022801D9F5
:1046E000032505E02C48006800F000600028F2D1A6
:1046F00000BFC5BB67B9A0680002217B40EAC1606A
:1047000025490969254A114008432349086120E0E9
:10471000012F0FD1A0680002218A0122C2EB5101B2
:1047200040EA41501C4909691D4A114008431A4991
:1047300008610EE0A0680002217D0122C2EB510158
:1047400040EA416014490969164A11400843124978
:1047500008611148006840F080600F490860FDF76B
:10476000CBFE064607E014E0FDF7C6FE801B0228DC
:1047700001D9032505E00848006800F00060002822
:10478000F2D000BF2DB904480069A169084302496D
:1047900008612846BDE8F08100100240FF80FF0755
:1047A000FF809FFFFF80FFF9F8B5044600262348ED
:1047B000806D00F0805018B1FEF726FB054616E02C
:1047C00000BF1E48806D40F080501C498865084637
:1047D000806D00F08050009000BF00BFFEF714FB1A
:1047E00005461648806D20F0805014498865B5F55F
:1047F000007F07D1802C10D9A02C01D902260CE013
:1048000001260AE0802C01D9032606E0802C01D184
:10481000022602E0702C00D101260948006820F031
:1048200007003043064908600846006800F00700AA
:10483000B04201D00120F8BD0020FCE7001002408A
:104840000020024010B51748174908604FF48270E5
:1048500048600021144881604FF4E061C16002218A
:10486000016101214161490281611021C161002181
:104870000162416281620721C16200210163082156
:104880004163FFF7A1F918B11D2108A000F0CEF98E
:1048900005480068006840F0400003490968086066
:1048A00010BD000000380040E40100202E2E5C55B1
:1048B0007365725C6273705C6273705F7370695C65
:1048C0006273705F7370692E63000000FEB504466A
:1048D0000025002002900190002602940848012340
:1048E00001AA02A900900748FFF732FA05461DB158
:1048F0009E2105A000F09AF99DF804603046FEBDA7
:1049000040420F00E40100202E2E5C557365725C5E
:104910006273705C6273705F7370695C6273705F06
:104920007370692E63000000F8B504460E46154604
:10493000334600224FF4C0512046009500F026F87F
:1049400028B1206E40F0200020660320F8BD3346D9
:10495000002280212046009500F06DF828B1206EDD
:1049600040F0200020660320F0E7334600224FF499
:10497000C0612046009500F009F828B1206E40F093
:10498000200020660320E1E70020DFE72DE9F04169
:1049900004460E4617461D46DDF8188044E0B6F57D
:1049A000C06F02D10FB92068007B681CD8B3FDF737
:1049B000A3FDA0EB0800A84200D2A5BB2068406878
:1049C00020F0E000216848606068B0F5827F0DD17A
:1049D000A068B0F5004F03D0A068B0F5806F05D196
:1049E0002068006820F0400021680860A06AB0F5E7
:1049F000005F0DD100BF2068006820F400502168DE
:104A000008602068006840F400502168086000BF1A
:104A1000012084F85D0000BF002084F85C0000BF26
:104A20000320BDE8F081FFE7206880683040B8428D
:104A3000B5D10020F5E72DE9F04104460E461746B2
:104A40001D46DDF818803EE0681CD8B3FDF754FD24
:104A5000A0EB0800A84200D2A5BB2068406820F067
:104A6000E000216848606068B0F5827F0DD1A068E1
:104A7000B0F5004F03D0A068B0F5806F05D1206875
:104A8000006820F0400021680860A06AB0F5005F6F
:104A90000DD100BF2068006820F400502168086034
:104AA0002068006840F400502168086000BF0120C1
:104AB00084F85D0000BF002084F85C0000BF032084
:104AC000BDE8F081FFE7206880683040B04201D146
:104AD000012000E00020B842B6D10020F0E7704786
:104AE00010B5FEF77DF810BD10B5AEB044211DA87D
:104AF000FBF771FB142118A8FBF76DFB60216846DA
:104B0000FBF769FB01201D904FF4A0201E900220AE
:104B1000279003211DA8C162012101631421416373
:104B2000072181630221C1630164FEF799FC18B17A
:104B3000852124A000F07AF80F2018900320199006
:104B400000201A901B901C90042118A8FEF74EFB21
:104B500018B192211BA000F069F844F240000090C7
:104B600000200C904FF080501590032001900121FF
:104B700002910821039107210491022105910691D8
:104B8000C90507916846FEF747F918B1A0210DA0A5
:104B900000F04CF84FF40070FEF7F0F818B1A621C1
:104BA00008A000F043F8FEF7DFFB4FF47A71B0FB8A
:104BB000F1F42046FFF741FA0420FFF72AFA2EB05D
:104BC00010BD00002E2E5C557365725C6273705CC4
:104BD0006273702E630000001048006840F470009B
:104BE0000E4908600E48006840F001000C4908605A
:104BF00000208860084600680A49084008490860A3
:104C00008814C8600846006820F4802008600020EE
:104C10008861C803014980390860704788ED00E069
:104C200000100240FFFFF6EA00BFFEE700BFFEE70C
:104C300002480068C0F30220704700000CED00E05D
:104C400010B5002804DB0A07130E054A135406E0CA
:104C50000A07140E034A00F00F031B1FD45410BDA3
:104C600000E400E018ED00E000B52DED048BB0EE9F
:104C7000409AF0EE609A83B051EC190BFBF73EFDC1
:104C800041EC180B18EE100A18EE901A8DED008BFF
:104C9000002818BF0120084320F00040C0F17F60C9
:104CA00000F1E040C00F14D019EE101A19EE900A6E
:104CB0008DED009B002918BF0121084320F0004022
:104CC000C0F17F6000F1E040C00F04BF012000F0A0
:104CD00017F8B0EE480A03B0F0EE680ABDEC048B9A
:104CE00000BD02E008C8121F08C1002AFAD17047AF
:104CF0007047002001E001C1121F002AFBD170475C
:104D00000149086070470000740000203CB54FF076
:104D1000E024A46901944FF0E0246469621C08B1A6
:104D2000012400E00024041B54434FF47A75B4FBC3
:104D3000F5F30021019C009400BF4FF0E024A4692A
:104D40000194DDE90045AC4204D2009C1444019D6D
:104D5000641B02E0DDE90045641B2144019C0094D2
:104D60008B42EAD83CBD000010B5B2B000246021EF
:104D70001AA8FBF730FA602102A8FBF72CFA0020F2
:104D800000F013F910B1222807D107E000234B48A7
:104D900002880221184600F0B9FB8CE0002000F0E8
:104DA000D1F800F0040018B10421002000F0E9FA65
:104DB00043480088401C4249088008460088B0F5F6
:104DC000C87F0DDB0020088002A800F0E5FA3D480E
:104DD00000883D4B1A2202A90090002000F028FA1A
:104DE000002000F0B8F8041E64DD3648364B224639
:104DF0001AA90090002000F047F99DF86800FF28EC
:104E000018D19DF8690031490978884211D19DF87F
:104E10006B009DF86A1000EB01202D490880FC21F1
:104E20000DF16A00FFF73CF9FD210DF16B00FFF772
:104E300037F93FE09DF86800264908709DF8690041
:104E4000012801D1FFF79EFB9DF8690010B90020F1
:104E5000FFF798FB9DF86A001F4908709DF86B00EA
:104E60001E4908709DF86C001D4908709DF86D0082
:104E70001C4908709DF86E001B4908709DF86F0072
:104E80001A4908709DF871009DF8701000EB012020
:104E9000174908809DF87200164908709DF8730044
:104EA000154908709DF875009DF8741000EB0120FD
:104EB0001249088000BF00BF32B010BD5C00002066
:104EC00036000020620000205E0000204400002028
:104ED0003A000020100000201100002013000020E4
:104EE00012000020140000201500002016000020F1
:104EF0001E0000201A0000201B0000201C000020C3
:104F000010B5044604222146900100F0F5FB10BDC7
:104F10000146024830F8110070470000620200208C
:104F200010B50446042221464FF4706000F0E4FB03
:104F300010BD10B50446042221464FF4A06000F0D5
:104F4000DBFB10BD10B504464FF4027101EB4410B9
:104F5000FFF74EFA10BD70B504460025002600BFCD
:104F600042F2086101EB4410FFF742FA064642F2B2
:104F7000087101EB4410FFF73BFA00EB062086B204
:104F80007EB142F2086101EB4410FFF731FA0546A9
:104F900042F2087101EB4410FFF72AFA00EB0520FA
:104FA00085B2B542DCD1284670BD10B504464FF439
:104FB000427101EB4410FFF73DFA10BD0024FDF7EC
:104FC0001BFEFFF791FDFBF71DFE0EE04FF448704E
:104FD000FFF79CFEFBF7BEFE601C84B2FFF7C4FE29
:104FE000C82C02DD0024FCF701FAEFE7094800783D
:104FF0001030094948710748007864300749C87083
:1050000004480078112804D103484079203002492F
:105010004871704744000020450000204B000020EC
:105020001CB50020009001900422FA216846FFF789
:1050300021F89DF80000114908709DF80100104901
:1050400008709DF802000F4908809DF80300097858
:1050500000EB01200B49088008460088B0F57A7FF4
:1050600002DA4FF47A70088006480088B0F57A5F5B
:1050700003DD4FF47A50034908801CBD380000203E
:10508000390000203A0000202DE9FC5F04468A46E2
:1050900091461E46DDF830800020009001900027E8
:1050A00000258346B9F1000F71DD42F6080101EBDE
:1050B0004410FFF79DF9054642F6081101EB441034
:1050C000FFF796F900EB052085B2280200EB4410AB
:1050D00000F1180B082101EB4410FFF789F900F0EB
:1050E0000700022841D108226946584600F0D8FA44
:1050F00005F1080085B29DF8000030709DF80100B0
:1051000070709DF80200B0709DF80300F0709DF87B
:105110000400A8F800009DF8050098F8001000EBC6
:105120000120A8F800009DF806709DF8070000EB2C
:10513000072087B2280200EB441000F1180B3A4612
:105140005146584600F0ACFAE81985B2290A42F6F1
:10515000080202EB4410FFF78FF9E9B242F6081299
:1051600002EB4410FFF788F900E000BF00BF4FF4E6
:10517000847101EB44104021FFF77EF900BF4FF42A
:10518000847101EB4410FFF733F90028F7D138465A
:1051900000F000B83CBCBDE8C09F000010B5002284
:1051A00080210748FDF7A2F93220FDF79FF8012280
:1051B00080210348FDF79AF96420FDF797F810BDA8
:1051C000000800482DE9F04104460F461646002528
:1051D000A8460EB9BDE8F08142F2084101EB441047
:1051E000FFF706F9054642F2085101EB4410FFF7BC
:1051F000FFF800EB052085B2280200EB441000F117
:10520000100832463946404600F0A2FAA81985B285
:10521000290A42F2084202EB4410FFF72DF9E9B2E5
:1052200042F2085202EB4410FFF726F900BFD1E723
:105230002DE9F0470446894616461D46089F4FF063
:1052400000082046FFF764FEB04204DA2046FFF76C
:105250005FFE804600E0B046287828B9687818B923
:10526000A87808B9E87800B117B94FF0000863E0F2
:10527000297840F6084202EB4410FFF7FDF8697800
:1052800040F6085202EB4410FFF7F6F8A97840F612
:10529000086202EB4410FFF7EFF8E97840F6087275
:1052A00002EB4410FFF7E8F8390A41F2080202EB7A
:1052B0004410FFF7E1F8F9B241F2081202EB441092
:1052C000FFF7DAF8424649462046FFF77BFF4FF4E6
:1052D000847101EB44102021FFF7CEF800BF4FF49A
:1052E000847101EB4410FFF783F80028F7D112E036
:1052F0004FF4027101EB4410FFF77AF800F0080058
:1053000048B14FF4027101EB44101821FFF7B4F8D3
:105310000020BDE8F0874FF4027101EB4410FFF765
:1053200067F800F010001028E2D14FF4027101EB91
:1053300044101021FFF7A0F84046EAE710B50446F4
:1053400004222146900100F033FA10BD10B5044646
:10535000062221464FF4106000F0FAF910BD10B596
:105360000446042221464FF4706000F021FA10BD7B
:1053700010B50446042221464FF4A06000F018FA4C
:1053800010BD70B504460D464FF4027101EB441098
:105390002946FFF771F870BD0021314A127802707A
:1053A0002F4A527842702F4A1288121282702D4A68
:1053B0001278C2702C4A1288121202712A4A12887C
:1053C000427100BF0FE0294A32F8112013124A003F
:1053D000921D8354254A32F81120D3B24A00D21DBF
:1053E00083544A1CD1B20629EDDB214A92ED000A12
:1053F000BCEEC00A10EE102A120A82741C4A92ED0A
:10540000000ABCEEC00A10EE102AC274194A92EDCE
:10541000000ABCEEC00A10EE102A120A0275154AE4
:1054200092ED000ABCEEC00A10EE102A4275124A34
:1054300092ED000ABCEEC00A10EE102A120A827524
:105440000D4A92ED000ABCEEC00A10EE102AC27599
:105450000A4A128812120276084A12784276704777
:1054600018000020200000204000002086000020BE
:1054700024000020280000202C0000203A000020FA
:1054800010B5154815490A68026089888180144959
:105490000968C0F8061013490968C0F80A101249D3
:1054A0000968C0F80E1011490968C0F812100A30D6
:1054B000FFF75EFF08480E30FFF740FF0648801DEB
:1054C000FFF74DFF0648FFF72BFD0648FFF731FDBC
:1054D0000548FFF715FD10BD4802002045000020DB
:1054E0004B0000204F0000205300002057000020F8
:1054F00010B5044804490A68026089888180FFF772
:1055000025FF10BD48020020450000202DE9F04194
:1055100004460D461646984605F00F0001280FD0A8
:1055200005F00F0002280BD005F00F00032807D06C
:1055300005F00F00042803D005F00F00052855D111
:105540004FF4847101EB44101021FEF795FF00BF6A
:105550004FF4847101EB4410FEF74AFF0028F7D1A5
:105560004FF4027101EB4410FF21FEF785FF45EA7D
:105570000801082202EB4410FEF77EFF76B1310AE3
:105580004FF4816202EB4410FEF776FFF1B24FF464
:10559000A16202EB4410FEF76FFF15E0154800888A
:1055A000401C144908800A461288110A4FF481628F
:1055B00002EB4410FEF760FF0E4A11784FF4A1622F
:1055C00002EB4410FEF758FF4FF4847101EB4410D6
:1055D0000121FEF751FF00BF4FF4847101EB44102D
:1055E000FEF706FF0028F7D1012700E00027384624
:1055F000BDE8F0815C0000202DE9F04105460E4633
:105600000027B846002433E0295D41F6087202EB1A
:105610004410FEF731FF315D41F6086202EB4410A1
:10562000FEF72AFF0020144921F81400134921F83D
:105630001400B7F5804F07DC285D4FF6FF7101EAD3
:1056400080200D4921F81400B8F5804F07DC305D4B
:105650004FF6FF7101EA8020084921F8140006483E
:1056600030F814000744054830F814008044641CE6
:10567000082CC9DBBDE8F081620200207202002024
:1056800010B5FFF7DFF810BD10B5FFF7AFFCFFF75F
:10569000F7FFFFF783FDFFF72BFFFFF7F1FE10BDCC
:1056A0002DE9F04104460F461546002600224FF42E
:1056B00080511048FCF71AFFC4F30740FFF706F9C2
:1056C000C4F30720FFF702F904F0F800FFF7FEF833
:1056D00000BF05E00020FFF7F9F8B855701C86B24E
:1056E000AE42F7DB012211030248FCF7FFFE284619
:1056F000BDE8F081000400482DE9F04104460F4662
:105700001546002600224FF480511048FCF7EEFEAB
:10571000C4F30740FFF7DAF8C4F30720FFF7D6F821
:1057200004F0F800FFF7D2F800BF05E00020FFF713
:10573000CDF8B855701C86B2AE42F7DB01221103DA
:105740000248FCF7D3FE2846BDE8F081000400487B
:105750002DE9F04104460F461546002600224FF47D
:1057600080511248FCF7C2FEC4F30740FFF7AEF8C1
:105770000646C4F30720FFF7A9F8064604F0F8012F
:10578000091DC8B2FFF7A2F80646002604E0B85D7E
:10579000FFF79CF8701C86B2AE42F8DB01221103C1
:1057A0000248FCF7A3FE2846BDE8F081000400484B
:1057B0002DE9F04104460F461546002600224FF41D
:1057C00080511248FCF792FEC4F30740FFF77EF8C1
:1057D0000646C4F30720FFF779F8064604F0F801FF
:1057E000091DC8B2FFF772F80646002604E0B85D4E
:1057F000FFF76CF8701C86B2AE42F8DB0122110391
:105800000248FCF773FE2846BDE8F081000400481A
:105810000000000000000000010203040607080960
:105820000000000001020304A0860100400D0300F7
:10583000801A060000350C0040420F0080841E00D4
:1058400000093D0000127A000024F40000366E01C9
:105850000048E801006CDC027858000800000020D5
:1058600078000000E24C0008F058000878000020A2
:1058700010060000F24C00080000000010000000BC
:105880000100000000093D000000000000000000D1
:105890000000B9327805BC020000000000000000E2
:1058A000000000000000803F000000000000000039
:1058B000000000000000000000000000010008DC03
:1058C000111111C0A80165FFFFFF00C0A8010172FE
:1058D000727272008813C0A8016488130202020267
:1058E00002020202020202020202020200000000A0
:040000050800018D61
:00000001FF
